:10000000020BDAE5602454F8E605602278513007E7
:10001000027854E475F0011208E702088F2000EB23
:100020007F2ED2008018EF540F2490D43440D4FF98
:1000300030040BEF24BFB41A0050032461FFE561C4
:10004000600215610564E5647002056330070D7890
:1000500051E475F0011208E7EF0208D5020B29748C
:1000600003D2078003E4C207F5608B518A5289539B
:10007000E4F561F563F564E56160077F2012003EF9
:1000800080F57562FFC201C200C202C203C205C28E
:1000900006C20812000CFF700D3007057F00120029
:1000A0004FAF64AE6322B4255FC2D5C20412000C08
:1000B000FF24D0B40A00501A75F00A786130D505D3
:1000C00008B6FF0106C6A426F620D5047002D203A6
:1000D00080D924CFB41A00EF5004C2E5D204020242
:1000E0004FD20180C6D20080C0D20280BCD2D5805F
:1000F000BAD20580B47F2012003E2002077401B5F9
:10010000610040F1120003FF12003E020077D208A6
:10011000D2068095120003FB120003FA120003F9C5
:100120004A4B700679207A037BFF20022EE561603E
:100130002A7E008E827583001208A860060EEE6586
:100140006270F0C2D5EBC0E0EAC0E0E9C0E0EE12B8
:100150000296D0E0F9D0E0FAD0E0FB12088FFF6001
:10016000AAEBC0E0EAC0E0E9C0E012003ED0E02423
:1001700001F9D0E03400FAD0E0FBE5620460DCD5A0
:1001800062D980877BFF7A027992D202809C7910B3
:1001900080027908C206C2088008D2D5790A800494
:1001A000790AC2D5E562047002F562E4FAFDFEFF49
:1001B000120003FC7B08200113120003FD7B1030AA
:1001C000000A120003FE120003FF7B20EC3382D5ED
:1001D00092D55013C3E43000069FFFE49EFEE42056
:1001E00001039DFDE49CFCE4CBF8C201EC700CCF54
:1001F000CECDCCE824F8F870F38017C3EF33FFEED0
:1002000033FEED33FDEC33FCEB33FB994002FB0F87
:10021000D8E9EB300105F8D0E0C448B201C0E00AEB
:10022000EC4D4E4F78207B0070C2EAB5620040BCB6
:10023000C0E0120298D0F0D0E0200104C4C0E0C4B5
:10024000B201C0F0120027D0F0D5F0EB0200771217
:1002500008F7011453018E5800E54C00E142019269
:100260004F019A44019A4900FA4301A0550184467E
:1002700001844501844703405000E92D00ED2E0123
:10028000102B00F123010E2003292A00A9480000A9
:1002900001083F3F3F00790AA2D520031430050929
:1002A000B910020404B9080104A2D52006025001C5
:1002B000042002689202B561005034C0E07F203013
:1002C00003197F30A20272067205500F1202EFC2AC
:1002D00002C206C205C2087F30800F300503E9C0A4
:1002E000E012003E300503D0E0F9D0E0B561CC303B
:1002F00005177F30B9100C12003E7F583004077F7D
:10030000788003B9080312003E3002057F2D0200F9
:100310003E7F202008F87F2B2006F322920280CF18
:10032000286E756C6C2900D2011200033001F8C2EE
:1003300001786130D50108F60200A92D50434958D3
:100340001200032403B405004001E490033B931220
:10035000002F743A12002FD20375610402018EC27D
:10036000947FFA120B997FFA120B99D294120BC94F
:100370007BFF7A09792A1200657BFF7A09793112AD
:100380000065E4FD7F60120A4C8F48120B76E5236E
:10039000C3940250077F64120B9980E67FC8120B4A
:1003A00099C294E4F5487F64120B997BFF7A09792E
:1003B00037120065E4FD7F71120A4CEF60090548B1
:1003C000E548C3940540DF7BFF7A09794012006558
:1003D00078227C007D007BFF7A0979467E007F20B1
:1003E00012075C7D207F64120A4C8F48E54864B395
:1003F0006009E548644260030204A97BFF7A097939
:1004000056120065E4F54978227C007D007BFF7A76
:100410000979647E007F2012075CE4F54874222588
:1004200048F8E660070548E548B41FF174222548FE
:10043000F8A649E54804FD7F63120A4C8F48E54859
:1004400064426031E5486003B4431A75540085493D
:10045000557556007557007558227BFF7A097967E4
:100460001200658007AF48120B7680090549E549FF
:10047000C394FF409278007C007D017BFF7A09796C
:100480007F120872E4F54EF54DF54CF54B7B017A81
:10049000007900120BB48E4F8F50E55024FFE54FCA
:1004A0003401C313F54A0205A0AF48120B767BFF57
:1004B0007A0979DC120065E4FD7F68120A4C8F48E6
:1004C000120B767BFF7A0979E3120065AF25AE2423
:1004D000AD23AC228F4E8E4D8D4C8C4B7F007E8099
:1004E0007DFF7CFFAB4EAA4DA94CA84BD3120782CF
:1004F000400B754A40754F80755000801FE54E24B3
:10050000FFFFE54D3401FEE4354CFDE4354BFC784E
:10051000091207938F4A854D4F854E507BFF7A090C
:1005200079E9854E57854D56854C55854B54854FF9
:1005300058855059755A00854A5B120065854A22D4
:100540007546007547007D017F6B120A4C8F48127B
:100550000B767BFF7A0A7903120065120A458F48F1
:10056000120B76E4FFFEC3EF9550EE954F503174B9
:10057000002FF58274003EF583E0F549C394614095
:1005800018E549D3947A5011E54924E0FD74002F11
:10059000F58274003EF583EDF00FBF00010E80C6BA
:1005A0007BFF7A0A790A12006578227C007D007B45
:1005B000FF7A0A79127E007F2012075C7D207F651A
:1005C000120A4C8F48120B767BFF7A0A79201200B0
:1005D000657522017546007547007D017F6C120A22
:1005E0004C8F48120B76E54AD394014011E54A142A
:1005F000F5227D017F6C120A4C8F48120B767BFF2F
:100600007A0A7927120065752AFF74FFF528F52903
:100610007526307527B2AE4FE48550258E24F5231C
:10062000F5227D097F69120A4C8F48120B767BFFF9
:100630007A0A7903120065120A458F48120B767BFD
:10064000FF7A0A792F12006578227C007D007BFFFB
:100650007A0A79367E007F2012075C7D207F661241
:100660000A4C8F487BFF7A0A793B120065E4FD7FD4
:1006700060120A4C8F48120B76E523D39401400791
:100680007F64120B9980E6D294020379E709F60899
:10069000DFFA8046E709F208DFFA803E88828C8321
:1006A000E709F0A3DFFA8032E309F608DFFA807881
:1006B000E309F208DFFA807088828C83E309F0A3F3
:1006C000DFFA806489828A83E0A3F608DFFA805823
:1006D00089828A83E0A3F208DFFA804C80D280FA14
:1006E00080C680D4806980F28033801080A680EA42
:1006F000809A80A880DA80E280CA803389828A83E7
:10070000ECFAE493A3C8C582C8CCC583CCF0A3C8D7
:10071000C582C8CCC583CCDFE9DEE7800D89828A3B
:1007200083E493A3F608DFF9ECFAA9F0EDFB228944
:10073000828A83ECFAE0A3C8C582C8CCC583CCF01A
:10074000A3C8C582C8CCC583CCDFEADEE880DB89DC
:10075000828A83E493A3F208DFF980CC88F0EF600B
:10076000010E4E60C388F0ED2402B4040050B9F5C8
:1007700082EB2402B4040050AF2323458223900669
:10078000DC73EB9FF5F0EA9E42F0E99D42F0E89CB5
:1007900045F022E8600FECC313FCED13FDEE13FEF1
:1007A000EF13FFD8F122E709F60870FA8046E7094F
:1007B000F20870FA803E88828C83E709F0A370FA11
:1007C000807EE309F60870FA8076E309F20870FA91
:1007D000806E88828C83E309F0A370FA806289823C
:1007E0008A83E0A3F60870FA805689828A83E0A3A0
:1007F000F20870FA804A80D280FA80C680D4806580
:1008000080F28031801080A680EA809A80A880DA09
:1008100080E280CA803189828A83ECFAE493A3C89B
:10082000C582C8CCC583CCF0A3C8C582C8CCC5835B
:10083000CC70E9800D89828A83E493A3F60870F96D
:10084000ECFAA9F0EDFB2289828A83ECFAE0A3C8D6
:10085000C582C8CCC583CCF0A3C8C582C8CCC5832B
:10086000CC70EA80DD89828A83E493A3F20870F970
:1008700080CE88F0ED2402B4040050C4F582EB244D
:1008800002B4040050BA23234582239007F673BBB9
:10089000010689828A83E0225002E722BBFE02E33E
:1008A0002289828A83E49322BB010CE58229F582A6
:1008B000E5833AF583E0225006E92582F8E622BB7B
:1008C000FE06E92582F8E222E58229F582E5833AEF
:1008D000F583E49322BB010689828A83F0225002C9
:1008E000F722BBFE01F322FAE6FB0808E6F925F041
:1008F000F618E6CA3AF622D083D082F8E493701252
:10090000740193700DA3A393F8740193F582888307
:10091000E4737402936860EFA3A3A380DF4572724F
:100920006F723A20253032580A0053746172740A8B
:1009300000576169740A005265616479203F0A00BA
:100940004F70656E0A005C4335315C434833373580
:100950004846542E43004C6973742066696C6520C8
:100960005C2A0A005C2A0020206D6174636820669E
:10097000696C652025303364233A2025730A004EC4
:100980006F74653A200AD4ADB1BECAC7B4F2CBE3E6
:10099000BDAB2F4335312F43483337354846542EAE
:1009A00043CEC4BCFED6D0B5C4D0A1D0B4D7D6C433
:1009B000B8D7AAB3C9B4F3D0B4BAF3D0B4C8EBD0A3
:1009C000C2B5C4CEC4BCFE2CB5ABCAC7D5D2B2BB6F
:1009D000B5BDD5E2B8F6CEC4BCFE0A00517565724D
:1009E000790A00526561640A0053697A653D256C95
:1009F000642C204C656E3D25642C205365633D2599
:100A0000640A00436C6F73650A0043726561746524
:100A10000A005CCBABBBF7CED2B0C92E5458540001
:100A200057726974650A004D6F646966790A0045FA
:100A3000726173650A005C4F4C440054616B655FE2
:100A40006F75740A00E4F5227D017F67CAEDCAC2A2
:100A500093120B50CFEACF120B50EA6012E4FCEC79
:100A60006A600C74222CF8E6FF120B500C80F0D256
:100A70009320B2FDC2937FFF120B50CBEFCBEB70F4
:100A800020FF120B50CCEFCCEC6011E4FAE4FF1223
:100A90000B5074222AF8C6EFC60ADCF1D293020B7F
:100AA00025BB1D1B7C40E4FF120B50854683854708
:100AB00082EFF00547E54770020546DCE98061BB3F
:100AC0001E197C40854782854683E0FF120B500546
:100AD00047E54770020546DCEB8045EB64EE702F7E
:100AE000FF120B50CCEFCCE4FF120B50CBEFCBEC52
:100AF000FEEB7583002400FFE5833EFEC3E49FFF09
:100B0000E49EFEEF2547F547EE3546F5468011D2C7
:100B100093EB64826003BB150C7F64120B99800514
:100B2000D293020A71CFEBCF22EFB40A07740D12F1
:100B30000B34740A309811A899B8130CC2983098E5
:100B4000FDA899C298B811F63099FDC299F599227D
:100B5000E4FEC2927D08EF30E704D2908002C2909A
:100B6000EE25E0FE3091010ED292EF25E0FFC29219
:100B7000DDE4CFEECF22EF601F7BFF7A09791D7590
:100B800054008F55120065E4FDED1392947F6412BA
:100B90000B99CD6401CD80F122EF60177EC87403FC
:100BA0002551F551DEF87EC874032551F551DEF864
:100BB0001F80E622E4FFFE12088F600C0FEF700129
:100BC0000E09E970F20A80EF2275985075878075DA
:100BD0008920758DF3D28ED29922787FE4F6D8FDE4
:060BE00075816402035F51
:00000001FF
