:100000000202B4C2947F641203ED7F641203EDD246
:1000100094759850758780758920758DE6D28E7895
:100020000E763C7D017FA5120340AC0712041D75BE
:100030008DF37F051203ED780E76017D017FA61208
:100040000340AC0712041D780E76027D017F151265
:100050000340AC0712041D3098071204398F088042
:1000600012E50D6007F508E4F50D80077F0A12031D
:10007000ED80E4E50864027042FD7F28120340AC85
:100080000712041DE50D70CFE4FC780EE6FFECC30B
:100090009F5010740F2CF8E6F4FF740F2CF8A6078D
:1000A0000C80E7780EE6F6E604FD7F2B120340ACE9
:1000B0000712041D780EE6709E8006E508640A802B
:1000C00096780E76067D017F15120340AC07120468
:1000D0001D30980A120439AC07EC641560077F6480
:1000E0001203ED80EC7FC81203EDC294E4F5087FA3
:1000F000641203EDE4FD7F71120340AC07EC60096C
:100100000508E508C3940540E67509FF750A0375FF
:100110000BB4780E7C007D00AB09AA0AA90B120271
:100120007E7D417F64120340AC07BC4215780E7C93
:10013000007D00AB09AA0AA90B12027E7D417F65F2
:100140008012AF0412041D780E120199FFFFFFFF09
:100150007D047F7A120340AC0712041D780F7C00E7
:100160007D007BFF7A0379C012027E7B007A0079E2
:100170000F120408AD07780EA605EF04FD7F7C1270
:100180000340AC0712041D780E76017D017F6712D3
:10019000034012041DD29480FED083D082E493F6F3
:1001A00008740193F608740293F608740393F674C6
:1001B0000473E709F60870FA8046E709F20870FA56
:1001C000803E88828C83E709F0A370FA807EE30981
:1001D000F60870FA8076E309F20870FA806E888279
:1001E0008C83E309F0A370FA806289828A83E0A39A
:1001F000F60870FA805689828A83E0A3F20870FAC2
:10020000804A80D280FA80C680D4806580F28031B6
:10021000801080A680EA809A80A880DA80E280CA76
:10022000803189828A83ECFAE493A3C8C582C8CC62
:10023000C583CCF0A3C8C582C8CCC583CC70E98087
:100240000D89828A83E493A3F60870F9ECFAA9F089
:10025000EDFB2289828A83ECFAE0A3C8C582C8CC70
:10026000C583CCF0A3C8C582C8CCC583CC70EA8056
:10027000DD89828A83E493A3F20870F980CE88F046
:10028000ED2402B4040050C4F582EB2402B404004F
:1002900050BA232345822390020273BB0106898250
:1002A0008A83E0225002E722BBFE02E32289828A8F
:1002B00083E49322787FE4F6D8FD75814E0202FB39
:1002C000020003E493A3F8E493A34003F68001F251
:1002D00008DFF48029E493A3F85407240CC8C3333F
:1002E000C4540F4420C8834004F456800146F6DF0E
:1002F000E4800B0102040810204080900441E47E59
:10030000019360BCA3FF543F30E509541FFEE49302
:10031000A360010ECF54C025E060A840B8E493A3C9
:10032000FAE493A3F8E493A3C8C582C8CAC583CAF4
:10033000F0A3C8C582C8CAC583CADFE9DEE780BEAC
:10034000AE05AD077F571204317FAB1204313098F0
:100350000385990DC298AF05120431AF061204311E
:10036000EE6012E4FCEC6E600C740E2CF8E6FF12EA
:1003700004310C80F0120439AD07ED701812043905
:10038000AC07EC602CE4FE120439740E2EF8A607BC
:100390000EDCF4801CED641D6017ED641E6012ED30
:1003A00064EE600DED64826003BD15057F64120389
:1003B000EDAF05222F4D595F4144432E5458540050
:1003C000D6BBCAC7D1DDCABED2BBCFC2555342D6F7
:1003D000F7BBFABACD555342C9E8B1B8C4A3CABDF8
:1003E000C7D0BBBBB5C4B9A6C4DC0D0A00EF60170B
:1003F0007EC87403250CF50CDEF87EC87403250C4A
:10040000F50CDEF81F80E622E4FFFE12029B600C72
:100410000FEF70010E09E970F20A80EF22EF601011
:10042000E4FDED1392947F641203ED63050180F205
:1004300022C2998F993099FD223098FDAF99C298C8
:0504400022010D000087
:00000001FF
