:102500004572726F723A20253032580A0053746156
:1025100072740A005761697420556469736B0A000C
:102520005265616479203F0A00546F6F206C6172BC
:10253000676520736563746F722073697A650A003A
:102540005C4335315C41415CB3A4CEC4BCFEC3FBEB
:102550002E5458540043726561746564204C6F6E4C
:1025600067204E616D65204F4B21210A0045727234
:102570006F7220436F64653A20253032580A004755
:102580006574206C6F6E67204E616D65230A004C88
:102590006F6E674E616D654275663A200025303278
:1025A0005820000A0054616B65206F75740A005E44
:1025B000FA7ACB957F65874EF6540DFF0C8F9351B9
:1025C000654E244E2A53C26570FF1A002000310068
:1025D0002E91C7752800280075006E006900630001
:1025E0006F00640065002059277AEF0029FF0C5B1B
:1025F000577B264E32672B5C3E75284E244E2A00B0
:10260000308868793A7ED3675F003B0032002E0045
:1026100041004E005300497F16780177ED65874EE3
:0B262000F6540D002E0054005800542A
:0B34D4007876761008760012210B229B
:0B34DF0078767610087600121A95220D
:1032AB0020B2FD90BDF17422F0534B80E54B6003CF
:1032BB00E4F54B90BCF0E0F54BE54BB41604753FD1
:0B32CB000122E54BB41503753F022201
:0534FB007F96DFFE22B8
:053500007FFADFFE224E
:0135080022A0
:01350900229F
:01350A00229E
:10334600E581D394F040037FFC22753C05123505D8
:10335600EFC3943550037FFF22754900754A00126A
:033366002F1722FC
:0F349D007FC87EC874032553F553DEF8DFF42291
:103479008D828C83A807E4FFE493F6600508A30F07
:0334890080F622A8
:10338B00EF601A7BFF7A2579007556008F57120C68
:0E339B00BBC29412349DD29412349D80F42251
:10348C00759850758780758920758DF3D28ED29979
:01349C00220D
:103279008B698A6A896BE4FFFEEFC313FDEF30E0C7
:10328900047C8080027C00ED2CFFAB69056BE56B4B
:10329900AA6A7002056A14F912097E2FFF0EBE0B85
:0232A900D82229
:102BF600E4F569FBFAEB64087003EA640260287482
:102C0600002BF58274783AF583E0701274012BF587
:102C16008274783AF583E07005756901800974025B
:102C26002BFBE43AFA80CEE5696004EB4A70037F39
:102C360000227C007D1AAF03AE021209978D69E56A
:102C460069603674022BFBE43AFA7C007D1AAF0306
:102C5600FE120997ED4C6021E5692402FFEF641A24
:102C660060170BEBAC0270010A142400F58274782D
:102C76003CF58374FFF00F80E4AE02AF037C007D69
:052C86001A120997225B
:10048000122BF68F5EE55E70037F4622855E5F125B
:1004900000038F53E55370037F472212184A8F538E
:1004A000E5536003020885853D60853E6185606295
:1004B00085616385486785476685466585456474BB
:1004C000002561F974003560FA7B011232798F687A
:1004D000E4F553746E2553F8E6FF74082553F5824E
:1004E000E4347AF583EFF00553E553B41EE5122AA0
:1004F000C2E4F55CF55BF55AF559E55E75F01AA4B2
:1005000085F055F556855557F558E4F55DE4F554F5
:10051000746E2554F8E660070554E554B41EF1E501
:100520005414F553E553F46018746E2553F8E664DB
:100530005C600E746E2553F8E6642F6004155380DA
:10054000E3746E2553F8E4F6E5537006786E762F63
:1005500008F61200038F53E55364416003020885D7
:10056000AF5CAE5BAD5AAC59786E120A9612305A37
:100570008F53E553600302086AE55D605374FFFF23
:10058000FEFDFC786E120A69C31209EC6014786EE5
:10059000120A5D8F678E668D658C64E4F560F56187
:1005A000802EE4F55374082553F582E4347AF583FC
:1005B000E0FF746E2553F8A6070553E553B41EE516
:1005C00012184A8F53E553600122122AC202050D08
:1005D000786E120A5DAB67AA66A965A864C31209A2
:1005E000EC600302086D786E760178767600087606
:1005F0000012210B8F531234BBE5536002FF22C35C
:10060000907A3CE09561FF907A3BE09560FEEF7850
:1006100005CEC313CE13D8F9F553E55ED3955340F9
:1006200008E55E9553F55E8006855E53E4F55E85CC
:100630005354E554700302080A74E62558F55874BB
:10064000FF3557F557F555855856E4F5530556E5EA
:1006500056AE5570020555142400F58274783EF5A7
:1006600083E0FF75F002E553A42561F582E5F035DE
:1006700060F583E5822402F582E5833400F583EF9B
:10068000F00556E556AE5570020555142400F58266
:1006900074783EF583E0FF75F002E553A42561F51B
:1006A00082E5F03560F583E5822401F582E5833447
:1006B00000F583EFF00553E553B40591E4F55305D8
:1006C00056E556AE5570020555142400F58274782F
:1006D0003EF583E0FF75F002E553A42561F582E560
:1006E000F03560F583E582240FF582E5833400F56B
:1006F00083EFF00556E556AE5570020555142400FB
:10070000F58274783EF583E0FF75F002E553A42589
:1007100061F582E5F03560F583E582240EF582E52A
:10072000833400F583EFF00553E553B40691E4F507
:10073000530556E556AE5570020555142400F58252
:1007400074783EF583E0FF75F002E553A42561F56A
:1007500082E5F03560F583E582241DF582E583347A
:1007600000F583EFF00556E556AE557002055514B9
:100770002400F58274783EF583E0FF75F002E553BE
:10078000A42561F582E5F03560F583E582241CF54A
:1007900082E5833400F583EFF00553E553B402910D
:1007A000740B2561F58274003560F583740FF07465
:1007B0000C2561F58274003560F583E4F0740D2535
:1007C00061F58274003560F583E568F0741A25617F
:1007D000F58274003560F583E4F0741B2561F582C1
:1007E00074003560F583E4F0AF5F155F7400256138
:1007F000F58274003560F583EFF074202561F561B2
:10080000E43560F5601554020632E55D7013755DE0
:100810000174002563F58274003562F583E044407D
:10082000F078707601AF67AE66AD65AC6478721231
:100830000A9678767600087600121F948F53E55357
:10084000600122E55E7026F55374082553F582E4B5
:10085000347AF583E0FF746E2553F8A6070553E557
:1008600053B41EE512184A8F5322AF5322E55C247D
:1008700001F55CE4355BF55BE4355AF55AE435592E
:08088000F559020560AF532297
:06262B007B007A007956E5
:102631008B5E8A5F8960E4F565F564F563F562FF99
:10264100746E2FF8E660040FBF1EF5EF14F561E517
:1026510061F46018746E2561F8E6645C600E746E56
:102661002561F8E6642F6004156180E3746E2561CD
:10267100F8E4F6E5617016786E762F08F61200031D
:102681008F61E56164416003022732800E1200030D
:102691008F61E56164416003022732AF65AE64ADCD
:1026A10063AC62786E120A9612305A8F61E56170DE
:1026B10065AB5EAA5FA960120A23786E120A69C32C
:1026C1001209EC7054FFFEFDFCAB65AA64A963A876
:1026D10062C31209EC70037F4422786274FF120A0C
:1026E10078786E120A9612305A8F61E561702478FB
:1026F1006E120A5DAB5EAA5FA960120A43786E761C
:10270100017876760008760012210B8F611234BBB6
:10271100AF6122AF6122AF6122E5652401F565E475
:102721003564F564E43563F563E43562F5620226E8
:042731009CAF6122D6
:1012CD001200038F53E553600764416003021592CA
:1012DD00E4F553746E2553F8E6FF74082553F58233
:1012ED00E4347AF583EFF00553E553B41EE574004D
:1012FD00253EF97400353DFA7B011232798F5AE49F
:10130D00F554F555F55D853D5B853E5C8548598504
:10131D004758854657854556E53E453D7016E55D72
:10132D007003755D0112262B8F53E5536003021573
:10133D0092021582AF3EAE3DEF4E70030215527410
:10134D00E02FFF74FF3EFE740B2FF58274003EF507
:10135D0083E0640F600302154F740D2FF582740046
:10136D003EF583E0655A600302154FE555241AFDDD
:10137D00E43554FCD3ED9408EC940240037F4522F0
:10138D00E4F55375F002E553A42FF582E5F03EF533
:10139D0083E5822402F582E5833400F583E0FD05C3
:1013AD0055E555AA5470020554142400F58274783D
:1013BD003AF583EDF075F002E553A42FF582E5F0D3
:1013CD003EF583E5822401F582E5833400F583E063
:1013DD00FD0555E555AA5470020554142400F582F7
:1013ED0074783AF583EDF00553E553B40595E4F5BE
:1013FD005375F002E553A42FF582E5F03EF583E534
:10140D0082240FF582E5833400F583E0FD0555E573
:10141D0055AA5470020554142400F58274783AF5D7
:10142D0083EDF075F002E553A42FF582E5F03EF55E
:10143D0083E582240EF582E5833400F583E0FD0516
:10144D0055E555AA5470020554142400F58274789C
:10145D003AF583EDF00553E553B40695E4F5537570
:10146D00F002E553A42FF582E5F03EF583E58224E5
:10147D001DF582E5833400F583E0FD0555E555AA9C
:10148D005470020554142400F58274783AF583EDF6
:10149D00F075F002E553A42FF582E5F03EF583E5F6
:1014AD0082241CF582E5833400F583E0FD0555E5C6
:1014BD0055AA5470020554142400F58274783AF537
:1014CD0083EDF00553E553B4029574002FF5827446
:1014DD00003EF583E020E60302134574FF2555F524
:1014ED008274773554F583E0FF700F74FE2555F542
:1014FD008274773554F583E06045EFB4FF1074FEC8
:10150D002555F58274773554F583E0F46031E55552
:10151D002434FFE43554FED3EF9408EE94024003D7
:10152D007F452274002555F58274783554F583E492
:10153D00F074012555F58274783554F583E4F07F08
:10154D0000227F4422E55D7005755D01801EE4F586
:10155D005374082553F582E4347AF583E0FF746EF5
:10156D002553F8A6070553E553B41EE512262B8F18
:10157D0053E553700D907A3BE0F53DA3E0F53E0247
:08158D001341AF5322AF5322BA
:10226B00D294C29412349DD29412348C7BFF7A2573
:10227B00790D120CBB1233468F5012338B7BFF7AC6
:10228B00257914120CBBE53FC39402500B1232425A
:10229B00EF600512349D80EEC29412349D12349D72
:1022AB00E4F55012349D7BFF7A257920120CBB127A
:1022BB00310DEF60090550E550C3940540E5D3900F
:1022CB007A3CE09400907A3BE0941040147BFF7AC8
:1022DB00257929120CBB123242EF70A112349D806A
:1022EB00F5C29578007C787D017BFF7A2579AF7EEE
:1022FB00007F7C120958E490787CF0A3F07F6E7C11
:10230B00257D401234791204808F50E5507BFF708D
:10231B00067A257955800A7A25796D755600855090
:10232B0057120CBB7BFF7A25797F120CBB786E7C26
:10233B00007D007BFF7A257940120B931212CD8F13
:10234B0050E55070417BFF7A25798F120CBBE4F579
:10235B0051F5527BFF7A25799D74002552F58274D5
:10236B00783551F583E0755600F557120CBB0552C5
:10237B00E55270020551B408DAE551B402D57BFF82
:10238B007A2579A3800C7BFF7A25796D75560085AC
:10239B005057120CBBD2957BFF7A2579A5120CBB3B
:1023AB00E53FC39402400B123242EF700512349D8D
:0D23BB0080EED29412349D12349D022288CF
:1033A900C3E4CC13CD13CE13FFE52E24F7600DF83B
:0D33B900C3ED13FDEE13FEEF13FFD8F42259
:10342800FFE43549FE8F828E83E0FFA3E0FEA3E030
:05343800FDA3E0FC22F1
:0F34AC00FFE43549FE8F828E83E0FFA3E0FE220E
:0734F400EFCCFFEECDFE223C
:102D140090BDF17428F0E4F54BE53C54036403FDE5
:102D240090BCF0E0CD604114601190BCF0E08F8263
:102D34008E83F00FBF00010EDDF02205A28F828E7C
:102D4400837D1005A2E005A2F0A305A2E005A2F090
:102D5400A305A2E005A2F0A305A2E005A2F0A3DD6D
:102D6400E2AF82AE8305A222EFC582F9EEC583C528
:102D7400A0F5F07D08E3F0A3E3F0A3E3F0A3E3F010
:102D8400A3E3F0A3E3F0A3E3F0A3E3F0A3DDE6857C
:072D9400F0A0AF82AE832224
:102C8B0090BDF1742BF0E4F54BE53C54036403FD6C
:102C9B00744090BCF0F0CD60411460118F828E8334
:102CAB00E090BCF0F00FBF00010EDDF02205A28F0B
:102CBB00828E837D10E0A305A2F005A2E0A305A2FE
:102CCB00F005A2E0A305A2F005A2E0A305A2F00582
:102CDB00A2DDE2AF82AE8305A222EFC582F9EEC57B
:102CEB0083C5A0F5F07D08E0A3F3E0A3F3E0A3F325
:102CFB00E0A3F3E0A3F3E0A3F3E0A3F3E0A3F3DD9E
:092D0B00E685F0A0AF82AE832240
:033505007F3522ED
:0A34EA001234BBAF4AAE49022D14A4
:10341200EF75F005A4F536E536600A1234FB123476
:06342200FB153680F222CA
:103369007D107F10E53FC39F40028D3FE53F6D70A3
:1033790002FF22753F01123242EF60037F82227FF2
:0233890083229D
:1033220075368090BDF17401F00000000090BCF091
:10333200E0FFD536EE90BDF17405F0000000007F8D
:04334200320234120D
:102F17007533057D067F65123465E4F53F90BCF097
:102F2700E0B49A0F7D067F9A12346590BCF0E06496
:102F3700656009123322D533DA7F8122907A3B7498
:102F470002F0A3E4F090BDF104F000000000C20C11
:102F5700533CBF90BCF0E0F533C394A2400BE5337C
:102F670094B64003433C40D20C753F017D157F0664
:102F77001234657F0112341290BCF0E0B45F037F16
:052F870081227F002201
:0D34BB0074FFF52AF529F528F527C20A222D
:1032420090BDF17422F00000000090BCF0E0E4F5C3
:103252004B7F201233FBEF30E517E53FC39402406A
:103262000A7F1B1233FBEF547F7003753F027F000E
:0732720022753F017F82225B
:10315E00123242EF60037F82227F511233C6E54B5B
:10316E0070327D037F0212336D300C257F3812339F
:10317E00FBEF601D1234EA854A82854983E0B4056F
:10318E00107D017F341234517F581233C6E54B70D7
:0F319E00037F00227D027F0212336D1230B522B3
:10283500854523854624854725854826E526652A39
:102845007015E5256529700FE52465287009E523D0
:102855006527700302292BE4F536E53C20E61DE5E6
:102865002E64096017753580753701121E13EF60E8
:102875000302290690BDF17455F0802790BDF174CF
:1028850054F000000000E4F54B90BCF0E526F000A4
:1028950000E525F00000E524F00000E523F0000048
:1028A5007401F0854927854A28E52EB409047F0877
:1028B5008014E52EB40A047F10800BE52EB40B04BA
:1028C5007F2080027F408F35E535601E1232ABE5F3
:1028D5004B641D702CAF28AE27122D148E278F2820
:1028E50090BDF17455F0153580DE852327852428A4
:1028F50085252985262A1232ABE54BB414037F00C2
:1029050022E536C394055015E54B6416600FE53690
:10291500C3940140031230B5053602285F1234BB5B
:0929250012343D0230B57F00229E
:10273500F583E536F0A3E537F0E4F536E53C20E62C
:102745003CE52E64096036E4F535753701121E1334
:10275500EF600302280F854927854A28E52EB4092D
:10276500047F088014E52EB40A047F10800BE52E43
:10277500B40B047F2080027F408F35805990BDF1D6
:102785007456F000000000E4F54B90BCF0E526F02F
:102795000000E525F00000E524F00000E523F00049
:1027A500007401F0854927854A28E52EB409047F80
:1027B500088014E52EB40A047F10800BE52EB40BB7
:1027C500047F2080027F408F35E535601E1232ABD5
:1027D500E54B641E7034AF28AE27122C8B8E278FE5
:1027E5002890BDF17457F0153580DE8523278524A3
:1027F5002885252985262A1232ABE54BB4140BE52D
:102805003C20E5031235007F0022E536C3940550D0
:1028150015E54B6416600FE536C39401400312308D
:10282500B505360227411234BB12343D1230B522AC
:100FB500E53FC39403500A12315EEF600122122A05
:100FC500261234BBE4F52CE4F526F525F524F523A6
:100FD500122841EF600A122A26122841EF600122E9
:100FE500E52C700D854A82854983E054FD64E960EE
:100FF50053E4FDED64406049E54A24BEFFE549340C
:1010050001FEED7A002FFFEA3EF583EF2404F58219
:10101500E43583F583E06023E54A24BEFFE54934E2
:1010250001FEED2FFFEA3ECF2408CF3400FE123437
:101035002D8F268E258D248C23800974102DFD80FF
:10104500B27F9222AF26AE25AD24AC23907A26122C
:101055000AA2122841EF600122854A82854983E070
:1010650054FD64E960037FA122E54A240DF582E47D
:101075003549F583E0F522F544907A2E7406F0E5BE
:101085004420E612E54425E0F544907A2EE014F07C
:10109500E070EC752201E54A24161234AC907A2CE6
:1010A500EEF0A3EFF04E702CE54A24241234288F7D
:1010B500328E318D308C2FE4FBFA7901F8D3120989
:1010C500EC5007E52C60037FA222907A2CE531F0E5
:1010D500A3E532F0E54A2414F582E43549F583E0C9
:1010E500FFE54A2413F582E43549F583E04F6012A4
:1010F500E54A24131234ACE48F3B8E3AF539F538C2
:10110500800FE54A24201234288F3B8E3A8D398C86
:1011150038E54A24111234ACCCEECCCDEFCD907A23
:101125003BE0FEA3E07805CEC313CE13D8F9147EB9
:10113500002DFFEE3CFEE52E24FBFDEFC8EDC808B3
:101145008005CEC313CE13D8F9FFE4FCFD907A3D9C
:10115500120AA2E54A240E1234AC8E3D8F3E907AD7
:101165002DE0253EFF907A2CE0353DFEE4FCFD9018
:101175007A3DE0F8A3E0F9A3E0FAA3E02FF532EA1F
:101185003EF531ED39F530EC38F52FE54A2410F50B
:1011950082E43549F583E0D39401401E907A2CE032
:1011A500FEA3E0FFE5322FF532E5313EF531ED35B1
:1011B50030F530EC352FF52F8007E4907A2CF0A32D
:1011C500F0C3E53B9532FFE53A9531FEE5399530BB
:0911D500FDE538952FFC907A2EFF
:1011DE00E0F9F81209FD907A33120AA2E47BF57A4F
:1011EE00FFF9F8D31209EC401FE4907A2AF0A3F02D
:1011FE00907A35E0FEA3E094F5EE940F5005754419
:10120E00018024754402801FE54A24301234AC90CC
:10121E007A2AEEF0A3EFF0E54A242C123428907AC5
:10122E003D120AA2754403E53E453D604E907A3D5F
:10123E00E0FCA3E0FDA3E0FEA3E0FFEC4D4E4F600B
:10124E003AE54A2410F582E43549F583E0D394015A
:10125E00400A907A2CE07002A3E0601FE54A240B4E
:10126E00F582E43549F583E07011E54A240CF582E8
:10127E00E43549F583E0C39402500AE52C700675F7
:10128E002C01020FCCE53E2526FFE53D3525FEE47B
:10129E003524FDE43523FC907A2F120AA2E532257F
:1012AE0026FFE5313525FEE5303524FDE52F3523C6
:0F12BE00FC907A37120AA27D107F0312336D2243
:102F8C00852723852824852925852A2612273EEF87
:102F9C00600122907A2CE0FEA3E0FF4E604BE4FC33
:102FAC00FDE5262FF526E5253EF525ED3524F52402
:102FBC00EC3523F52312273EEF600122907A2CE0AA
:102FCC00FEA3E0FBCAEECAC3E5269BF526E5259ACF
:102FDC00F525E5249400F524E5239400F523F52745
:0E2FEC0085242885252985262AC20A7F0022F1
:101595008D69EFC8E544B40207120A5D7801800839
:1015A500B40312120A5D7802120A108F6D8E6C8DCB
:1015B5006B8C6A8023120A5D8E6A8F6BEF1392091A
:1015C500E56AC313FEE56B13256BFFE56A3EFEE492
:1015D5008F6D8E6CF56BF56A907A3CE024FFFD907B
:1015E5007A3BE034FF5EFEED5F254AF52DEE354989
:1015F500F52CAF6DAE6CAD6BAC6A1233A9907A2F3A
:10160500E0F8A3E0F9A3E0FAA3E02FF56DEA3EF5D3
:101615006CE93DF56BE83CF56AE56D652A7012E508
:101625006C6529700CE56B65287006E56A652760B1
:101635001D300A07122F8CEF600122856A23856B06
:1016450024856C25856D26122841EF600122E56908
:101655006025B4FF0474FF8006E569B4010BE4F569
:101665006DF56CF56BF56A800C852F6D85306C8595
:10167500316B85326AD20AE5446402703F852D825A
:10168500852C83E0F534A3E0F5358534378535368B
:10169500E4F534F535AE36AF37C3EF94F7EE94FF86
:1016A5004003D38001C39209E569600D852D8285CC
:1016B5002C83E56AF0A3E56BF07F0022E544640323
:1016C500705A852D82852C83E0FCA3E0FDA3E0FE06
:1016D500A3E0F5378E368D358C34E53754F0FFE5CC
:1016E5006D540F4FF56DE537540F853437F534AF2D
:1016F500368535368F35AF34EFC3940F4003D3802D
:0C17050001C39209E5696011AF6DAE6C84
:10171100AD6BAC6A852D82852C83120AA27F0022D3
:10172100536B0F907A3CE0254AFF907A3BE03549B4
:10173100CF24FFCF34FFFEEF652D7003EE652C60E3
:1017410053852D82852C83E0F534852D82852C836C
:10175100A3E0F535E5697003021810300923E56A45
:10176100C454F0FFE534540F4F852D82852C83F04E
:10177100E56BC454F0FFE56AC4540F4FA3F002189F
:1017810010852D82852C83E56AF0E53554F0456B93
:10179100A3F0807B852D82852C83E0F534E569609B
:1017A1002230090EE56AC454F0FFE534540F4FFFAF
:1017B1008002AF6A852D82852C83EFF0122F8CEF8A
:1017C100600122E52A2401F526E43529F525E435D1
:1017D10028F524E43527F523122841EF60012285FD
:1017E1004A82854983E0F535E569602330090FE5D3
:1017F1006BC454F0FFE56AC4540F4FFF8007E53511
:1018010054F0456BFF854A82854983EFF0D20A3057
:101811000913E535C454F0FFE534C4540F4FF537CF
:10182100E535C48005853437E535540FF536E4F5E3
:1018310034F535AE36AF37C3EF94F7EE940F40036E
:09184100D38001C392097F00224B
:101C7F00E4F532F531F530F52F907A33E0FCA3E03F
:101C8F00FDA3E0FEA3E0FFAB32AA31A930A82FD30A
:101C9F001209EC40037FB122E5322401F532E4351D
:101CAF0031F531E43530F530E4352FF52F7F2FE462
:101CBF00FD121595EF600122E537700FE534700BBB
:101CCF00E5357007E5367003021E0BE544640160CD
:101CDF00A885492C854A2DE54464027051907A3BC2
:101CEF00E0C313FEA3E01324FFFFEE34FFF5348FA0
:101CFF0035F5368F377402252DF52DF582E4352C09
:101D0F00F52CF583E07011A3E0700D852D82852CE5
:101D1F008374FFF0A3021D93E5356009D535D6E531
:101D2F0034600880D01534153580CA021DF2907AC0
:101D3F003BE0FEA3E07802CEC313CE13D8F924FF05
:101D4F00FFEE34FFF5348F35F5368F377404252DBC
:101D5F00F52DE4352CF52C852D82F583E0600302FB
:101D6F001DD7A3E06003021DD7A3E0705BA3E0546F
:101D7F000F7055852D82852C8374FFF0A3F0A3F08F
:101D8F00A3E0440FF0AE36AF37EF4532FFEE4531EB
:101D9F00FEE530FDE52FFCEEC0E0EFC0E0E53524B9
:101DAF00FFFFE53434FFCBEFCBFAD0E0FFD0E0FEFE
:101DBF00C3EF9BF532EE9AF531ED9400F530EC94CC
:101DCF0000F52FD20A7F0022E53560101535E53575
:101DDF006003021D5BE534600A021D5B1534153587
:101DEF00021D5BAE36AF37E5324FF532E5314EF5BA
:101DFF0031E530F530E52FF52F021C887F2F7DFF61
:041E0F0012159522F1
:1033E200853B32853A3185393085382F121C88EF7A
:0933F20064B1600122121C7F226B
:102D9B0074FFF532F531F530F52F907A2AE0FCA36C
:102DAB00E0FD4C7002FF22CFEDCFCEECCEE4FCFD6C
:102DBB00907A26E0F8A3E0F9A3E0FAA3E02FF5263A
:102DCB00EA3EF525ED39F524EC38F523122841EFD1
:102DDB00600122E54A24E8FFE5493401FE12342D57
:102DEB00E5322FF532E5313EF531E5303DF530E595
:102DFB002F3CF52FAF32AE31AD30FC1234F4E54A37
:102E0B0024E8F582E5493401F583120AA212273E24
:012E1B002294
:1000030090BDF17422F00000000090BCF0E0FFE529
:100013003FC394105007120FB5EF600122123369EA
:10002300EF600122C20B786EE6645C6004E6B42FD5
:1000330005752B6F8017786FE6643A60030201043D
:1000430018E6C394435003020104752B71E544B4CD
:100053000310907A3DE0FCA3E0FDA3E0FEA3E0FFE4
:100063008005E4FFFEFDFC8F3B8E3A8D398C38A86A
:100073002BE6600302010774FFF543F542F541F5F2
:1000830040E5446403605D753B02907A37E0FCA36E
:10009300E0FDA3E0FEA3E0FFEFC0E0907A40E0FBC9
:1000A300D0E0FFC3EF9BFFEE9400FEED9400FDEC68
:1000B3009400FC907A37120AA2907A3FE0FEA3E004
:1000C300A82E088005C333CE33CED8F9FFE48F437F
:1000D3008E42F541F540AF22FCFDFE907A3D120AB7
:1000E300A2752280853B32853A3185393085382F98
:1000F300E4F54FF54EF54DF54CF533753F127F4161
:1001030022752B6EA82BE6B4E5027605E53B700C51
:10011300E5387008E5397004E53A603E852233E539
:100123003B24FEFFE53A34FFFEE53934FFFDE538B5
:1001330034FFFC907A2EE0F9F8120A10907A37E037
:10014300F8A3E0F9A3E0FAA3E02FF548EA3EF54768
:10015300E93DF546E83CF545802B907A40E0F533E0
:10016300AF33CBEFCB907A37E0FCA3E0FDA3E0FE07
:10017300A3E0C39BF548EE9400F547ED9400F546E4
:10018300EC9400F545E5337003020433122835EF90
:10019300600122E4F53DF53ED3907A3CE0953E9034
:1001A3007A3BE0953D5003020419E54A253EF52DBF
:1001B300E549353DF52C852D82F583E0FF7003027B
:1001C3000460EF64E5700302040BBF05027FE5A83A
:1001D3002BE6FE6F6008EE642A600302040BE4F56D
:1001E30037FFEFC3940B5078E52D2FF582E4352CC0
:1001F300F583E0FEAD37E52B2DF8EE66605DAD3798
:09020300E52B2DF8E66015AD377E
:10020C00E52B2DF8E6645C600AAD37E52B2DF8E69E
:10021C00B42F1FEE6420703FEFC394085010E52DEF
:10022C002408F582E4352CF583E0642070297F0BDB
:10023C008025AE37E52B2EF8E6B42E1BE537640887
:10024C00600EE52D2FF582E4352CF583E0B4200704
:10025C007F070F05378082EFC3940B500302034CCA
:10026C00E52D240BF582E4352CF583E030E3030215
:10027C00034CC209E52D241AFFE4352CFE1234B1CF
:10028C00E48F3B8E3AF539F538E544B40310E52D8F
:10029C002414FFE4352CFE1234B18E388F39AF376D
:1002AC00E52B2FF8E66006200903020342853B325A
:1002BC00853A3185393085382FE4F54FF54EF54DBB
:1002CC00F54CF533E52D240BF582E4352CF583E064
:1002DC0030E41F74FFF543F542F541F5407D137F83
:1002EC001012336DEF6001223009047F4380027FCE
:1002FC004122E52D241CFFE4352CFE12342D8F43B6
:10030C008E428D418C40E53B7017E5387013E53912
:10031C00700FE53A700B7533FFF543F542F541F577
:10032C00407D147F1012336DEF6001223009047F81
:10033C004380027F0022E53704252BF52B020107B1
:10034C00AF37E52B2FF8E6642A600302040BE52D8A
:10035C00240BF582E4352CF583E030E30302040B27
:10036C00E53704252BF8E67053E4FFF535E52D2F22
:10037C00F582E4352CF583E06420602FBF080AAECB
:10038C0035E52B2EF8762E0535E52D2FF582E43547
:10039C002CF583E0FEAD35E52B2DF8EEF6E535704A
:1003AC0008A82BE6B4050276E505350FBF0BBEAFEA
:1003BC0035E52B2FF8E4F6D209020280E537042547
:1003CC002BF8E6F47032E543700CE5407008E5411B
:1003DC007004E5426093E54030E703123508E543CD
:0A03EC0024FFF543E54234FFF5421B
:1003F600E54134FFF541E54034FFF5408007E53738
:1004060004252BF8167420253EF53EE4353DF53DD2
:1004160002019BE5482401F548E43547F547E435F4
:1004260046F546E43545F5451533020188E53B704A
:100436000CE5387008E5397004E53A601D7F38E44C
:10044600FD121595EF60012220090F853438853598
:100456003985363A85373B020107E4FFE52B2FF84D
:10046600E6FE6013642A600FEE645C6004EEB42F4F
:0A047600037FB3220F80E57F4222CE
:102E1C00E53FC3941250037FB422E53F6412704F18
:102E2C00E54464036049907A40E0F522AE42E54304
:102E3C00A82E088005CEC313CE13D8F9FFE4FCFDF1
:102E4C00907A3D120AA2907A37E0F8A3E0F9A3E059
:102E5C00FAA3E0FB907A40E0FFE4FCFDFEEB2FFFD1
:102E6C00EE3AFEED39FDEC38FC907A37120AA2E509
:102E7C003FD39413400AE53FB41407786EE6700212
:102E8C00C20B300B071231F8EF60012212336922AA
:102AC200E53FC394135007120003EF600122123353
:102AD20069EF600122122835EF600122E54A253EA6
:102AE200FFE549353D8F82F58374E5F012273EEF0D
:102AF200600122AF3BAE3AAD39AC388F378E368D9E
:102B0200358C34EC4D4E4F604EE53B24FFF53BE5F2
:102B12003A34FFF53AE53934FFF539E53834FFF553
:102B220038E4F532F531F530F52F7F347D01121599
:102B320095EF600122E5322401F532E43531F531B9
:102B4200E43530F530E4352FF52F3009DD122F8CC6
:0A2B5200EF600122022DA57F002292
:10184A001200038F33E533700A122AC2EF700302C3
:10185A0019B122E53364426003AF3322907A3CE047
:10186A0024E0FF907A3BE034FFFEC3E53E9FE53D6E
:10187A009E50030219B1E53B700FE538700BE5394C
:10188A007007E53A7003021947907A3AE0FFC3E518
:10189A00489FFFE52214FE5FF533E53E6008EE65DA
:1018AA003360030219B17F38E4FD121595EF600128
:1018BA00222009030219B11233E2EF6001227F38B4
:1018CA007D02121595EF600122122F8CEF60012222
:1018DA001234BBE4FFFE907A3BE06EFCA3E06F4C4F
:1018EA006013E54A2FF582E5493EF583E4F00FBF20
:1018FA0000010E80E1E4F5331231ADE53E7010F5DA
:10190A003DF53E8526488525478524468523458518
:10191A002234E534602012273EEF600122E52624B6
:10192A0001F526E43525F525E43524F524E43523A7
:10193A00F523153480DC122D9BEF606B22E53E7097
:10194A0066E54824FFF548E54734FFF547E54634A0
:10195A00FFF546E54534FFF545F523122838EF60D3
:10196A000122E4F53DF53ED3907A3CE0953E907A2B
:10197A003BE0953D402EE54A253EFFE549353D8F42
:10198A0082F583E0B4E510E582240BF582E4358321
:10199A00F583E0540E60107420253EF53EE4353D93
:1019AA00F53D80C37FB2221233E2EF600122122F8B
:1019BA008CEF60012285323B85313A853039852F9B
:1019CA0038122D9BEF600122122835EF600122E5C3
:1019DA004A253EFFE549353DFEE4FDEDC3940B5033
:1019EA00047C2080027C00EF2DF582E43EF583EC36
:1019FA00F00DBD20E6EF2418F582E43EF58374214C
:101A0A00F0A37430F0EF241CF582E43EF5837401F0
:101A1A00F0E4FDEDC3940B5021A82BE6FC601BEC0F
:101A2A00B42E047D08052BA82BE6FCEF2DF582E4E5
:101A3A003EF583ECF00D052B80D9853B34853A358C
:021A4A008539DC
:101A4C0036853837EF241AF582E43EF583E534F019
:101A5C00A3E535F0EF2414F582E43E122735EF6050
:101A6C000122853B32853A3185393085382FE4F5B2
:101A7C0043F542F541F540F54FF54EF54DF54CF576
:091A8C00337D147F1012336D222A
:10292E00E53FC3941350037FB422122835EF6001A4
:10293E0022C20AE54A253EFFE549353DCBEFCBFAEB
:10294E007876E6FFEB240BF582E43AF583E0F6EFBA
:10295E00F460138B828A83E582240BF582E435833F
:10296E00F583EFF0D20A7874E6F53708E6F536EB24
:10297E002416FFE43AFE1234B118EEF608EFF6E52F
:10298E0036F4FEE537F44E6012EB2416F582E43A87
:10299E00F583E536F0A3E537F0D20A7872E6F5371F
:1029AE0008E6F536EB2418FFE43AFE1234B118EEC1
:1029BE00F608EFF6E536F4FEE537F44E6012EB243A
:1029CE0018F582E43AF583E536F0A3E537F0D20A3E
:1029DE00786E120A5D787A120A96EB241CFFE43A9E
:1029EE00FE12342D786E120A96787AE6F4601E1274
:1029FE000A5D8F438E428D418C401234F4EB241CC1
:102A0E00F582E43AF583120AA2D20AC20B300A0505
:082A1E00C20A02273E7F0022DC
:1030B5007535321234FBD535FA90BDF17422F00026
:1030C50000000090BCF0E0E54B6416600FE53F643E
:1030D5000160097F201233FBEF20E506753F017F74
:1030E5008222300C19E53FC394034012854B35E429
:1030F500F54B90BDF1745AF01232AB85354BE54B6B
:0831050070037F1022AF4B2282
:10343D00E53FB41204753F0322E53FD394104003DA
:04344D00753F102295
:1031AD00E53224FEFFE53134FFFEE53034FFFDE569
:1031BD002F34FFFC907A2EE0F9F8120A10907A372E
:1031CD00E0F8A3E0F9A3E0FAA3E02FFBEA3EFAE969
:1031DD003DF9E83CF8E4FCFDFEEB2533F526EE3A2F
:0B31ED00F525ED39F524EC38F5232220
:1031F800C20BE53FC39414403E122835EF6001220C
:10320800E54A253EFFE549353DCBEFCBFAF583EBA3
:10321800240BF582E43583F583E020E41AAF43AE4E
:1032280042AD41AC401234F4EB241CF582E43AF58B
:0A32380083120AA202273E7F002243
:1033FB0090BDF1740AF00000000090BCF0EFF000FB
:07340B00006003E0FF222234
:1034510090BDF1740BF00000000090BCF0EFF000A3
:0434610000EDF02268
:10310D00123242EF60037F8222E53FC39403501BCE
:10311D0012315EEF600C7F3212341212315EEF60AD
:10312D000122122A26EF60030230B5300C207F59A0
:10313D001233C6AF4B8F35EF7002FF227F0A123468
:10314D00127F5A1233C67F02123412AF35227F001E
:01315D00224F
:102B5C00E53B700CE5387008E5397004E53A607BAC
:102B6C00853B32853A3185393085382FAF22E4FCEC
:102B7C00FDFE786E120A69C31209EC40417F2FE406
:102B8C00FD121595EF60012220095085342F8535F3
:102B9C0030853631853732786E120A5DEFC0E0AF82
:102BAC0022CBEFCBD0E0FFC3EF9BFFEE9400FEED0A
:102BBC009400FDEC9400FC786E120A9680AE78714D
:102BCC00E6FFE522145FF5331231ADAF26AE25AD2D
:102BDC0024AC23786E120A967F00227533FF786E30
:0A2BEC00120AAEFFFFFFFF7F002278
:102E9C00121C88EF600564B1600122EF6007121C00
:102EAC007FEF600122122F8CEF60012285323B856F
:102EBC00313A853039852F38122835EF600122E5FB
:102ECC004A253EFFE549353DFEF583EF241CF5828E
:102EDC00E43583F5837401F0853B34853A358539C7
:102EEC00368538378F828E83E582241AF582E43555
:102EFC0083F583E534F0A3E535F08F828E83E5828C
:0B2F0C002414F582E4358312273522DF
:102A26007535327F531233C6E54B70601234EAE5D2
:102A36004A2406F582E43549F583E0FFB4040575BA
:102A46002E0A8015EFB40805752E0B800CEFB41016
:102A560005752E0C8003752E0974017E00A82E08BC
:102A66008005C333CE33CED8F9907A3CF0EE907A17
:102A76003BF0E52E24F7FF7408C8EFC8088002C3B0
:102A860033D8FCFD7F391234517F0022E54B6416A2
:102A96006027E54B641560217F32123412300C0B2F
:102AA600854B367F5A1233C685364B7F0A1234124F
:0C2AB6001535E5356003022A29AF4B22DC
:1034650090BDF1EDF000000000E4F54B90BCF0EFED
:04347500F000002241
:1033C600E4F54B90BDF1EFF01232ABE54B700475AE
:0C33D6004B1022E54BB41403E4F54B222D
:1032FD0090BDF1EDF000000000E4F54B90BCF0EF57
:10330D00F01232ABE54B7004754B1022E54BB41443
:05331D0003E4F54B2262
:101E1300300C0A7F341233FBEF423580077D037F9A
:101E23003412345190BDF1742BF0000000E4F54BF3
:101E330090BCF0741FF000007455F000007453F070
:101E430000007442F0000004F000007403F000008E
:101E53007407F000007405F00000740AF00000E459
:101E6300F0E52E24F8F8E537C333D8FC90BCF0F046
:101E73000000E4F00000F000E5355480F000E535A3
:101E8300540FF00000740AF0E53530E7047F288032
:101E9300027F2A90BCF0EFF00000E4F0E53530E675
:101EA300117872E6F00008E6F00008E6F00008E6B4
:101EB300801490BCF0E523F00000E524F00000E579
:101EC30025F00000E526F00000E490BCF0F00000EF
:101ED300F00000E537F00000E4F00000F00000F04F
:101EE3000000F00000F00000F00000F000007F317F
:101EF3001233FBEFF535CD7F1E1234517F3312338E
:101F0300FB7D4F1232FDE54B7007E5356440FD80E4
:101F1300027D007F31123451E54B603B854B35E543
:101F23004B641660057F521233C6E54BB416037F2C
:101F330082227F321233FBEFC4540F4480FF7D4172
:101F43001232FD7F331233FBEFC4540FFF7D411276
:101F530032FDAF358F4B22300C047F3680027F3544
:101F6300E52E24F7F8E537088002C333D8FCFD12C9
:101F73003451300C047F3780027F367D0812345190
:101F83007F201233FBEF4408FD7F201234517F0082
:011F9300222B
:102FFA007870E67E00A82E088005C333CE33CED87B
:10300A00F9FDCCEECCE535AE347806C333CE33CEFB
:10301A00D8F9FFC3ED9FF535EC9EF534AE34AF35E4
:10302A00CBEFCBCAEECAC3E54F9FF54FE54E9AF5F3
:10303A004EE54D9400F54DE54C9400F54CC3E495EE
:10304A0035FFE49534FE7877EF26F618EE36F62249
:1023C800E4F536E53C20E61FE52E6409601975350D
:1023D800C07870E6F537121E13EF60030224CD9023
:1023E800BDF17455F0802990BDF17454F0000000DF
:1023F80000E4F54B7875E690BCF0F0000018E6F0C4
:10240800000018E6F0000018E6F000007870E6F02A
:10241800853C37E53C13135403FFE53C54FC4FF56A
:102428003CE52EB409047F088014E52EB40A047F25
:1024380010800BE52EB40B047F2080027F4078705B
:10244800E6FEEF8EF0A485F034F5351232ABE54B9D
:10245800641D7071E537540C60137876E6FE08E663
:10246800FF122D147876EEF608EFF6801590BDF180
:102478007428F000000000E4F54B90BCF0E0FF1277
:10248800350990BDF17455F0E54F2440F54FE4351A
:102498004EF54EE4354DF54DE4354CF54CE53560DB
:1024A80009D535A7E534600880A115341535809B1A
:1024B80085373C1232ABE54BB4140A7870E6786E77
:1024C80026F67F002285373CE536C394055022E581
:1024D8004B6416601C122FFAE53C540C7004FF1272
:1024E8003509E536C3940140031230B50536022399
:0824F800CB12343D1230B52275
:101F9400E4F536E53C20E654E52E6409604E7535DB
:101FA400407870E6F537121E13EF60030220D885DF
:101FB4003C37E53C13135403FFE53C54FC4FF53C1C
:101FC400E52EB409047F088014E52EB40A047F10BA
:101FD400800BE52EB40B047F2080027F407870E6EE
:101FE400FEEF8EF0A485F034F535806D90BDF1746C
:101FF40056F000000000E4F54B7875E690BCF0F074
:10200400000018E6F0000018E6F0000018E6F00002
:10201400007870E6F0853C37E53C13135403FFE584
:102024003C54FC4FF53CE52EB409047F088014E5CC
:102034002EB40A047F10800BE52EB40B047F20809D
:10204400027F407870E6FEEF8EF0A485F034F5351B
:102054001232ABE54B641E707BE537540C60137889
:1020640076E6FE08E6FF122C8B7876EEF608EFF69D
:10207400801790BDF1742BF000000000E4F54B9044
:10208400BCF07440F0FF12350A90BDF17457F0E5CE
:102094004F2440F54FE4354EF54EE4354DF54DE40F
:1020A400354CF54CE5356009D535A5E53460088037
:1020B4009F15341535809985373C1232ABE54BB406
:1020C4001412E53C20E5031235007870E6786E269C
:1020D400F67F002285373CE536C394055022E54B54
:1020E4006416601C122FFAE53C540C7004FF123580
:1020F4000AE536C3940140031230B50536021F9732
:0721040012343D1230B52238
:10305A00E53FC3941250037FB422AF43AE42AD4161
:10306A00AC401233A98F378E368D358C34786E1278
:10307A000A69D31209EC400DAF37AE36AD35AC3420
:10308A00786E120A96786E120A5DE52E24F8F9F81F
:10309A00120A108F378E368D358C3485354C85362D
:0B30AA004D85374EE4F54F122B5C22E1
:10210B00E53FD394145007E53FC3941250037FB4BB
:10211B0022786EE608F6E418F67870F6C3E5439578
:10212B004FFFE542954EFEE541954DFDE540954C43
:10213B00FC1233A98F378E368D358C34E535700410
:10214B00E5366006787176FF80047871A637786F74
:10215B00E670030222607871E67003022260E533B9
:10216B00F470030222601231AD7870E66069E52EDF
:10217B00B409047F408014E52EB40A047F20800B41
:10218B00E52EB40B047F1080027F08EF3395E0FE41
:10219B007870E6C39FEE6480F8748098502E787048
:1021AB00E6FFE4FCFDFE7872120A69EF2BFFEE3AB4
:1021BB00FEED39FDEC38FCEF6526FFEE6525FEEDF7
:1021CB006524FDEC6523FC4D4E4F600B1223C8EFCD
:1021DB00600122E47870F67870E6700DAF26AE25BC
:1021EB00AD24AC237872120A96C3E5229533FFF522
:1021FB00347871E6FEEFD39E4003E6F534E534D335
:10220B00786F96400CE60826F618E62533F53380F2
:10221B0049C3786FE69534F608E53426F6C308E62D
:10222B009534F6E5342533F53365226003022159E5
:10223B007F2FFD121595EF6001223009067533FFD4
:10224B0002215985342F853530853631853732E477
:10225B00F5330221597870E660030223C87F002210
:101A9500E53FD394145007E53FC3941250037FB438
:101AA50022786EE6FF08F67006300B03021C79E417
:101AB500786EF67870F608F6786FE67003021BFD0F
:101AC500E533F4704AE53B700CE5387008E539708C
:101AD50004E53A602DE53FB41209E544640360036B
:101AE5007FB122AF32AE31AD30AC2F7878120A9685
:101AF5001233EEEF6001227F787D02121595EF60BB
:101B05000822122E9CEF600122787116E4F533123B
:101B150031AD7870E66069E52EB409047F40801424
:101B2500E52EB40A047F20800BE52EB40B047F104C
:101B350080027F08EF3395E0FE7870E6C39FEE6480
:101B450080F8748098502E7870E6FFE4FCFDFE78EE
:101B550072120A69EF2BFFEE3AFEED39FDEC38FC07
:101B6500EF6526FFEE6525FEED6524FDEC6523FC9E
:101B75004D4E4F600B121F94EF600122E47870F612
:101B85007870E6700DAF26AE25AD24AC23787212C1
:101B95000A96C3E5229533FF786FE6FEEFD39E40A4
:101BA5000CE60826F618E62533F533804B7870EFFA
:101BB50026F6C318E69FF6E670187877E6654A704C
:101BC5000418E66549700B121F94EF600122E47852
:101BD50070F67F2FE4FD121595EF6001223009069E
:101BE5007533FF021ABD85342F853530853631852D
:101BF5003732E4F533021ABD300A07122F8CEF6035
:101C050001227870E66007121F94EF600122787157
:101C1500E66035AF32AE31AD30AC2F7878120A962A
:101C25007871E6FFE4EFF53274FFF531F530F52F05
:101C3500122DA5CBEFCB7878120A5D8F328E318DC0
:101C4500308C2FEB6002FF22AF4FAE4EAD4DAC4C4A
:101C5500AB43AA42A941A840C31209EC500E854FD7
:101C650043854E42854D41854C40D20BE53C30E4E1
:0A1C750006300B030231F87F002255
:030000000234C8FF
:0C34C800787FE4F6D8FD75818B02226B42
:10088800E709F608DFFA8046E709F208DFFA803E52
:1008980088828C83E709F0A3DFFA8032E309F6083F
:1008A800DFFA8078E309F208DFFA807088828C83A7
:1008B800E309F0A3DFFA806489828A83E0A3F6085B
:1008C800DFFA805889828A83E0A3F208DFFA804C35
:1008D80080D280FA80C680D4806980F2803380100C
:1008E80080A680EA809A80A880DA80E280CA803375
:1008F80089828A83ECFAE493A3C8C582C8CCC583ED
:10090800CCF0A3C8C582C8CCC583CCDFE9DEE780BC
:100918000D89828A83E493A3F608DFF9ECFAA9F03B
:10092800EDFB2289828A83ECFAE0A3C8C582C8CC91
:10093800C583CCF0A3C8C582C8CCC583CCDFEADEAA
:10094800E880DB89828A83E493A3F208DFF980CC0C
:1009580088F0EF60010E4E60C388F0ED2402B40405
:100968000050B9F582EB2402B4040050AF232345AC
:0609780082239008D873F1
:10097E00BB010689828A83E0225002E722BBFE0277
:09098E00E32289828A83E49322AA
:10099700BC000BBE0029EF8DF084FFADF022E4CC44
:1009A700F875F008EF2FFFEE33FEEC33FCEE9DEC0D
:1009B700984005FCEE9DFE0FD5F0E9E4CEFD22ED53
:1009C700F8F5F0EE8420D21CFEADF075F008EF2F9D
:1009D700FFED33FD4007985006D5F0F222C398FD8E
:0509E7000FD5F0EA222B
:1009EC00EB9FF5F0EA9E42F0E99D42F0E89C45F061
:0109FC0022D8
:1009FD00E8600FECC313FCED13FDEE13FEEF13FFD8
:030A0D00D8F122FB
:100A1000E8600FEFC333FFEE33FEED33FDEC33FC44
:030A2000D8F122E8
:100A2300BB010789828A83020BEF5005E9F8020AAA
:100A33005DBBFE05E9F8020BFB89828A83020C0782
:100A4300BB010789828A83020AA25005E9F8020AD8
:0A0A530096BBFE05E9F8020C17221D
:0C0A5D00E6FC08E6FD08E6FE08E6FF22C5
:0D0A6900E6FB08E6F908E6FA08E6CBF822FD
:100A76007401FF3395E0FEFDFC080808E62FFFF63B
:100A860018E63EFEF618E63DFDF618E63CFCF622B4
:0C0A9600ECF608EDF608EEF608EFF6228C
:0C0AA200ECF0A3EDF0A3EEF0A3EFF022C7
:100AAE00D083D082E493F608740193F6087402930F
:090ABE00F608740393F674047346
:100C5900E5622456F8E60562227853300702785691
:100C6900E475F001120C2302097E2000EB7F2ED2DD
:100C7900008018EF540F2490D43440D4FF30040B73
:100C8900EF24BFB41A0050032461FFE56360021525
:100C9900630566E5667002056530070D7853E475EE
:100CA900F001120C23EF020BDD0232D67403D207D6
:100CB9008003E4C207F5628B538A548955E4F563CE
:100CC900F565F566E56360077F20120C9480F5757C
:100CD90064FFC201C200C202C203C205C206C20841
:100CE900120C62FF700D3007057F00120CA5AF666C
:100CF900AE6522B4255FC2D5C204120C62FF24D0AE
:100D0900B40A00501A75F00A786330D50508B6FFA1
:100D19000106C6A426F620D5047002D20380D92480
:100D2900CFB41A00EF5004C2E5D204020EA5D201D5
:100D390080C6D20080C0D20280BCD2D580BAD2058A
:100D490080B47F20120C942002077401B56300401F
:100D5900F1120C59FF120C94020CCDD208D2068064
:100D690095120C59FB120C59FA120C59F94A4B708D
:100D79000679767A0F7BFF20022EE563602A7E00D2
:100D89008E82758300120BB060060EEE656470F0FA
:100D9900C2D5EBC0E0EAC0E0E9C0E0EE120EECD04B
:100DA900E0F9D0E0FAD0E0FB12097EFF60AAEBC0BF
:100DB900E0EAC0E0E9C0E0120C94D0E02401F9D0E7
:100DC900E03400FAD0E0FBE5640460DCD564D98046
:100DD900877BFF7A0E79E8D202809C7910800279AC
:100DE90008C206C2088008D2D5790A8004790AC2E5
:100DF900D5E564047002F564E4FAFDFEFF120C59AE
:100E0900FC7B08200113120C59FD7B1030000A12DB
:100E19000C59FE120C59FF7B20EC3382D592D55028
:100E290013C3E43000069FFFE49EFEE42001039D06
:100E3900FDE49CFCE4CBF8C201EC700CCFCECDCC28
:100E4900E824F8F870F38017C3EF33FFEE33FEEDB3
:100E590033FDEC33FCEB33FB994002FB0FD8E9EB94
:100E6900300105F8D0E0C448B201C0E00AEC4D4EAB
:100E79004F78207B0070C2EAB5640040BCC0E01224
:100E89000EEED0F0D0E0200104C4C0E0C4B201C02D
:100E9900F0120C7DD0F0D5F0EB020CCD120C330D15
:100EA9006A530DE4580D3B4C0D37420DE84F0DF0D8
:0F0EB900440DF0490D50430DF6550DDA460DDA94
:100EC800450DDA470F96500D3F2D0D432E0D662B1D
:100ED8000D47230D64200F7F2A0CFF4800000D5E8C
:100EE8003F3F3F00790AA2D5200314300509B91005
:100EF800020404B9080104A2D52006025001042006
:100F080002689202B563005034C0E07F20300319B4
:100F18007F30A20272067205500F120F45C202C23C
:100F280006C205C2087F30800F300503E9C0E01211
:100F38000C94300503D0E0F9D0E0B563CC30051748
:100F48007F30B9100C120C947F583004077F7880DA
:100F580003B90803120C943002057F2D020C947F0C
:100F6800202008F87F2B2006F322920280CF286EDB
:100F7800756C6C2900D201120C593001F8C2017845
:100F88006330D50108F6020CFF2D50434958120C66
:100F9800592403B405004001E4900F9193120C8585
:0D0FA800743A120C85D203756304020DE447
:100AC700E709F60870FA8046E709F20870FA803EEF
:100AD70088828C83E709F0A370FA807EE309F60821
:100AE70070FA8076E309F20870FA806E88828C8348
:100AF700E309F0A370FA806289828A83E0A3F6088B
:100B070070FA805689828A83E0A3F20870FA804AD5
:100B170080D280FA80C680D4806580F280318010D0
:100B270080A680EA809A80A880DA80E280CA803135
:100B370089828A83ECFAE493A3C8C582C8CCC583AB
:100B4700CCF0A3C8C582C8CCC583CC70E9800D8919
:100B5700828A83E493A3F60870F9ECFAA9F0EDFB17
:100B67002289828A83ECFAE0A3C8C582C8CCC583F0
:100B7700CCF0A3C8C582C8CCC583CC70EA80DD8918
:100B8700828A83E493A3F20870F980CE88F0ED247B
:100B970002B4040050C4F582EB2402B4040050BA36
:090BA7002323458223900B1773F0
:100BB000BB010CE58229F582E5833AF583E02250FA
:100BC00006E92582F8E622BBFE06E92582F8E22244
:0D0BD000E58229F582E5833AF583E493225E
:100BDD00BB010689828A83F0225002F722BBFE01F7
:020BED00F322F1
:0C0BEF00E0FCA3E0FDA3E0FEA3E0FF2279
:0C0BFB00E2FC08E2FD08E2FE08E2FF2236
:100C0700E493FC740193FD740293FE740393FF2233
:0C0C1700ECF208EDF208EEF208EFF22219
:100C2300FAE6FB0808E6F925F0F618E6CA3AF622D2
:100C3300D083D082F8E4937012740193700DA3A350
:100C430093F8740193F5828883E473740293686064
:060C5300EFA3A3A380DF64
:1032D600EFB40A07740D1232E1740A309811A899F6
:1032E600B8130CC2983098FDA899C298B811F63058
:0732F60099FDC299F5992230
:00000001FF
