:10000000020523E709F608DFFA8046E709F208DF70
:10001000FA803E88828C83E709F0A3DFFA8032E31E
:1000200009F608DFFA8078E309F208DFFA807088C1
:10003000828C83E309F0A3DFFA806489828A83E0FB
:10004000A3F608DFFA805889828A83E0A3F208DFEA
:10005000FA804C80D280FA80C680D4806980F28099
:1000600033801080A680EA809A80A880DA80E280BF
:10007000CA803389828A83ECFAE493A3C8C582C814
:10008000CCC583CCF0A3C8C582C8CCC583CCDFE97E
:10009000DEE7800D89828A83E493A3F608DFF9EC1A
:1000A000FAA9F0EDFB2289828A83ECFAE0A3C8C5A5
:1000B00082C8CCC583CCF0A3C8C582C8CCC583CCCC
:1000C000DFEADEE880DB89828A83E493A3F208DF3B
:1000D000F980CC88F0EF60010E4E60C388F0ED240B
:1000E00002B4040050B9F582EB2402B4040050AF0E
:1000F000232345822390005373E709F60870FA80A2
:1001000046E709F20870FA803E88828C83E709F09E
:10011000A370FA807EE309F60870FA8076E309F2AC
:100120000870FA806E88828C83E309F0A370FA80ED
:100130006289828A83E0A3F60870FA805689828AEF
:1001400083E0A3F20870FA804A80D280FA80C680E9
:10015000D4806580F28031801080A680EA809A8009
:10016000A880DA80E280CA803189828A83ECFAE44E
:1001700093A3C8C582C8CCC583CCF0A3C8C582C828
:10018000CCC583CC70E9800D89828A83E493A3F681
:100190000870F9ECFAA9F0EDFB2289828A83ECFA67
:1001A000E0A3C8C582C8CCC583CCF0A3C8C582C8AB
:1001B000CCC583CC70EA80DD89828A83E493A3F284
:1001C0000870F980CE88F0ED2402B4040050C4F524
:1001D00082EB2402B4040050BA2323458223900109
:1001E0004973BB010689828A83E0225002E722BB61
:1001F000FE02E32289828A83E49322C2947F6412FE
:1002000004DF7F641204DFD294759850758780757F
:100210008920758DE6D28E7824763C7D017FA512EB
:1002200004798F0812050F758DF37F058016E4FDA4
:100230007F601204798F0812050F7825E6C39402B7
:1002400050077F641204DF80E57FC81204DFC29488
:10025000E4F5087F641204DFE4FD7F71120479EF96
:1002600060090508E508C3940540E878247C007D12
:10027000007BFF7A0379BE1201C57D207F641204E2
:10028000798F08E4F50FE50864B36057E508644228
:100290006051AF0812050F782476067D017F7B122E
:1002A00004798F0812050F7824E664067025761409
:1002B0007D017F7B1204798F0812050F7824E6F503
:1002C0000FFF7E0078107C007D007B007A0079258E
:1002D0001200D3E47824F67D017F671204798F0839
:1002E00012050F78247C007D007BFF7A0379CE1203
:1002F00001C57D207F651204798F0812050F7BFFF1
:100300007A0379DC8B0B8A0C890D1204FA8E098F23
:100310000AE50A45096052C3E50A941FE5099400FD
:100320005005850A08800375081FC3E50A9508F57E
:100330000AE5099400F509AF087E0078257C007D68
:1003400000AB0BAA0CA90D1200D3E508250DF50D85
:10035000E4350CF50C7824A608E50804FD7F7C1232
:1003600004798F0812050F80A8AF0F7E0078257CD6
:10037000007D007B007A0079101200D37824A60F4C
:10038000E50F04FD7F7C1204798F0812050F782495
:1003900076017D017F671204798F0812050FE4FD55
:1003A0007F601204798F0812050F7825E6D3940137
:1003B00040077F641204DF80E5D29402022E5C4382
:1003C00035315C43483337354846542E43005CCBC7
:1003D000ABBBF7CED2B0C92E545854004E6F7465E3
:1003E0003A200D0AD5E2B8F6B3CCD0F2CAC7D2D4BF
:1003F000D7D6BDDACEAAB5A5CEBBBDF8D0D055C5EF
:10040000CCCEC4BCFEB6C1D0B42CB5A5C6ACBBFA2C
:10041000D6BBD0E8D2AAD3D0BCB8CAAED7D6BDDA44
:10042000B5C452414D2CB2BBD0E8D2AACDE2B2BF86
:1004300052414D2C0D0ACAD7CFC8B4D32F43353102
:100440002F43483337354846542E43CEC4BCFED6DE
:10045000D0B6C1B3F6C7B03230B8F6D7D6B7FB2C9A
:10046000C8BBBAF3D0B4B5BDB1BECBB5C3F7B5C444
:10047000CFC2D2BBD0D00D0A00AE05C295C295C284
:1004800098D29512052FAF0612052FEE6012E4FCEC
:10049000EC6E600C74242CF8E6FF12052F0C80F033
:1004A000120537AD07ED7018120537AC07EC602C5C
:1004B000E4FE12053774242EF8A6070EDCF4801C27
:1004C000ED641D6017ED641E6012ED64EE600DEDCD
:1004D00064826003BD15057F641204DFAF0522EF5F
:1004E00060177EC87403250EF50EDEF87EC874030F
:1004F000250EF50EDEF81F80E622E4FFFE1201E273
:10050000600C0FEF70010E09E970F20A80EF22EF24
:100510006010E4FDED1392947F641204DF63050123
:1005200080F222787FE4F6D8FD7581430201FBC298
:0F053000998F993099FD223098FDAF99C298228A
:00000001FF
