:1000000002231190BDF17422F00000000090BCF0BA
:10001000E0FFE53FC3941050071207DCEF600122B8
:100020001221B7EF600122C20B7850E6645C6004D5
:10003000E6B42F05752B5180177851E6643A6003BA
:1000400002010418E6C394435003020104752B53C4
:10005000E544B40310901017E0FCA3E0FDA3E0FE1C
:10006000A3E0FF8005E4FFFEFDFC8F3B8E3A8D3957
:100070008C38A82BE6600302010774FFF543F542B4
:10008000F541F540E5446403605D753B0290101155
:10009000E0FCA3E0FDA3E0FEA3E0FFEFC0E09010D2
:1000A0001AE0FBD0E0FFC3EF9BFFEE9400FEED945F
:1000B00000FDEC9400FC901011121365901019E0F3
:1000C000FEA3E0A82E088005C333CE33CED8F9FFB7
:1000D000E48F438E42F541F540AF22FCFDFE9010C7
:1000E00017121365752280853B32853A3185393088
:1000F00085382FE4F54FF54EF54DF54CF533753F4A
:10010000127F4122752B50A82BE6B4E5027605E557
:100110003B700CE5387008E5397004E53A603E85BF
:100120002233E53B24FEFFE53A34FFFEE53934FF98
:10013000FDE53834FFFC901008E0F9F812132D901B
:100140001011E0F8A3E0F9A3E0FAA3E02FF548EAE4
:100150003EF547E93DF546E83CF545802B90101A01
:10016000E0F533AF33CBEFCB901011E0FCA3E0FD13
:10017000A3E0FEA3E0C39BF548EE9400F547ED94A1
:1001800000F546EC9400F545E533700302043312A4
:100190001518EF600122E4F53DF53ED3901016E00E
:1001A000953E901015E0953D5003020419E54A254F
:1001B0003EF52DE549353DF52C852D82F583E0FF93
:1001C0007003020460EF64E5700302040BBF0502D4
:1001D0007FE5A82BE6FE6F6008EE642A6003020448
:1001E0000BE4F537FFEFC3940B5078E52D2FF58224
:1001F000E4352CF583E0FEAD37E52B2DF8EE666097
:100200005DAD37E52B2DF8E66015AD37E52B2DF804
:10021000E6645C600AAD37E52B2DF8E6B42F1FEEDF
:100220006420703FEFC394085010E52D2408F58238
:10023000E4352CF583E0642070297F0B8025AE37F0
:10024000E52B2EF8E6B42E1BE5376408600EE52D8D
:100250002FF582E4352CF583E0B420077F070F05E6
:10026000378082EFC3940B500302034CE52D240B1F
:10027000F582E4352CF583E030E30302034CC20938
:10028000E52D241AFFE4352CFE1222EDE48F3B8E7F
:100290003AF539F538E544B40310E52D2414FFE4AC
:1002A000352CFE1222ED8E388F39AF37E52B2FF823
:1002B000E66006200903020342853B32853A318518
:1002C000393085382FE4F54FF54EF54DF54CF533C3
:1002D000E52D240BF582E4352CF583E030E41F7422
:1002E000FFF543F542F541F5407D137F101221BB28
:1002F000EF6001223009047F4380027F4122E52D17
:10030000241CFFE4352CFE1222788F438E428D414F
:100310008C40E53B7017E5387013E539700FE53A0E
:10032000700B7533FFF543F542F541F5407D147FC1
:10033000101221BBEF6001223009047F4380027F4D
:100340000022E53704252BF52B020107AF37E52BFB
:100350002FF8E6642A600302040BE52D240BF582D6
:10036000E4352CF583E030E30302040BE537042584
:100370002BF8E67053E4FFF535E52D2FF582E435D3
:100380002CF583E06420602FBF080AAE35E52B2EE4
:10039000F8762E0535E52D2FF582E4352CF583E032
:1003A000FEAD35E52B2DF8EEF6E5357008A82BE609
:1003B000B4050276E505350FBF0BBEAF35E52B2F33
:1003C000F8E4F6D209020280E53704252BF8E6F4BA
:1003D0007032E543700CE5407008E5417004E54279
:1003E0006093E54030E703122344E54324FFF543DF
:1003F000E54234FFF542E54134FFF541E54034FF85
:10040000F5408007E53704252BF8167420253EF5C6
:100410003EE4353DF53D02019BE5482401F548E405
:100420003547F547E43546F546E43545F54515339A
:10043000020188E53B700CE5387008E5397004E589
:100440003A601D7F38E4FD120AF4EF6001222009B2
:100450000F85343885353985363A85373B020107B3
:10046000E4FFE52B2FF8E6FE6013642A600FEE64CC
:100470005C6004EEB42F037FB3220F80E57F42223D
:10048000E518240CF8E60518227809300702780CE4
:10049000E475F0011213E202138A2000EB7F2ED2E2
:1004A000008018EF540F2490D43440D4FF30040B54
:1004B000EF24BFB41A0050032461FFE51960021550
:1004C00019051CE51C7002051B30070D7809E47541
:1004D000F0011213E2EF0213D00221027403D207DB
:1004E0008003E4C207F5188B098A0A890BE4F51921
:1004F000F51BF51CE51960077F201204BB80F5751C
:100500001AFFC201C200C202C203C205C206C2086B
:10051000120489FF700D3007057F001204CCAF1C58
:10052000AE1B22B4255FC2D5C204120489FF24D0B9
:10053000B40A00501A75F00A781930D50508B6FFCC
:100540000106C6A426F620D5047002D20380D92461
:10055000CFB41A00EF5004C2E5D2040206CCD20197
:1005600080C6D20080C0D20280BCD2D580BAD2056B
:1005700080B47F201204BB2002077401B51900402B
:10058000F1120480FF1204BB0204F4D208D20680E8
:1005900095120480FB120480FA120480F94A4B7011
:1005A00006799D7A077BFF20022EE519602A7E00DE
:1005B0008E827583001213A360060EEE651A70F02A
:1005C000C2D5EBC0E0EAC0E0E9C0E0EE120713D00C
:1005D000E0F9D0E0FAD0E0FB12138AFF60AAEBC08A
:1005E000E0EAC0E0E9C0E01204BBD0E02401F9D0A9
:1005F000E03400FAD0E0FBE51A0460DCD51AD980BB
:10060000877BFF7A07790FD202809C79108002796C
:1006100008C206C2088008D2D5790A8004790AC2C5
:10062000D5E51A047002F51AE4FAFDFEFF12048003
:10063000FC7B08200113120480FD7B1030000A129D
:100640000480FE120480FF7B20EC3382D592D550CB
:1006500013C3E43000069FFFE49EFEE42001039DE7
:10066000FDE49CFCE4CBF8C201EC700CCFCECDCC09
:10067000E824F8F870F38017C3EF33FFEE33FEED94
:1006800033FDEC33FCEB33FB994002FB0FD8E9EB75
:10069000300105F8D0E0C448B201C0E00AEC4D4E8C
:1006A0004F78207B0070C2EAB51A0040BCC0E0124F
:1006B0000715D0F0D0E0200104C4C0E0C4B201C0EE
:1006C000F01204A4D0F0D5F0EB0204F41213F205FA
:1006D0009153060B5805624C055E42060F4F0617F4
:1006E00044061749057743061D5506014606014590
:1006F00006014707BD5005662D056A2E058D2B05A1
:100700006E23058B2007A62A052648000005853F95
:100710003F3F00790AA2D5200314300509B9100221
:100720000404B9080104A2D52006025001042002E5
:10073000689202B519005034C0E07F203003197F61
:1007400030A20272067205500F12076CC202C20676
:10075000C205C2087F30800F300503E9C0E01204F3
:10076000BB300503D0E0F9D0E0B519CC3005177FD8
:1007700030B9100C1204BB7F583004077F78800317
:10078000B908031204BB3002057F2D0204BB7F2091
:100790002008F87F2B2006F322920280CF286E7566
:1007A0006C6C2900D2011204803001F8C201781962
:1007B00030D50108F60205262D5043495812048011
:1007C0002403B405004001E49007B8931204AC740C
:1007D0003A1204ACD20375190402060BE53FC39428
:1007E00003500A121FBCEF6001221218BC1223042E
:1007F000E4F52CE4F526F525F524F523121524EF70
:10080000600A1218BC121524EF600122E52C700D4D
:10081000854A82854983E054FD64E96053E4FDED37
:1008200064406049E54A24BEFFE5493401FEED7AA3
:10083000002FFFEA3EF583EF2404F582E43583F5CB
:1008400083E06023E54A24BEFFE5493401FEED2F35
:10085000FFEA3ECF2408CF3400FE1222788F268E86
:10086000258D248C23800974102DFD80B27F922267
:10087000AF26AE25AD24AC239010001213651215DF
:1008800024EF600122854A82854983E054FD64E9B2
:1008900060037FA122E54A240DF582E43549F58302
:1008A000E0F522F5449010087406F0E54420E612C5
:1008B000E54425E0F544901008E014F0E070EC7594
:1008C0002201E54A24161222E8901006EEF0A3EF6A
:1008D000F04E702CE54A24241222738F328E318D13
:1008E000308C2FE4FBFA7901F8D31213095007E595
:1008F0002C60037FA222901006E531F0A3E532F0D0
:10090000E54A2414F582E43549F583E0FFE54A24FD
:1009100013F582E43549F583E04F6012E54A24136C
:100920001222E8E48F3B8E3AF539F538800FE54A1C
:1009300024201222738F3B8E3A8D398C38E54A245D
:10094000111222E8CCEECCCDEFCD901015E0FEA335
:10095000E07805CEC313CE13D8F9147E002DFFEE38
:100960003CFEE52E24FBFDEFC8EDC8088005CEC394
:1009700013CE13D8F9FFE4FCFD901017121365E5B0
:100980004A240E1222E88E3D8F3E901007E0253E4D
:10099000FF901006E0353DFEE4FCFD901017E0F8F6
:1009A000A3E0F9A3E0FAA3E02FF532EA3EF531ED3A
:1009B00039F530EC38F52FE54A2410F582E4354955
:1009C000F583E0D39401401E901006E0FEA3E0FF03
:1009D000E5322FF532E5313EF531ED3530F530ECCD
:1009E000352FF52F8007E4901006F0A3F0C3E53B08
:1009F0009532FFE53A9531FEE5399530FDE53895BC
:100A00002FFC901008E0F9F812131A90100D121331
:100A100065E47BF57AFFF9F8D3121309401FE490DF
:100A20001004F0A3F090100FE0FEA3E094F5EE9414
:100A30000F50057544018024754402801FE54A2447
:100A4000301222E8901004EEF0A3EFF0E54A242CD7
:100A5000122273901017121365754403E53E453D4D
:100A6000604E901017E0FCA3E0FDA3E0FEA3E0FFC2
:100A7000EC4D4E4F603AE54A2410F582E43549F5D5
:100A800083E0D39401400A901006E07002A3E06076
:100A90001FE54A240BF582E43549F583E07011E542
:100AA0004A240CF582E43549F583E0C39402500AE8
:100AB000E52C7006752C010207F3E53E2526FFE5BF
:100AC0003D3525FEE43524FDE43523FC9010091264
:100AD0001365E5322526FFE5313525FEE530352461
:100AE000FDE52F3523FC9010111213657D107F0357
:100AF0001221BB228D0FEFC8E544B4020712134048
:100B000078018008B40312121340780212132D8F5B
:100B1000138E128D118C1080231213408E108F11A2
:100B2000EF139209E510C313FEE511132511FFE53C
:100B3000103EFEE48F138E12F511F510901016E0A2
:100B400024FFFD901015E034FF5EFEED5F254AF5B1
:100B50002DEE3549F52CAF13AE12AD11AC101221AC
:100B6000D9901009E0F8A3E0F9A3E0FAA3E02FF58B
:100B700013EA3EF512E93DF511E83CF510E5136581
:100B80002A7012E5126529700CE51165287006E5DA
:100B9000106527601D300A07121EA5EF600122852F
:100BA0001023851124851225851326121524EF6044
:100BB0000122E50F6025B4FF0474FF8006E50FB441
:100BC000010BE4F513F512F511F510800C852F13C8
:100BD000853012853111853210D20AE544640270E5
:100BE0003F852D82852C83E0F534A3E0F5358534EF
:100BF00037853536E4F534F535AE36AF37C3EF9487
:100C0000F7EE94FF4003D38001C39209E50F600D16
:100C1000852D82852C83E510F0A3E511F07F00225D
:100C2000E5446403705A852D82852C83E0FCA3E0A3
:100C3000FDA3E0FEA3E0F5378E368D358C34E53725
:100C400054F0FFE513540F4FF513E537540F853477
:100C500037F534AF368535368F35AF34EFC3940F63
:100C60004003D38001C39209E50F6011AF13AE12A8
:100C7000AD11AC10852D82852C831213657F002267
:100C800053110F901016E0254AFF901015E03549DA
:100C9000CF24FFCF34FFFEEF652D7003EE652C608F
:100CA00053852D82852C83E0F534852D82852C8318
:100CB000A3E0F535E50F7003020D6F300923E51051
:100CC000C454F0FFE534540F4F852D82852C83F0FA
:100CD000E511C454F0FFE510C4540F4FA3F0020D0A
:100CE0006F852D82852C83E510F0E53554F0451194
:100CF000A3F0807B852D82852C83E0F534E50F60A1
:100D00002230090EE510C454F0FFE534540F4FFFB4
:100D10008002AF10852D82852C83EFF0121EA5EF87
:100D2000600122E52A2401F526E43529F525E4357C
:100D300028F524E43527F523121524EF60012285D8
:100D40004A82854983E0F535E50F602330090FE5D8
:100D500011C454F0FFE510C4540F4FFF8007E53570
:100D600054F04511FF854A82854983EFF0D20A305D
:100D70000913E535C454F0FFE534C4540F4FF5377B
:100D8000E535C48005853437E535540FF536E4F58F
:100D900034F535AE36AF37C3EF94F7EE940F40031A
:100DA000D38001C392097F00221200038F33E53301
:100DB000700A121958EF7003020F1022E5336442D3
:100DC0006003AF3322901016E024E0FF901015E08E
:100DD00034FFFEC3E53E9FE53D9E5003020F10E544
:100DE0003B700FE538700BE5397007E53A70030288
:100DF0000EA6901014E0FFC3E5489FFFE52214FE05
:100E00005FF533E53E6008EE65336003020F107F47
:100E100038E4FD120AF4EF600122200903020F10EA
:100E200012222DEF6001227F387D02120AF4EF605A
:100E30000122121EA5EF600122122304E4FFFE909E
:100E40001015E06EFCA3E06F4C6013E54A2FF582AD
:100E5000E5493EF583E4F00FBF00010E80E1E4F5C3
:100E60003312200BE53E7010F53DF53E8526488592
:100E70002547852446852345852234E534602012A4
:100E80001421EF600122E5262401F526E43525F53D
:100E900025E43524F524E43523F523153480DC12CC
:100EA0001C35EF606B22E53E7066E54824FFF5488F
:100EB000E54734FFF547E54634FFF546E54534FFA1
:100EC000F545F52312151BEF600122E4F53DF53ED3
:100ED000D3901016E0953E901015E0953D402EE51C
:100EE0004A253EFFE549353D8F82F583E0B4E510A4
:100EF000E582240BF582E43583F583E0540E60101F
:100F00007420253EF53EE4353DF53D80C37FB22299
:100F100012222DEF600122121EA5EF600122853200
:100F20003B85313A853039852F38121C35EF600109
:100F300022121518EF600122E54A253EFFE54935EA
:100F40003DFEE4FDEDC3940B50047C2080027C0048
:100F5000EF2DF582E43EF583ECF00DBD20E6EF24A5
:100F600018F582E43EF5837421F0A37430F0EF2489
:100F70001CF582E43EF5837401F0E4FDEDC3940BAF
:100F80005021A82BE6FC601BECB42E047D08052B39
:100F9000A82BE6FCEF2DF582E43EF583ECF00D0581
:100FA0002B80D9853B34853A35853936853837EFFE
:100FB000241AF582E43EF583E534F0A3E535F0EF3D
:100FC0002414F582E43E121418EF600122853B32AE
:100FD000853A3185393085382FE4F543F542F541BE
:100FE000F540F54FF54EF54DF54CF5337D147F107A
:100FF0001221BB22E4F532F531F530F52F90100DBA
:10100000E0FCA3E0FDA3E0FEA3E0FFAB32AA31A920
:1010100030A82FD312130940037FB122E5322401F7
:10102000F532E43531F531E43530F530E4352FF57E
:101030002F7F2FE4FD120AF4EF600122E537700FD5
:10104000E534700BE5357007E5367003021180E575
:1010500044640160A885492C854A2DE544640270EA
:1010600051901015E0C313FEA3E01324FFFFEE34EC
:10107000FFF5348F35F5368F377402252DF52DF5B4
:1010800082E4352CF52CF583E07011A3E0700D851A
:101090002D82852C8374FFF0A3021108E5356009C9
:1010A000D535D6E534600880D01534153580CA02B0
:1010B0001167901015E0FEA3E07802CEC313CE13A3
:1010C000D8F924FFFFEE34FFF5348F35F5368F372E
:1010D0007404252DF52DE4352CF52C852D82F58312
:1010E000E0600302114CA3E0600302114CA3E07026
:1010F0005BA3E0540F7055852D82852C8374FFF01F
:10110000A3F0A3F0A3E0440FF0AE36AF37EF4532C3
:10111000FFEE4531FEE530FDE52FFCEEC0E0EFC00F
:10112000E0E53524FFFFE53434FFCBEFCBFAD0E028
:10113000FFD0E0FEC3EF9BF532EE9AF531ED94005F
:10114000F530EC9400F52FD20A7F0022E5356010CF
:101150001535E53560030210D0E534600A0210D081
:10116000153415350210D0AE36AF37E5324FF532B3
:10117000E5314EF531E530F530E52FF52F020FFD65
:101180007F2F7DFF120AF422300C0A7F3412224690
:10119000EF423580077D037F3412229C90BDF174AD
:1011A0002BF0000000E4F54B90BCF0741FF0000041
:1011B0007455F000007453F000007442F000000415
:1011C000F000007403F000007407F000007405F0F4
:1011D0000000740AF00000E4F0E52E24F8F8E5378A
:1011E000C333D8FC90BCF0F00000E4F00000F00045
:1011F000E5355480F000E535540FF00000740AF036
:10120000E53530E7047F2880027F2A90BCF0EFF0BC
:101210000000E4F0E53530E6117854E6F00008E629
:10122000F00008E6F00008E6801490BCF0E523F03A
:101230000000E524F00000E525F00000E526F000C0
:1012400000E490BCF0F00000F00000E537F0000092
:10125000E4F00000F00000F00000F00000F00000FA
:10126000F00000F000007F31122246EFF535CD7F0F
:101270001E12229C7F331222467D4F122129E54BFC
:101280007007E5356440FD80027D007F3112229CAD
:10129000E54B603B854B35E54B641660057F52128C
:1012A00021F6E54BB416037F82227F32122246EFED
:1012B000C4540F4480FF7D411221297F33122246FE
:1012C000EFC4540FFF7D41122129AF358F4B2230DF
:1012D0000C047F3680027F35E52E24F7F8E53708C9
:1012E0008002C333D8FCFD12229C300C047F37806F
:1012F000027F367D0812229C7F20122246EF44088E
:10130000FD7F2012229C7F0022EB9FF5F0EA9E4297
:10131000F0E99D42F0E89C45F022E8600FECC31331
:10132000FCED13FDEE13FEEF13FFD8F122E8600F82
:10133000EFC333FFEE33FEED33FDEC33FCD8F12287
:10134000E6FC08E6FD08E6FE08E6FF22E6FB08E606
:10135000F908E6FA08E6CBF822ECF608EDF608EE16
:10136000F608EFF622ECF0A3EDF0A3EEF0A3EFF019
:1013700022D083D082E493F608740193F6087402B5
:1013800093F608740393F6740473BB010689828A8A
:1013900083E0225002E722BBFE02E32289828A8395
:1013A000E49322BB010CE58229F582E5833AF583BB
:1013B000E0225006E92582F8E622BBFE06E92582F6
:1013C000F8E222E58229F582E5833AF583E4932267
:1013D000BB010689828A83F0225002F722BBFE01FC
:1013E000F322FAE6FB0808E6F925F0F618E6CA3A11
:1013F000F622D083D082F8E4937012740193700DBA
:10140000A3A393F8740193F5828883E47374029321
:101410006860EFA3A3A380DFF583E536F0A3E5378B
:10142000F0E4F536E53C20E63CE52E64096036E460
:10143000F535753701121188EF60030214F2854902
:1014400027854A28E52EB409047F088014E52EB4C8
:101450000A047F10800BE52EB40B047F2080027FEE
:10146000408F35805990BDF17456F000000000E4C3
:10147000F54B90BCF0E526F00000E525F00000E516
:1014800024F00000E523F000007401F08549278571
:101490004A28E52EB409047F088014E52EB40A0416
:1014A0007F10800BE52EB40B047F2080027F408FDD
:1014B00035E535601E1220D7E54B641E7034AF2829
:1014C000AE27121B258E278F2890BDF17457F0157B
:1014D0003580DE85232785242885252985262A121F
:1014E00020D7E54BB4140BE53C20E50312233C7FE9
:1014F0000022E536C394055015E54B6416600FE5F0
:1015000036C394014003121F13053602142412231C
:1015100004122288121F13228545238546248547FD
:1015200025854826E526652A7015E5256529700F6D
:10153000E52465287009E5236527700302160EE48B
:10154000F536E53C20E61DE52E640960177535800B
:10155000753701121188EF60030215E990BDF1742F
:1015600055F0802790BDF17454F000000000E4F5C0
:101570004B90BCF0E526F00000E525F00000E524E6
:10158000F00000E523F000007401F0854927854A4A
:1015900028E52EB409047F088014E52EB40A047FE0
:1015A00010800BE52EB40B047F2080027F408F3526
:1015B000E535601E1220D7E54B641D702CAF28AEB8
:1015C00027121BAE8E278F2890BDF17455F015356C
:1015D00080DE85232785242885252985262A122033
:1015E000D7E54BB414037F0022E536C394055015AC
:1015F000E54B6416600FE536C394014003121F13D8
:101600000536021542122304122288021F137F009E
:1016100022E53FC3941350037FB422121518EF60E4
:101620000122C20AE54A253EFFE549353DCBEFCB15
:10163000FA7858E6FFEB240BF582E43AF583E0F6FE
:10164000EFF460138B828A83E582240BF582E43504
:1016500083F583EFF0D20A7856E6F53708E6F536DB
:10166000EB2416FFE43AFE1222ED18EEF608EFF630
:10167000E536F4FEE537F44E6012EB2416F582E40D
:101680003AF583E536F0A3E537F0D20A7854E6F56B
:101690003708E6F536EB2418FFE43AFE1222ED187F
:1016A000EEF608EFF6E536F4FEE537F44E6012EBA1
:1016B0002418F582E43AF583E536F0A3E537F0D255
:1016C0000A7850121340785C121359EB241CFFE483
:1016D0003AFE1222787850121359785CE6F4601EB4
:1016E0001213408F438E428D418C40122330EB24E5
:1016F0001CF582E43AF583121365D20AC20B300A54
:1017000005C20A0214217F0022D294C2947F64127F
:101710002212D2941222D77BFF7A1879031204E2A4
:101720001221728F081221957BFF7A18790A120410
:10173000E2E53FC39402500A1220A07F64122212F5
:1017400080EFC2947FC8122212E4F5087F6412224F
:10175000127BFF7A1879161204E2121F6BEF6009F0
:101760000508E508C3940340E3D3901016E0940005
:10177000901015E0941040167BFF7A18791F120420
:10178000E21220A0EF70A17F6412221280F3C295B2
:101790007BFF7A1879361204E27F507C187D631241
:1017A00022C4C296121A8C8F081221957BFF7A18D8
:1017B000796F1204E27F507C187DA41222C47DEA66
:1017C0007C7C7FC87E30121D368F08122195D29600
:1017D000D2957BFF7A1879B21204E2E53FC39402F6
:1017E000400A1220A07F6412221280EFD2947FC898
:1017F0001222120217284572726F723A2025303277
:10180000580A0053746172740A0057616974205554
:101810006469736B0A005265616479203F0A005461
:101820006F6F206C6172676520736563746F7220DF
:1018300073697A650A004F70656E20616E6420726C
:10184000656E616D652043483337354846542E43F5
:1018500020746F2043483337354846542E5458542B
:10186000200A002F43483337354846542E4300534F
:1018700065742066696C65206372656174652064B7
:1018800061746520262074696D6520746F20323084
:1018900030342E30362E30382031353A33393A3222
:1018A00030200A002F43483337354846542E5458C9
:1018B000540054616B65206F75740A007535327F72
:1018C000531221F6E54B706012231DE54A2406F5FC
:1018D00082E43549F583E0FFB40405752E0A8015CE
:1018E000EFB40805752E0B800CEFB41005752E0CA7
:1018F0008003752E0974017E00A82E088005C3336D
:10190000CE33CED8F9901016F0EE901015F0E52EEB
:1019100024F7FF7408C8EFC8088002C333D8FCFD61
:101920007F3912229C7F0022E54B64166027E54B2D
:10193000641560217F3212225D300C0B854B367F9F
:101940005A1221F685364B7F0A12225D1535E53590
:1019500060030218BFAF4B22E53FC3941350071238
:101960000003EF6001221221B7EF60012212151867
:10197000EF600122E54A253EFFE549353D8F82F5BE
:101980008374E5F0121421EF600122AF3BAE3AAD53
:1019900039AC388F378E368D358C34EC4D4E4F60E8
:1019A0004EE53B24FFF53BE53A34FFF53AE53934A3
:1019B000FFF539E53834FFF538E4F532F531F53027
:1019C000F52F7F347D01120AF4EF600122E5322405
:1019D00001F532E43531F531E43530F530E4352FB9
:1019E000F52F3009DD121EA5EF600122021C3F7F9A
:1019F0000022E53B700CE5387008E5397004E53AE3
:101A0000607B853B32853A3185393085382FAF226E
:101A1000E4FCFDFE785012134CC312130940417FC1
:101A20002FE4FD120AF4EF60012220095085342FC3
:101A30008535308536318537327850121340EFC006
:101A4000E0AF22CBEFCBD0E0FFC3EF9BFFEE9400E3
:101A5000FEED9400FDEC9400FC785012135980AE1A
:101A60007853E6FFE522145FF53312200BAF26AE64
:101A700025AD24AC2378501213597F00227533FF13
:101A80007850121371FFFFFFFF7F0022120003EF57
:101A90006003021B241222F7EF6003021B24740070
:101AA000253EFD7400353DFCF583ED2408F582E408
:101AB0003583F583E06443703DED2409F582E43C11
:101AC000F583E0B42030ED2408F582E43CF583741E
:101AD00054F08D828C83E5822409F582E43583F508
:101AE000837458F08D828C83E582240AF582E43574
:101AF00083F5837454F0ED240BF582E43CF583E028
:101B00007858F674FF7856F608F67854F608F678A2
:101B100050121371FFFFFFFF121611EF700678507D
:101B2000F6121CB62290BDF1742BF0E4F54BE53CA7
:101B300054036403FD744090BCF0F0CD6041146028
:101B4000118F828E83E090BCF0F00FBF00010EDD9C
:101B5000F02205A28F828E837D10E0A305A2F005FE
:101B6000A2E0A305A2F005A2E0A305A2F005A2E071
:101B7000A305A2F005A2DDE2AF82AE8305A222EFAB
:101B8000C582F9EEC583C5A0F5F07D08E0A3F3E0BA
:101B9000A3F3E0A3F3E0A3F3E0A3F3E0A3F3E0A354
:101BA000F3E0A3F3DDE685F0A0AF82AE832290BD23
:101BB000F17428F0E4F54BE53C54036403FD90BC5C
:101BC000F0E0CD604114601190BCF0E08F828E8314
:101BD000F00FBF00010EDDF02205A28F828E837D03
:101BE0001005A2E005A2F0A305A2E005A2F0A3055E
:101BF000A2E005A2F0A305A2E005A2F0A3DDE2AFFA
:101C000082AE8305A222EFC582F9EEC583C5A0F599
:101C1000F07D08E3F0A3E3F0A3E3F0A3E3F0A3E394
:101C2000F0A3E3F0A3E3F0A3E3F0A3DDE685F0A0E7
:101C3000AF82AE832274FFF532F531F530F52F9087
:101C40001004E0FCA3E0FD4C7002FF22CFEDCFCEEC
:101C5000ECCEE4FCFD901000E0F8A3E0F9A3E0FA7C
:101C6000A3E02FF526EA3EF525ED39F524EC38F50D
:101C700023121524EF600122E54A24E8FFE54934E8
:101C800001FE122278E5322FF532E5313EF531E5DD
:101C9000303DF530E52F3CF52FAF32AE31AD30FCA5
:101CA000122330E54A24E8F582E5493401F5831230
:101CB000136512142122E53FC3941250037FB4220E
:101CC000E53F6412704FE5446403604990101AE0E8
:101CD000F522AE42E543A82E088005CEC313CE13ED
:101CE000D8F9FFE4FCFD901017121365901011E075
:101CF000F8A3E0F9A3E0FAA3E0FB90101AE0FFE4F8
:101D0000FCFDFEEB2FFFEE3AFEED39FDEC38FC90CA
:101D10001011121365E53FD39413400AE53FB41444
:101D2000077850E67002C20B300B07122056EF60A6
:101D300001221221B7228E098F0A8C0B8D0C120002
:101D400003EF70701222F7EF706A7400253EF50EF3
:101D50007400353DF50DAF0CAE0B122327E50E24B4
:101D60000EF582E4350DF583EEF0A3EFF0AF0AAE89
:101D700009122327E50E2410F582E4350DF583EED4
:101D8000F0A3EFF0E50E240BF582E4350DF583E0CA
:101D90007858F674FF7856F608F67854F608F67810
:101DA00050121371FFFFFFFF121611EF70067850EB
:101DB000F6121CB622120FFDEF600564B16001221D
:101DC000EF6007120FF4EF600122121EA5EF600111
:101DD0002285323B85313A853039852F38121518E6
:101DE000EF600122E54A253EFFE549353DFEF583DA
:101DF000EF241CF582E43583F5837401F0853B34D0
:101E0000853A358539368538378F828E83E5822449
:101E10001AF582E43583F583E534F0A3E535F08FD8
:101E2000828E83E5822414F582E43583121418220D
:101E30007533057D067F651222B0E4F53F90BCF056
:101E4000E0B49A0F7D067F9A1222B090BCF0E06455
:101E500065600912214ED533DA7F81229010157406
:101E600002F0A3E4F090BDF104F000000000C20C09
:101E7000533CBF90BCF0E0F533C394A2400BE53374
:101E800094B64003433C40D20C753F017D157F065C
:101E90001222B07F0112225D90BCF0E0B45F037F9C
:101EA00081227F0022852723852824852925852ACC
:101EB00026121421EF600122901006E0FEA3E0FF3D
:101EC0004E604BE4FCFDE5262FF526E5253EF52585
:101ED000ED3524F524EC3523F523121421EF6001B0
:101EE00022901006E0FEA3E0FBCAEECAC3E5269BE3
:101EF000F526E5259AF525E5249400F524E52394B7
:101F000000F523F52785242885252985262AC20A58
:101F10007F0022753532122337D535FA90BDF17422
:101F200022F00000000090BCF0E0E54B6416600F6A
:101F3000E53F640160097F20122246EF20E5067527
:101F40003F017F8222300C19E53FC3940340128584
:101F50004B35E4F54B90BDF1745AF01220D785351E
:101F60004BE54B70037F1022AF4B221220A0EF6095
:101F7000037F8222E53FC39403501B121FBCEF6016
:101F80000C7F3212225D121FBCEF6001221218BCBE
:101F9000EF6003021F13300C207F591221F6AF4B64
:101FA0008F35EF7002FF227F0A12225D7F5A1221C5
:101FB000F67F0212225DAF35227F00221220A0EFB1
:101FC00060037F82227F511221F6E54B70327D0340
:101FD0007F021221BB300C257F38122246EF601D94
:101FE00012231D854A82854983E0B405107D017F57
:101FF0003412229C7F581221F6E54B70037F002299
:102000007D027F021221BB121F1322E53224FEFF44
:10201000E53134FFFEE53034FFFDE52F34FFFC9061
:102020001008E0F9F812132D901011E0F8A3E0F970
:10203000A3E0FAA3E02FFBEA3EFAE93DF9E83CF819
:10204000E4FCFDFEEB2533F526EE3AF525ED39F5FA
:1020500024EC38F52322C20BE53FC39414403E1212
:102060001518EF600122E54A253EFFE549353DCBD5
:10207000EFCBFAF583EB240BF582E43583F583E0AF
:1020800020E41AAF43AE42AD41AC40122330EB2402
:102090001CF582E43AF5831213650214217F0022B5
:1020A00090BDF17422F00000000090BCF0E0E4F577
:1020B0004B7F20122246EF30E517E53FC3940240E4
:1020C0000A7F1B122246EF547F7003753F027F0088
:1020D00022753F017F822220B2FD90BDF17422F073
:1020E000534B80E54B6003E4F54B90BCF0E0F54BBF
:1020F000E54BB41604753F0122E54BB41503753F5B
:102100000222EFB40A07740D12210D740A309811DF
:10211000A899B8130CC2983098FDA899C298B81124
:10212000F63099FDC299F5992290BDF1EDF00000CD
:102130000000E4F54B90BCF0EFF01220D7E54B70B7
:1021400004754B1022E54BB41403E4F54B227536AD
:102150008090BDF17401F00000000090BCF0E0FF41
:10216000D536EE90BDF17405F0000000007F32021C
:10217000225DE581D394F040037FFC22753C05127B
:102180002341EFC3943550037FFF22754900754A00
:1021900000121E3022EF601E7BFF7A1779F6750C55
:1021A000008F0D1204E2C2947FC8122212D2947FD3
:1021B000C812221280F0227D107F10E53FC39F409D
:1021C000028D3FE53F6D7002FF22753F011220A096
:1021D000EF60037F82227F8322C3E4CC13CD13CE32
:1021E00013FFE52E24F7600DF8C3ED13FDEE13FE8B
:1021F000EF13FFD8F422E4F54B90BDF1EFF012207D
:10220000D7E54B7004754B1022E54BB41403E4F58D
:102210004B22EF60177EC874032509F509DEF87EAE
:10222000C874032509F509DEF81F80E622853B32D4
:10223000853A3185393085382F120FFDEF64B16052
:102240000122120FF42290BDF1740AF00000000088
:1022500090BCF0EFF000006003E0FF2222EF75F089
:1022600005A4F536E536600A1223371223371536F2
:1022700080F222FFE43549FE8F828E83E0FFA3E0E7
:10228000FEA3E0FDA3E0FC22E53FB41204753F038A
:1022900022E53FD394104003753F102290BDF174A6
:1022A0000BF00000000090BCF0EFF00000EDF02219
:1022B00090BDF1EDF000000000E4F54B90BCF0EFB4
:1022C000F00000228D828C83A807E4FFE493F6607F
:1022D0000508A30F80F622759850758780758921AF
:1022E000758DF3D28ED29922FFE43549FE8F828E0E
:1022F00083E0FFA3E0FE2278507F0976FF08DFFB32
:102300001216112274FFF52AF529F528F527C20ABD
:1023100022787FE4F6D8FD75816D02170912230437
:10232000AF4AAE49021BAEAC06ECFBEFFEEBFF2260
:10233000EFCCFFEECDFE227F96DFFE227FFADFFE9E
:05234000227F3522227E
:00000001FF
