:100000000226B890BDF17422F00000000090BCF010
:10001000E0FFE53FC3941050071207DCEF600122B8
:1000200012256BEF600122C20B786DE6645C600400
:10003000E6B42F05752B6E8017786EE6643A600380
:1000400002010418E6C394435003020104752B70A7
:10005000E544B40310900217E0FCA3E0FDA3E0FE2A
:10006000A3E0FF8005E4FFFEFDFC8F3B8E3A8D3957
:100070008C38A82BE6600302010774FFF543F542B4
:10008000F541F540E5446403605D753B0290021163
:10009000E0FCA3E0FDA3E0FEA3E0FFEFC0E09002E0
:1000A0001AE0FBD0E0FFC3EF9BFFEE9400FEED945F
:1000B00000FDEC9400FC900211121974900219E0FA
:1000C000FEA3E0A82E088005C333CE33CED8F9FFB7
:1000D000E48F438E42F541F540AF22FCFDFE9002D5
:1000E00017121974752280853B32853A3185393073
:1000F00085382FE4F54FF54EF54DF54CF533753F4A
:10010000127F4122752B6DA82BE6B4E5027605E53A
:100110003B700CE5387008E5397004E53A603E85BF
:100120002233E53B24FEFFE53A34FFFEE53934FF98
:10013000FDE53834FFFC900208E0F9F812193C9014
:100140000211E0F8A3E0F9A3E0FAA3E02FF548EAF2
:100150003EF547E93DF546E83CF545802B90021A0F
:10016000E0F533AF33CBEFCB900211E0FCA3E0FD21
:10017000A3E0FEA3E0C39BF548EE9400F547ED94A1
:1001800000F546EC9400F545E533700302043312A4
:100190001B27EF600122E4F53DF53ED3900216E007
:1001A000953E900215E0953D5003020419E54A255D
:1001B0003EF52DE549353DF52C852D82F583E0FF93
:1001C0007003020460EF64E5700302040BBF0502D4
:1001D0007FE5A82BE6FE6F6008EE642A6003020448
:1001E0000BE4F537FFEFC3940B5078E52D2FF58224
:1001F000E4352CF583E0FEAD37E52B2DF8EE666097
:100200005DAD37E52B2DF8E66015AD37E52B2DF804
:10021000E6645C600AAD37E52B2DF8E6B42F1FEEDF
:100220006420703FEFC394085010E52D2408F58238
:10023000E4352CF583E0642070297F0B8025AE37F0
:10024000E52B2EF8E6B42E1BE5376408600EE52D8D
:100250002FF582E4352CF583E0B420077F070F05E6
:10026000378082EFC3940B500302034CE52D240B1F
:10027000F582E4352CF583E030E30302034CC20938
:10028000E52D241AFFE4352CFE1226A1E48F3B8EC7
:100290003AF539F538E544B40310E52D2414FFE4AC
:1002A000352CFE1226A18E388F39AF37E52B2FF86B
:1002B000E66006200903020342853B32853A318518
:1002C000393085382FE4F54FF54EF54DF54CF533C3
:1002D000E52D240BF582E4352CF583E030E41F7422
:1002E000FFF543F542F541F5407D137F1012256F70
:1002F000EF6001223009047F4380027F4122E52D17
:10030000241CFFE4352CFE12262C8F438E428D4197
:100310008C40E53B7017E5387013E539700FE53A0E
:10032000700B7533FFF543F542F541F5407D147FC1
:100330001012256FEF6001223009047F4380027F95
:100340000022E53704252BF52B020107AF37E52BFB
:100350002FF8E6642A600302040BE52D240BF582D6
:10036000E4352CF583E030E30302040BE537042584
:100370002BF8E67053E4FFF535E52D2FF582E435D3
:100380002CF583E06420602FBF080AAE35E52B2EE4
:10039000F8762E0535E52D2FF582E4352CF583E032
:1003A000FEAD35E52B2DF8EEF6E5357008A82BE609
:1003B000B4050276E505350FBF0BBEAF35E52B2F33
:1003C000F8E4F6D209020280E53704252BF8E6F4BA
:1003D0007032E543700CE5407008E5417004E54279
:1003E0006093E54030E7031226E2E54324FFF5433E
:1003F000E54234FFF542E54134FFF541E54034FF85
:10040000F5408007E53704252BF8167420253EF5C6
:100410003EE4353DF53D02019BE5482401F548E405
:100420003547F547E43546F546E43545F54515339A
:10043000020188E53B700CE5387008E5397004E589
:100440003A601D7F38E4FD120AF4EF6001222009B2
:100450000F85343885353985363A85373B020107B3
:10046000E4FFE52B2FF8E6FE6013642A600FEE64CC
:100470005C6004EEB42F037FB3220F80E57F42223D
:10048000E568245CF8E60568227859300702785C54
:10049000E475F0011219F10219992000EB7F2ED2B8
:1004A000008018EF540F2490D43440D4FF30040B54
:1004B000EF24BFB41A0050032461FFE56960021500
:1004C00069056CE56C7002056B30070D7859E475B1
:1004D000F0011219F1EF0219DF0224B67403D207FA
:1004E0008003E4C207F5688B598A5A895BE4F56991
:1004F000F56BF56CE56960077F201204BB80F5752C
:100500006AFFC201C200C202C203C205C206C2081B
:10051000120489FF700D3007057F001204CCAF6C08
:10052000AE6B22B4255FC2D5C204120489FF24D069
:10053000B40A00501A75F00A786930D50508B6FF7C
:100540000106C6A426F620D5047002D20380D92461
:10055000CFB41A00EF5004C2E5D2040206CCD20197
:1005600080C6D20080C0D20280BCD2D580BAD2056B
:1005700080B47F201204BB2002077401B5690040DB
:10058000F1120480FF1204BB0204F4D208D20680E8
:1005900095120480FB120480FA120480F94A4B7011
:1005A00006799D7A077BFF20022EE569602A7E008E
:1005B0008E827583001219B260060EEE656A70F0C5
:1005C000C2D5EBC0E0EAC0E0E9C0E0EE120713D00C
:1005D000E0F9D0E0FAD0E0FB121999FF60AAEBC075
:1005E000E0EAC0E0E9C0E01204BBD0E02401F9D0A9
:1005F000E03400FAD0E0FBE56A0460DCD56AD9801B
:10060000877BFF7A07790FD202809C79108002796C
:1006100008C206C2088008D2D5790A8004790AC2C5
:10062000D5E56A047002F56AE4FAFDFEFF12048063
:10063000FC7B08200113120480FD7B1030000A129D
:100640000480FE120480FF7B20EC3382D592D550CB
:1006500013C3E43000069FFFE49EFEE42001039DE7
:10066000FDE49CFCE4CBF8C201EC700CCFCECDCC09
:10067000E824F8F870F38017C3EF33FFEE33FEED94
:1006800033FDEC33FCEB33FB994002FB0FD8E9EB75
:10069000300105F8D0E0C448B201C0E00AEC4D4E8C
:1006A0004F78207B0070C2EAB56A0040BCC0E012FF
:1006B0000715D0F0D0E0200104C4C0E0C4B201C0EE
:1006C000F01204A4D0F0D5F0EB0204F4121A0105E4
:1006D0009153060B5805624C055E42060F4F0617F4
:1006E00044061749057743061D5506014606014590
:1006F00006014707BD5005662D056A2E058D2B05A1
:100700006E23058B2007A62A052648000005853F95
:100710003F3F00790AA2D5200314300509B9100221
:100720000404B9080104A2D52006025001042002E5
:10073000689202B569005034C0E07F203003197F11
:1007400030A20272067205500F12076CC202C20676
:10075000C205C2087F30800F300503E9C0E01204F3
:10076000BB300503D0E0F9D0E0B569CC3005177F88
:1007700030B9100C1204BB7F583004077F78800317
:10078000B908031204BB3002057F2D0204BB7F2091
:100790002008F87F2B2006F322920280CF286E7566
:1007A0006C6C2900D2011204803001F8C201786912
:1007B00030D50108F60205262D5043495812048011
:1007C0002403B405004001E49007B8931204AC740C
:1007D0003A1204ACD20375690402060BE53FC394D8
:1007E00003500A122300EF600122121D181226ABDB
:1007F000E4F52CE4F526F525F524F523121B33EF5B
:10080000600A121D18121B33EF600122E52C700DD7
:10081000854A82854983E054FD64E96053E4FDED37
:1008200064406049E54A24BEFFE5493401FEED7AA3
:10083000002FFFEA3EF583EF2404F582E43583F5CB
:1008400083E06023E54A24BEFFE5493401FEED2F35
:10085000FFEA3ECF2408CF3400FE12262C8F268ECE
:10086000258D248C23800974102DFD80B27F922267
:10087000AF26AE25AD24AC23900200121974121BD2
:1008800033EF600122854A82854983E054FD64E9A3
:1008900060037FA122E54A240DF582E43549F58302
:1008A000E0F522F5449002087406F0E54420E612D3
:1008B000E54425E0F544900208E014F0E070EC75A2
:1008C0002201E54A241612269C900206EEF0A3EFC0
:1008D000F04E702CE54A24241226278F328E318D5B
:1008E000308C2FE4FBFA7901F8D31219185007E580
:1008F0002C60037FA222900206E531F0A3E532F0DE
:10090000E54A2414F582E43549F583E0FFE54A24FD
:1009100013F582E43549F583E04F6012E54A24136C
:1009200012269CE48F3B8E3AF539F538800FE54A64
:1009300024201226278F3B8E3A8D398C38E54A24A5
:100940001112269CCCEECCCDEFCD900215E0FEA38B
:10095000E07805CEC313CE13D8F9147E002DFFEE38
:100960003CFEE52E24FBFDEFC8EDC8088005CEC394
:1009700013CE13D8F9FFE4FCFD900217121974E5A9
:100980004A240E12269C8E3D8F3E900207E0253EA3
:10099000FF900206E0353DFEE4FCFD900217E0F812
:1009A000A3E0F9A3E0FAA3E02FF532EA3EF531ED3A
:1009B00039F530EC38F52FE54A2410F582E4354955
:1009C000F583E0D39401401E900206E0FEA3E0FF11
:1009D000E5322FF532E5313EF531ED3530F530ECCD
:1009E000352FF52F8007E4900206F0A3F0C3E53B16
:1009F0009532FFE53A9531FEE5399530FDE53895BC
:100A00002FFC900208E0F9F812192990020D121932
:100A100074E47BF57AFFF9F8D3121918401FE490BB
:100A20000204F0A3F090020FE0FEA3E094F5EE9430
:100A30000F50057544018024754402801FE54A2447
:100A40003012269C900204EEF0A3EFF0E54A242C2D
:100A5000122627900217121974754403E53E453D8E
:100A6000604E900217E0FCA3E0FDA3E0FEA3E0FFD0
:100A7000EC4D4E4F603AE54A2410F582E43549F5D5
:100A800083E0D39401400A900206E07002A3E06084
:100A90001FE54A240BF582E43549F583E07011E542
:100AA0004A240CF582E43549F583E0C39402500AE8
:100AB000E52C7006752C010207F3E53E2526FFE5BF
:100AC0003D3525FEE43524FDE43523FC9002091272
:100AD0001974E5322526FFE5313525FEE53035244C
:100AE000FDE52F3523FC9002111219747D107F0350
:100AF00012256F228D59EFC8E544B4020712194F31
:100B000078018008B4031212194F780212193C8F31
:100B10005D8E5C8D5B8C5A802312194F8E5A8F5BD1
:100B2000EF139209E55AC313FEE55B13255BFFE55E
:100B30005A3EFEE48F5D8E5CF55BF55A900216E03E
:100B400024FFFD900215E034FF5EFEED5F254AF5BF
:100B50002DEE3549F52CAF5DAE5CAD5BAC5A122580
:100B60008D900209E0F8A3E0F9A3E0FAA3E02FF5E5
:100B70005DEA3EF55CE93DF55BE83CF55AE55D650F
:100B80002A7012E55C6529700CE55B65287006E546
:100B90005A6527601D300A071221E9EF600122859E
:100BA0005A23855B24855C25855D26121B33EF6007
:100BB0000122E5596025B4FF0474FF8006E559B4AD
:100BC000010BE4F55DF55CF55BF55A800C852F5D56
:100BD00085305C85315B85325AD20AE54464027007
:100BE0003F852D82852C83E0F534A3E0F5358534EF
:100BF00037853536E4F534F535AE36AF37C3EF9487
:100C0000F7EE94FF4003D38001C39209E559600DCC
:100C1000852D82852C83E55AF0A3E55BF07F0022C9
:100C2000E5446403705A852D82852C83E0FCA3E0A3
:100C3000FDA3E0FEA3E0F5378E368D358C34E53725
:100C400054F0FFE55D540F4FF55DE537540F8534E3
:100C500037F534AF368535368F35AF34EFC3940F63
:100C60004003D38001C39209E5596011AF5DAE5CCA
:100C7000AD5BAC5A852D82852C831219747F0022BE
:100C8000535B0F900216E0254AFF900215E03549AC
:100C9000CF24FFCF34FFFEEF652D7003EE652C608F
:100CA00053852D82852C83E0F534852D82852C8318
:100CB000A3E0F535E5597003020D6F300923E55ABD
:100CC000C454F0FFE534540F4F852D82852C83F0FA
:100CD000E55BC454F0FFE55AC4540F4FA3F0020D76
:100CE0006F852D82852C83E55AF0E53554F0455B00
:100CF000A3F0807B852D82852C83E0F534E5596057
:100D00002230090EE55AC454F0FFE534540F4FFF6A
:100D10008002AF5A852D82852C83EFF01221E9EFF6
:100D2000600122E52A2401F526E43529F525E4357C
:100D300028F524E43527F523121B33EF60012285C3
:100D40004A82854983E0F535E559602330090FE58E
:100D50005BC454F0FFE55AC4540F4FFF8007E535DC
:100D600054F0455BFF854A82854983EFF0D20A3013
:100D70000913E535C454F0FFE534C4540F4FF5377B
:100D8000E535C48005853437E535540FF536E4F58F
:100D900034F535AE36AF37C3EF94F7EE940F40031A
:100DA000D38001C392097F00221200038F33E53301
:100DB000700A121DB4EF7003020F1022E533644273
:100DC0006003AF3322900216E024E0FF900215E0AA
:100DD00034FFFEC3E53E9FE53D9E5003020F10E544
:100DE0003B700FE538700BE5397007E53A70030288
:100DF0000EA6900214E0FFC3E5489FFFE52214FE13
:100E00005FF533E53E6008EE65336003020F107F47
:100E100038E4FD120AF4EF600122200903020F10EA
:100E20001225E1EF6001227F387D02120AF4EF60A3
:100E300001221221E9EF6001221226ABE4FFFE90AD
:100E40000215E06EFCA3E06F4C6013E54A2FF582BB
:100E5000E5493EF583E4F00FBF00010E80E1E4F5C3
:100E60003312234FE53E7010F53DF53E852648854B
:100E70002547852446852345852234E534602012A4
:100E80001A30EF600122E5262401F526E43525F528
:100E900025E43524F524E43523F523153480DC12CC
:100EA0001FF8EF606B22E53E7066E54824FFF548C9
:100EB000E54734FFF547E54634FFF546E54534FFA1
:100EC000F545F523121B2AEF600122E4F53DF53EBE
:100ED000D3900216E0953E900215E0953D402EE538
:100EE0004A253EFFE549353D8F82F583E0B4E510A4
:100EF000E582240BF582E43583F583E0540E60101F
:100F00007420253EF53EE4353DF53D80C37FB22299
:100F10001225E1EF6001221221E9EF600122853202
:100F20003B85313A853039852F38121FF8EF600143
:100F300022121B27EF600122E54A253EFFE54935D5
:100F40003DFEE4FDEDC3940B50047C2080027C0048
:100F5000EF2DF582E43EF583ECF00DBD20E6EF24A5
:100F600018F582E43EF5837421F0A37430F0EF2489
:100F70001CF582E43EF5837401F0E4FDEDC3940BAF
:100F80005021A82BE6FC601BECB42E047D08052B39
:100F9000A82BE6FCEF2DF582E43EF583ECF00D0581
:100FA0002B80D9853B34853A35853936853837EFFE
:100FB000241AF582E43EF583E534F0A3E535F0EF3D
:100FC0002414F582E43E121A27EF600122853B3299
:100FD000853A3185393085382FE4F543F542F541BE
:100FE000F540F54FF54EF54DF54CF5337D147F107A
:100FF00012256F22D294C2947F641225C6D2941215
:10100000268B7BFF7A1879051204E21225268F5071
:101010001225497BFF7A18790C1204E2E53FC3944C
:1010200002500D12242CEF60077F641225C680EC5D
:10103000C2947FC81225C6E4F5507F641225C67B92
:10104000FF7A1879181204E21222AFEF60090550F6
:10105000E550C3940A40E3D3900216E09400900256
:1010600015E0940240167BFF7A1879211204E212EF
:10107000242CEF709E7F641225C680F3C2957BFFFF
:101080007A1879381204E27F6D7C187D3E1226783A
:101090001200038F50E550702C7BFF7A18794A8537
:1010A000435F85425E85415D85405C1204E27BFFC3
:1010B0007A18795B1204E2786D121980FFFFFFFF46
:1010C0001223E48013E550B44212C2967BFF7A18D3
:1010D00079681204E2120DA98F508002AF501225D8
:1010E00049C2967BFF7A1879701204E2755CFF752D
:1010F0005D18755E7D8543628542618541608540EE
:101100005F7B007A00796E1204DC8F50786DA650F8
:101110001211EE8F501225497BFF7A18799612042E
:10112000E2D28C755208755105E58B541F7553003A
:10113000F554AF8CEFAD8AF555EDF556755CFF753E
:101140005D18755EA6755F00855160855361855495
:1011500062756300855264855565F5667B007A008B
:10116000796E1204DC8E578F58786DA6071211EE37
:101170008F501225497BFF7A1879BE854F5F854EC7
:101180005E854D5D854C5C1204E20552E552B41457
:10119000957BFF7A1879E41204E27F6E7C187DEF6C
:1011A0001226788F50786DA6501211EE8F501225AE
:1011B000497BFF7A1979071204E2786D76011220D3
:1011C000798F50122549D296D2957BFF7A19790EE4
:1011D0001204E2E53FC39402400A12242C7F6412F9
:1011E00025C680EFD2947FC81225C6021013E53FB2
:1011F0006415600712248EEF600122786DE6F52BEE
:101200007006300B030213A5E4786DF6E52B70032E
:1012100002139DE533F47077E53B700CE5387008F8
:10122000E5397004E53A602585324F85314E8530C9
:101230004D852F4C1225EDEF6001227F4C7D02126F
:101240000AF4EF6001221221E9EF6008221220F96E
:10125000EF60012285324F85314E85304D852F4C10
:1012600074FFF532F531F530F52F122002CBEFCBBC
:10127000854F32854E31854D30854C2FEB600122F4
:1012800085434F85424E85414D85404CE4F53312F0
:10129000234F121B33EF600122900215E0FCA3E004
:1012A000FD24FFFBEC34FF554EFEEB554FFFC3ED25
:1012B0009FFFEC9EFEC3EF952BEE94004005852B1F
:1012C000348006E54FF404F534900216E024FFFD67
:1012D000900215E034FF554EFEED554F254AF52D91
:1012E000EE3549F52CAF34E4FCFDFEE54F2FF54F0C
:1012F000EE354EF54EED354DF54DEC354CF54CC318
:10130000E52B9534F52B786DE6246EFFE53426F653
:10131000C8EFC8E6852D82852C83F0052DE52D705C
:1013200002052C0FD534E9121A30EF600122AF4FBD
:10133000AE4EAD4DAC4CAB43AA42A941A840C3123E
:101340001918500E854F43854E42854D41854C40BE
:10135000D20B900216E024FFFD900215E034FF55F9
:101360004EFEED554F4E600302120C0533E533C3BC
:101370009522500302120C7F2FE4FD120AF4EF6055
:1013800001223009067533FF02120C85342F853592
:1013900030853631853732E4F53302120CE53C30C6
:1013A000E406300B0302239A7F0022E4F532F53184
:1013B000F530F52F90020DE0FCA3E0FDA3E0FEA3C5
:1013C000E0FFAB32AA31A930A82FD312191840037D
:1013D0007FB122E5322401F532E43531F531E435CF
:1013E00030F530E4352FF52F7F2FE4FD120AF4EFAE
:1013F000600122E537700FE534700BE5357007E5C5
:10140000367003021537E544640160A885492C85D0
:101410004A2DE54464027051900215E0C313FEA307
:10142000E01324FFFFEE34FFF5348F35F5368F37A8
:101430007402252DF52DF582E4352CF52CF583E08D
:101440007011A3E0700D852D82852C8374FFF0A3AD
:101450000214BFE5356009D535D6E534600880D083
:101460001534153580CA02151E900215E0FEA3E062
:101470007802CEC313CE13D8F924FFFFEE34FFF564
:10148000348F35F5368F377404252DF52DE4352C42
:10149000F52C852D82F583E06003021503A3E0603F
:1014A00003021503A3E0705BA3E0540F7055852D74
:1014B00082852C8374FFF0A3F0A3F0A3E0440FF027
:1014C000AE36AF37EF4532FFEE4531FEE530FDE594
:1014D0002FFCEEC0E0EFC0E0E53524FFFFE534343B
:1014E000FFCBEFCBFAD0E0FFD0E0FEC3EF9BF532AD
:1014F000EE9AF531ED9400F530EC9400F52FD20A18
:101500007F0022E53560101535E53560030214874C
:10151000E534600A02148715341535021487AE3697
:10152000AF37E5324FF532E5314EF531E530F53084
:10153000E52FF52F0213B47F2F7DFF120AF422301E
:101540000C0A7F341225FAEF423580077D037F3481
:1015500012265090BDF1742BF0000000E4F54B9082
:10156000BCF0741FF000007455F000007453F000DC
:10157000007442F0000004F000007403F0000074F6
:1015800007F000007405F00000740AF00000E4F0B9
:10159000E52E24F8F8E537C333D8FC90BCF0F00012
:1015A00000E4F00000F000E5355480F000E535542B
:1015B0000FF00000740AF0E53530E7047F28800260
:1015C0007F2A90BCF0EFF00000E4F0E53530E61142
:1015D0007871E6F00008E6F00008E6F00008E68022
:1015E0001490BCF0E523F00000E524F00000E525B0
:1015F000F00000E526F00000E490BCF0F00000F000
:101600000000E537F00000E4F00000F00000F0001A
:1016100000F00000F00000F00000F000007F311248
:1016200025FAEFF535CD7F1E1226507F331225FAAD
:101630007D4F1224DDE54B7007E5356440FD8002E7
:101640007D007F31122650E54B603B854B35E54BE5
:10165000641660057F521225AAE54BB416037F82FB
:10166000227F321225FAEFC4540F4480FF7D4112CD
:1016700024DD7F331225FAEFC4540FFF7D4112247D
:10168000DDAF358F4B22300C047F3680027F35E58D
:101690002E24F7F8E537088002C333D8FCFD122664
:1016A00050300C047F3780027F367D081226507F31
:1016B000201225FAEF4408FD7F201226507F0022D9
:1016C000E53F6415600712248EEF600122786DE615
:1016D000F52BE4F6E52B70030217F5900215E0FCFC
:1016E000A3E0FD24FFFBEC34FF554EFEEB554FFF0E
:1016F000C3ED9FFFEC9EFEC3EF952BEE94004005DB
:10170000852B348006E54FF404F534AF34EF254FD4
:10171000FFE4354EFEE4354DFDE4354CFCAB43AA09
:1017200042A941A840D3121918500CC3E543954F64
:10173000F53470030217F512234F121B33EF6001CB
:1017400022900216E024FFFD900215E034FF554E72
:10175000FEED554F254AF52DEE3549F52CAF34E415
:10176000FCFDFEE54F2FF54FEE354EF54EED354DB8
:10177000F54DEC354CF54CC3E52B9534F52B786DD8
:10178000E6246EFFE53426F6852D82852C83E0C89D
:10179000EFC8F60F052DE52D7002052CD534E99024
:1017A0000216E024FFFD900215E034FF554EFEEDD9
:1017B000554F4E60030216D40533E533C3952250CE
:1017C000030216D47F2FE4FD120AF4EF60012230E9
:1017D00009117533FF854F43854E42854D41854C38
:1017E00040801285342F853530853631853732E497
:1017F000F5330216D47F00224572726F723A2025AB
:101800003032580A0053746172740A005761697467
:1018100020556469736B0A005265616479203F0A40
:1018200000546F6F206C6172676520736563746F1D
:10183000722073697A650A004F70656E0A002F4D39
:10184000595F4144432E5458540046696C652073D7
:10185000697A65203D20256C640A004C6F636174D1
:1018600065207461696C0A004372656174650A00E1
:10187000577269746520626567696E0A00B4CBC7E8
:10188000B0CEC4BCFEB3A4B6C83D20256C6420D73E
:10189000D6BDDA0D0A0057726974652041444320B1
:1018A000646174610A00253032642E253032642E62
:1018B00025303264204144433D25750D0A004375AF
:1018C0007272656E74206F66667365742028206678
:1018D000696C6520706F696E7420292069732025FA
:1018E0006C640A00577269746520656E640A00BDF5
:1018F000F1CCECB5C4414443CAFDBEDDB5BDB4CBAB
:10190000BDE1CAF80D0A00436C6F73650A005461AB
:101910006B65206F75740A00EB9FF5F0EA9E42F04C
:10192000E99D42F0E89C45F022E8600FECC313FC0F
:10193000ED13FDEE13FEEF13FFD8F122E8600FEF79
:10194000C333FFEE33FEED33FDEC33FCD8F122E67A
:10195000FC08E6FD08E6FE08E6FF22E6FB08E6F9DD
:1019600008E6FA08E6CBF822ECF608EDF608EEF603
:1019700008EFF622ECF0A3EDF0A3EEF0A3EFF022D7
:10198000D083D082E493F608740193F6087402932E
:10199000F608740393F6740473BB010689828A8384
:1019A000E0225002E722BBFE02E32289828A83E41E
:1019B0009322BB010CE58229F582E5833AF583E0A9
:1019C000225006E92582F8E622BBFE06E92582F8C8
:1019D000E222E58229F582E5833AF583E49322BB8E
:1019E000010689828A83F0225002F722BBFE01F3AE
:1019F00022FAE6FB0808E6F925F0F618E6CA3AF6F8
:101A000022D083D082F8E4937012740193700DA3F6
:101A1000A393F8740193F5828883E4737402936846
:101A200060EFA3A3A380DFF583E536F0A3E537F0ED
:101A3000E4F536E53C20E63CE52E64096036E4F545
:101A40003575370112153FEF6003021B01854927E9
:101A5000854A28E52EB409047F088014E52EB40ACF
:101A6000047F10800BE52EB40B047F2080027F40A2
:101A70008F35805990BDF17456F000000000E4F5F8
:101A80004B90BCF0E526F00000E525F00000E524D1
:101A9000F00000E523F000007401F0854927854A35
:101AA00028E52EB409047F088014E52EB40A047FCB
:101AB00010800BE52EB40B047F2080027F408F3511
:101AC000E535601E122463E54B641E7034AF28AE0A
:101AD00027121EE88E278F2890BDF17457F0153518
:101AE00080DE85232785242885252985262A12241A
:101AF00063E54BB4140BE53C20E5031226DA7F00C6
:101B000022E536C394055015E54B6416600FE536A3
:101B1000C3940140031222570536021A331226AB32
:101B200012263C12225722854523854624854725C7
:101B3000854826E526652A7015E5256529700FE597
:101B40002465287009E52365277003021C1DE4F550
:101B500036E53C20E61DE52E640960177535807575
:101B6000370112153FEF6003021BF890BDF1745569
:101B7000F0802790BDF17454F000000000E4F54BB4
:101B800090BCF0E526F00000E525F00000E524F02B
:101B90000000E523F000007401F0854927854A28FC
:101BA000E52EB409047F088014E52EB40A047F10E2
:101BB000800BE52EB40B047F2080027F408F35E53B
:101BC00035601E122463E54B641D702CAF28AE27D0
:101BD000121F718E278F2890BDF17455F015358036
:101BE000DE85232785242885252985262A12246336
:101BF000E54BB414037F0022E536C394055015E588
:101C00004B6416600FE536C394014003122257055A
:101C100036021B511226AB12263C0222577F0022AD
:101C2000E53FC3941350037FB422121B27EF6001DA
:101C300022C20AE54A253EFFE549353DCBEFCBFA06
:101C40007875E6FFEB240BF582E43AF583E0F6EFD6
:101C5000F460138B828A83E582240BF582E435835A
:101C6000F583EFF0D20A7873E6F53708E6F536EB40
:101C70002416FFE43AFE1226A118EEF608EFF6E568
:101C800036F4FEE537F44E6012EB2416F582E43AA2
:101C9000F583E536F0A3E537F0D20A7871E6F5373B
:101CA00008E6F536EB2418FFE43AFE1226A118EEFA
:101CB000F608EFF6E536F4FEE537F44E6012EB2455
:101CC00018F582E43AF583E536F0A3E537F0D20A59
:101CD000786D12194F7879121968EB241CFFE43AD9
:101CE000FE12262C786D1219687879E6F4601E12BF
:101CF000194F8F438E428D418C401226CEEB241C0F
:101D0000F582E43AF583121974D20AC20B300A053F
:101D1000C20A021A307F00227535327F531225AA7B
:101D2000E54B70601226C4E54A2406F582E4354985
:101D3000F583E0FFB40405752E0A8015EFB408059D
:101D4000752E0B800CEFB41005752E0C8003752ECC
:101D50000974017E00A82E088005C333CE33CED887
:101D6000F9900216F0EE900215F0E52E24F7FF74BC
:101D700008C8EFC8088002C333D8FCFD7F3912269B
:101D8000507F0022E54B64166027E54B6415602107
:101D90007F32122611300C0B854B367F5A1225AA42
:101DA00085364B7F0A1226111535E5356003021D75
:101DB0001BAF4B22E53FC394135007120003EF60A3
:101DC000012212256BEF600122121B27EF60012216
:101DD000E54A253EFFE549353D8F82F58374E5F000
:101DE000121A30EF600122AF3BAE3AAD39AC388FFA
:101DF000378E368D358C34EC4D4E4F604EE53B249E
:101E0000FFF53BE53A34FFF53AE53934FFF539E5BE
:101E10003834FFF538E4F532F531F530F52F7F34FD
:101E20007D01120AF4EF600122E5322401F532E46B
:101E30003531F531E43530F530E4352FF52F300903
:101E4000DD1221E9EF6001220220027F0022E53B42
:101E5000700CE5387008E5397004E53A607B853B25
:101E600032853A3185393085382FAF22E4FCFDFECA
:101E7000786D12195BC312191840417F2FE4FD12CF
:101E80000AF4EF60012220095085342F8535308512
:101E90003631853732786D12194FEFC0E0AF22CB63
:101EA000EFCBD0E0FFC3EF9BFFEE9400FEED94007C
:101EB000FDEC9400FC786D12196880AE7870E6FF36
:101EC000E522145FF53312234FAF26AE25AD24ACC7
:101ED00023786D1219687F00227533FF786D12190F
:101EE00080FFFFFFFF7F002290BDF1742BF0E4F52F
:101EF0004BE53C54036403FD744090BCF0F0CD60AE
:101F0000411460118F828E83E090BCF0F00FBF000F
:101F1000010EDDF02205A28F828E837D10E0A305E5
:101F2000A2F005A2E0A305A2F005A2E0A305A2F09D
:101F300005A2E0A305A2F005A2DDE2AF82AE830513
:101F4000A222EFC582F9EEC583C5A0F5F07D08E0B9
:101F5000A3F3E0A3F3E0A3F3E0A3F3E0A3F3E0A390
:101F6000F3E0A3F3E0A3F3DDE685F0A0AF82AE8358
:101F70002290BDF17428F0E4F54BE53C5403640372
:101F8000FD90BCF0E0CD604114601190BCF0E08F9A
:101F9000828E83F00FBF00010EDDF02205A28F823A
:101FA0008E837D1005A2E005A2F0A305A2E005A2A4
:101FB000F0A305A2E005A2F0A305A2E005A2F0A30C
:101FC000DDE2AF82AE8305A222EFC582F9EEC583C2
:101FD000C5A0F5F07D08E3F0A3E3F0A3E3F0A3E3ED
:101FE000F0A3E3F0A3E3F0A3E3F0A3E3F0A3DDE6C3
:101FF00085F0A0AF82AE832274FFF532F531F53063
:10200000F52F900204E0FCA3E0FD4C7002FF22CF0C
:10201000EDCFCEECCEE4FCFD900200E0F8A3E0F9B9
:10202000A3E0FAA3E02FF526EA3EF525ED39F524E5
:10203000EC38F523121B33EF600122E54A24E8FF58
:10204000E5493401FE12262CE5322FF532E5313E0A
:10205000F531E5303DF530E52F3CF52FAF32AE31AF
:10206000AD30FC1226CEE54A24E8F582E54934017C
:10207000F583121974121A3022E53FC394125003EB
:102080007FB422E53F6412704FE5446403604990D9
:10209000021AE0F522AE42E543A82E088005CEC321
:1020A00013CE13D8F9FFE4FCFD90021712197490B7
:1020B0000211E0F8A3E0F9A3E0FAA3E0FB90021A12
:1020C000E0FFE4FCFDFEEB2FFFEE3AFEED39FDEC08
:1020D00038FC900211121974E53FD39413400AE5BD
:1020E0003FB41407786DE67002C20B300B07122361
:1020F0009AEF60012212256B221213B4EF6005647F
:10210000B1600122EF60071213ABEF6001221221D0
:10211000E9EF60012285323B85313A853039852FE0
:1021200038121B27EF600122E54A253EFFE54935BD
:102130003DFEF583EF241CF582E43583F5837401BD
:10214000F0853B34853A358539368538378F828E30
:1021500083E582241AF582E43583F583E534F0A320
:10216000E535F08F828E83E5822414F582E4358391
:10217000121A27227533057D067F65122664E4F561
:102180003F90BCF0E0B49A0F7D067F9A12266490CF
:10219000BCF0E064656009122502D533DA7F812244
:1021A0009002157402F0A3E4F090BDF104F0000079
:1021B0000000C20C533CBF90BCF0E0F533C394A2C6
:1021C000400BE53394B64003433C40D20C753F01CD
:1021D0007D157F061226647F0112261190BCF0E067
:1021E000B45F037F81227F002285272385282485F1
:1021F0002925852A26121A30EF600122900206E076
:10220000FEA3E0FF4E604BE4FCFDE5262FF526E53E
:10221000253EF525ED3524F524EC3523F523121A5A
:1022200030EF600122900206E0FEA3E0FBCAEECA96
:10223000C3E5269BF526E5259AF525E5249400F5CA
:1022400024E5239400F523F5278524288525298571
:10225000262AC20A7F00227535321226D5D535FAD4
:1022600090BDF17422F00000000090BCF0E0E54B5E
:102270006416600FE53F640160097F201225FAEFC4
:1022800020E506753F017F8222300C19E53FC3949B
:10229000034012854B35E4F54B90BDF1745AF012B2
:1022A000246385354BE54B70037F1022AF4B221220
:1022B000242CEF60037F8222E53FC39403501B125E
:1022C0002300EF600C7F32122611122300EF600111
:1022D00022121D18EF6003022257300C207F591282
:1022E00025AAAF4B8F35EF7002FF227F0A1226110D
:1022F0007F5A1225AA7F02122611AF35227F0022B3
:1023000012242CEF60037F82227F511225AAE54B15
:1023100070327D037F0212256F300C257F38122525
:10232000FAEF601D1226C4854A82854983E0B40510
:10233000107D017F341226507F581225AAE54B707C
:10234000037F00227D027F0212256F12225722E5B1
:102350003224FEFFE53134FFFEE53034FFFDE52F8A
:1023600034FFFC900208E0F9F812193C900211E0E9
:10237000F8A3E0F9A3E0FAA3E02FFBEA3EFAE93D77
:10238000F9E83CF8E4FCFDFEEB2533F526EE3AF5E2
:1023900025ED39F524EC38F52322C20BE53FC39433
:1023A00014403E121B27EF600122E54A253EFFE55F
:1023B00049353DCBEFCBFAF583EB240BF582E435C1
:1023C00083F583E020E41AAF43AE42AD41AC401246
:1023D00026CEEB241CF582E43AF583121974021A16
:1023E000307F0022E53F6415600712248EEF600104
:1023F00022786D12194F8F4F8E4E8D4D8C4CAB4302
:10240000AA42A941A840C3121918500C85434F8510
:10241000424E85414D85404CAF4FAE4EAD4DAC4C1C
:1024200012258D786D121968121E4E2290BDF1741E
:1024300022F00000000090BCF0E0E4F54B7F201299
:1024400025FAEF30E517E53FC39402400A7F1B12DF
:1024500025FAEF547F7003753F027F0022753F011C
:102460007F822220B2FD90BDF17422F0534B80E5B3
:102470004B6003E4F54B90BCF0E0F54BE54BB41634
:1024800004753F0122E54BB41503753F0222E53F79
:10249000641460037FB422853B32853A318539303C
:1024A00085382FE4F54FF54EF54DF54CF5337D1598
:1024B0007F1412256F22EFB40A07740D1224C17421
:1024C0000A309811A899B8130CC2983098FDA899B1
:1024D000C298B811F63099FDC299F5992290BDF1D4
:1024E000EDF000000000E4F54B90BCF0EFF012249A
:1024F00063E54B7004754B1022E54BB41403E4F50F
:102500004B2275368090BDF17401F0000000009000
:10251000BCF0E0FFD536EE90BDF17405F000000090
:10252000007F32022611E581D394F040037FFC2224
:10253000753C051226DFEFC3943550037FFF2275EB
:102540004900754A0012217422EF601E7BFF7A1742
:1025500079F8755C008F5D1204E2C2947F641225E5
:10256000C6D2947F641225C680F0227D107F10E5CC
:102570003FC39F40028D3FE53F6D7002FF22753FD4
:102580000112242CEF60037F82227F8322C3E4CCDC
:1025900013CD13CE13FFE52E24F7600DF8C3ED1312
:1025A000FDEE13FEEF13FFD8F422E4F54B90BDF1DE
:1025B000EFF0122463E54B7004754B1022E54BB429
:1025C0001403E4F54B22EF60177EC874032559F518
:1025D00059DEF87EC874032559F559DEF81F80E6E8
:1025E00022853B32853A3185393085382F1213B434
:1025F000EF64B16001221213AB2290BDF1740AF0B6
:102600000000000090BCF0EFF000006003E0FF224B
:1026100022EF75F005A4F536E536600A1226D512CC
:1026200026D5153680F222FFE43549FE8F828E834F
:10263000E0FFA3E0FEA3E0FDA3E0FC22E53FB4122F
:1026400004753F0322E53FD394104003753F1022E9
:1026500090BDF1740BF00000000090BCF0EFF000B2
:1026600000EDF02290BDF1EDF000000000E4F54B2C
:1026700090BCF0EFF00000228D828C83A807E4FF6D
:10268000E493F6600508A30F80F6227598507587CD
:1026900080758921758DF3D28ED29922FFE4354958
:1026A000FE8F828E83E0FFA3E0FE2274FFF52AF501
:1026B00029F528F527C20A22787FE4F6D8FD75812E
:1026C00090020FF41226ABAF4AAE49021F71EFCC55
:1026D000FFEECDFE227F96DFFE227FFADFFE227F15
:0326E0003522227E
:00000001FF
