:1000000002103890BDF17422F00000000090BCF0A6
:10001000E0FFE53EC39410500712079DEF600122F8
:10002000122F9EEF600122C202784FE6645C6004EA
:10003000E6B42F05752A5080177850E6643A6003BD
:1000400002010418E6C394435003020104752A52C6
:10005000E543B40310906A17E0FCA3E0FDA3E0FEC3
:10006000A3E0FF8005E4FFFEFDFC8F3A8E398D385A
:100070008C37A82AE6600302010774FFF542F541B8
:10008000F540F53FE5436403605D753A02906A11FF
:10009000E0FCA3E0FDA3E0FEA3E0FFEFC0E0906A78
:1000A0001AE0FBD0E0FFC3EF9BFFEE9400FEED945F
:1000B00000FDEC9400FC906A111223B0906A19E0E4
:1000C000FEA3E0A82D088005C333CE33CED8F9FFB8
:1000D000E48F428E41F540F53FAF21FCFDFE906A72
:1000E000171223B0752180853A3185393085382F34
:1000F00085372EE4F54EF54DF54CF54BF532753E52
:10010000127F4122752A4FA82AE6B4E5027605E55A
:100110003A700CE5377008E5387004E539603E85C3
:100120002132E53A24FEFFE53934FFFEE53834FF9D
:10013000FDE53734FFFC906A08E0F9F81223789067
:100140006A11E0F8A3E0F9A3E0FAA3E02FF547EA8B
:100150003EF546E93DF545E83CF544802B906A1AAA
:10016000E0F532AF32CBEFCB906A11E0FCA3E0FDBB
:10017000A3E0FEA3E0C39BF547EE9400F546ED94A3
:1001800000F545EC9400F544E532700302043312A7
:1001900023D5EF600122E4F53CF53DD3906A16E0EB
:1001A000953D906A15E0953C5003020419E54925F8
:1001B0003DF52CE548353CF52B852C82F583E0FF99
:1001C0007003020460EF64E5700302040BBF0502D4
:1001D0007FE5A82AE6FE6F6008EE642A6003020449
:1001E0000BE4F536FFEFC3940B5078E52C2FF58226
:1001F000E4352BF583E0FEAD36E52A2DF8EE66609A
:100200005DAD36E52A2DF8E66015AD36E52A2DF808
:10021000E6645C600AAD36E52A2DF8E6B42F1FEEE1
:100220006420703FEFC394085010E52C2408F58239
:10023000E4352BF583E0642070297F0B8025AE36F2
:10024000E52A2EF8E6B42E1BE5366408600EE52C90
:100250002FF582E4352BF583E0B420077F070F05E7
:10026000368082EFC3940B500302034CE52C240B21
:10027000F582E4352BF583E030E30302034CC20042
:10028000E52C241AFFE4352BFE1230B3E48F3A8EAE
:1002900039F538F537E543B40310E52C2414FFE4B1
:1002A000352BFE1230B38E378F38AF36E52A2FF854
:1002B000E66006200003020342853A318539308525
:1002C000382F85372EE4F54EF54DF54CF54BF532CC
:1002D000E52C240BF582E4352BF583E030E41F7424
:1002E000FFF542F541F540F53F7D137F10122FA237
:1002F000EF6001223000047F4380027F4122E52C21
:10030000241CFFE4352BFE1230628F428E418D405B
:100310008C3FE53A7017E5377013E538700FE53913
:10032000700B7532FFF542F541F540F53F7D147FC6
:1003300010122FA2EF6001223000047F4380027F61
:100340000022E53604252AF52A020107AF36E52A00
:100350002FF8E6642A600302040BE52C240BF582D7
:10036000E4352BF583E030E30302040BE536042586
:100370002AF8E67053E4FFF534E52C2FF582E435D6
:100380002BF583E06420602FBF080AAE34E52A2EE7
:10039000F8762E0534E52C2FF582E4352BF583E035
:1003A000FEAD34E52A2DF8EEF6E5347008A82AE60D
:1003B000B4050276E505340FBF0BBEAF34E52A2F36
:1003C000F8E4F6D200020280E53604252AF8E6F4C5
:1003D0007032E542700CE53F7008E5407004E5417D
:1003E0006093E53F30E70312232CE54224FFF542FA
:1003F000E54134FFF541E54034FFF540E53F34FF8A
:10040000F53F8007E53604252AF8167420253DF5CA
:100410003DE4353CF53C02019BE5472401F547E40A
:100420003546F546E43545F545E43544F5441532A1
:10043000020188E53A700CE5377008E5387004E58C
:1004400039601D7F37E4FD120AB5EF6001222000FC
:100450000F85333785343885353985363A020107BB
:10046000E4FFE52A2FF8E6FE6013642A600FEE64CD
:100470005C6004EEB42F037FB3220F80E57F42223D
:100480007853E6FE08E6FBCAEECA784FE6547F7062
:1004900003020613AF3AAE39AD38AC378B828A838C
:1004A0001223B0AF42AE41AD40AC3F122EC1240486
:1004B000122EB41223B0AF4EAE4DAD4CAC4B122E3B
:1004C000C12408122EB41223B0906A171230CA1237
:1004D0002EC1240C122EB41223B0906A111230CA0D
:1004E000122EC12410122EB41223B0AF47AE46AD67
:1004F00045AC44122EC12414122EB41223B0AF29DD
:10050000AE28AD27AC26122EC12418122EB4122309
:10051000B0906A001230CA122EC1241C122EB412DE
:1005200023B0906A091230CA122EC12420122EB4B0
:100530001223B0906A0D1230CA122EC12424122E3A
:10054000B41223B0AF31AE30AD2FAC2E122EC12479
:1005500028122EB41223B0AF2AE4FCFDFE122EC1E5
:10056000242C122EB41223B0122EC12434122EB415
:10057000E53CF0A3E53DF0906A04122EBC2436124F
:100580002EB4EEF0A3EFF0906A06122EBC243812BF
:100590002EB4EEF0A3EFF0906A15122EBC243A129E
:1005A0002EB4EEF0A3EFF0122EC1243C122EB4E5CF
:1005B0003EF0122EC1243D122EB4E53BF0122EC1A6
:1005C000243E122EB4E543F0122EC1243F122EB465
:1005D000E521F0906A08122EBF2440122EB4EFF0ED
:1005E000122EC12441122EB4E532F0122EC1244441
:1005F000122EB4E52DF0A201E433122EC0244212D3
:100600002EB4EFF0A202E433122EC02443122EB413
:10061000EFF0228B828A831230CA8F3A8E398D385E
:100620008C378B828A83EB2404122EC81230CA8F37
:10063000428E418D408C3F8B828A83EB2408122EA0
:10064000C81230CA8F4E8E4D8D4C8C4B8B828A8354
:10065000EB240C122EC81230CA906A17122ECF2427
:1006600010122EC81230CA906A11122ECF24141202
:100670002EC81230CA8F478E468D458C448B828A95
:1006800083EB241C122EC81230CA906A00122ECF9F
:100690002420122EC81230CA906A09122ECF2424A8
:1006A000122EC81230CA906A0D122ECF2428122E94
:1006B000C81230CA8F318E308D2F8C2E8B828A8358
:1006C000EB242C122EC81230CA8F2A8B828A83EB1D
:1006D0002434122EC8E0F53CA3E0F53D8B828A83DA
:1006E000EB2436122EC8E0FFA3E0906A04122ED845
:1006F0002438122EC8E0FFA3E0906A06122ED824F8
:100700003A122EC8E0FFA3E0906A15122ED8243CBE
:10071000122EC8E0F53E8B828A83EB243D122EC850
:10072000E0F53B8B828A83EB243E122EC8E0F54332
:100730008B828A83EB243F122EC8E0F5218B828ABC
:1007400083EB2440122EC8E0906A08122EDC24416C
:10075000122EC8E0F5328B828A83EB2444122EC815
:10076000E0F52D8B828A83EB2442122EC8E024FF11
:1007700092018B828A83EB2443122EC8E024FF92DD
:1007800002784FE630E7158B828A83EB2418122E0D
:10079000C81230CA8F298E288D278C2622E53EC3A9
:1007A0009403500A122D18EF6001221225C6123050
:1007B000BDE4F52BE4F525F524F523F5221223E11C
:1007C000EF600A1225C61223E1EF600122E52B70CB
:1007D0000D854982854883E054FD64E96053E4FD5A
:1007E000ED64406049E54924BEFFE5483401FEED73
:1007F0007A002FFFEA3EF583EF2404F582E4358387
:10080000F583E06023E54924BEFFE5483401FEEDB1
:100810002FFFEA3ECF2408CF3400FE1230628F252E
:100820008E248D238C22800974102DFD80B27F923E
:1008300022AF25AE24AD23AC22906A001223B01261
:1008400023E1EF600122854982854883E054FD64FD
:10085000E960037FA122E549240DF582E43548F5DE
:1008600083E0F521F543906A087406F0E54320E63D
:1008700012E54325E0F543906A08E014F0E070ECDF
:10088000752101E54924161230AE906A06EEF0A3F8
:10089000EFF04E702CE549242412305D8F318E30FC
:1008A0008D2F8C2EE4FBFA7901F8D31223545007D4
:1008B000E52B60037FA222906A06E530F0A3E531C4
:1008C000F0E5492414F582E43548F583E0FFE54975
:1008D0002413F582E43548F583E04F6012E549249E
:1008E000131230AEE48F3A8E39F538F537800FE5C4
:1008F00049242012305D8F3A8E398D388C37E54986
:1009000024111230AECCEECCCDEFCD906A15E0FEC6
:10091000A3E07805CEC313CE13D8F9147E002DFFC3
:10092000EE3CFEE52D24FBFDEFC8EDC8088005CEAA
:10093000C313CE13D8F9FFE4FCFD906A171223B05D
:10094000E549240E1230AE8E3C8F3D906A07E025BB
:100950003DFF906A06E0353CFEE4FCFD906A17E03E
:10096000F8A3E0F9A3E0FAA3E02FF531EA3EF53071
:10097000ED39F52FEC38F52EE5492410F582E435F4
:1009800048F583E0D39401401E906A06E0FEA3E0A0
:10099000FFE5312FF531E5303EF530ED352FF52F00
:1009A000EC352EF52E8007E4906A06F0A3F0C3E53F
:1009B0003A9531FFE5399530FEE538952FFDE5375D
:1009C000952EFC906A08E0F9F8122365906A0D12E2
:1009D00023B0E47BF57AFFF9F8D3122354401FE4E7
:1009E000906A04F0A3F0906A0FE0FEA3E094F5EEA5
:1009F000940F50057543018024754302801FE5491B
:100A000024301230AE906A04EEF0A3EFF0E54924F2
:100A10002C12305D906A171223B0754303E53D45F3
:100A20003C604E906A17E0FCA3E0FDA3E0FEA3E06B
:100A3000FFEC4D4E4F603AE5492410F582E435480D
:100A4000F583E0D39401400A906A06E07002A3E0C7
:100A5000601FE549240BF582E43548F583E0701109
:100A6000E549240CF582E43548F583E0C39402504F
:100A70000AE52B7006752B010207B4E53D2525FF1D
:100A8000E53C3524FEE43523FDE43522FC906A097B
:100A90001223B0E5312525FFE5303524FEE52F355D
:100AA00023FDE52E3522FC906A111223B07D107FC4
:100AB00003122FA2228D08EFC8E543B402071223C8
:100AC0008B78018008B4031212238B7802122378EA
:100AD0008F0C8E0B8D0A8C09802312238B8E098F2D
:100AE0000AEF139200E509C313FEE50A13250AFF76
:100AF000E5093EFEE48F0C8E0BF50AF509906A16A7
:100B0000E024FFFD906A15E034FF5EFEED5F2549AD
:100B1000F52CEE3548F52BAF0CAE0BAD0AAC091237
:100B20002FDE906A09E0F8A3E0F9A3E0FAA3E02F32
:100B3000F50CEA3EF50BE93DF50AE83CF509E50C54
:100B400065297012E50B6528700CE50A65277006AB
:100B5000E5096526601D300107122A97EF60012222
:100B6000850922850A23850B24850C251223E1EFB4
:100B7000600122E5086025B4FF0474FF8006E508E3
:100B8000B4010BE4F50CF50BF50AF509800C852E84
:100B90000C852F0B85300A853109D201E5436402AB
:100BA000703F852C82852B83E0F533A3E0F53485F7
:100BB0003336853435E4F533F534AE35AF36C3EF2F
:100BC00094F7EE94FF4003D38001C39200E50860E0
:100BD0000D852C82852B83E509F0A3E50AF07F00C3
:100BE00022E5436403705A852C82852B83E0FCA3A5
:100BF000E0FDA3E0FEA3E0F5368E358D348C33E5C1
:100C00003654F0FFE50C540F4FF50CE536540F85C4
:100C10003336F533AF358534358F34AF33EFC39486
:100C20000F4003D38001C39200E5086011AF0CAE02
:100C30000BAD0AAC09852C82852B831223B07F0073
:100C400022530A0F906A16E02549FF906A15E03595
:100C500048CF24FFCF34FFFEEF652C7003EE652BE9
:100C60006053852C82852B83E0F533852C82852B80
:100C700083A3E0F534E5087003020D30300023E56E
:100C800009C454F0FFE533540F4F852C82852B8324
:100C9000F0E50AC454F0FFE509C4540F4FA3F00275
:100CA0000D30852C82852B83E509F0E53454F04521
:100CB0000AA3F0807B852C82852B83E0F533E50841
:100CC000602230000EE509C454F0FFE533540F4FA5
:100CD000FF8002AF09852C82852B83EFF0122A97C3
:100CE000EF600122E5292401F525E43528F524E407
:100CF0003527F523E43526F5221223E1EF600122A2
:100D0000854982854883E0F534E508602330000F8B
:100D1000E50AC454F0FFE509C4540F4FFF8007E50E
:100D20003454F0450AFF854982854883EFF0D201AB
:100D3000300013E534C454F0FFE533C4540F4FF5CD
:100D400036E534C48005853336E534540FF535E493
:100D5000F533F534AE35AF36C3EF94F7EE940F406C
:100D600003D38001C392007F00221200038F32E57B
:100D700032700A122662EF7003020ED122E532644D
:100D8000426003AF3222906A16E024E0FF906A15B9
:100D9000E034FFFEC3E53D9FE53C9E5003020ED1CB
:100DA000E53A700FE537700BE5387007E5397003E9
:100DB000020E67906A14E0FFC3E5479FFFE5211428
:100DC000FE5FF532E53D6008EE65326003020ED14C
:100DD0007F37E4FD120AB5EF600122200003020E06
:100DE000D1123017EF6001227F377D02120AB5EF72
:100DF000600122122A97EF6001221230BDE4FFFE4B
:100E0000906A15E06EFCA3E06F4C6013E5492FF586
:100E100082E5483EF583E4F00FBF00010E80E1E477
:100E2000F532122D67E53D7010F53CF53D852547FF
:100E3000852446852345852244852133E53360207A
:100E40001221E2EF600122E5252401F525E4352495
:100E5000F524E43523F523E43522F522153380DC2F
:100E60001228A6EF606B22E53D7066E54724FFF58A
:100E700047E54634FFF546E54534FFF545E544349E
:100E8000FFF544F5221223D8EF600122E4F53CF58A
:100E90003DD3906A16E0953D906A15E0953C402E52
:100EA000E549253DFFE548353C8F82F583E0B4E513
:100EB00010E582240BF582E43583F583E0540E605F
:100EC000107420253DF53DE4353CF53C80C37FB2F0
:100ED00022123017EF600122122A97EF600122855B
:100EE000313A853039852F38852E371228A6EF60A4
:100EF00001221223D5EF600122E549253DFFE54897
:100F0000353CFEE4FDEDC3940B50047C2080027C54
:100F100000EF2DF582E43EF583ECF00DBD20E6EF09
:100F20002418F582E43EF5837421F0A37430F0EFC9
:100F3000241CF582E43EF5837401F0E4FDEDC394D6
:100F40000B5021A82AE6FC601BECB42E047D08059A
:100F50002AA82AE6FCEF2DF582E43EF583ECF00D9D
:100F6000052A80D9853A3385393485383585373631
:100F7000EF241AF582E43EF583E533F0A3E534F07F
:100F8000EF2414F582E43E1221D9EF600122853A64
:100F90003185393085382F85372EE4F542F541F516
:100FA00040F53FF54EF54DF54CF54BF5327D147F90
:100FB00010122FA2225C4335315C43483337354849
:100FC00046542E4300D5D2B2BBB5BD2F4335312F89
:100FD00043483337354846542E43CEC4BCFE0D0A31
:100FE000005C4E455746494C452E545854005C4DC4
:100FF000595F46494C45322E545854004F4B2120DE
:10100000D5E2CAC7D0B4B5BDD0C2CEC4BCFED6D01E
:10101000B5C40D0A007FC87EC80000DEFCDFF822E0
:10102000E493A3F60870F922EF700122C294121023
:1010300015D29412101580F47581CFC29412101538
:10104000D294122331121028E53E64026005122367
:101050000180F5C294121015121015750D051210AD
:1010600015122CC7EF64006003D50DF200C295780D
:101070004F900FB5121020120003EF64B3600AEF17
:101080006442600512102880257F00900200C08213
:10109000C083900FC5EF93D083D082F0A360040F7C
:1010A000BFFFEB750E008F0F750D0102114BE53F71
:1010B0007014E5407010E541C3946840147007E572
:1010C00042C39400400B750D34750E68750F008097
:1010D00015E542F50F24FFE541F50E3401FEE43538
:1010E0004013EE13F50D784FA60DC042C041C0402D
:1010F000C03FE54224FFF542E5413401F541E540BA
:101100003400F540E53F3400F53F1222D912102893
:10111000D03FD040D041D042784F760012292712DC
:1011200010289002007E007F00C3EF950FEE950E11
:101130005019E0FDC39461400AEDD3947A5004ED58
:1011400054DFF0A30FBF00E10E80DEC296784F900F
:101150000FE1121020120D6A121028784FA60D12FE
:1011600022E312102874FF7857F67855F608F678BF
:101170005376300876B2784F760008760008A60ECF
:1011800008A60F1224CE121028784F7600122927B5
:10119000121028784F900FEE121020120D6A1210C4
:1011A000287850900FFC121020784F76181215876F
:1011B000121028784F7601122927121028D296D2C1
:1011C00095E53E6401600512230180F5D29412106A
:1011D00015121015021048E53ED394145007E53E51
:1011E000C3941250037FB422784FE6FF08F67006CE
:1011F0003002030213BBE4784FF67851F608F67814
:1012000050E6700302133FE532F4704AE53A700C81
:10121000E5377008E5387004E539602DE53EB41215
:1012200009E543640360037FB122AF31AE30AD2FD7
:10123000AC2E78591223A4123023EF6001227F597B
:101240007D02120AB5EF6008221229A7EF60012281
:10125000785216E4F532122D677851E66069E52D73
:10126000B409047F408014E52DB40A047F20800B6C
:10127000E52DB40B047F1080027F08EF3395E0FE6C
:101280007851E6C39FEE6480F8748098502E7851B0
:10129000E6FFE4FCFDFE7853122397EF2BFFEE3AB6
:1012A000FEED39FDEC38FCEF6525FFEE6524FEED23
:1012B0006523FDEC6522FC4D4E4F600B121A59EF71
:1012C000600122E47851F67851E6700DAF25AE2426
:1012D000AD23AC2278531223A4C3E5219532FF78C5
:1012E00050E6FEEFD39E400CE60826F618E62532BF
:1012F000F532804B7851EF26F6C318E69FF6E6707C
:10130000187858E66549700418E66548700B121A9B
:1013100059EF600122E47851F67F2EE4FD120AB500
:10132000EF6001223000067532FF0211FF85332E77
:1013300085342F853530853631E4F5320211FF30A2
:101340000107122A97EF6001227851E66007121A0E
:1013500059EF6001227852E66035AF31AE30AD2FE3
:10136000AC2E78591223A47852E6FFE4EFF53174DD
:10137000FFF530F52FF52E1228B0CBEFCB785912B0
:10138000238B8F318E308D2F8C2EEB6002FF22AF9E
:101390004EAE4DAD4CAC4BAB42AA41A940A83FC3A9
:1013A000122354500E854E42854D41854C40854B4D
:1013B0003FD202E53B30E406300203022DB27F004B
:1013C00022300303022D18753E01122E7DEF6003BB
:1013D0007F82227D157F0712309A7F191230479045
:1013E000BCF0E07D157F0612309A7F1912304790CD
:1013F000BCF0E07D8F7F251230867535647F021248
:101400003047122E7DEF6006D535F27F82227F199C
:101410001230477D467F01122F55E54A6003AF4ADF
:10142000227F021230477D457F05122F55E54A6025
:1014300003AF4A227D137F8512309A7F0A1230470C
:101440007D467F02122F55E54A6003AF4A221230D3
:10145000D6E549240EF582E43548F583E06408605A
:10146000037F1F22E549240BF582E43548F583E02C
:10147000FD7F30123086E4F535AF35EF75F007A407
:101480002549FFE5F03548CF2414CF34008F82F58D
:1014900083E0F536A3A3E064407020E53630E70C26
:1014A000E536C454F04409FD7F32800AE536C45461
:1014B000F04401FD7F3312308680037F1F22053503
:1014C000E535B402B47F02123047E5492405F582C0
:1014D000E43548F583E0FF7D49122F55E54A600366
:1014E000AF4A22E4FD7F311230867F021230477D01
:1014F0002B7F0812309A90BCF074A1F0000074FEAB
:10150000F00000E4F00000F00000E549240BF58253
:10151000E43548F583E090BCF0F00000E4F0000012
:1015200004F00000E4F07D807F1E1230867D4F7F46
:101530000D122F55E54A70247F011230477D4F7FF1
:1015400009122F55E54A70147D2BFF12309A7DC089
:101550007F1E1230867D4F7F01122F55E54A600CA9
:101560007F011230477D41E4FF122F557F05123075
:10157000477D247F121220CAE54A70077D037F024F
:10158000022FA2122C1A22E53E64156007122EE3E8
:10159000EF600122784FE6F52A7006300203021749
:1015A0003EE4784FF6E52A7003021736E532F47010
:1015B00077E53A700CE5377008E5387004E5396076
:1015C0002585314E85304D852F4C852E4B1230238D
:1015D000EF6001227F4B7D02120AB5EF60012212FB
:1015E0002A97EF6008221229A7EF60012285314E69
:1015F00085304D852F4C852E4B74FFF531F530F538
:101600002FF52E1228B0CBEFCB854E31854D30858E
:101610004C2F854B2EEB60012285424E85414D8536
:10162000404C853F4BE4F532122D671223E1EF6009
:101630000122906A15E0FCA3E0FD24FFFBEC34FFDF
:10164000554DFEEB554EFFC3ED9FFFEC9EFEC3EFE5
:10165000952AEE94004005852A338006E54EF40471
:10166000F533906A16E024FFFD906A15E034FF55CB
:101670004DFEED554E2549F52CEE3548F52BAF3393
:10168000E4FCFDFEE54E2FF54EEE354DF54DED3506
:101690004CF54CEC354BF54BC3E52A9533F52A78E0
:1016A0004FE62450FFE53326F6C8EFC8E6852C82C6
:1016B000852B83F0052CE52C7002052B0FD533E923
:1016C0001221E2EF600122AF4EAE4DAD4CAC4BAB00
:1016D00042AA41A940A83FC3122354500E854E424E
:1016E000854D41854C40854B3FD202906A16E024DF
:1016F000FFFD906A15E034FF554DFEED554E4E60EE
:10170000030215A50532E532C3952150030215A544
:101710007F2EE4FD120AB5EF60012230000675321B
:10172000FF0215A585332E85342F8535308536315A
:10173000E4F5320215A5E53B30E406300203022D44
:10174000B27F0022E4F531F530F52FF52E906A0DC9
:10175000E0FCA3E0FDA3E0FEA3E0FFAB31AA30A9CB
:101760002FA82ED312235440037FB122E531240148
:10177000F531E43530F530E4352FF52FE4352EF52D
:101780002E7F2EE4FD120AB5EF600122E536700FC0
:10179000E533700BE5347007E53570030218D0E5CA
:1017A00043640160A885482B85492CE54364027099
:1017B00051906A15E0C313FEA3E01324FFFFEE343B
:1017C000FFF5338F34F5358F367402252CF52CF563
:1017D00082E4352BF52BF583E07011A3E0700D85C5
:1017E0002C82852B8374FFF0A3021858E53460091E
:1017F000D534D6E533600880D01533153480CA025D
:1018000018B7906A15E0FEA3E07802CEC313CE139A
:10181000D8F924FFFFEE34FFF5338F34F5358F36DA
:101820007404252CF52CE4352BF52B852C82F583BF
:10183000E0600302189CA3E0600302189CA3E07020
:101840005BA3E0540F7055852C82852B8374FFF0C9
:10185000A3F0A3F0A3E0440FF0AE35AF36EF45316F
:10186000FFEE4530FEE52FFDE52EFCEEC0E0EFC0BB
:10187000E0E53424FFFFE53334FFCBEFCBFAD0E0D3
:10188000FFD0E0FEC3EF9BF531EE9AF530ED94000A
:10189000F52FEC9400F52ED2017F0022E534601084
:1018A0001534E5346003021820E533600A0218207D
:1018B00015331534021820AE35AF36E5314FF5310A
:1018C000E5304EF530E52FF52FE52EF52E02174DBC
:1018D0007F2E7DFF120AB52230030A7F341230308A
:1018E000EF423480077D037F3412308690BDF1745F
:1018F0002BF0000000E4F54A90BCF0741FF00000EB
:101900007455F000007453F000007442F0000004BD
:10191000F000007403F000007407F000007405F09C
:101920000000740AF00000E4F0E52D24F8F8E53634
:10193000C333D8FC90BCF0F00000E4F00000F000ED
:10194000E5345480F000E534540FF00000740AF0E0
:10195000E53430E7047F2880027F2A90BCF0EFF066
:101960000000E4F0E53430E6117853E6F00008E6D4
:10197000F00008E6F00008E6801490BCF0E522F0E4
:101980000000E523F00000E524F00000E525F0006C
:1019900000E490BCF0F00000F00000E536F000003C
:1019A000E4F00000F00000F00000F00000F00000A3
:1019B000F00000F000007F31123030EFF534CD7FC1
:1019C0001E1230867F331230307D4F122F0BE54AC6
:1019D0007007E5346440FD80027D007F311230865F
:1019E000E54A603B854A34E54A641660057F521239
:1019F0002FFBE54AB416037F82227F32123030EF8C
:101A0000C4540F4480FF7D41122F0B7F33123030BE
:101A1000EFC4540FFF7D41122F0BAF348F4A223099
:101A200003047F3680027F35E52D24F7F8E536087C
:101A30008002C333D8FCFD1230863003047F378028
:101A4000027F367D081230867F20123030EF440846
:101A5000FD7F201230867F0022E4F535E53B20E64D
:101A600054E52D6409604E7534407851E6F5361220
:101A700018D8EF6003021B9D853B36E53B131354DA
:101A800003FFE53B54FC4FF53BE52DB409047F080B
:101A90008014E52DB40A047F10800BE52DB40B04EF
:101AA0007F2080027F407851E6FEEF8EF0A485F023
:101AB00033F534806D90BDF17456F000000000E401
:101AC000F54A7856E690BCF0F0000018E6F0000009
:101AD00018E6F0000018E6F000007851E6F0853BCB
:101AE00036E53B13135403FFE53B54FC4FF53BE550
:101AF0002DB409047F088014E52DB40A047F1080FA
:101B00000BE52DB40B047F2080027F407851E6FE68
:101B1000EF8EF0A485F033F534122301E54A641EFC
:101B2000707BE536540C60137857E6FE08E6FF122A
:101B300027967857EEF608EFF6801790BDF1742BD4
:101B4000F000000000E4F54A90BCF07440F0FF1291
:101B5000233090BDF17457F0E54E2440F54EE43546
:101B60004DF54DE4354CF54CE4354BF54BE5346023
:101B700009D534A5E5336008809F15331534809965
:101B800085363B122301E54AB41412E53B20E503F8
:101B90001223277851E6784F26F67F002285363BC0
:101BA000E535C394055022E54A6416601C122B05E6
:101BB000E53B540C7004FF122330E535C39401401B
:101BC00003122C1A0535021A5C123072122C1A22DA
:101BD000E53ED394145007E53EC3941250037FB4FE
:101BE00022784FE608F6E418F67851F6C3E54295F8
:101BF0004EFFE541954DFEE540954CFDE53F954B8B
:101C0000FC122FDE8F368E358D348C33E534700424
:101C1000E5356006785276FF80047852A636785013
:101C2000E67003021D257852E67003021D25E53299
:101C3000F47003021D25122D677851E66069E52DC9
:101C4000B409047F408014E52DB40A047F20800B82
:101C5000E52DB40B047F1080027F08EF3395E0FE82
:101C60007851E6C39FEE6480F8748098502E7851C6
:101C7000E6FFE4FCFDFE7853122397EF2BFFEE3ACC
:101C8000FEED39FDEC38FCEF6525FFEE6524FEED39
:101C90006523FDEC6522FC4D4E4F600B121D30EFAD
:101CA000600122E47851F67851E6700DAF25AE243C
:101CB000AD23AC2278531223A4C3E5219532FFF55E
:101CC000337852E6FEEFD39E4003E6F533E533D397
:101CD000785096400CE60826F618E62532F5328054
:101CE00049C37850E69533F608E53326F6C308E68F
:101CF0009533F6E5332532F53265216003021C1E6B
:101D00007F2EFD120AB5EF6001223000067532FF0A
:101D1000021C1E85332E85342F853530853631E4FF
:101D2000F532021C1E7851E66003021D307F00224E
:101D3000E4F535E53B20E61FE52D640960197534AF
:101D4000C07851E6F5361218D8EF6003021E3590C0
:101D5000BDF17455F0802990BDF17454F00000007D
:101D600000E4F54A7856E690BCF0F0000018E6F082
:101D7000000018E6F0000018E6F000007851E6F0E8
:101D8000853B36E53B13135403FFE53B54FC4FF50D
:101D90003BE52DB409047F088014E52DB40A047FC7
:101DA00010800BE52DB40B047F2080027F4078511A
:101DB000E6FEEF8EF0A485F033F534122301E54AF8
:101DC000641D7071E536540C60137857E6FE08E622
:101DD000FF12281F7857EEF608EFF6801590BDF138
:101DE0007428F000000000E4F54A90BCF0E0FF1217
:101DF000232F90BDF17455F0E54E2440F54EE435A7
:101E00004DF54DE4354CF54CE4354BF54BE5346080
:101E100009D534A7E533600880A115331534809BBC
:101E200085363B122301E54AB4140A7851E6784F0F
:101E300026F67F002285363BE535C394055022E522
:101E40004A6416601C122B05E53B540C7004FF120B
:101E5000232FE535C394014003122C1A0535021DCA
:101E600033123072122C1A22E53E64156007122ECE
:101E7000E3EF600122784FE6F52AE4F6E52A7003E5
:101E8000021F9D906A15E0FCA3E0FD24FFFBEC34EB
:101E9000FF554DFEEB554EFFC3ED9FFFEC9EFEC37D
:101EA000EF952AEE94004005852A338006E54EF42E
:101EB00004F533AF33EF254EFFE4354DFEE4354CEA
:101EC000FDE4354BFCAB42AA41A940A83FD3122305
:101ED00054500CC3E542954EF5337003021F9D121A
:101EE0002D671223E1EF600122906A16E024FFFDC6
:101EF000906A15E034FF554DFEED554E2549F52C01
:101F0000EE3548F52BAF33E4FCFDFEE54E2FF54EE4
:101F1000EE354DF54DED354CF54CEC354BF54BC3F1
:101F2000E52A9533F52A784FE62450FFE53326F667
:101F3000852C82852B83E0C8EFC8F60F052CE52C95
:101F40007002052BD533E9906A16E024FFFD906AF4
:101F500015E034FF554DFEED554E4E6003021E7CDC
:101F60000532E532C395215003021E7C7F2EE4FD2D
:101F7000120AB5EF6001223000117532FF854E4222
:101F8000854D41854C40854B3F801285332E8534ED
:101F90002F853530853631E4F532021E7C7F0022F4
:101FA000122E7DEF60037F8222E53EC3941050071E
:101FB00012079DEF6001227D107F10122FA2EF60AB
:101FC0000122785BA643906A0DE0FCA3E0FDA3E04C
:101FD000FEA3E0FF906A08E0F9F812237878531224
:101FE00023A4906A04E0FEA3E0FF4E6044E4FCFDFD
:101FF000906A00E0F8A3E0F9A3E0FAA3E02FF5254A
:10200000EA3EF524ED39F523EC38F5221223E1EF11
:10201000600122E54924E8FFE5483401FE12306200
:10202000906A08E0F9F812237878571223A4022066
:10203000C778571223BC00000000906A0DE0FCA393
:10204000E0FDA3E0FEA3E02402F531E43EF530E438
:102050003DF52FE43CF52EE4753A02F539F538F5F7
:1020600037E53A6531FFE5396530FEE538652FFD26
:10207000E537652EFC4D4E4F604D7F37E4FD120A6B
:10208000B5EF600122E5367027E5337023E5347043
:102090001FE535701B7857122397E4FCFDFEEB25F6
:1020A00021FFEE3AFEED39FDEC38FC78571223A4FF
:1020B000E53A2401F53AE43539F539E43538F538AF
:1020C000E43537F537809A7F0022122F30784F128F
:1020D00023BC55534243E47858F608F608F6785C7A
:1020E000F6F5357D2B7F1F12309A7F4F784F75366E
:1020F0001FE690BCF0F008D536F77F31123030CDB6
:10210000EFCD8D367F1E1230867F331230307D4FFB
:10211000122F55E54AB416037F8222E54A600FE587
:102120003560030221C6122C7275350180B57F011E
:102130001230477F321230308F356336407857E6A1
:102140006037AD367F1E1230867D4FAF35122F556A
:10215000E54A6012E54A642E706C53367F7D41AFCC
:1021600035122F558013633680785EE6B403077806
:1021700062E6641260031230D6AD367F1E123086DE
:102180007D4FAF35122F55E54A703BE5366480FD33
:102190007F3112308690BDF17428F0000000007F7E
:1021A0004F784F90BCF0E0F536F535E536600A9093
:1021B000BCF0E0F608153680F2E535B40D08785B22
:1021C000E6C394024006754A1F022C72785BE670E3
:1021D00002FF22754A1F7F1F22F583E535F0A3E534
:1021E00036F0E4F535E53B20E63CE52D6409603644
:1021F000E4F5347536011218D8EF60030222B38576
:102200004826854927E52DB409047F088014E52D6B
:10221000B40A047F10800BE52DB40B047F208002EC
:102220007F408F34805990BDF17456F0000000005B
:10223000E4F54A90BCF0E525F00000E524F000004C
:10224000E523F00000E522F000007401F085482647
:10225000854927E52DB409047F088014E52DB40ACB
:10226000047F10800BE52DB40B047F2080027F409B
:102270008F34E534601E122301E54A641E7034AFCA
:1022800027AE261227968E268F2790BDF17457F021
:10229000153480DE85222685232785242885252957
:1022A000122301E54AB4140BE53B20E50312232772
:1022B0007F0022E535C394055015E54A6416600F8A
:1022C000E535C394014003122C1A05350221E512AD
:1022D00030BD123072122C1A22785776020876001E
:1022E000021BD0785776020876000211D7C0D0C002
:1022F000E0C082C083122304D083D082D0E0D0D04B
:102300003220B2FD90BDF17422F0A3A3A390BCF0E3
:10231000E0F54AB41604753E0122B41504753E0278
:1023200022227F96DFFE227FFADFFE22E54922226B
:1023300022E581D394F040037FFC22753B051230E7
:10234000E7EFC3943550037FFF22754800754900BD
:10235000122A2222EB9FF5F0EA9E42F0E99D42F01C
:10236000E89C45F022E8600FECC313FCED13FDEE92
:1023700013FEEF13FFD8F122E8600FEFC333FFEE37
:1023800033FEED33FDEC33FCD8F122E6FC08E6FD2C
:1023900008E6FE08E6FF22E6FB08E6F908E6FA088A
:1023A000E6CBF822ECF608EDF608EEF608EFF6229A
:1023B000ECF0A3EDF0A3EEF0A3EFF022D083D082F7
:1023C000E493F608740193F608740293F608740314
:1023D00093F67404738544228545238546248547F6
:1023E00025E52565297015E5246528700FE5236529
:1023F000277009E522652670030224CBE4F535E554
:102400003B20E61DE52D64096017753480753601A3
:102410001218D8EF60030224A690BDF17455F08025
:102420002790BDF17454F000000000E4F54A90BC20
:10243000F0E525F00000E524F00000E523F00000C1
:10244000E522F000007401F0854826854927E52D36
:10245000B409047F088014E52DB40A047F10800BB2
:10246000E52DB40B047F2080027F408F34E534607B
:102470001E122301E54A641D702CAF27AE261228D8
:102480001F8E268F2790BDF17455F0153480DE85A0
:102490002226852327852428852529122301E54A1C
:1024A000B414037F0022E535C394055015E54A6452
:1024B00016600FE535C394014003122C1A0535024E
:1024C00023FF1230BD123072022C1A7F0022E53E2B
:1024D000C3941350037FB4221223D5EF600122C2AC
:1024E00001E549253DFFE548353CCBEFCBFA785770
:1024F000E6FFEB240BF582E43AF583E0F6EFF460B7
:10250000138B828A83E582240BF582E43583F5837D
:10251000EFF0D2017855E6F53608E6F535EB2416EE
:10252000FFE43AFE1230B318EEF608EFF6E535F4A4
:10253000FEE536F44E6012EB2416F582E43AF5839C
:10254000E535F0A3E536F0D2017853E6F53608E636
:10255000F535EB2418FFE43AFE1230B318EEF60816
:10256000EFF6E535F4FEE536F44E6012EB2418F58F
:1025700082E43AF583E535F0A3E536F0D201784FF1
:1025800012238B785B1223A4EB241CFFE43AFE1287
:102590003062784F1223A4785BE6F4601E12238B1E
:1025A0008F428E418D408C3F1230E0EB241CF5822F
:1025B000E43AF5831223B0D201C202300105C20110
:1025C0000221E27F00227534327F53122FFBE54A4D
:1025D00070601230D6E5492406F582E43548F5836B
:1025E000E0FFB40405752D0A8015EFB40805752DBC
:1025F0000B800CEFB41005752D0C8003752D09743C
:10260000017E00A82D088005C333CE33CED8F990C3
:102610006A16F0EE906A15F0E52D24F7FF7408C8ED
:10262000EFC8088002C333D8FCFD7F391230867FA3
:102630000022E54A64166027E54A641560217F326E
:1026400012304730030B854A357F5A122FFB8535F0
:102650004A7F0A1230471534E53460030225C9AFBA
:102660004A22E53EC394135007120003EF60012293
:10267000122F9EEF6001221223D5EF600122E5495F
:10268000253DFFE548353C8F82F58374E5F0122146
:10269000E2EF600122AF3AAE39AD38AC378F368EFB
:1026A000358D348C33EC4D4E4F604EE53A24FFF5BA
:1026B0003AE53934FFF539E53834FFF538E5373494
:1026C000FFF537E4F531F530F52FF52E7F337D0139
:1026D000120AB5EF600122E5312401F531E435300D
:1026E000F530E4352FF52FE4352EF52E3000DD12D0
:1026F0002A97EF6001220228B07F0022E53A700C91
:10270000E5377008E5387004E539607B853A318536
:10271000393085382F85372EAF21E4FCFDFE784F08
:10272000122397C312235440417F2EE4FD120AB5B1
:10273000EF60012220005085332E85342F853530FF
:10274000853631784F12238BEFC0E0AF21CBEFCB32
:10275000D0E0FFC3EF9BFFEE9400FEED9400FDEC94
:102760009400FC784F1223A480AE7852E6FFE52156
:10277000145FF532122D67AF25AE24AD23AC22785D
:102780004F1223A47F00227532FF784F1223BCFF23
:10279000FFFFFF7F002290BDF1742BF0E4F54AE5C6
:1027A0003B54036403FD744090BCF0F0CD604114D1
:1027B00060118F828E83E090BCF0F00FBF00010E9D
:1027C000DDF02205A28F828E837D10E0A305A2F0AA
:1027D00005A2E0A305A2F005A2E0A305A2F005A2D0
:1027E000E0A305A2F005A2DDE2AF82AE8305A2223E
:1027F000EFC582F9EEC583C5A0F5F07D08E0A3F32F
:10280000E0A3F3E0A3F3E0A3F3E0A3F3E0A3F3E09A
:10281000A3F3E0A3F3DDE685F0A0AF82AE832290C0
:10282000BDF17428F0E4F54AE53B54036403FD90E0
:10283000BCF0E0CD604114601190BCF0E08F828E5E
:1028400083F00FBF00010EDDF02205A28F828E8380
:102850007D1005A2E005A2F0A305A2E005A2F0A369
:1028600005A2E005A2F0A305A2E005A2F0A3DDE227
:10287000AF82AE8305A222EFC582F9EEC583C5A063
:10288000F5F07D08E3F0A3E3F0A3E3F0A3E3F0A306
:10289000E3F0A3E3F0A3E3F0A3E3F0A3DDE685F028
:1028A000A0AF82AE832274FFF531F530F52FF52EFF
:1028B000906A04E0FCA3E0FD4C7002FF22CFEDCF54
:1028C000CEECCEE4FCFD906A00E0F8A3E0F9A3E0D2
:1028D000FAA3E02FF525EA3EF524ED39F523EC388F
:1028E000F5221223E1EF600122E54924E8FFE548E3
:1028F0003401FE123062E5312FF531E5303EF5301E
:10290000E52F3DF52FE52E3CF52EAF31AE30AD2F46
:10291000FC1230E0E54924E8F582E5483401F5830E
:102920001223B01221E222E53EC3941250037FB479
:1029300022E53E6412704FE54364036049906A1AD1
:10294000E0F521AE41E542A82D088005CEC313CEA7
:1029500013D8F9FFE4FCFD906A171223B0906A11B6
:10296000E0F8A3E0F9A3E0FAA3E0FB906A1AE0FF25
:10297000E4FCFDFEEB2FFFEE3AFEED39FDEC38FCFA
:10298000906A111223B0E53ED39413400AE53EB499
:102990001407784FE67002C202300207122DB2EF20
:1029A000600122122F9E2212174DEF600564B16064
:1029B0000122EF6007121744EF600122122A97EFFD
:1029C00060012285313A853039852F38852E3712BE
:1029D00023D5EF600122E549253DFFE548353CFE62
:1029E000F583EF241CF582E43583F5837401F085CB
:1029F0003A338539348538358537368F828E83E58D
:102A000082241AF582E43583F583E533F0A3E534B7
:102A1000F08F828E83E5822414F582E435831221BF
:102A2000D9227532057D067F6512309AE4F53E9015
:102A3000BCF0E0B49A0F7D067F9A12309A90BCF0F9
:102A4000E064656009122F7AD532DA7F8122906ABC
:102A5000157402F0A3E4F090BDF104F00000000052
:102A6000C203533BBF90BCF0E0F532C394A2400BCD
:102A7000E53294B64003433B40D203753E017D15D9
:102A80007F0612309A7F0112304790BCF0E0B45FAD
:102A9000037F81227F002285262285272385282403
:102AA0008529251221E2EF600122906A06E0FEA34B
:102AB000E0FF4E604BE4FCFDE5252FF525E5243EC7
:102AC000F524ED3523F523EC3522F5221221E2EF32
:102AD000600122906A06E0FEA3E0FBCAEECAC3E5ED
:102AE000259BF525E5249AF524E5239400F523E5B7
:102AF000229400F522F5268523278524288525297B
:102B0000C2017F00227851E67E00A82D088005C30F
:102B100033CE33CED8F9FDCCEECCE534AE337806E7
:102B2000C333CE33CED8F9FFC3ED9FF534EC9EF519
:102B300033AE33AF34CBEFCBCAEECAC3E54E9FF50D
:102B40004EE54D9AF54DE54C9400F54CE54B94005F
:102B5000F54BC3E49534FFE49533FE7858EF26F641
:102B600018EE36F622E53EC3941250037FB422AF2E
:102B700042AE41AD40AC3F122FDE8F368E358D34E4
:102B80008C33784F122397D3122354400DAF36AEB7
:102B900035AD34AC33784F1223A4784F12238BE534
:102BA0002D24F8F9F81223788F368E358D348C3336
:102BB00085344B85354C85364DE4F54E1226FC2286
:102BC000122E7DEF60037F8222E53EC394035028DE
:102BD0001213C1EF600C7F321230471213C1EF6045
:102BE00001221225C6EF6010200306122FC0122505
:102BF000C6E54A6003022C1A3003077F59122FFBE7
:102C00008009E4FDFF122F301220CDAF4A8F33EF41
:102C10007002FF22122FC0AF3322753432122322EA
:102C2000D534FA90BDF17422F00000000090BCF0A1
:102C3000E0E54A6416600FE53E640160097F2012FA
:102C40003030EF20E506753E017F8222300319E522
:102C50003EC394034012854A34E4F54A90BDF174B2
:102C60005AF012230185344AE54A70037F1022AFDF
:102C70004A22854A367F03123047122E7DEF6006C6
:102C8000754A827F82227F52122FFBE54AB41603D7
:102C90007F8222E54A7026FD7F311230867F321214
:102CA0003030EFC4540F4480FF7D41122F557F33E5
:102CB000123030EFC4540FFF7D41122F557F0212A6
:102CC0003047AF368F4A22122E7DEF60037F82227B
:102CD000E53EC39403501B122D18EF600C7F321297
:102CE0003047122D18EF6001221225C6EF60030253
:102CF0002C1A3003207F59122FFBAF4A8F34EF700C
:102D000002FF227F0A1230477F5A122FFB7F0212E6
:102D10003047AF34227F0022122E7DEF60037F8286
:102D2000227F51122FFBE54A70327D037F02122F62
:102D3000A23003257F38123030EF601D1230D68567
:102D40004982854883E0B405107D017F34123086C6
:102D50007F58122FFBE54A70037F00227D027F021D
:102D6000122FA2122C1A22E53124FEFFE53034FF87
:102D7000FEE52F34FFFDE52E34FFFC906A08E0F9F4
:102D8000F8122378906A11E0F8A3E0F9A3E0FAA31F
:102D9000E02FFBEA3EFAE93DF9E83CF8E4FCFDFEF1
:102DA000EB2532F525EE3AF524ED39F523EC38F52F
:102DB0002222C202E53EC39414403E1223D5EF60A6
:102DC0000122E549253DFFE548353CCBEFCBFAF53F
:102DD00083EB240BF582E43583F583E020E41AAF1E
:102DE00042AE41AD40AC3F1230E0EB241CF582E432
:102DF0003AF5831223B00221E27F0022E53E6415FA
:102E00006007122EE3EF600122784F12238B8F4E62
:102E10008E4D8D4C8C4BAB42AA41A940A83FC312AA
:102E20002354500C85424E85414D85404C853F4B87
:102E3000AF4EAE4DAD4CAC4B122FDE784F1223A4EB
:102E40001226FC22122E7DEF60037F8222E53EC314
:102E500094035007122D18EF6001221225C6EF606F
:102E600003022C1A854982854883E0FCA3E0FDA378
:102E7000E0FEA3E0FF784F1223A47F002290BDF173
:102E80007422F00000000090BCF0E0E4F54A7F20DE
:102E9000123030EF30E517E53EC39402400A7F1B45
:102EA000123030EF547F7003753E027F0022753E72
:102EB000017F8222F582E43583F58322E0FEA3E0E0
:102EC000FF8B828A83E58222F582E43AF58322121F
:102ED00023B08B828A83EB22CFF0A3EFF08B828A20
:102EE00083EB22E53E641460037FB422853A31858A
:102EF000393085382F85372EE4F54EF54DF54CF5F4
:102F00004BF5327D157F14122FA22290BDF1EDF00A
:102F100000000000E4F54A90BCF0EFF0122301E558
:102F20004A7004754A1022E54AB41403E4F54A22B3
:102F30007857EDF660047E8080027E00785BEEF6C6
:102F4000785D760608EFF6E408F608F608F608ED70
:102F5000F6E408F62290BDF1EDF000000000E4F583
:102F60004A90BCF0EFF0122301E54A7004754A1054
:102F700022E54AB41403E4F54A2275358090BDF188
:102F80007401F00000000090BCF0E0FFD535EE9039
:102F9000BDF17405F0000000007F320230477D1063
:102FA0007F10E53EC39F40028D3EE53E6D7002FFFF
:102FB00022753E01122E7DEF60037F82227F8322E5
:102FC0007F0A1230473003077F5A122FFB80077D9C
:102FD000127F031220CA7F02123047AF4A22C3E495
:102FE000CC13CD13CE13FFE52D24F7600DF8C3ED00
:102FF00013FDEE13FEEF13FFD8F422E4F54A90BD63
:10300000F1EFF0122301E54A7004754A1022E54AF7
:10301000B41403E4F54A22853A3185393085382FD6
:1030200085372E12174DEF64B1600122121744222A
:1030300090BDF1740AF00000000090BCF0EFF000C9
:10304000006003E0FF2222EF75F005A4F535E535B9
:10305000600A122322122322153580F222FFE43562
:1030600048FE8F828E83E0FFA3E0FEA3E0FDA3E095
:10307000FC22E53EB41204753E0322E53ED39410D3
:103080004003753E102290BDF1740BF0000000006B
:1030900090BCF0EFF00000EDF02290BDF1EDF000FB
:1030A000000000E4F54A90BCF0EFF0000022FFE4DD
:1030B0003548FE8F828E83E0FFA3E0FE2274FFF589
:1030C00029F528F527F526C20122E0FCA3E0FDA39F
:1030D000E0FEA3E0FF221230BDAF49AE4802281F38
:0A30E000EFCCFFEECDFE227F35227B
:00000001FF
