:1000000002271090BDF17422F00000000090BCF0B7
:10001000E0FFE53FC3941050071207DCEF600122B8
:100020001225C3EF600122C20B7850E6645C6004C5
:10003000E6B42F05752B5180177851E6643A6003BA
:1000400002010418E6C394435003020104752B53C4
:10005000E544B40310901017E0FCA3E0FDA3E0FE1C
:10006000A3E0FF8005E4FFFEFDFC8F3B8E3A8D3957
:100070008C38A82BE6600302010774FFF543F542B4
:10008000F541F540E5446403605D753B0290101155
:10009000E0FCA3E0FDA3E0FEA3E0FFEFC0E09010D2
:1000A0001AE0FBD0E0FFC3EF9BFFEE9400FEED945F
:1000B00000FDEC9400FC9010111217DC901019E078
:1000C000FEA3E0A82E088005C333CE33CED8F9FFB7
:1000D000E48F438E42F541F540AF22FCFDFE9010C7
:1000E000171217DC752280853B32853A318539300D
:1000F00085382FE4F54FF54EF54DF54CF533753F4A
:10010000127F4122752B50A82BE6B4E5027605E557
:100110003B700CE5387008E5397004E53A603E85BF
:100120002233E53B24FEFFE53A34FFFEE53934FF98
:10013000FDE53834FFFC901008E0F9F81217A490A0
:100140001011E0F8A3E0F9A3E0FAA3E02FF548EAE4
:100150003EF547E93DF546E83CF545802B90101A01
:10016000E0F533AF33CBEFCB901011E0FCA3E0FD13
:10017000A3E0FEA3E0C39BF548EE9400F547ED94A1
:1001800000F546EC9400F545E533700302043312A4
:100190001964EF600122E4F53DF53ED3901016E0BE
:1001A000953E901015E0953D5003020419E54A254F
:1001B0003EF52DE549353DF52C852D82F583E0FF93
:1001C0007003020460EF64E5700302040BBF0502D4
:1001D0007FE5A82BE6FE6F6008EE642A6003020448
:1001E0000BE4F537FFEFC3940B5078E52D2FF58224
:1001F000E4352CF583E0FEAD37E52B2DF8EE666097
:100200005DAD37E52B2DF8E66015AD37E52B2DF804
:10021000E6645C600AAD37E52B2DF8E6B42F1FEEDF
:100220006420703FEFC394085010E52D2408F58238
:10023000E4352CF583E0642070297F0B8025AE37F0
:10024000E52B2EF8E6B42E1BE5376408600EE52D8D
:100250002FF582E4352CF583E0B420077F070F05E6
:10026000378082EFC3940B500302034CE52D240B1F
:10027000F582E4352CF583E030E30302034CC20938
:10028000E52D241AFFE4352CFE1226F9E48F3B8E6F
:100290003AF539F538E544B40310E52D2414FFE4AC
:1002A000352CFE1226F98E388F39AF37E52B2FF813
:1002B000E66006200903020342853B32853A318518
:1002C000393085382FE4F54FF54EF54DF54CF533C3
:1002D000E52D240BF582E4352CF583E030E41F7422
:1002E000FFF543F542F541F5407D137F101225C718
:1002F000EF6001223009047F4380027F4122E52D17
:10030000241CFFE4352CFE1226848F438E428D413F
:100310008C40E53B7017E5387013E539700FE53A0E
:10032000700B7533FFF543F542F541F5407D147FC1
:10033000101225C7EF6001223009047F4380027F3D
:100340000022E53704252BF52B020107AF37E52BFB
:100350002FF8E6642A600302040BE52D240BF582D6
:10036000E4352CF583E030E30302040BE537042584
:100370002BF8E67053E4FFF535E52D2FF582E435D3
:100380002CF583E06420602FBF080AAE35E52B2EE4
:10039000F8762E0535E52D2FF582E4352CF583E032
:1003A000FEAD35E52B2DF8EEF6E5357008A82BE609
:1003B000B4050276E505350FBF0BBEAF35E52B2F33
:1003C000F8E4F6D209020280E53704252BF8E6F4BA
:1003D0007032E543700CE5407008E5417004E54279
:1003E0006093E54030E70312273AE54324FFF543E5
:1003F000E54234FFF542E54134FFF541E54034FF85
:10040000F5408007E53704252BF8167420253EF5C6
:100410003EE4353DF53D02019BE5482401F548E405
:100420003547F547E43546F546E43545F54515339A
:10043000020188E53B700CE5387008E5397004E589
:100440003A601D7F38E4FD120AF4EF6001222009B2
:100450000F85343885353985363A85373B020107B3
:10046000E4FFE52B2FF8E6FE6013642A600FEE64CC
:100470005C6004EEB42F037FB3220F80E57F42223D
:10048000E518240CF8E60518227809300702780CE4
:10049000E475F00112182E0217552000EB7F2ED2C2
:1004A000008018EF540F2490D43440D4FF30040B54
:1004B000EF24BFB41A0050032461FFE51960021550
:1004C00019051CE51C7002051B30070D7809E47541
:1004D000F00112182EEF02176E0224C37403D20724
:1004E0008003E4C207F5188B098A0A890BE4F51921
:1004F000F51BF51CE51960077F201204BB80F5751C
:100500001AFFC201C200C202C203C205C206C2086B
:10051000120489FF700D3007057F001204CCAF1C58
:10052000AE1B22B4255FC2D5C204120489FF24D0B9
:10053000B40A00501A75F00A781930D50508B6FFCC
:100540000106C6A426F620D5047002D20380D92461
:10055000CFB41A00EF5004C2E5D2040206CCD20197
:1005600080C6D20080C0D20280BCD2D580BAD2056B
:1005700080B47F201204BB2002077401B51900402B
:10058000F1120480FF1204BB0204F4D208D20680E8
:1005900095120480FB120480FA120480F94A4B7011
:1005A00006799D7A077BFF20022EE519602A7E00DE
:1005B0008E8275830012180160060EEE651A70F0C7
:1005C000C2D5EBC0E0EAC0E0E9C0E0EE120713D00C
:1005D000E0F9D0E0FAD0E0FB121755FF60AAEBC0BB
:1005E000E0EAC0E0E9C0E01204BBD0E02401F9D0A9
:1005F000E03400FAD0E0FBE51A0460DCD51AD980BB
:10060000877BFF7A07790FD202809C79108002796C
:1006100008C206C2088008D2D5790A8004790AC2C5
:10062000D5E51A047002F51AE4FAFDFEFF12048003
:10063000FC7B08200113120480FD7B1030000A129D
:100640000480FE120480FF7B20EC3382D592D550CB
:1006500013C3E43000069FFFE49EFEE42001039DE7
:10066000FDE49CFCE4CBF8C201EC700CCFCECDCC09
:10067000E824F8F870F38017C3EF33FFEE33FEED94
:1006800033FDEC33FCEB33FB994002FB0FD8E9EB75
:10069000300105F8D0E0C448B201C0E00AEC4D4E8C
:1006A0004F78207B0070C2EAB51A0040BCC0E0124F
:1006B0000715D0F0D0E0200104C4C0E0C4B201C0EE
:1006C000F01204A4D0F0D5F0EB0204F412183E05A9
:1006D0009153060B5805624C055E42060F4F0617F4
:1006E00044061749057743061D5506014606014590
:1006F00006014707BD5005662D056A2E058D2B05A1
:100700006E23058B2007A62A052648000005853F95
:100710003F3F00790AA2D5200314300509B9100221
:100720000404B9080104A2D52006025001042002E5
:10073000689202B519005034C0E07F203003197F61
:1007400030A20272067205500F12076CC202C20676
:10075000C205C2087F30800F300503E9C0E01204F3
:10076000BB300503D0E0F9D0E0B519CC3005177FD8
:1007700030B9100C1204BB7F583004077F78800317
:10078000B908031204BB3002057F2D0204BB7F2091
:100790002008F87F2B2006F322920280CF286E7566
:1007A0006C6C2900D2011204803001F8C201781962
:1007B00030D50108F60205262D5043495812048011
:1007C0002403B405004001E49007B8931204AC740C
:1007D0003A1204ACD20375190402060BE53FC39428
:1007E00003500A1222C7EF600122121CDF122703F6
:1007F000E4F52CE4F526F525F524F523121970EF20
:10080000600A121CDF121970EF600122E52C700DD6
:10081000854A82854983E054FD64E96053E4FDED37
:1008200064406049E54A24BEFFE5493401FEED7AA3
:10083000002FFFEA3EF583EF2404F582E43583F5CB
:1008400083E06023E54A24BEFFE5493401FEED2F35
:10085000FFEA3ECF2408CF3400FE1226848F268E76
:10086000258D248C23800974102DFD80B27F922267
:10087000AF26AE25AD24AC239010001217DC121960
:1008800070EF600122854A82854983E054FD64E966
:1008900060037FA122E54A240DF582E43549F58302
:1008A000E0F522F5449010087406F0E54420E612C5
:1008B000E54425E0F544901008E014F0E070EC7594
:1008C0002201E54A24161226F4901006EEF0A3EF5A
:1008D000F04E702CE54A242412267F8F328E318D03
:1008E000308C2FE4FBFA7901F8D31217805007E51A
:1008F0002C60037FA222901006E531F0A3E532F0D0
:10090000E54A2414F582E43549F583E0FFE54A24FD
:1009100013F582E43549F583E04F6012E54A24136C
:100920001226F4E48F3B8E3AF539F538800FE54A0C
:10093000242012267F8F3B8E3A8D398C38E54A244D
:10094000111226F4CCEECCCDEFCD901015E0FEA325
:10095000E07805CEC313CE13D8F9147E002DFFEE38
:100960003CFEE52E24FBFDEFC8EDC8088005CEC394
:1009700013CE13D8F9FFE4FCFD9010171217DCE535
:100980004A240E1226F48E3D8F3E901007E0253E3D
:10099000FF901006E0353DFEE4FCFD901017E0F8F6
:1009A000A3E0F9A3E0FAA3E02FF532EA3EF531ED3A
:1009B00039F530EC38F52FE54A2410F582E4354955
:1009C000F583E0D39401401E901006E0FEA3E0FF03
:1009D000E5322FF532E5313EF531ED3530F530ECCD
:1009E000352FF52F8007E4901006F0A3F0C3E53B08
:1009F0009532FFE53A9531FEE5399530FDE53895BC
:100A00002FFC901008E0F9F812179190100D1217B2
:100A1000DCE47BF57AFFF9F8D3121780401FE490ED
:100A20001004F0A3F090100FE0FEA3E094F5EE9414
:100A30000F50057544018024754402801FE54A2447
:100A4000301226F4901004EEF0A3EFF0E54A242CC7
:100A500012267F9010171217DC754403E53E453DC2
:100A6000604E901017E0FCA3E0FDA3E0FEA3E0FFC2
:100A7000EC4D4E4F603AE54A2410F582E43549F5D5
:100A800083E0D39401400A901006E07002A3E06076
:100A90001FE54A240BF582E43549F583E07011E542
:100AA0004A240CF582E43549F583E0C39402500AE8
:100AB000E52C7006752C010207F3E53E2526FFE5BF
:100AC0003D3525FEE43524FDE43523FC9010091264
:100AD00017DCE5322526FFE5313525FEE5303524E6
:100AE000FDE52F3523FC9010111217DC7D107F03DC
:100AF0001225C7228D09EFC8E544B402071217B7C3
:100B000078018008B403121217B778021217A48F65
:100B10000D8E0C8D0B8C0A80231217B78E0A8F0B4B
:100B2000EF139209E50AC313FEE50B13250BFFE54E
:100B30000A3EFEE48F0D8E0CF50BF50A901016E0C0
:100B400024FFFD901015E034FF5EFEED5F254AF5B1
:100B50002DEE3549F52CAF0DAE0CAD0BAC0A1225C0
:100B6000E5901009E0F8A3E0F9A3E0FAA3E02FF57F
:100B70000DEA3EF50CE93DF50BE83CF50AE50D659F
:100B80002A7012E50C6529700CE50B65287006E5E6
:100B90000A6527601D300A071221B0EF6001228527
:100BA0000A23850B24850C25850D26121970EF600C
:100BB0000122E5096025B4FF0474FF8006E509B44D
:100BC000010BE4F50DF50CF50BF50A800C852F0DE6
:100BD00085300C85310B85320AD20AE544640270F7
:100BE0003F852D82852C83E0F534A3E0F5358534EF
:100BF00037853536E4F534F535AE36AF37C3EF9487
:100C0000F7EE94FF4003D38001C39209E509600D1C
:100C1000852D82852C83E50AF0A3E50BF07F002269
:100C2000E5446403705A852D82852C83E0FCA3E0A3
:100C3000FDA3E0FEA3E0F5378E368D358C34E53725
:100C400054F0FFE50D540F4FF50DE537540F853483
:100C500037F534AF368535368F35AF34EFC3940F63
:100C60004003D38001C39209E5096011AF0DAE0CBA
:100C7000AD0BAC0A852D82852C831217DC7F0022F8
:100C8000530B0F901016E0254AFF901015E03549E0
:100C9000CF24FFCF34FFFEEF652D7003EE652C608F
:100CA00053852D82852C83E0F534852D82852C8318
:100CB000A3E0F535E5097003020D6F300923E50A5D
:100CC000C454F0FFE534540F4F852D82852C83F0FA
:100CD000E50BC454F0FFE50AC4540F4FA3F0020D16
:100CE0006F852D82852C83E50AF0E53554F0450BA0
:100CF000A3F0807B852D82852C83E0F534E50960A7
:100D00002230090EE50AC454F0FFE534540F4FFFBA
:100D10008002AF0A852D82852C83EFF01221B0EF7F
:100D2000600122E52A2401F526E43529F525E4357C
:100D300028F524E43527F523121970EF6001228588
:100D40004A82854983E0F535E509602330090FE5DE
:100D50000BC454F0FFE50AC4540F4FFF8007E5357C
:100D600054F0450BFF854A82854983EFF0D20A3063
:100D70000913E535C454F0FFE534C4540F4FF5377B
:100D8000E535C48005853437E535540FF536E4F58F
:100D900034F535AE36AF37C3EF94F7EE940F40031A
:100DA000D38001C392097F00221200038F33E53301
:100DB000700A121D7BEF7003020F1022E5336442AC
:100DC0006003AF3322901016E024E0FF901015E08E
:100DD00034FFFEC3E53E9FE53D9E5003020F10E544
:100DE0003B700FE538700BE5397007E53A70030288
:100DF0000EA6901014E0FFC3E5489FFFE52214FE05
:100E00005FF533E53E6008EE65336003020F107F47
:100E100038E4FD120AF4EF600122200903020F10EA
:100E2000122639EF6001227F387D02120AF4EF604A
:100E300001221221B0EF600122122703E4FFFE908D
:100E40001015E06EFCA3E06F4C6013E54A2FF582AD
:100E5000E5493EF583E4F00FBF00010E80E1E4F5C3
:100E600033122316E53E7010F53DF53E8526488584
:100E70002547852446852345852234E534602012A4
:100E8000186DEF600122E5262401F526E43525F5ED
:100E900025E43524F524E43523F523153480DC12CC
:100EA0001FBFEF606B22E53E7066E54824FFF54802
:100EB000E54734FFF547E54634FFF546E54534FFA1
:100EC000F545F523121967EF600122E4F53DF53E83
:100ED000D3901016E0953E901015E0953D402EE51C
:100EE0004A253EFFE549353D8F82F583E0B4E510A4
:100EF000E582240BF582E43583F583E0540E60101F
:100F00007420253EF53EE4353DF53D80C37FB22299
:100F1000122639EF6001221221B0EF6001228532E2
:100F20003B85313A853039852F38121FBFEF60017C
:100F300022121964EF600122E54A253EFFE549359A
:100F40003DFEE4FDEDC3940B50047C2080027C0048
:100F5000EF2DF582E43EF583ECF00DBD20E6EF24A5
:100F600018F582E43EF5837421F0A37430F0EF2489
:100F70001CF582E43EF5837401F0E4FDEDC3940BAF
:100F80005021A82BE6FC601BECB42E047D08052B39
:100F9000A82BE6FCEF2DF582E43EF583ECF00D0581
:100FA0002B80D9853B34853A35853936853837EFFE
:100FB000241AF582E43EF583E534F0A3E535F0EF3D
:100FC0002414F582E43E121864EF600122853B325E
:100FD000853A3185393085382FE4F543F542F541BE
:100FE000F540F54FF54EF54DF54CF5337D147F107A
:100FF0001225C722E53F6415600712249BEF6001AC
:10100000227850E6F52B7006300B030211ABE47822
:1010100050F6E52B70030211A3E533F47077E53B3E
:10102000700CE5387008E5397004E53A60258532C2
:101030004F85314E85304D852F4C122645EF60018E
:10104000227F4C7D02120AF4EF6001221221B0EFE0
:101050006008221220C0EF60012285324F85314E98
:1010600085304D852F4C74FFF532F531F530F52F75
:10107000121FC9CBEFCB854F32854E31854D308560
:101080004C2FEB60012285434F85424E85414D85B3
:10109000404CE4F533122316121970EF60012290D0
:1010A0001015E0FCA3E0FD24FFFBEC34FF554EFEE1
:1010B000EB554FFFC3ED9FFFEC9EFEC3EF952BEE6C
:1010C00094004005852B348006E54FF404F53490F8
:1010D0001016E024FFFD901015E034FF554EFEED94
:1010E000554F254AF52DEE3549F52CAF34E4FCFD7E
:1010F000FEE54F2FF54FEE354EF54EED354DF54DE6
:10110000EC354CF54CC3E52B9534F52B7850E624A3
:1011100051FFE53426F6C8EFC8E6852D82852C837D
:10112000F0052DE52D7002052C0FD534E912186D50
:10113000EF600122AF4FAE4EAD4DAC4CAB43AA4277
:10114000A941A840C3121780500E854F43854E42D7
:10115000854D41854C40D20B901016E024FFFD9048
:101160001015E034FF554EFEED554F4E6003021052
:10117000120533E533C3952250030210127F2FE48A
:10118000FD120AF4EF6001223009067533FF0210E8
:101190001285342F853530853631853732E4F53385
:1011A000021012E53C30E406300B030223617F009D
:1011B00022E4F532F531F530F52F90100DE0FCA367
:1011C000E0FDA3E0FEA3E0FFAB32AA31A930A82FD7
:1011D000D312178040037FB122E5322401F532E4B7
:1011E0003531F531E43530F530E4352FF52F7F2FEB
:1011F000E4FD120AF4EF600122E537700FE5347068
:101200000BE5357007E536700302133DE5446401D4
:1012100060A885492C854A2DE544640270519010E0
:1012200015E0C313FEA3E01324FFFFEE34FFF534F3
:101230008F35F5368F377402252DF52DF582E4357F
:101240002CF52CF583E07011A3E0700D852D8285BF
:101250002C8374FFF0A30212C5E5356009D535D69D
:10126000E534600880D01534153580CA0213249007
:101270001015E0FEA3E07802CEC313CE13D8F924F4
:10128000FFFFEE34FFF5348F35F5368F37740425C4
:101290002DF52DE4352CF52C852D82F583E06003AA
:1012A000021309A3E06003021309A3E0705BA3E04B
:1012B000540F7055852D82852C8374FFF0A3F0A305
:1012C000F0A3E0440FF0AE36AF37EF4532FFEE4506
:1012D00031FEE530FDE52FFCEEC0E0EFC0E0E53586
:1012E00024FFFFE53434FFCBEFCBFAD0E0FFD0E0B2
:1012F000FEC3EF9BF532EE9AF531ED9400F530EC3C
:101300009400F52FD20A7F0022E53560101535E5EF
:1013100035600302128DE534600A02128D15341512
:101320003502128DAE36AF37E5324FF532E5314E2C
:10133000F531E530F530E52FF52F0211BA7F2F7D1D
:10134000FF120AF422300C0A7F34122652EF423583
:1013500080077D037F341226A890BDF1742BF00026
:101360000000E4F54B90BCF0741FF000007455F0E1
:1013700000007453F000007442F0000004F000001C
:101380007403F000007407F000007405F0000074AE
:101390000AF00000E4F0E52E24F8F8E537C333D86E
:1013A000FC90BCF0F00000E4F00000F000E53554E3
:1013B00080F000E535540FF00000740AF0E5353098
:1013C000E7047F2880027F2A90BCF0EFF00000E461
:1013D000F0E53530E6117854E6F00008E6F0000854
:1013E000E6F00008E6801490BCF0E523F00000E58C
:1013F00024F00000E525F00000E526F00000E49070
:10140000BCF0F00000F00000E537F00000E4F00070
:1014100000F00000F00000F00000F00000F000001C
:10142000F000007F31122652EFF535CD7F1E1226D7
:10143000A87F331226527D4F122535E54B7007E504
:10144000356440FD80027D007F311226A8E54B60A7
:101450003B854B35E54B641660057F52122602E54D
:101460004BB416037F82227F32122652EFC4540FF0
:101470004480FF7D411225357F33122652EFC4543C
:101480000FFF7D41122535AF358F4B22300C047F85
:101490003680027F35E52E24F7F8E537088002C351
:1014A00033D8FCFD1226A8300C047F3780027F362B
:1014B0007D081226A87F20122652EF4408FD7F20C7
:1014C0001226A87F0022D294C2947F6412261ED2D4
:1014D000941226E37BFF7A1B79621204E212257EC6
:1014E0008F081225A17BFF7A1B79691204E2E53F80
:1014F000C39402500A1224397F6412261E80EFC260
:10150000947FC812261EE4F5087F6412261E7BFF16
:101510007A1B79751204E2122276EF60090508E55C
:1015200008C3940340E3D3901016E0940090101584
:10153000E0941040167BFF7A1B797E1204E212249D
:1015400039EF70A17F6412261E80F3C2957BFF7A6B
:101550001B79951204E2121C228F08E508641460BE
:1015600018E508F460137BFF7A1B79B51204E27F5B
:101570006412261E121C228F08E508641470637B17
:10158000FF7A1B79C01204E2C2967BFF7A1B79CAEC
:101590001204E27F507C1B7DD91226D0120DA98F38
:1015A000081225A17851764F08764B7850760212B2
:1015B0000FF48F081225A17BFF7A1B79E61204E253
:1015C000E47850F61220408F081225A1D2961223FB
:1015D000F37BFFBF14067A1B79ED80117A1B79FC2F
:1015E000800BE508B4FF0B7BFF7A1C790D1204E237
:1015F0008005AF081225A1D2957BFF7A1C791812BD
:1016000004E2E53FC39402400A1224397F641226A3
:101610001E80EFD2947FC812261E0214E5E53F64B7
:1016200015600712249BEF6001227850E6F52BE449
:10163000F6E52B7003021752901015E0FCA3E0FDB5
:1016400024FFFBEC34FF554EFEEB554FFFC3ED9FDF
:10165000FFEC9EFEC3EF952BEE94004005852B34E6
:101660008006E54FF404F534AF34EF254FFFE43541
:101670004EFEE4354DFDE4354CFCAB43AA42A94196
:10168000A840D3121780500CC3E543954FF5347032
:1016900003021752122316121970EF6001229010E4
:1016A00016E024FFFD901015E034FF554EFEED5579
:1016B0004F254AF52DEE3549F52CAF34E4FCFDFEFF
:1016C000E54F2FF54FEE354EF54EED354DF54DEC22
:1016D000354CF54CC3E52B9534F52B7850E6245169
:1016E000FFE53426F6852D82852C83E0C8EFC8F609
:1016F0000F052DE52D7002052CD534E9901016E06C
:1017000024FFFD901015E034FF554EFEED554F4E71
:1017100060030216310533E533C3952250030216E8
:10172000317F2FE4FD120AF4EF60012230091175B8
:1017300033FF854F43854E42854D41854C40801295
:1017400085342F853530853631853732E4F53302DF
:1017500016317F0022BB010689828A83E022500273
:10176000E722BBFE02E32289828A83E49322BB0143
:101770000689828A83F0225002F722BBFE01F322FF
:10178000EB9FF5F0EA9E42F0E99D42F0E89C45F0BF
:1017900022E8600FECC313FCED13FDEE13FEEF1314
:1017A000FFD8F122E8600FEFC333FFEE33FEED33D5
:1017B000FDEC33FCD8F122E6FC08E6FD08E6FE0865
:1017C000E6FF22E6FB08E6F908E6FA08E6CBF8228F
:1017D000ECF608EDF608EEF608EFF622ECF0A3EDD5
:1017E000F0A3EEF0A3EFF022D083D082E493F608CA
:1017F000740193F608740293F608740393F6740464
:1018000073BB010CE58229F582E5833AF583E0227A
:101810005006E92582F8E622BBFE06E92582F8E2B9
:1018200022E58229F582E5833AF583E49322FAE6FC
:10183000FB0808E6F925F0F618E6CA3AF622D08346
:10184000D082F8E4937012740193700DA3A393F8FF
:10185000740193F5828883E4737402936860EFA344
:10186000A3A380DFF583E536F0A3E537F0E4F53692
:10187000E53C20E63CE52E64096036E4F535753735
:1018800001121345EF600302193E854927854A2856
:10189000E52EB409047F088014E52EB40A047F10F5
:1018A000800BE52EB40B047F2080027F408F3580B3
:1018B0005990BDF17456F000000000E4F54B90BC67
:1018C000F0E526F00000E525F00000E524F000003A
:1018D000E523F000007401F0854927854A28E52EAC
:1018E000B409047F088014E52EB40A047F10800B2D
:1018F000E52EB40B047F2080027F408F35E53560F4
:101900001E122470E54B641E7034AF28AE27121EE1
:10191000AF8E278F2890BDF17457F0153580DE8586
:10192000232785242885252985262A122470E54B1E
:10193000B4140BE53C20E5031227327F0022E53684
:10194000C394055015E54B6416600FE536C394014A
:10195000400312221E053602187012270312269425
:1019600012221E2285452385462485472585482643
:10197000E526652A7015E5256529700FE52465289B
:101980007009E52365277003021A5AE4F536E53C31
:1019900020E61DE52E640960177535807537011244
:1019A0001345EF6003021A3590BDF17455F080279E
:1019B00090BDF17454F000000000E4F54B90BCF0D1
:1019C000E526F00000E525F00000E524F00000E544
:1019D00023F000007401F0854927854A28E52EB4DC
:1019E00009047F088014E52EB40A047F10800BE5FB
:1019F0002EB40B047F2080027F408F35E535601EBA
:101A0000122470E54B641D702CAF28AE27121F38CE
:101A10008E278F2890BDF17455F0153580DE852313
:101A20002785242885252985262A122470E54BB48C
:101A300014037F0022E536C394055015E54B641668
:101A4000600FE536C39401400312221E05360219C9
:101A50008E12270312269402221E7F0022E53FC326
:101A6000941350037FB422121964EF600122C20A5A
:101A7000E54A253EFFE549353DCBEFCBFA7858E600
:101A8000FFEB240BF582E43AF583E0F6EFF4601304
:101A90008B828A83E582240BF582E43583F583EF1C
:101AA000F0D20A7856E6F53708E6F536EB2416FF4D
:101AB000E43AFE1226F918EEF608EFF6E536F4FEE3
:101AC000E537F44E6012EB2416F582E43AF583E52F
:101AD00036F0A3E537F0D20A7854E6F53708E6F594
:101AE00036EB2418FFE43AFE1226F918EEF608EF5A
:101AF000F6E536F4FEE537F44E6012EB2418F58275
:101B0000E43AF583E536F0A3E537F0D20A785012CF
:101B100017B7785C1217D0EB241CFFE43AFE1226AC
:101B20008478501217D0785CE6F4601E1217B78FD5
:101B3000438E428D418C40122726EB241CF582E413
:101B40003AF5831217DCD20AC20B300A05C20A0228
:101B5000186D7F00224572726F723A20253032581C
:101B60000A0053746172740A0057616974205564E5
:101B700069736B0A005265616479203F0A00546FF3
:101B80006F206C6172676520736563746F72207378
:101B9000697A650A00436865636B204469736B204A
:101BA00057726974652050726F74656374203F20AA
:101BB0002E2E2E0A00416761696E202E2E2E0A00FD
:101BC0002E2E2E204E6F20210A004372656174650F
:101BD00020612046696C650A005C4E455746494CB9
:101BE000452E54585400436C6F73650A0053616668
:101BF000652052656D6F766520210A00556E736110
:101C000066652052656D6F766520210A002E2E2EA6
:101C10002059657320210A0054616B65206F75742B
:101C20000A00200C037F1F22E4F54B90BDF174469F
:101C3000F00000000090BCF07402F000122470E587
:101C40004B64146003021CDCFB7A007950122510EF
:101C5000785FE6FC78587610785C7680785FBC0612
:101C60000A761AE408F608763F8010765AE408F6F9
:101C700008763F08F608F608F608F608F608761023
:101C800008F67B007A0079507D1F1224EAE4F54BB8
:101C900090BDF17450F000000000122470E54B6418
:101CA0001470277A007950122510EFD3940340174F
:101CB000BC0604785280027853E6F509E50930E75E
:101CC000037FFF227F14227F1F22AC4B90BDF17453
:101CD0005AF000000000122470AF0422AF4B2275AE
:101CE00035327F53122602E54B706012271CE54AFD
:101CF0002406F582E43549F583E0FFB40405752E2A
:101D00000A8015EFB40805752E0B800CEFB4100592
:101D1000752E0C8003752E0974017E00A82E088094
:101D200005C333CE33CED8F9901016F0EE901015CF
:101D3000F0E52E24F7FF7408C8EFC8088002C3330B
:101D4000D8FCFD7F391226A87F0022E54B6416607F
:101D500027E54B641560217F32122669300C0B8514
:101D60004B367F5A12260285364B7F0A122669159A
:101D700035E5356003021CE2AF4B22E53FC3941307
:101D80005007120003EF6001221225C3EF60012209
:101D9000121964EF600122E54A253EFFE549353D11
:101DA0008F82F58374E5F012186DEF600122AF3B6E
:101DB000AE3AAD39AC388F378E368D358C34EC4D2C
:101DC0004E4F604EE53B24FFF53BE53A34FFF53AD4
:101DD000E53934FFF539E53834FFF538E4F532F507
:101DE00031F530F52F7F347D01120AF4EF600122C6
:101DF000E5322401F532E43531F531E43530F530A2
:101E0000E4352FF52F3009DD1221B0EF60012202F9
:101E10001FC97F0022E53B700CE5387008E539707A
:101E200004E53A607B853B32853A31853930853827
:101E30002FAF22E4FCFDFE78501217C3C3121780A7
:101E400040417F2FE4FD120AF4EF60012220095087
:101E500085342F85353085363185373278501217E5
:101E6000B7EFC0E0AF22CBEFCBD0E0FFC3EF9BFFDB
:101E7000EE9400FEED9400FDEC9400FC78501217F7
:101E8000D080AE7853E6FFE522145FF533122316B7
:101E9000AF26AE25AD24AC2378501217D07F002298
:101EA0007533FF78501217E8FFFFFFFF7F00229085
:101EB000BDF1742BF0E4F54BE53C54036403FD7471
:101EC0004090BCF0F0CD60411460118F828E83E0B1
:101ED00090BCF0F00FBF00010EDDF02205A28F8252
:101EE0008E837D10E0A305A2F005A2E0A305A2F079
:101EF00005A2E0A305A2F005A2E0A305A2F005A2B9
:101F0000DDE2AF82AE8305A222EFC582F9EEC58382
:101F1000C5A0F5F07D08E0A3F3E0A3F3E0A3F3E0B0
:101F2000A3F3E0A3F3E0A3F3E0A3F3E0A3F3DDE680
:101F300085F0A0AF82AE832290BDF17428F0E4F565
:101F40004BE53C54036403FD90BCF0E0CD604114CC
:101F5000601190BCF0E08F828E83F00FBF00010E05
:101F6000DDF02205A28F828E837D1005A2E005A2FE
:101F7000F0A305A2E005A2F0A305A2E005A2F0A34C
:101F800005A2E005A2F0A3DDE2AF82AE8305A222A6
:101F9000EFC582F9EEC583C5A0F5F07D08E3F0A397
:101FA000E3F0A3E3F0A3E3F0A3E3F0A3E3F0A3E300
:101FB000F0A3E3F0A3DDE685F0A0AF82AE83227448
:101FC000FFF532F531F530F52F901004E0FCA3E079
:101FD000FD4C7002FF22CFEDCFCEECCEE4FCFD90A5
:101FE0001000E0F8A3E0F9A3E0FAA3E02FF526EA59
:101FF0003EF525ED39F524EC38F523121970EF6024
:102000000122E54A24E8FFE5493401FE122684E571
:10201000322FF532E5313EF531E5303DF530E52F33
:102020003CF52FAF32AE31AD30FC122726E54A2405
:10203000E8F582E5493401F5831217DC12186D22A8
:10204000E53FC3941250037FB422E53F6412704F02
:10205000E5446403604990101AE0F522AE42E5437E
:10206000A82E088005CEC313CE13D8F9FFE4FCFDDB
:102070009010171217DC901011E0F8A3E0F9A3E01C
:10208000FAA3E0FB90101AE0FFE4FCFDFEEB2FFF4B
:10209000EE3AFEED39FDEC38FC9010111217DCE53C
:1020A0003FD39413400AE53FB414077850E670021A
:1020B000C20B300B07122361EF6001221225C322ED
:1020C0001211BAEF600564B1600122EF60071211CE
:1020D000B1EF6001221221B0EF60012285323B8511
:1020E000313A853039852F38121964EF600122E5C5
:1020F0004A253EFFE549353DFEF583EF241CF58278
:10210000E43583F5837401F0853B34853A358539B0
:10211000368538378F828E83E582241AF582E4353E
:1021200083F583E534F0A3E535F08F828E83E58275
:102130002414F582E43583121864227533057D0674
:102140007F651226BCE4F53F90BCF0E0B49A0F7DA9
:10215000067F9A1226BC90BCF0E0646560091225E7
:102160005AD533DA7F81229010157402F0A3E4F07F
:1021700090BDF104F000000000C20C533CBF90BCC5
:10218000F0E0F533C394A2400BE53394B64003432B
:102190003C40D20C753F017D157F061226BC7F01A5
:1021A00012266990BCF0E0B45F037F81227F002299
:1021B000852723852824852925852A2612186DEF51
:1021C000600122901006E0FEA3E0FF4E604BE4FCAD
:1021D000FDE5262FF526E5253EF525ED3524F524EC
:1021E000EC3523F52312186DEF600122901006E004
:1021F000FEA3E0FBCAEECAC3E5269BF526E5259AB9
:10220000F525E5249400F524E5239400F523F5272E
:1022100085242885252985262AC20A7F002275352E
:102220003212272DD535FA90BDF17422F00000004E
:102230000090BCF0E0E54B6416600FE53F64016080
:10224000097F20122652EF20E506753F017F82228A
:10225000300C19E53FC394034012854B35E4F54B30
:1022600090BDF1745AF012247085354BE54B700324
:102270007F1022AF4B22122439EF60037F8222E5C8
:102280003FC39403501B1222C7EF600C7F3212260B
:10229000691222C7EF600122121CDFEF60030222E5
:1022A0001E300C207F59122602AF4B8F35EF700283
:1022B000FF227F0A1226697F5A1226027F02122607
:1022C00069AF35227F0022122439EF60037F82221A
:1022D0007F51122602E54B70327D037F021225C723
:1022E000300C257F38122652EF601D12271C854ABC
:1022F00082854983E0B405107D017F341226A87FD2
:1023000058122602E54B70037F00227D027F0212E5
:1023100025C712221E22E53224FEFFE53134FFFEDE
:10232000E53034FFFDE52F34FFFC901008E0F9F8AC
:102330001217A4901011E0F8A3E0F9A3E0FAA3E0CB
:102340002FFBEA3EFAE93DF9E83CF8E4FCFDFEEB40
:102350002533F526EE3AF525ED39F524EC38F5234D
:1023600022C20BE53FC39414403E121964EF600192
:1023700022E54A253EFFE549353DCBEFCBFAF58313
:10238000EB240BF582E43583F583E020E41AAF43B8
:10239000AE42AD41AC40122726EB241CF582E43A54
:1023A000F5831217DC02186D7F0022E53F6415608B
:1023B0000712249BEF60012278501217B78F4F8EBF
:1023C0004E8D4D8C4CAB43AA42A941A840C3121775
:1023D00080500C85434F85424E85414D85404CAF22
:1023E0004FAE4EAD4DAC4C1225E578501217D012C1
:1023F0001E1522E4F5097F6412261E122276EF6074
:10240000090509E509C3940A40EC7F0A12261E90CB
:10241000BDF17449F000000000E490BCF0F000123F
:1024200024707F0A12261EE509C394055008E54B67
:10243000B414037F14227FFF2290BDF17422F000B8
:1024400000000090BCF0E0E4F54B7F20122652EF34
:1024500030E517E53FC39402400A7F1B122652EF76
:10246000547F7003753F027F0022753F017F8222F7
:1024700020B2FD90BDF17422F0534B80E54B600318
:10248000E4F54B90BCF0E0F54BE54BB41604753F1A
:102490000122E54BB41503753F0222E53F64146049
:1024A000037FB422853B32853A3185393085382F18
:1024B000E4F54FF54EF54DF54CF5337D157F1412CF
:1024C00025C722EFB40A07740D1224CE740A30987F
:1024D00011A899B8130CC2983098FDA899C298B861
:1024E00011F63099FDC299F5992290BDF1742BF047
:1024F0000000000090BCF0EDF000ED6012121755E6
:1025000090BCF0F000740129F9E43AFA1D80EB2246
:1025100090BDF17427F00000000090BCF0E0FFFED9
:10252000EE601190BCF0E012176E740129F9E43AE4
:10253000FA1E80EC2290BDF1EDF000000000E4F501
:102540004B90BCF0EFF0122470E54B7004754B100B
:1025500022E54BB41403E4F54B2275368090BDF1AF
:102560007401F00000000090BCF0E0FFD536EE9062
:10257000BDF17405F0000000007F32022669E5819C
:10258000D394F040037FFC22753C05122737EFC33C
:10259000943550037FFF22754900754A0012213B94
:1025A00022EF601E7BFF7A1B7955750C008F0D1290
:1025B00004E2C2947FC812261ED2947FC812261E3F
:1025C00080F0227D107F10E53FC39F40028D3FE5E4
:1025D0003F6D7002FF22753F01122439EF60037FC7
:1025E00082227F8322C3E4CC13CD13CE13FFE52ECA
:1025F00024F7600DF8C3ED13FDEE13FEEF13FFD8C3
:10260000F422E4F54B90BDF1EFF0122470E54B702D
:1026100004754B1022E54BB41403E4F54B22EF6034
:10262000177EC87403250AF50ADEF87EC8740325F0
:102630000AF50ADEF81F80E622853B32853A3185AD
:10264000393085382F1211BAEF64B16001221211AE
:10265000B12290BDF1740AF00000000090BCF0EFD0
:10266000F000006003E0FF2222EF75F005A4F536CC
:10267000E536600A12272D12272D153680F222FF2B
:10268000E43549FE8F828E83E0FFA3E0FEA3E0FDE8
:10269000A3E0FC22E53FB41204753F0322E53FD3DB
:1026A00094104003753F102290BDF1740BF00000B0
:1026B000000090BCF0EFF00000EDF02290BDF1EDD5
:1026C000F000000000E4F54B90BCF0EFF0000022B9
:1026D0008D828C83A807E4FFE493F6600508A30FBE
:1026E00080F622759850758780758921758DF3D293
:1026F0008ED29922FFE43549FE8F828E83E0FFA3BC
:10270000E0FE2274FFF52AF529F528F527C20A22F2
:10271000787FE4F6D8FD7581800214C6122703AFD6
:102720004AAE49021F38EFCCFFEECDFE227F96DF86
:0B273000FE227FFADFFE227F3522220E
:00000001FF
