:100000000C9446000C9463000C9463000C94630001
:100010000C9463000C9463000C9463000C946300D4
:100020000C9463000C9463000C9463000C946300C4
:100030000C9463000C9463000C9463000C946300B4
:100040000C9463000C9463000C9463000C946300A4
:100050000C9463000C9463000C9463000C94630094
:100060000C9463000C9463000C9463000C94630084
:100070000C9463000C9463000C9463000C94630074
:100080000C9463000C9463000C94630011241FBE55
:10009000CFEFD0E1DEBFCDBF12E0A0E0B1E0EEE9EE
:1000A000F4E400E00BBF02C007900D92A233B10749
:1000B000D9F71CE0A2E3B2E001C01D92A43AB10757
:1000C000E1F70C9443010C94000080E59AE09093D2
:1000D0003B0A80933A0A0E9469199927089580E59E
:1000E0009AE090933B0A80933A0A0E94721A9927E9
:1000F000089595E0292F2A95F1F7292F2A95F1F7F0
:10010000C39A8BBB2FEF2ABB88B3897F88BB2ABBDE
:1001100088B3876088BB1ABAC398892F8A95F1F78C
:10012000892F8A95F1F7089585E08A95F1F71ABA33
:1001300088B3827F88BB1ABA99B388B3876088BBBB
:10014000892F99270895B499FECF82E20E94790001
:100150000E9494008093600C8091600C863149F07D
:100160008091600C853109F0089582E080937D0CC8
:10017000089581E080937D0C089584EF91E00197CC
:10018000F1F7089588EE93E00197F1F70895089547
:100190000895089585E08093500C0E94A102853354
:1001A00050F082E392E09093580C8093570C0E9499
:1001B0007503992708958FEF90E008951ABA87E0A4
:1001C00088BB8FE087BB08958BBB9FEF9ABB88B33A
:1001D000817F88BB9ABB88B3876088BB1ABA85E0E9
:1001E0008A95F1F70895982F91509F3F71F045E05F
:1001F00050E060E070E028EE33E0842F8A95F1F75C
:1002000021503040D1F79150B0F70895882309F478
:10021000089599279F938F938EE091E09F938F93FA
:100220000E94D21E0F900F900F900F90C79884E6F7
:100230000E94F300C79A84E60E94F300F7CFCF93A1
:10024000C82F8A3019F05D9BFECF04C08DE00E945C
:100250001F01F9CFCCB980E090E0CF9108951092C2
:10026000900087E689B988E18AB986E08093950095
:1002700080E091E090939F0C80939E0C9093A10C52
:100280008093A00C0895CFEFD0E1DEBFCDBF0E94D8
:10029000DE00C79ABF9AC79884E60E94F300C79A07
:1002A0000E942F018BE191E00E94EE1E0E94CA0085
:1002B0000E94060171E2C72E71E0D72E6FE2A62ED2
:1002C00061E0B62E57E4852E51E0952E84E691E04C
:1002D0000E94EE1E80917D0C823058F40E94DC0357
:1002E000882339F084E60E94F30080917D0C8230EF
:1002F000A8F3C79888EC0E94F300C0E084E60E944F
:10030000F3008FE691E00E94EE1E0E9474058823A0
:1003100019F0CF5FCA3090F380916A0C90916B0C0A
:100320008150984008F07AC087E791E00E94EE1E65
:1003300002E31AE0D801ECE7F1E080E101900D92D0
:100340008150E1F70E945F10C82F833B19F082347F
:1003500009F076C0C33B09F46EC03CE8E32E31E0FF
:10036000F32EFF92EF92DF92CF920E94D21E77245B
:100370000F900F900F900F9022E3222E2AE0322E42
:1003800044245524B70182E39AE00E94CB1EF80171
:1003900001900020E9F73197E253FA40FF27EE5C25
:1003A000F54F70820E945F10C82F823431F0833481
:1003B00009F475C08C2F0E94060188E991E00E9423
:1003C000EE1EE2E3FAE0AFE9B1E08DE00D900192BC
:1003D0008150E1F70E947B140E9406018CEA91E0B3
:1003E0000E94EE1E82EBE82E81E0F82EC0E0E3E3EF
:1003F000FAE0D7017C907192772031F00894E11CEB
:10040000F11CCF5FCD31A8F3CC2309F461C0C093B8
:10041000320A0E94581D0E940601E8CF8DEF91E03C
:100420000E94EE1E03C084E60E94F3000E94DC03DB
:100430008823C9F34BCF43E1E42E42E0F42E91CF61
:100440000E94060108E512E01F930F939F928F927E
:100450000E94D21E0F900F900F900F900E31110539
:1004600008F45FC09DE1792E7092320A0E94661CEA
:100470000E9406018091320A081B1109C0E08823FE
:1004800009F041C0871508F44EC00115110531F778
:1004900086E192E00E94EE1E0E941F098CCF3F92DF
:1004A0002F925F924F92BF92AF920E94D21E8DB751
:1004B0009EB706960FB6F8949EBF0FBE8DBF73947D
:1004C0000894411C511C9DEF971508F05BCF75CF28
:1004D00086E192E00E94EE1E81E08093320A0E9443
:1004E0001F090E9406018CE192E00E94EE1E80919D
:1004F0007D0C823008F10E94DC038823E9F484E655
:100500000E94F300F4CFEC2FFF27EE5CF54F8181C2
:1005100099270E94E71ECF5F8091320A8C1799F7C6
:10052000B1CF702EA1CF8AE090E00E94E71E85E255
:1005300092E00E94EE1EACCFC79A88EC0E94F300B6
:10054000C5CE85E390E00895FC01819180936D0C08
:10055000819180936E0C819180936F0C8081809348
:10056000700C80916D0C90916E0CA0916F0CB091FD
:10057000700CBC01CD010895FC01819180936D0C3C
:10058000808180936E0C80916D0C90916E0C08951B
:100590009B01AC018091750C9927089704C0569572
:1005A0004795379527958A95D2F720936D0C309310
:1005B0006E0C40936F0C5093700C80916E0C809376
:1005C0006D0C80916F0C80936E0C8091700C8093F9
:1005D0006F0C1092700C80916D0C90916E0CA0912C
:1005E0006F0CB091700CBC01CD0108950F931F9357
:1005F000CF938C0188E20E9479001092600C0E94D7
:100600009400C82FCC2339F00E949400F801819304
:100610008F01C150C9F7C801CF911F910F91089563
:100620001F93CF93DF93EC018BE20E94790010922D
:10063000600C80E40E94E40010E489910E94E400D0
:100640001150D9F7CE01DF91CF911F9108958FEF0F
:100650009FEFAFEFBFEF80935C0C90935D0CA09386
:100660005E0CB0935F0C1092650C08950E942703F6
:100670008091570C9091580C0E94F602089595E0D5
:10068000899FC001112480936F0C882359F00E9428
:10069000BD000E94BD0080916F0C815080936F0C53
:1006A0008823A9F7089580E880936F0C81E00E9469
:1006B00079000E94940080916F0C815080936F0CA0
:1006C0008823A1F785E00E94790082E30E943F031E
:1006D00008951F93182F862F0E9479001092600CA6
:1006E000812F0E94E4001F9108951F9385E080935D
:1006F0009C0C0AC00E94530380919C0C81508093F3
:100700009C0C882309F442C066E085E60E946903D8
:1007100010927D0C0E9494008A3961F766E00E9475
:1007200069030E949400853629F780E092E0909357
:100730006B0C80936A0C81E00E94790010927C0C13
:100740008091500C8F7B8093500C0E94940080937A
:100750009C0C823A50F0863B28F08091500C8064CB
:100760008093500C81E080937C0C11E010937D0C01
:1007700065E186E00E946903812F0E943F030E9489
:1007800094008F3519F080E090E002C081E890E09D
:100790001F9108951F93182F8AE00E947900812FDE
:1007A0000E94E400112319F480E090E003C00E944D
:1007B000940099271F91089582E20E9479000E9477
:1007C00094001092600C80E20E94CA0385FF15C05D
:1007D00080917D0C823030F482E080937D0C80E04B
:1007E00090E008958BE10E94CA0399278F7790705B
:1007F000892B91F380E090E0089581E080937D0C57
:1008000082E890E0089590917D0C981710F0609325
:100810007D0C80917D0C861769F081E080937D0CC2
:100820000E94DC03882319F082E890E0089583E8B1
:1008300090E0089580E090E008950F931F93182FA3
:10084000062F8BE00E947900812F0E94E400802F08
:100850000E94E4001F910F9108951092600C0E9475
:1008600079000E94A3008091600C882321F480E12C
:100870008093600C08958091600C843109F0089594
:100880001092600C0895CF9382E380936E0C0E94C7
:10089000BD00C0916E0CC150C0936E0CCC23B9F753
:1008A00082E20E9479000E9494008091600C86315F
:1008B00049F080917D0C813029F080E20E94CA03CA
:1008C00085FD06C081E080937D0C82E890E022C027
:1008D00080917C0C882341F48091600C8823C1F0C6
:1008E0008091600C992716C080917D0C8330A0F315
:1008F0008091600C80936E0CC093600C8AE50E941E
:1009000079000E94A30080916E0C8093600CE4CF6C
:1009100080E190E0CF9108950E94DC03882399F54F
:1009200081E50E942D048091600C882321F563E00D
:1009300082E00E94030480917C0C882319F480E0FB
:1009400090E0089588E30E94CA038823C1F30E94BF
:100950003603E091570CF091580C8081853079F77F
:1009600061E084E30E941D0488E50E942D048091CB
:10097000600C882321F362E0862F0E9403040E940A
:1009800043049927089582E890E0089580917D0CB2
:10099000823141F080917D0C813118F080E18093AB
:1009A0007D0C089583E080937D0C089582E380930D
:1009B0006E0C0AC08AE00E943F0380916E0C815049
:1009C00080936E0C882359F183E50E942D04809159
:1009D000600C882341F18091600C863101F1809197
:1009E000600C8531E1F082E30E943F0380917C0C32
:1009F000882301F38091600C80936F0C8AE50E943C
:100A00002D0480916F0C8093600C8AE00E943F035C
:100A100080916E0C815080936E0C8823A9F6809192
:100A2000600C992708950E943603E091570CF091CD
:100A3000580C8681843019F1883019F1803119F110
:100A400089E08093750C992721E030E0082E02C0E0
:100A5000220F331F0A94E2F730936B0C20936A0C39
:100A6000099728E030E002C0220F331F8A95E2F791
:100A7000622F89E30E941D0480E090E008958AE0DF
:100A8000E0CF8BE0DECF8CE0DCCF8091610C9091E9
:100A9000620CA091630CB091640C0297A109B1099A
:100AA00000905B0C04C0880F991FAA1FBB1F0A94FB
:100AB000D2F72091530C3091540C4091550C509129
:100AC000560C820F931FA41FB51F20919C0C820F00
:100AD000911DA11DB11D8093780C9093790CA0936A
:100AE0007A0CB0937B0C08950E94DC038823C9F52F
:100AF00080917D0C833038F080917C0C882379F4D0
:100B000080E090E008950E948C048823A1F40E9464
:100B1000D604882389F30E9443049927089589E520
:100B20000E942D048091600C80936E0C882361F4E8
:100B300080E090E0089582E30E943F030E948C04CD
:100B4000882329F3992708958AE00E943F038AE5C4
:100B50000E942D0482E00E943F0380916E0C992731
:100B6000089582E890E008951F93182F862F0E9421
:100B700079001092600C812F0E94E4000E94A30073
:100B80008091600C882321F480E18093600C06C082
:100B90008091600C843111F41092600C1F910895C3
:100BA00080917C0C882309F4D3C084E30E94CA039B
:100BB00090916E0C982B90936E0C8BE20E947900B2
:100BC0001092600C8FE10E94E40085E50E94E40031
:100BD00083E50E94E40082E40E94E40083E40E9432
:100BE000E40083E00E94E40087E00E94E40085E0E6
:100BF0000E94E4008AE00E94E40080E00E94E40099
:100C00008091700C282F33278091750C99270897B5
:100C100002C0220F331F8A95E2F7822F0E94E40060
:100C200080E00E94E40080E00E94E40080916E0C6D
:100C300080780E94E40080916E0C8F700E94E40026
:100C40008AE00E94E40080916E0C87FDD4C08AE2A5
:100C50000E94E40080E00E94E40080916E0C86FF18
:100C6000A5C08091390A0E94E4008091380A0E9450
:100C7000E4008091370A0E94E4008091360A0E94C5
:100C8000E40080E00E94E40080E00E94E4008091A3
:100C9000700C0E94E40080E00E94E40080E00E946A
:100CA000E40080E00E94E40080E00E94E40080E034
:100CB0000E94E40080E00E94E40080E00E94E400E2
:100CC00081E30E94CA0380936E0C682F8EE10E941C
:100CD0001D0483E30E94CA036FE40E94B40580915F
:100CE000600C882309F060C060916E0C80E4682776
:100CF00081E30E941D048091600C882371F1809132
:100D0000600C80936E0C8091600C863119F082E546
:100D10000E942D048091600C863109F46EC082E33C
:100D20000E94CA0382958F7061E480680E94B405B6
:100D300083E30E94CA0361E482958F700E94B40528
:100D400080916E0C8093600C8091600C99270895BF
:100D500063E084E30E941D0430CF8091700C682F03
:100D600077278091750C9927099702C0660F771F26
:100D70008A95E2F780917C0C882339F585E30E94FF
:100D80001D0480917C0C882339F187E368E00E9480
:100D90001D0480E20E94CA038860682F80E20E94DE
:100DA0001D0480E090E0089560E0A2CF80917B0C6C
:100DB0000E94E40080917A0C0E94E4008091790CFA
:100DC0000E94E4008091780C5ACF86E30E941D04B3
:100DD00080917C0C8823C9F686E368E00E941D049C
:100DE00080E20E94CA038860682F80E20E941D048E
:100DF00080E090E0089588E22BCF82E890E00895AB
:100E000010926F0C8091500C86FD6AC08091750C19
:100E1000893009F465C010926E0C81E08093700CEB
:100E20000E94D005882309F048C08091570C90910A
:100E3000580C90935D0C80935C0C8091750C8930FC
:100E400009F483C08A3009F48AC08B3009F489C060
:100E500080E480936E0C06C00E94A3008091600C19
:100E60008E3159F580915C0C90915D0C0E941003BD
:100E700090935D0C80935C0C87E50E9479008091D3
:100E80006E0C815080936E0C882331F78091780C22
:100E90009091790CA0917A0CB0917B0C80935C0CB2
:100EA00090935D0CA0935E0CB0935F0C0E94A30026
:100EB0008091600C843109F456C090916F0C95308C
:100EC00008F045C08091600C863109F440C0992338
:100ED00089F59F5F90936F0C8091500C86FF96CFA1
:100EE00086E50E9479001092600C8091780C0E9437
:100EF000E4008091790C0E94E40080917A0C0E94B9
:100F0000E40080917B0C0E94E40081E00E94E400F8
:100F10008091570C9091580C90935D0C80935C0CD1
:100F20008091750C893059F08A3059F08B3059F026
:100F300080E4A8CF0E94430490916F0CCACF88E050
:100F4000A1CF80E19FCF80E29DCF88E082CF0E9439
:100F500027030E94C6040E9443049927089580E154
:100F600078CF80E276CF8091500C85FF03C080E07F
:100F700090E008950E94C200FACF80915C0C90919D
:100F80005D0CA0915E0CB0915F0C8093780C9093F7
:100F9000790CA0937A0CB0937B0C0E9400078823F5
:100FA00059F48091950C9091960C009739F4109219
:100FB000650C80E090E0089599270895AA27BB2743
:100FC0002091780C3091790C40917A0C50917B0CE7
:100FD000820F931FA41FB51F8093780C9093790CF8
:100FE000A0937A0CB0937B0C0E940007882321F712
:100FF0008091950C9091960C9C01442755278091E7
:10100000780C9091790CA0917A0CB0917B0C821B9A
:10101000930BA40BB50B8093780C9093790CA09351
:101020007A0CB0937B0C80935C0C90935D0CA09336
:101030005E0CB0935F0CBBCF20915C0C30915D0CCB
:1010400040915E0C50915F0C8091780C9091790CDE
:10105000A0917A0CB0917B0C281739074A075B07DF
:1010600009F4ABC010926F0C8091500C86FD6DC0DE
:101070008091750C893009F468C080E880936E0C0B
:1010800081E08093700C0E94D005882309F04CC049
:1010900085E50E9479008091570C9091580C9093AF
:1010A0005D0C80935C0C8091750C893009F472C0E2
:1010B0008A3009F476C08B3009F475C080E48093DF
:1010C0006E0C8823D1F00E94A3008091600C8D31BA
:1010D00059F580915C0C90915D0C0E94F602909302
:1010E0005D0C80935C0C85E50E94790080916E0C0C
:1010F000815080936E0C882331F78091780C909109
:10110000790CA0917A0CB0917B0C80935C0C90933D
:101110005D0CA0935E0CB0935F0C0E94A3008091C5
:10112000600C843109F44CC090916F0C9530E8F557
:101130008091600C8631C9F1992371F59F5F90937E
:101140006F0C8091500C86FF93CF84E50E9479004C
:101150001092600C8091780C0E94E4008091790CD0
:101160000E94E40080917A0C0E94E40080917B0C44
:101170000E94E40081E00E94E4008091570C90916D
:10118000580C90935D0C80935C0C8091750C8930A9
:1011900009F08ECF88E093CF0E94430490916F0CAA
:1011A000CDCF80E18CCF80E28ACF0E9427030E94BE
:1011B000C6040E9443049927089580E090E00895B2
:1011C00080E090E0089510929B0C80917D0C84311A
:1011D00018F480E090E008958091810C9091820C49
:1011E000A091830CB091840C8093780C9093790C2F
:1011F000A0937A0CB0937B0C0E941C08882311F0FA
:1012000099270895E091570CF091580C8091590C52
:1012100090915A0CE80FF91F838584FDDACF8091F5
:10122000890C90918A0CA0918B0CB0918C0C848FBE
:10123000958FA68FB78F0E940007992708958091F8
:101240007D0C823108F457C080917D0C8231F9F019
:1012500080917D0C843160F410929B0C80919B0CEA
:10126000882379F00E94E308882359F0992708958C
:1012700080917D0C843191F78091320A882371F737
:10128000EBCF60E1862F0E94030499270895809197
:101290006C0C8330E9F28091850C80939D0C8091D9
:1012A000890C90918A0C0090750C02C096958795D8
:1012B0000A94E2F7AA27BB278093850C9093860CAB
:1012C000A093870CB093880C2091850C8091530CCF
:1012D0009091540CA091550CB091560C820F911D19
:1012E000A11DB11D8093530C9093540CA093550CE9
:1012F000B093560CADCF84EB90E0089580917D0CB7
:10130000833108F49BC08091810C9091820CA09154
:10131000830CB091840C8093780C9093790CA093FB
:101320007A0CB0937B0C0E941C08682F882309F06C
:101330007DC08093650CE091570CF091580C809122
:10134000590C90915A0CE80FF91F90913A0A838535
:1013500080933A0A9F3F21F0938781E08093650C48
:101360002091380A3091390A3093700C20936F0C19
:10137000868997899093390A8093380A8FEF2F3F97
:10138000380729F0378B268B81E08093650C2091FC
:10139000360A3091370A3093700C20936F0C808D91
:1013A000918D9093370A8093360A8FEF2F3F38073D
:1013B00029F0318F208F81E08093650C2091320AD3
:1013C0003091330A4091340A5091350A20933E0AF5
:1013D00030933F0A4093400A5093410A848D958D83
:1013E000A68DB78D8093320A9093330AA093340A66
:1013F000B093350A8091410A8F3F89F02093890C80
:1014000030938A0C40938B0C50938C0C248F358F27
:10141000468F578F81E08093650C60939B0C809181
:10142000650C882329F480E090E0089599270895B9
:101430006093650C0E9400079927089584EB90E063
:1014400008958091760C9091770C009709F4089597
:10145000AA27BB272091910C3091920C4091930CBC
:101460005091940C820F931FA41FB51F8093780C8A
:101470009093790CA0937A0CB0937B0C0E941C087B
:10148000882311F099270895E091570CF091580C9A
:10149000E851FE4F80819181A281B3812091610C3E
:1014A0003091620C4091630C5091640C820F931F39
:1014B000A41FB51F8093610C9093620CA093630CE2
:1014C000B093640C80839183A283B3830E9400074E
:1014D00099270895EF92FF920F931F93CF93FC01EA
:1014E000C62F80916C0C823009F4E1C0833009F47E
:1014F000E7C0E080F1808E2D81708093800CC70161
:10150000969587958E0D9F1D7C0100271127809150
:101510006A0C90916B0C01978E219F212091570CA2
:101520003091580C820F931F9093520C8093510C62
:10153000C801B7010E94C8027B018C0180918D0C0B
:1015400090918E0CA0918F0CB091900CE80EF91E2A
:101550000A1F1B1F80915C0C90915D0CA0915E0C8A
:10156000B0915F0CE816F9060A071B0791F080910D
:10157000650C882309F094C0E092780CF092790C05
:1015800000937A0C10937B0C0E941C08882309F0AE
:101590008CC0CC2389F0CF3F09F4E8C0C13009F4F6
:1015A00039C1E090610CF090620C0091630C1091D5
:1015B000640C81E08093650C80916C0C823009F49E
:1015C000DEC0833009F4F8C04F2D4F70F42EE09147
:1015D000570CF091580C80916A0C90916B0CE80FAD
:1015E000F91F3197A091510CB091520CEA17FB07EB
:1015F00009F473C02C9120936D0CFD013181CC2333
:1016000029F130936E0C8091800C882309F406C177
:101610002F708E2D992782959295907F9827807FA5
:101620009827282B2C93E091510CF091520C2E2DE1
:1016300022952F70842F992782959295907F9827D5
:10164000807F9827282B218330916E0C8091800C0D
:10165000882309F4DDC020916D0C22952F70832F13
:10166000992782959295907F9827807F9827282B9D
:1016700020936D0C32953F7030936E0C1092700C6D
:1016800010926F0C20E080916D0C90916E0C875F32
:101690009F4008F021E02093800C80E090E0DAC0C9
:1016A0000E94BD07882309F467CF9927D3C0E08043
:1016B000F18002811381EE0CFF1C001F111F27CF48
:1016C000E080F18002811381EE0CFF1C001F111FCE
:1016D000EE0CFF1C001F111F1ACF908190936D0C10
:1016E000CC2359F08091800C882309F0A4C02E2DC2
:1016F00020830E94BD078823C1F680915C0C9091E5
:101700005D0CA0915E0CB0915F0C0196A11DB11D06
:101710008093780C9093790CA0937A0CB0937B0C07
:101720000E941C08882309F6E091570CF091580C90
:101730003081CC2309F48ACF30936E0C8091800CD9
:10174000882309F484C03E2D32953F708F2D992750
:1017500082959295907F9827807F9827382B3083A9
:1017600081E08093650C30916E0C70CFFFEFEF2E0F
:10177000FFEFFF2EFFEF0F2FFFEF1F2F1ACFE0918C
:10178000510CF091520C8081918190936E0C80935A
:101790006D0C1092700C10926F0C20E0875F9F4FC1
:1017A00008F021E02093800CCC2309F476CFF1825D
:1017B000E08280E090E04EC0E091510CF091520C3C
:1017C00080819181A281B38180936D0C90936E0C86
:1017D000A0936F0CB093700C212F2F709091700C10
:1017E000892F807F122F182B892F8F708093700C78
:1017F00090E08F3008F091E09093800CCC2309F4B6
:101800004CCFE082F1820283138380E090E022C01B
:101810003F7032CFEE24FF248701CBCEEC92E091D3
:10182000510CF091520C80916E0C807F842B81833F
:1018300030916E0C0BCF292F2F708E2D992782950A
:101840009295907F9827807F9827282B51CF307FC3
:101850003F2985CFCF911F910F91FF90EF90089571
:101860008091970C9091980CA091990CB0919A0C42
:101870000097A105B10509F472C08093610C9093A3
:10188000620CA093630CB093640C60919D0C262FA6
:101890003327442755278091320A9091330AA0912B
:1018A000340AB091350A82179307A407B507E0F10F
:1018B00060E081E69CE00E946A0A882309F061C02A
:1018C0008091800C882309F04AC080916D0C909122
:1018D0006E0CA0916F0CB091700C8093610C909382
:1018E000620CA093630CB093640C60919D0C262F46
:1018F0003327442755278091320A9091330AA091CB
:10190000340AB091350A821B930BA40BB50B80935C
:10191000320A9093330AA093340AB093350A82179F
:101920009307A407B50720F661508091320A8623F9
:1019300080939C0C0E9445058091780C9091790CC5
:10194000A0917A0CB0917B0C8093320A9093330A69
:10195000A093340AB093350A80E090E008958FEFA9
:1019600080939C0C8FEF9FEFAFEFBFEF8093320A15
:101970009093330AA093340AB093350A80E090E044
:10198000089599270895EF92FF920F931F93CF9395
:10199000DF932091610C3091620C4091630C509167
:1019A000640C8091710C9091720CA091730CB091A9
:1019B000740C82179307A407B50708F423C12F5F9F
:1019C0003F4F4F4F5F4F2093610C3093620C409319
:1019D000630C5093640C60E081E69CE00E946A0A0C
:1019E000882309F00DC180916D0C90916E0CA0912F
:1019F0006F0CB091700C0097A105B10509F4FBC004
:101A000080916C0C813029F24091570C5091580C08
:101A1000823009F452C060916A0C70916B0C76951B
:101A2000679576956795615070409B0170936E0C39
:101A300060936D0C7093700C60936F0C0FEF1FEF41
:101A4000DA01FA013496AF01F093520CE093510C95
:101A5000ED018C819D81892B69F48281882351F469
:101A60008381E82EFF248FE0E822FF24E114F104B3
:101A700009F48CC0C90101979C0190936E0C80936E
:101A80006D0C892BE9F6CB01AA27BB272091610CAD
:101A90003091620C4091630C5091640C822B932B1B
:101AA000A42BB52B9C01AD012093610C3093620CEB
:101AB0004093630C5093640C74CF20916A0C309166
:101AC0006B0C3695279521503040C90130936E0C30
:101AD00020936D0C3093700C20936F0CFA014E5FC5
:101AE0005F4F6281738161157105E9F021503040CB
:101AF00030936E0C20936D0C2115310579F75093BE
:101B0000520C4093510C9C01442755278091610C45
:101B10009091620CA091630CB091640C282B392B2E
:101B20004A2B5B2BC1CF5093520C4093510C8FEF3B
:101B30009FEF9383828380916F0C9091700C9C0136
:101B4000442755278091610C9091620CA091630C01
:101B5000B091640C282B392B4A2B5B2B80916D0C98
:101B600090916E0C0197AA27BB27281B390B4A0BB3
:101B70005B0B2093610C3093620C4093630C509389
:101B8000640C81E08093650CCB013EC01D830C8307
:101B90000283E091510CF091520C83818F6083831A
:101BA00080916F0C9091700C9C0144275527809177
:101BB000610C9091620CA091630CB091640C282B85
:101BC000392B4A2B5B2B80916D0C90916E0C0197F9
:101BD000AA27BB27281B390B4A0B5B0B2093610CF0
:101BE0003093620C4093630C5093640C81E08093BB
:101BF000650CC70109C06FEF81E69CE00E946A0A8C
:101C0000992702C081EB90E0DF91CF911F910F9156
:101C1000FF90EF9008950E94C30C882321F0813B30
:101C200011F099270895882361F01092610C1092A9
:101C3000620C1092630C1092640C0E94C30C8823F7
:101C400081F70E94BD07882361F78091610C909114
:101C5000620CA091630CB091640C8093970C9093EC
:101C6000980CA093990CB0939A0C8091810C909150
:101C7000820CA091830CB091840C8093780C90938B
:101C8000790CA0937A0CB0937B0C0E941C088823DB
:101C900041F6E091570CF091580C8091590C9091BD
:101CA0005A0CE80FF91F81E0848F8091970C909176
:101CB000980C938F828F8091990C90919A0C958BB0
:101CC000848B0E940007992708950E94C30C813BD2
:101CD00011F0992708951092610C1092620C1092E5
:101CE000630C1092640C0E94C30C99270895EF9224
:101CF000FF920F931F93CF93DF9380917D0C8330DE
:101D000040F40E948C04882311F09927D1C10E94CD
:101D1000D6040E9427031092510C1092780C109256
:101D2000790C10927A0C10927B0C0E941C0888236C
:101D300009F05BC18091510C8823B1F0C091570C20
:101D4000D091580C90E0FE01EE53FE4F9E01808131
:101D50007096882309F060C1905F205F3F4F9034F8
:101D6000B1F782E990E0A4C1C091570CD091580C12
:101D7000888199278D7F9070893E910519F7809110
:101D8000780C9091790CA0917A0CB0917B0C809397
:101D9000910C9093920CA093930CB093940C0E948E
:101DA0001C08882309F0B1CFC091570CD091580C72
:101DB000888199278D7F9070893E910509F073C1C4
:101DC0009D85392F26E0822F96FD66C1990F81509F
:101DD000282FD1F790936C0C80935B0C81E080935B
:101DE0009D0C8E899F899093960C8093950C892BDE
:101DF00011F5ECA0FDA00EA11FA1E092610CF092E4
:101E0000620C0093630C1093640C60E0E61660E0D3
:101E1000F60661E0060760E0160728F08091510C95
:101E2000882309F043C18091610C9091620C9093DA
:101E3000960C8093950C8B899C89892B09F017C18E
:101E400088A199A1AAA1BBA18093970C9093980C0B
:101E5000A093990CB0939A0C80916A0C90916B0CA2
:101E600096958795929582958F7089279F7089277F
:101E70008150082F1127CE0141960E94BC02080F05
:101E8000191F8091750C9927059702C01695079523
:101E90008A95E2F79801442755272093850C3093C3
:101EA000860C4093870C5093880CC091570CD091AE
:101EB000580CEE85FF85F0935A0CE093590C609115
:101EC000950C7091960CCF01860F971F7C0100270F
:101ED0001127E20EF31E041F151FE092610CF09211
:101EE000620C0093630C1093640C8889823008F4B0
:101EF000B9C0CB01AA27BB27E80EF91E0A1F1B1F7A
:101F0000E092610CF092620C0093630C1093640CED
:101F10008091970C9091980CA091990CB0919A0C8B
:101F20008E199F09A00BB10B00905B0C04C0B695F5
:101F3000A795979587950A94D2F78093710C909303
:101F4000720CA093730CB093740C855F9F4FA040EC
:101F5000B04008F071C01092770C1092760C80910E
:101F6000710C9091720C855F9F4008F093C091E0D6
:101F700090936C0C309709F447C021153105410549
:101F8000510509F441C088898230C0F58B858823CA
:101F9000D9F58C858230C0F1CF01AA27BB272091CB
:101FA000780C3091790C40917A0C50917B0C820F17
:101FB000931FA41FB51F80938D0C90938E0CA0933C
:101FC0008F0CB093900CE20EF31E041F151FE092CD
:101FD000530CF092540C0093550C1093560C60E186
:101FE00083E00E940304992763C00E94D6040E94E4
:101FF0001C08882309F49ECE99275AC08091950C1D
:102000009091960C892B11F68091510C882321F622
:1020100081E08093510C81CEC9018A539E4F0E946A
:10202000A402DC01CB018093780C9093790CA093EF
:102030007A0CB0937B0CA3CE88A999A99093770CC6
:102040008093760C2CA53DA54EA55FA52093850C0D
:102050003093860C4093870C5093880C83E08093D8
:102060006C0C88CF1092960C1092950C51CFCE012B
:1020700043960E94BC02AA27BB278093970C90939B
:10208000980CA093990CB0939A0CC091570CD091D6
:10209000580CE2CE92E06CCF20935B0C90936C0CCA
:1020A00030939D0C9ECE81EA90E002C082EA90E0DF
:1020B000DF91CF911F910F91FF90EF900895AF9214
:1020C000BF92CF92DF92EF92FF920F931F93CF9325
:1020D000DF9382E20E9479000E94940080917D0C3F
:1020E000803130F40E94770E882311F0992772C353
:1020F00060E1862F0E9403048823C1F780939B0C24
:1021000022E33AE09091320A9C3509F44DC19F32A6
:1021100009F44AC18091330A8A3309F418C162E391
:102120007AE030937F0C20937E0CEB018881853E12
:1021300009F466C0E090970CF090980C0091990C0F
:1021400010919A0CE114F1040105110509F468C01D
:1021500080919D0C80939C0CA801970122503040E7
:102160004040504000905B0C04C0220F331F441FBE
:10217000551F0A94D2F78091530C9091540CA09162
:10218000550CB091560C280F391F4A1F5B1F209326
:10219000810C3093820C4093830C5093840C80917B
:1021A0009C0C882309F059C0E114F10401051105C4
:1021B00009F4BBC160E087E99CE00E946A0A8823B9
:1021C00009F094CF8091800C882309F0AEC18091F2
:1021D0006D0C90916E0CA0916F0CB091700C80936F
:1021E000970C9093980CA093990CB0939A0C6091D3
:1021F0007E0C70917F0CEB018881853E09F09ACFAF
:1022000085E08883E090970CF090980C0091990CF1
:1022100010919A0CE114F1040105110509F098CF11
:102220008091850C80939C0C2091530C3091540C20
:102230004091550C5091560C281B31094109510908
:102240002093810C3093820C4093830C5093840C28
:1022500080919C0C882309F4A7CF2093780C3093AD
:10226000790C40937A0C50937B0C0E941C088823B5
:1022700009F03CCF10925A0C1092590CE0906A0C65
:10228000F0906B0CE114F104A9F468C060917E0C2D
:1022900070917F0CDB012C91281761F12A3251F1EA
:1022A000C801809690935A0C8093590C8E159F0507
:1022B00008F054C04091570C5091580C0091590CA3
:1022C00010915A0C400F511F5093520C4093510CD7
:1022D000FA018081882309F428C1853E09F38530FD
:1022E000A9F685EE60917E0C70917F0CDB012C913C
:1022F0002817A1F61092700C2091700C322FC32F6A
:10230000DD27FE01E40FF51FDB01A20FB11DE08107
:10231000AC91EA1791F0AA2309F4FBC0AC3509F49B
:10232000F8C0AF3209F4F5C0AE3209F0D0C02830A1
:1023300019F0E03209F0CBC037E03F5F822F8F5FAA
:102340008093700C3B3008F0C1C0282FD8CF933455
:1023500008F4E5CEB9016D5F7F4F29C08091810CF3
:102360009091820CA091830CB091840C0196A11DD8
:10237000B11D9C01AD018093810C9093820CA093C0
:10238000830CB093840C80919C0C815080939C0CA6
:10239000882309F062CFE090970CF090980C0091A0
:1023A000990C10919A0C00CFB9016F5F7F4F709319
:1023B0007F0C60937E0C20916C0C233009F47DC05F
:1023C00080E090E0A0E0B0E07C018D018093970C6C
:1023D0009093980CA093990CB0939A0CDB018C917C
:1023E000882309F0A2CEFFEFAF2EFFEFBF2EFFEF45
:1023F000CF2EFFEFDF2E233009F4BAC182E08093A5
:10240000970C2091850C8091530C9091540CA091C5
:10241000550CB091560C821B9109A109B10980930A
:10242000530C9093540CA093550CB093560C809180
:10243000850C9091860C0090750C02C0880F991F36
:102440000A94E2F75C01CC24DD24A092890CB092BE
:102450008A0CC0928B0CD0928C0C80919D0C992789
:10246000AA27BB278093850C9093860CA093870C9A
:10247000B093880C80E880939D0CE090970CF090CE
:10248000980C0091990C10919A0CE092610CF092CA
:10249000620C0093630C1093640C1092660C109203
:1024A000670C1092680C1092690C10929C0C82E1DF
:1024B00080937D0C81E490E08DC18091850C90919A
:1024C000860CA091870CB091880C7ECF282F3B30D2
:1024D00020F0FA01838583FF6DC0FB01E20FF11D3F
:1024E00080818A3209F0DCCEEA018B8583FDD8CE6B
:1024F0008181882309F4A0C08F3FC9F18150818375
:10250000E0906A0CF0906B0C0091590C10915A0CF1
:10251000C7CEC40FD51F88818032C9F63830C8F6BF
:10252000EA018885803299F6D4CF90E060917E0CE4
:1025300070917F0CDB018C918823B1F08A32A1F07D
:10254000A0E0B0E0A60FB71F8C918C3581F18F32DF
:1025500071F19F5FA92FBB27FB01EA0FFB1FE081F1
:10256000EE2311F0EA3271F782E490E033C1A090DB
:10257000890CB0908A0CC0908B0CD0908C0CA1145C
:10258000B104C104D10409F457C080918C0C87FDBB
:1025900039C00894A108B108C108D108A092890CDB
:1025A000B0928A0CC0928B0CD0928C0C79CE83EBBB
:1025B00090E010C11092800CEA018A8D9B8D7C0105
:1025C00000271127E092970CF092980C0093990C39
:1025D00010939A0C80916C0C833039F1DB01A20FBF
:1025E000B11D8C91882309F48AC08091800C8823C6
:1025F00009F085C0BD016F5F7F4F70937F0C6093C2
:102600007E0C93CD0E94C700A090890CB0908A0CDC
:10261000C0908B0CD0908C0CE0906A0CF0906B0CFE
:102620000091590C10915A0CB4CF8C899D899093CC
:102630009A0C8093990CD2CF20E020936E0C1AC094
:1026400060917E0C70917F0CEB018881853041F4A4
:1026500085EE888360917E0C70917F0C90916E0C5A
:102660009F5F90936E0C2F5F2B30A8F54091510C1B
:102670005091520CA22FBB27FD01E40FF51F808162
:10268000803289F3283091F080916E0C680F711DB3
:10269000A40FB51F8C91DB018C9390916E0C992344
:1026A00079F260917E0C70917F0CDACF80916E0C84
:1026B000680F711D8EE2FB01808380916E0C8F5F2D
:1026C00080936E0C60917E0C70917F0C4091510C48
:1026D0005091520CD9CF80916E0C680F711DFB0187
:1026E000108281E08093800C60917E0C70917F0C51
:1026F0004091510C5091520C2091700C5DCFE092A2
:10270000610CF092620C0093630C1093640C1092B5
:10271000660C1092670C1092680C1092690C109263
:102720009C0CFA01838584FD38C0EA01AC8CBD8C19
:10273000CE8CDF8CE114F1040105110529F58FEF32
:1027400080939C0CE092890CF0928A0C00938B0C85
:1027500010938C0C64E180E10E940304882309F04B
:10276000C5CC8091800C882361F083E490E032C076
:10277000A092890CB0928A0CC0928B0CD0928C0CD7
:1027800084CE80E090E026C0A092890CB0928A0CA2
:10279000C0928B0CD0928C0CDDCFEFEFAE2EEFEF12
:1027A000BE2EEFEFCE2EEFEFDE2EA092890CB09270
:1027B0008A0CC0928B0CD0928C0C63E180E10E9459
:1027C0000304882309F092CC8091800C882369F659
:1027D00081E490E0DF91CF911F910F91FF90EF90F6
:1027E000DF90CF90BF90AF90089580917D0C8331A2
:1027F00030F40E945F10882311F09927089560E15A
:10280000862F0E9403048823C1F78091810C909148
:10281000820CA091830CB091840C8093780C9093DF
:10282000790CA0937A0CB0937B0C0E941C0888232F
:1028300021F7E091570CF091580C8091590C909130
:102840005A0CE80FF91F85EE80830E940007882349
:10285000A1F68091970C9091980CA091990CB09151
:102860009A0C80936D0C90936E0CA0936F0CB093A8
:10287000700C0097A105B105D9F10197A109B10923
:102880008093970C9093980CA093990CB0939A0C0A
:102890001092610C1092620C1092630C1092640CF6
:1028A00061E08DE69CE00E946A0A882309F0A5CFCA
:1028B0008091610C9091620CA091630CB091640CBA
:1028C0000196A11DB11D8093610C9093620CA093A1
:1028D000630CB093640C8091800C882309F30E94F0
:1028E000BD07882309F089CF0E94210A99270895FE
:1028F00080E090E00895CF93DF930E945F10482F0F
:10290000882309F4BAC0823421F080939C0C992763
:10291000EEC180916A0C90916B0C80972091590CBC
:1029200030915A0C2817390708F4C8C0A091970CA9
:10293000B091980CC091990CD0919A0C1097C10548
:10294000D10509F4BEC02091810C8091530C281B45
:1029500090919D0C915029239F5F20939C0C809116
:10296000590C882341F03327892F9927019728177D
:10297000390709F090C060E087E99CE00E946A0A8C
:10298000882309F099C08091800C882309F47BC0CA
:102990008091970C9091980CA091990CB0919A0C01
:1029A0008093610C9093620CA093630CB093640CC1
:1029B0000E94650E882309F07FC062E087E99CE0F1
:1029C0000E946A0A882309F077C00E94BD07882305
:1029D00009F072C00E94270320E030E009C0E091B6
:1029E000570CF091580CE20FF31F10822F5F3F4FEE
:1029F00080916A0C90916B0C2817390781F710921F
:102A00009C0C0E9445058091590C8823A1F41092DA
:102A10005A0C1092590C8091780C9091790CA091DD
:102A20007A0CB0917B0C8093810C9093820CA093D4
:102A3000830CB093840C80919D0C80936D0C882343
:102A400009F446C10E9400078823B1F58091780CF3
:102A50009091790CA0917A0CB0917B0C0196A11DFC
:102A6000B11D8093780C9093790CA0937A0CB0935D
:102A70007B0C80916D0C8150E0CF80939C0C0E9468
:102A8000F5138823C9F4A091970CB091980CC091CC
:102A9000990CD0919A0CA093610CB093620CC093E6
:102AA000630CD093640C0E94650E882329F40E9465
:102AB000BD07882309F456C0992719C140939C0C7F
:102AC000E2CF40939C0C8091590C882321F7809190
:102AD000810C9091820CA091830CB091840C019791
:102AE000A109B1098093810C9093820CA093830C6F
:102AF000B093840C8093780C9093790CA0937A0C0B
:102B0000B0937B0C0E941C088823B1F610925A0CDB
:102B10001092590C60916A0C70916B0C61157105E3
:102B200009F46FC04091570C5091580C0AC0C9016C
:102B3000809690935A0C8093590C8617970708F04B
:102B400060C02091590C30915A0CFA01E20FF31F2A
:102B50008081853E61F7838599278E709070892BDF
:102B600031F791CF8091610C9091620CA091630C30
:102B7000B091640C8093970C9093980CA093990C4F
:102B8000B0939A0C8FEF9FEFAFEFBFEF8093610C84
:102B90009093620CA093630CB093640C0E94210A82
:102BA000882309F089CF8091810C9091820CA091AB
:102BB000830CB091840C8093780C9093790CA09343
:102BC0007A0CB0937B0C0E941C08282F8823B1F448
:102BD000C091570CD091580C8091590C90915A0C7F
:102BE000C80FD91F822FFE0105C090E291938F5F1D
:102BF000803250F48B30C8F390E0F8CF822F9927C1
:102C000076C082EB90E073C081E290E3998F888F69
:102C100081E08C8F20E0A0917E0CB0917F0C12C0DF
:102C2000FE01E20FF11D8C9180832F5F80917E0C5D
:102C300090917F0C0196DC0190937F0C80937E0C29
:102C40002B3060F48C91882349F08E3249F728E0CC
:102C50001196B0937F0CA0937E0CE2CF8091970CDD
:102C60009091980C9B8F8A8F8091990C90919A0CDF
:102C70009D8B8C8B0E940007282F882309F0BECFE4
:102C80008091970C9091980CA091990CB0919A0C0E
:102C90008093610C9093620CA093630CB093640CCE
:102CA0001092890C10928A0C10928B0C10928C0C42
:102CB0001092660C1092670C1092680C1092690CBE
:102CC00020939C0C64E180E10E94030499270FC0CB
:102CD0008FEF9FEFAFEFBFEF8093610C9093620C8B
:102CE000A093630CB093640C0E94210ACACEDF91BA
:102CF000CF9108958091340A282F33270090750CC6
:102D000002C0220F331F0A94E2F780916D0C90915C
:102D10006E0C002496958795079496958795079451
:102D2000982F802D281B390B30936E0C20936D0C3F
:102D3000A901662777278091660C9091670CA09176
:102D4000680CB091690C841B950BA60BB70B809394
:102D5000660C9093670CA093680CB093690C8091FB
:102D60003A0A90913B0A821B930B90933B0A809303
:102D70003A0A0895CF93DF9310926F0C8091500C14
:102D800086FDAEC08091750C893009F4A9C080EC35
:102D900080936E0C8091340A8093700C0E94D00551
:102DA000882309F07BC085E50E9479008091500C52
:102DB0008093700C982F9695969593708C7F982B96
:102DC0009093500C8091340A282F33279091750CE2
:102DD000993009F4ABC09A3009F4B0C09B3009F4C3
:102DE000B5C0C90100249695879507949695879557
:102DF0000794982F802D90936E0C80936D0C2CC0AF
:102E000080913A0A90913B0A0E94F60290933B0A05
:102E100080933A0A85E50E9479008091660C909132
:102E2000670CA091680CB091690C805C9F4FAF4F0C
:102E3000BF4F8093660C9093670CA093680CB0937F
:102E4000690CC0916D0CD0916E0C2197D0936E0CD3
:102E5000C0936D0C2097B9F00E94A3008091600C84
:102E60008D31E1F48091700C99278C709070892BD2
:102E700039F688E20E9479001092600C0E9494005A
:102E80000E94C800C7CF8091700C8093500C0E94A4
:102E9000A3008091600C843109F468C08091700CAB
:102EA0008093500C80916F0C853008F059C0809150
:102EB000600C863109F454C00E947A168091500C3F
:102EC00099278C709070892B29F180916F0C882341
:102ED00041F58F5F80936F0C8091500C86FF52CF2D
:102EE00084E50E9479001092600C8091360A0E945D
:102EF000E4008091370A0E94E4008091380A0E9421
:102F0000E4008091390A0E94E4008091340A0E9412
:102F1000E4004CCF80E00E94C80080916F0C8823B1
:102F2000C1F20E94430480916F0CD3CFC901880F76
:102F3000991F880F991F880F991F5DCFC90182952E
:102F40009295907F9827807F982755CFC901880F49
:102F5000991F82959295907F9827807F98274BCFD5
:102F60000E94C6040E944304992708C08091320A37
:102F70009091340A890F8093320ACE01DF91CF916C
:102F80000895CF93DF9310926F0C8091500C86FDC3
:102F900034C08091750C893081F180E480936E0C8F
:102FA0002091340A2093700C0E94D005882309F4E4
:102FB000BAC08091700C8093500C80916F0C85305A
:102FC00008F023C18091600C863109F41EC10E9473
:102FD0007A168091500C99278C709070892B09F487
:102FE000ECC080916F0C882309F0E2C08F5F809362
:102FF0006F0C8091500C86FFCCCF86E50E94790043
:103000001092600C8091360A0E94E4008091370A89
:103010000E94E4008091380A0E94E4008091390AFD
:103020000E94E4008091340A0E94E4002091500C38
:103030002093700C822F8695869583702C7F822B2F
:103040008093500C8091340A282F33279091750C6F
:10305000993009F4A5C09A3009F4B3C09B3009F443
:10306000B8C0C901002496958795079496958795D1
:103070000794982F802D90936E0C80936D0C0E9476
:10308000A3008091600C8E3109F093CF2091700CD9
:10309000822F99278C709070892B09F475C08091CC
:1030A0003A0A90913B0A0E94100390933B0A809346
:1030B0003A0A87E50E9479008091660C9091670C2E
:1030C000A091680CB091690C805C9F4FAF4FBF4FCF
:1030D0008093660C9093670CA093680CB093690C76
:1030E000C0916D0CD0916E0C2197D0936E0CC09353
:1030F0006D0C209721F68091700C8093500C0E94EB
:10310000A3008091600C843109F053CF8091500C62
:1031100085FF89C08091320A9091340A890F80938B
:10312000320ACE0183C02091500C2093700C822F64
:10313000869586958370922F9C7F892B8093500C67
:103140008091340A482F55279091750C993009F4D5
:1031500054C09A3009F45FC09B3009F444C0CA01DE
:103160000024969587950794969587950794982FB0
:10317000802D90936E0C80936D0C822F99278C700C
:103180009070892B09F08BCF8BE20E94790010920E
:10319000600C80E40E94E40080E40E94C90089CFB2
:1031A000C901880F991F880F991F880F991F63CF36
:1031B0000E94430480916F0C19CF80E00E94C900E7
:1031C00010CFC90182959295907F9827807F98278C
:1031D00052CFC901880F991F82959295907F9827A9
:1031E000807F982748CFCA01880F991F82959295B2
:1031F000907F9827807F9827BCCFCA01880F991F9E
:10320000880F991F880F991FB4CF0E94C6040E948F
:10321000430499270BC0CA0182959295907F982705
:10322000807F9827A6CF0E94C20074CFDF91CF91F4
:10323000089580917D0C823108F448C08091890CFA
:1032400090918A0CA0918B0CB0918C0CBC01CD019B
:103250000E94C8022091320A3091330A4091340A08
:103260005091350A621773078407950750F49B0144
:10327000AC016093320A7093330A8093340A9093BE
:10328000350A8091750C9927089704C0220F331FC7
:10329000441F551F8A95D2F720936D0C30936E0C06
:1032A00040936F0C5093700C80916F0C8093690C5D
:1032B00080916E0C8093680C80916D0C8093670CEC
:1032C0001092660C0E94300C9927089584EB90E0D0
:1032D000089580917D0C853120F480917D0C8231A0
:1032E00018F484EB90E008959091320A9093330A99
:1032F0001092320A1092340A8091890C90918A0CB3
:10330000A0918B0CB0918C0C2091660C3091670CC5
:103310004091680C5091690C821B930BA40BB50B68
:10332000BC01CD010E94C802DC01CB0180936D0C71
:1033300090936E0CA0936F0CB093700C80916E0CF8
:10334000882309F47FC03FEF3093350A8091330A18
:10335000882309F067C09AC0262F33278091750C07
:10336000893009F489C08A3009F48BC08B3009F4A4
:1033700098C028303105D4F48091360A9091370AEC
:10338000A091380AB091390A860F911DA11DB11D77
:103390002091780C3091790C40917A0C50917B0CF3
:1033A00082179307A407B50709F449C00E94BA160B
:1033B000882309F071C08093340A682F8091780CBB
:1033C0009091790CA0917A0CB0917B0C8093360A85
:1033D0009093370AA093380AB093390A40919D0C14
:1033E00020919C0C842F821B3091350A381708F4E9
:1033F000832F80936D0C9091330A981708F467C05F
:10340000981B9093330A680F6093340A381B3093EB
:10341000350A280F20939C0C2417E1F09923B1F171
:103420003091350A332391F180919C0C8F3F71F1DB
:103430000E9445056091340A662309F08DCF66230A
:1034400069F6BCCF80916F0C882309F07CCF309156
:103450006D0C7ACF60E081E69CE00E946A0A282F1A
:103460008823F1F58091800C882301F12FEF2093C0
:103470009C0C9091330AD2CF203431050CF096CFBA
:103480007BCF203231050CF091CF76CF8091340A7A
:10349000882321F00E94BA169927089580E090E0D1
:1034A0000895203131050CF081CF66CF80916D0CED
:1034B00090916E0CA0916F0CB091700C8093610C88
:1034C0009093620CA093630CB093640CD0CF690FFF
:1034D0006093340A290F20939C0C0E94BA16DCCF0B
:1034E0009927089580917D0C853108F075C08091F1
:1034F0007D0C823108F470C09091320A9093330AA7
:10350000992329F480919B0C882309F01FC1109204
:10351000320A1092340A1092350A992309F4C1C074
:1035200080919C0C8F3FD1F58091970C9091980CD5
:10353000A091990CB0919A0C0097A105B10509F4DE
:10354000FDC080917D0C823129F480916C0C833018
:1035500009F059C18091610C9091620CA091630CAB
:10356000B091640C80933C0A90933D0AA0933E0A6C
:10357000B0933F0A0E94650E882309F0E9C062E01B
:103580008CE39AE00E946A0A882309F0E1C08091E6
:10359000350A81508093350A10929C0C0E94450593
:1035A0006091340A6623B9F1262F33278091750C78
:1035B000893009F4C6C08A3091F08B3009F4D1C04B
:1035C000283031057CF00E94C117882309F0C0C063
:1035D0008093340A682F21C084EB90E00895203254
:1035E00031058CF78091360A9091370AA091380AFC
:1035F000B091390A860F911DA11DB11D2091780C43
:103600003091790C40917A0C50917B0C8217930782
:10361000A407B507C1F6662381F48091780C9091D8
:10362000790CA0917A0CB0917B0C8093360A909320
:10363000370AA093380AB093390A80919D0C2091E3
:103640009C0C821B9091330A981708F4D5C0680F20
:103650006093340A981B9093330A992361F4209164
:103660003A0A30913B0A8091570C9091580C2817D8
:10367000390709F46FC060E081E69CE00E946A0AA5
:10368000282F882309F0B5C08091800C882309F485
:1036900042C08FEF80939C0C8091330A882309F0FD
:1036A0003FCF8091650C882309F060C08091340A77
:1036B000882309F062C02091350A222309F064C0F2
:1036C0008091890C90918A0CA0918B0CB0918C0CFC
:1036D0002091660C3091670C4091680C5091690CF8
:1036E00082179307A407B50758F42093890C3093E9
:1036F0008A0C40938B0C50938C0C81E080939B0C34
:103700008091500C84FF04C080919B0C8823F1F4BD
:1037100080E090E0089580916D0C90916E0CA091E6
:103720006F0CB091700C8093610C9093620CA0931D
:10373000630CB093640C20939C0CAECF0E940B0ED4
:1037400023CF203431050CF03ECF4CCF0E94E3084C
:10375000992708950E94C1178823D1F78093340ACE
:103760008ACF203131050CF02ECF3CCF0E94BD070F
:10377000882309F49BCF992708950E94C1178823B5
:1037800009F499CF992708958091610C9091620C6A
:10379000A091630CB091640C80933C0A90933D0A15
:1037A000A0933E0AB0933F0A822F9927AA27BB27EE
:1037B0009F6FAF6FBF6F8093610C9093620CA0936B
:1037C000630CB093640C0E94210A282F80913C0A5C
:1037D00090913D0AA0913E0AB0913F0A8093610CFE
:1037E0009093620CA093630CB093640C222309F4B1
:1037F00067CF822F99270895690F6093340A920F3B
:1038000090939C0C4ECF81EB90E0089520917D0C1D
:10381000243101F58091970C9091980CA091990C0E
:10382000B0919A0C8093610C9093620CA093630CFE
:10383000B093640C1092660C1092670C1092680C96
:103840001092690C10929C0C65E1822F0E94030477
:103850009927089584EB90E0089580917D0C85313F
:1038600021F00E94061C882379F56091320A70913C
:10387000330A8091340A9091350A2091890C309155
:103880008A0C40918B0C50918C0C261737074807F7
:10389000590710F4CA01B9016093660C7093670C64
:1038A0008093680C9093690C0E94C802DC01CB01E4
:1038B0008093320A9093330AA093340AB093350A66
:1038C0000E94300C992708959927089580917D0CC6
:1038D000853129F00E94061C882309F0CCC0709124
:1038E000320A70937E0C1092320A772309F4C0C01A
:1038F00080916A0C90916B0C01972091660C30912D
:10390000670C282339230196821B930B272F33271B
:103910008217930708F4B4C0272F622F8091660C9A
:103920009091670CA091680CB091690C820F911D69
:10393000A11DB11D2091890C30918A0C40918B0CF6
:1039400050918C0C82179307A407B50708F495C013
:103950002091890C8091660C281B20936D0C2223EA
:1039600009F486C00E9445050E941C08882309F0BE
:1039700082C040916A0C50916B0C41505040E091D4
:10398000660CF091670CE423F5234F5F5F4F809145
:10399000570C9091580CE80FF91FF093520CE093DC
:1039A000510C20916D0C8091660C9091670CA09148
:1039B000680CB091690C820F911DA11DB11D8093FF
:1039C000660C9093670CA093680CB093690C70918F
:1039D0007E0C721B70937E0C8091320AA82FBB273D
:1039E000AD5CB54F820F8093320A81918D93F09335
:1039F000520CE093510C622F6150262F60936D0C96
:103A0000662399F7415050408091660C9091670C65
:103A100084239523892B09F068CF80919C0C8F5FBC
:103A200080939C0C90919D0C891708F45ECF81E6E1
:103A30009CE00E946A0A8823F1F42091800C2223E2
:103A400019F580916D0C90916E0CA0916F0CB09156
:103A5000700C8093610C9093620CA093630CB093F4
:103A6000640C20939C0C70917E0C772309F040CF5E
:103A700080E090E008959927089560936D0C72CFCF
:103A80002091660C219549CF8FEF80939C0C8091FB
:103A9000660C9091670CA091680CB091690C8093B2
:103AA000890C90938A0CA0938B0CB0938C0CE0CF74
:103AB00080917D0C853129F00E94061C882309F035
:103AC00039C16091320A60937E0C662329F480919B
:103AD0009B0C882309F02CC11092320A662309F44A
:103AE0001CC180919C0C8F3F09F073C08091970C92
:103AF0009091980CA091990CB0919A0C0097A10507
:103B0000B10509F41DC18091610C9091620CA091E6
:103B1000630CB091640C8093660C9093670CA09337
:103B2000680CB093690C0E94650E882309F002C1ED
:103B300062E086E69CE00E946A0A882309F0FAC0E7
:103B40000E94BD07882309F0F5C08091610C909117
:103B5000620CA091630CB091640C8093660C9093FE
:103B6000670CA093680CB093690C8FEF9FEFAFEFD9
:103B7000BFEF8093610C9093620CA093630CB093A1
:103B8000640C0E94210A282F8091660C9091670C8A
:103B9000A091680CB091690C8093610C9093620CB9
:103BA000A093630CB093640C222309F0F1C08091C0
:103BB000890C90918A0CA0918B0CB0918C0C809305
:103BC000660C9093670CA093680CB093690C2093DB
:103BD0009C0C0E9445050E941C08882309F0AAC07D
:103BE00040916A0C50916B0CCA010197A091660C30
:103BF000B091670C8A239B239A01281B390B609193
:103C00007E0C862F99272817390708F495C0262F90
:103C100020936D0CFA013197EA23FB238091570C16
:103C20009091580CE80FF91FF093520CE093510C4F
:103C30008091660C9091670CA091680CB091690C12
:103C4000820F911DA11DB11D8093660C9093670C8E
:103C5000A093680CB093690C621B60937E0C8091FA
:103C6000320AA82FBB27AD5CB54F820F8093320A72
:103C70008D9180838091510C9091520C0196FC01A2
:103C80009093520C8093510C80916D0C81508093D5
:103C90006D0C882369F70E940007682F882309F0BC
:103CA00074C08091890C90918A0CA0918B0CB0917A
:103CB0008C0C2091660C3091670C4091680C5091EF
:103CC000690C82179307A407B50758F42093890C51
:103CD00030938A0C40938B0C50938C0C81E0809332
:103CE0009B0C20916A0C30916B0C215030408091DC
:103CF000660C9091670C82239323892B49F4809161
:103D00009C0C8F5F80939C0C90919D0C8917D8F42C
:103D100080917E0C882309F0E4CE8091500C84FFC2
:103D200004C080919B0C882319F480E090E00895F2
:103D30000E94E308992708952091660C219568CF89
:103D40000E940B0EFFCE81E69CE00E946A0A682F5B
:103D50008823D9F48091800C882321F08FEF809301
:103D60009C0CD6CF80916D0C90916E0CA0916F0C35
:103D7000B091700C8093610C9093620CA093630CD3
:103D8000B093640C60939C0CC3CF862F9927089541
:103D9000822F99270895FB01DC0101900D920020EC
:103DA000E1F70895CF93DF93CDB7DEB7E5E0F0E01C
:103DB000EC0FFD1F81919191AF01BC018091A00C8E
:103DC0009091A10C0E94241FDF91CF9108956091E2
:103DD000A00C7091A10C0E94002208950F931F93D4
:103DE000CF93DF93EC0100E010E0E091A00CF091A4
:103DF000A10C838181FD03C08FEF9FEF20C08991CB
:103E0000882371F0E091A00CF091A10C2085318500
:103E1000BF01F9010995892B91F30FEF1FEFEFCF48
:103E2000E091A00CF091A10C20853185BF018AE0C2
:103E3000F9010995892B11F00FEF1FEFC801DF91F0
:103E4000CF911F910F9108952F923F924F925F92C1
:103E50006F927F928F929F92AF92BF92CF92DF929A
:103E6000EF92FF920F931F93CF93DF93CDB7DEB7FF
:103E700062970FB6F894DEBF0FBECDBFEE24FF24CD
:103E800087011C017E876D872A01CC24DD24FC017B
:103E9000D782C682838181FD68C28FEF9FEF78C28F
:103EA0008D859E8501969E878D87C0FE4BC28F852E
:103EB00080538A30D0F49F85903339F4662029F4FA
:103EC000C3FC03C0E0E0F1E08DC08AE0689E602C96
:103ED0001124FF856F0E20ED620E67FE02C05FE7C2
:103EE000652EC3FC42C2762C40C2C3FE04C06620CD
:103EF00011F441E0642EEF858E2F992787FD909570
:103F0000883691058CF5853691050CF06EC08335A9
:103F1000910509F493C084359105CCF48B32910559
:103F200009F449C08C3291054CF48032910509F4B2
:103F300046C08332910509F44AC0FEC18D32910515
:103F400009F440C08E32910509F444C0F5C18336AE
:103F5000910509F450C0843691050CF08AC088356B
:103F6000910509F4BCC0E8C18037910509F4B1C0DE
:103F70008137910584F48C36910591F18D36910548
:103F80002CF48936910509F474C0D6C18F36910599
:103F900009F49CC0D1C18537910509F4A2C08637C8
:103FA000910524F48337910571F1C6C188379105D5
:103FB00009F495C0C1C180E190E0C82AD92AE0E2A5
:103FC000F0E010C080E890E0C82AD92ACEC1E0E431
:103FD000F0E008C088E090E0C82AD92A6624C5C16C
:103FE000E4E0F0E0CE2ADF2AC0C13FE3E32E7A947A
:103FF000F3E6FF873CC1F20182E090E0480E591ED3
:10400000E0807A9434C1F20182E090E0480E591EBB
:10401000A081B1817D01C3FE09C0862D992787FD4E
:104020009095BC01CD010E94F5211FC0FD010190BA
:104030000020E9F73197EA1BE88B18C0F20182E013
:1040400090E0480E591E0190F081E02D7F01C3FEE3
:1040500009C0862D992787FD9095BC01CF010E944C
:10406000EA2103C0CF010E94E121888B9889791A47
:10407000FEC0C2FE0AC0F20184E090E0480E591E64
:1040800020813181428153810CC0F20182E090E0B5
:10409000480E591E808191819C01442737FD40952F
:1040A000542F79018A0157FF0CC0E2E0F0E0CE2ADC
:1040B000DF2A10950095F094E094E11CF11C011D9D
:1040C000111D8FEB9FEFC822D92227C098E0988B53
:1040D00008C0E0E4F0E0CE2ADF2AF8E7FF8720E11D
:1040E000288BC2FE0AC0F20184E090E0480E591EFF
:1040F00020813181428153810AC0F20182E090E047
:10410000480E591E808191819C01442755277901D1
:104110008A01EFECFFEFCE22DF22CE0101969A8BCF
:10412000898B9889892E9924AA24BB24C801B701B8
:10413000A50194010E942D22DC01CB01E989FA89B5
:1041400080838A3024F0FF858F0F815201C0805D0B
:10415000E989FA898193FA8BE98BC801B701A50136
:1041600094010E942D2279018A0121153105410512
:104170005105E1F6E98881E090E08C0F9D1FE81A77
:10418000C60182739070892B09F07A94C6FE0DC027
:10419000872D992787FD9095E889E03121F42EEF4E
:1041A000722E780E02C0782E7A94C3FE0FC0262D90
:1041B000332727FD30958E2D9927821793072CF0F2
:1041C00087EF9FEFC822D92201C06E18C3FE02C03C
:1041D000761801C07E18C60180789170892B51F441
:1041E000872D7A94181634F4B10180E290E00E9491
:1041F0000022F6CFC1FE04C0B1018DE290E00BC0F9
:10420000C4FE04C0B1018BE290E005C0C5FE05C04C
:10421000B10180E290E00E940022C6FE10C0B10110
:1042200080E390E00E9400229889903141F4B1012E
:10423000EF858E2F992787FD90950E940022D0FE52
:104240000AC0872D7A94181634F4B10180E390E007
:104250000E940022F6CFC3FE0AC0862D6A9418166B
:1042600034F4B10180E390E00E940022F6CF90E8A0
:10427000B92EBC2051F4872D7A94181634F4B1016C
:1042800080E290E00E940022F6CFFF85F33641F4F1
:104290008E2DB101992787FD90950E94002240C084
:1042A0002F852337B1F488898150888B8F3FC1F1E6
:1042B000F70180810894E11CF11CB101992787FD69
:1042C00090950E94002298899150988B9F3F81F78A
:1042D00027C0EF85E33579F4F889F150F88BFF3F7B
:1042E000F9F0F7018491B10199270E940022089406
:1042F000E11CF11CF1CF6E010894C11CD11C89890D
:104300009A898C159D0561F0E989FA898291FA8B69
:10431000E98BB101992787FD90950E940022EFCF8C
:10432000BB2069F0872D7A9418164CF4B10180E215
:1043300090E00E940022F6CFB1010E940022CC241E
:10434000DD2413C09F85953241F481E0C82ED12C25
:104350006624762CEAE0E88B08C0B101FF858F2F38
:10436000992787FD90950E940022F101838183FFA8
:1043700004C0ED85FE85F49103C0ED85FE85F081D6
:10438000FF872F85222309F08BCDF101868197814C
:1043900062960FB6F894DEBF0FBECDBFDF91CF910E
:1043A0001F910F91FF90EF90DF90CF90BF90AF9053
:1043B0009F908F907F906F905F904F903F902F9045
:1043C0000895FC0105900020E9F7809590958E0FE7
:1043D0009F1F0895FC010590615070400110D8F7AF
:1043E000809590958E0F9F1F0895FC01615070403D
:1043F00001900110D8F7809590958E0F9F1F08951A
:104400000F931F93CF93DF938C01EB018B8199273F
:1044100081FF1CC082FF0DC02E813F818C819D8158
:104420002817390764F4E881F9810193F983E88357
:1044300006C0E885F985802F0995892B39F48E818E
:104440009F8101969F838E83C80102C08FEF9FEFEB
:10445000DF91CF911F910F910895A1E21A2EAA1B0F
:10446000BB1BFD010DC0AA1FBB1FEE1FFF1FA21724
:10447000B307E407F50720F0A21BB30BE40BF50B21
:10448000661F771F881F991F1A9469F760957095AA
:0E449000809590959B01AC01BD01CF01089570
:10449E0000000002000000001F0100000000457235
:1044AE00726F723A20253032580A0053746172745A
:1044BE00004C6973742066696C652025730A0020B0
:1044CE00206D617463682066696C652025303364E5
:1044DE00233A2025730A00B4D3CEC4BCFED6D0B680
:1044EE00C1B3F6B5C4C7B02564B8F6D7D6B7FBCA04
:1044FE00C73A0A005761697420556469736B00529C
:10450E0065616479203F004F70656E002F43353131
:10451E002F43483337354846542E43002F43353109
:10452E002F43483337352A00437265617465002F77
:10453E004E455746494C452E54585400577269748F
:10454E0065004E6F74653A200D0AD5E2B8F6B3CC0D
:10455E00D0F2CAC7D2D4D7D6BDDACEAAB5A5CEBBB5
:10456E00BDF8D0D055C5CCCEC4BCFEB6C1D0B42C8F
:10457E00B5A5C6ACBBFAD6BBD0E8D2AAD3D03630DE
:10458E0030D7D6BDDAB5C452414D0D0A00546F6F07
:10459E00206C6172676520736563746F7220736936
:1045AE007A65002F2A00436C6F73650054616B654A
:1045BE00206F757400CEC4BCFED2D1BEADBDE1CAB3
:0245CE00F800F3
:00000001FF
