:10000000022BC790BDF17422F00000000090BCF0FC
:10001000E0FFE53FC3941050071207DCEF600122B8
:10002000122A54EF600122C20B786BE6645C600414
:10003000E6B42F05752B6C8017786CE6643A600384
:1000400002010418E6C394435003020104752B6EA9
:10005000E544B40310900457E0FCA3E0FDA3E0FEE8
:10006000A3E0FF8005E4FFFEFDFC8F3B8E3A8D3957
:100070008C38A82BE6600302010774FFF543F542B4
:10008000F541F540E5446403605D753B0290045121
:10009000E0FCA3E0FDA3E0FEA3E0FFEFC0E09004DE
:1000A0005AE0FBD0E0FFC3EF9BFFEE9400FEED941F
:1000B00000FDEC9400FC900451121413900459E0DC
:1000C000FEA3E0A82E088005C333CE33CED8F9FFB7
:1000D000E48F438E42F541F540AF22FCFDFE9004D3
:1000E00057121413752280853B32853A3185393099
:1000F00085382FE4F54FF54EF54DF54CF533753F4A
:10010000127F4122752B6BA82BE6B4E5027605E53C
:100110003B700CE5387008E5397004E53A603E85BF
:100120002233E53B24FEFFE53A34FFFEE53934FF98
:10013000FDE53834FFFC900448E0F9F81213DB9039
:100140000451E0F8A3E0F9A3E0FAA3E02FF548EAB0
:100150003EF547E93DF546E83CF545802B90045ACD
:10016000E0F533AF33CBEFCB900451E0FCA3E0FDDF
:10017000A3E0FEA3E0C39BF548EE9400F547ED94A1
:1001800000F546EC9400F545E533700302043312A4
:100190001ED4EF600122E4F53DF53ED3900456E015
:1001A000953E900455E0953D5003020419E54A251B
:1001B0003EF52DE549353DF52C852D82F583E0FF93
:1001C0007003020460EF64E5700302040BBF0502D4
:1001D0007FE5A82BE6FE6F6008EE642A6003020448
:1001E0000BE4F537FFEFC3940B5078E52D2FF58224
:1001F000E4352CF583E0FEAD37E52B2DF8EE666097
:100200005DAD37E52B2DF8E66015AD37E52B2DF804
:10021000E6645C600AAD37E52B2DF8E6B42F1FEEDF
:100220006420703FEFC394085010E52D2408F58238
:10023000E4352CF583E0642070297F0B8025AE37F0
:10024000E52B2EF8E6B42E1BE5376408600EE52D8D
:100250002FF582E4352CF583E0B420077F070F05E6
:10026000378082EFC3940B500302034CE52D240B1F
:10027000F582E4352CF583E030E30302034CC20938
:10028000E52D241AFFE4352CFE122BB0E48F3B8EB3
:100290003AF539F538E544B40310E52D2414FFE4AC
:1002A000352CFE122BB08E388F39AF37E52B2FF857
:1002B000E66006200903020342853B32853A318518
:1002C000393085382FE4F54FF54EF54DF54CF533C3
:1002D000E52D240BF582E4352CF583E030E41F7422
:1002E000FFF543F542F541F5407D137F10122A5882
:1002F000EF6001223009047F4380027F4122E52D17
:10030000241CFFE4352CFE122B188F438E428D41A6
:100310008C40E53B7017E5387013E539700FE53A0E
:10032000700B7533FFF543F542F541F5407D147FC1
:1003300010122A58EF6001223009047F4380027FA7
:100340000022E53704252BF52B020107AF37E52BFB
:100350002FF8E6642A600302040BE52D240BF582D6
:10036000E4352CF583E030E30302040BE537042584
:100370002BF8E67053E4FFF535E52D2FF582E435D3
:100380002CF583E06420602FBF080AAE35E52B2EE4
:10039000F8762E0535E52D2FF582E4352CF583E032
:1003A000FEAD35E52B2DF8EEF6E5357008A82BE609
:1003B000B4050276E505350FBF0BBEAF35E52B2F33
:1003C000F8E4F6D209020280E53704252BF8E6F4BA
:1003D0007032E543700CE5407008E5417004E54279
:1003E0006093E54030E703122C0AE54324FFF54310
:1003F000E54234FFF542E54134FFF541E54034FF85
:10040000F5408007E53704252BF8167420253EF5C6
:100410003EE4353DF53D02019BE5482401F548E405
:100420003547F547E43546F546E43545F54515339A
:10043000020188E53B700CE5387008E5397004E589
:100440003A601D7F38E4FD120DD7EF6001222009CC
:100450000F85343885353985363A85373B020107B3
:10046000E4FFE52B2FF8E6FE6013642A600FEE64CC
:100470005C6004EEB42F037FB3220F80E57F42223D
:10048000E566245AF8E60566227857300702785A5E
:10049000E475F0011214900214382000EB7F2ED284
:1004A000008018EF540F2490D43440D4FF30040B54
:1004B000EF24BFB41A0050032461FFE56760021502
:1004C00067056AE56A7002056930070D7857E475BB
:1004D000F001121490EF02147E0229C17403D207B6
:1004E0008003E4C207F5668B578A588959E4F5679B
:1004F000F569F56AE56760077F201204BB80F57532
:1005000068FFC201C200C202C203C205C206C2081D
:10051000120489FF700D3007057F001204CCAF6A0A
:10052000AE6922B4255FC2D5C204120489FF24D06B
:10053000B40A00501A75F00A786730D50508B6FF7E
:100540000106C6A426F620D5047002D20380D92461
:10055000CFB41A00EF5004C2E5D2040206CCD20197
:1005600080C6D20080C0D20280BCD2D580BAD2056B
:1005700080B47F201204BB2002077401B5670040DD
:10058000F1120480FF1204BB0204F4D208D20680E8
:1005900095120480FB120480FA120480F94A4B7011
:1005A00006799D7A077BFF20022EE567602A7E0090
:1005B0008E8275830012145160060EEE656870F02D
:1005C000C2D5EBC0E0EAC0E0E9C0E0EE120713D00C
:1005D000E0F9D0E0FAD0E0FB121438FF60AAEBC0DB
:1005E000E0EAC0E0E9C0E01204BBD0E02401F9D0A9
:1005F000E03400FAD0E0FBE5680460DCD568D9801F
:10060000877BFF7A07790FD202809C79108002796C
:1006100008C206C2088008D2D5790A8004790AC2C5
:10062000D5E568047002F568E4FAFDFEFF12048067
:10063000FC7B08200113120480FD7B1030000A129D
:100640000480FE120480FF7B20EC3382D592D550CB
:1006500013C3E43000069FFFE49EFEE42001039DE7
:10066000FDE49CFCE4CBF8C201EC700CCFCECDCC09
:10067000E824F8F870F38017C3EF33FFEE33FEED94
:1006800033FDEC33FCEB33FB994002FB0FD8E9EB75
:10069000300105F8D0E0C448B201C0E00AEC4D4E8C
:1006A0004F78207B0070C2EAB5680040BCC0E01201
:1006B0000715D0F0D0E0200104C4C0E0C4B201C0EE
:1006C000F01204A4D0F0D5F0EB0204F41214A0054B
:1006D0009153060B5805624C055E42060F4F0617F4
:1006E00044061749057743061D5506014606014590
:1006F00006014707BD5005662D056A2E058D2B05A1
:100700006E23058B2007A62A052648000005853F95
:100710003F3F00790AA2D5200314300509B9100221
:100720000404B9080104A2D52006025001042002E5
:10073000689202B567005034C0E07F203003197F13
:1007400030A20272067205500F12076CC202C20676
:10075000C205C2087F30800F300503E9C0E01204F3
:10076000BB300503D0E0F9D0E0B567CC3005177F8A
:1007700030B9100C1204BB7F583004077F78800317
:10078000B908031204BB3002057F2D0204BB7F2091
:100790002008F87F2B2006F322920280CF286E7566
:1007A0006C6C2900D2011204803001F8C201786714
:1007B00030D50108F60205262D5043495812048011
:1007C0002403B405004001E49007B8931204AC740C
:1007D0003A1204ACD20375670402060BE53FC394DA
:1007E00003500A122848EF6001221221A5122BBAE9
:1007F000E4F52CE4F526F525F524F523121EE0EFAB
:10080000600A1221A5121EE0EF600122E52C700D96
:10081000854A82854983E054FD64E96053E4FDED37
:1008200064406049E54A24BEFFE5493401FEED7AA3
:10083000002FFFEA3EF583EF2404F582E43583F5CB
:1008400083E06023E54A24BEFFE5493401FEED2F35
:10085000FFEA3ECF2408CF3400FE122B188F268EDD
:10086000258D248C23800974102DFD80B27F922267
:10087000AF26AE25AD24AC23900440121413121EF3
:10088000E0EF600122854A82854983E054FD64E9F6
:1008900060037FA122E54A240DF582E43549F58302
:1008A000E0F522F5449004487406F0E54420E61291
:1008B000E54425E0F544900448E014F0E070EC7560
:1008C0002201E54A2416122BAB900446EEF0A3EF6A
:1008D000F04E702CE54A2424122B138F328E318D6A
:1008E000308C2FE4FBFA7901F8D31213B75007E5E7
:1008F0002C60037FA222900446E531F0A3E532F09C
:10090000E54A2414F582E43549F583E0FFE54A24FD
:1009100013F582E43549F583E04F6012E54A24136C
:10092000122BABE48F3B8E3AF539F538800FE54A50
:100930002420122B138F3B8E3A8D398C38E54A24B4
:1009400011122BABCCEECCCDEFCD900455E0FEA335
:10095000E07805CEC313CE13D8F9147E002DFFEE38
:100960003CFEE52E24FBFDEFC8EDC8088005CEC394
:1009700013CE13D8F9FFE4FCFD900457121413E5CD
:100980004A240E122BAB8E3D8F3E900447E0253E4D
:10099000FF900446E0353DFEE4FCFD900457E0F88E
:1009A000A3E0F9A3E0FAA3E02FF532EA3EF531ED3A
:1009B00039F530EC38F52FE54A2410F582E4354955
:1009C000F583E0D39401401E900446E0FEA3E0FFCF
:1009D000E5322FF532E5313EF531ED3530F530ECCD
:1009E000352FF52F8007E4900446F0A3F0C3E53BD4
:1009F0009532FFE53A9531FEE5399530FDE53895BC
:100A00002FFC900448E0F9F81213C890044D12141A
:100A100013E47BF57AFFF9F8D31213B7401FE49083
:100A20000444F0A3F090044FE0FEA3E094F5EE94AC
:100A30000F50057544018024754402801FE54A2447
:100A400030122BAB900444EEF0A3EFF0E54A242CD7
:100A5000122B13900457121413754403E53E453DC1
:100A6000604E900457E0FCA3E0FDA3E0FEA3E0FF8E
:100A7000EC4D4E4F603AE54A2410F582E43549F5D5
:100A800083E0D39401400A900446E07002A3E06042
:100A90001FE54A240BF582E43549F583E07011E542
:100AA0004A240CF582E43549F583E0C39402500AE8
:100AB000E52C7006752C010207F3E53E2526FFE5BF
:100AC0003D3525FEE43524FDE43523FC9004491230
:100AD0001413E5322526FFE5313525FEE5303524B2
:100AE000FDE52F3523FC9004511214137D107F0374
:100AF000122A5822D294C294122B9CD294122B8B7D
:100B00007BFF7A2079D21204E2122A318F50122A06
:100B1000767BFF7A2079D91204E2E53FC394025034
:100B20000B12292CEF6005122B9C80EEC294122B25
:100B30009C122B9CE4F550122B9C7BFF7A2079E5CC
:100B40001204E21227F7EF60090550E550C394053F
:100B500040E5D3900456E09400900455E0940240A0
:100B6000147BFF7A2079EE1204E212292CEF70A197
:100B7000122B9C80F5C2957BFF7A2179051204E245
:100B80007F6B7C217D0B122B781200038F50E55078
:100B900064B36009E55064426003020C20E550B480
:100BA000B30875552175561B800675552175561E5F
:100BB000755AFF85555B85565C7BFF7A21792A1231
:100BC00004E2E4F5517F6BAD56AC55122B788F5093
:100BD000746B2FF8A6511200038F50E550644260E9
:100BE0002FE550B4431A755A0085515B755C00754A
:100BF0005D00755E6B7BFF7A2179381204E2800715
:100C0000AF50122A7680090551E551C394FF40B5D3
:100C1000900455E0F553A3E0F554755201020D38E8
:100C2000AF50122A767BFF7A2179501204E29004A9
:100C300055E0FEA3E0FF7C007D641212D7E4FDAB1B
:100C400043AA42A941A840D31213B7401875526471
:100C5000900455E0FEA3E0FF7C007D641212D78E65
:100C6000538F548048900455E0FEA3E0FFEF2543E6
:100C7000FFEE3542FEE43541FDE43540FCEF24FF54
:100C8000FFEE34FFFEED34FFFDEC34FFFCC006C088
:100C900007900455E0FEA3E0FBAA06E4F9F8D007AC
:100CA000D0061213258F528542538543547BFF7A19
:100CB00021795685435D85425C85415B85405A8537
:100CC000535E85545F7560008552611204E2786B53
:100CD000A652900456E024FFFF900455E034FFFE36
:100CE000E4FCFDE5432FF543E5423EF542ED354199
:100CF000F541EC3540F540122BD38F50900456E06F
:100D000024FFFF900455E034FFFEFAC3E5439FF54E
:100D100043E5429AF542E5419400F541E5409400EF
:100D2000F540AF50122A767BFF7A2179701204E2E7
:100D30001225068F50122A76C2967BFF7A21797788
:100D40001204E27F6B7C217D7F122B7812108C8F36
:100D500050122A767BFF7A21798C1204E2786BA6F6
:100D600052122BDE8F50122A767BFF7A2179931252
:100D700004E278737601787176180876E2786F76F7
:100D8000300876B2AE53AF54E4FCFD786B12140712
:100D9000121FCD8F50122A767BFF7A2179701204B0
:100DA000E2E4786BF61225068F50122A76D296D29C
:100DB000957BFF7A21799B1204E2E53FC3940240C0
:100DC0000B12292CEF7005122B9C80EED294122B63
:100DD0009C122B9C020B118D57EFC8E544B40207FF
:100DE0001213EE78018008B403121213EE78021287
:100DF00013DB8F5B8E5A8D598C5880231213EE8E25
:100E0000588F59EF139209E558C313FEE55913257E
:100E100059FFE5583EFEE48F5B8E5AF559F5589020
:100E20000456E024FFFD900455E034FF5EFEED5FC4
:100E3000254AF52DEE3549F52CAF5BAE5AAD59ACD0
:100E400058122A94900449E0F8A3E0F9A3E0FAA329
:100E5000E02FF55BEA3EF55AE93DF559E83CF558D7
:100E6000E55B652A7012E55A6529700CE55965281D
:100E70007006E5586527601D300A07122676EF6078
:100E80000122855823855924855A25855B26121E03
:100E9000E0EF600122E5576025B4FF0474FF80068F
:100EA000E557B4010BE4F55BF55AF559F558800C9C
:100EB000852F5B85305A853159853258D20AE544F1
:100EC0006402703F852D82852C83E0F534A3E0F524
:100ED00035853437853536E4F534F535AE36AF37FC
:100EE000C3EF94F7EE94FF4003D38001C39209E56A
:100EF00057600D852D82852C83E558F0A3E559F0C8
:100F00007F0022E5446403705A852D82852C83E09E
:100F1000FCA3E0FDA3E0FEA3E0F5378E368D358C13
:100F200034E53754F0FFE55B540F4FF55BE537547C
:100F30000F853437F534AF368535368F35AF34EF1E
:100F4000C3940F4003D38001C39209E5576011AFEA
:100F50005BAE5AAD59AC58852D82852C8312141383
:100F60007F002253590F900456E0254AFF90045504
:100F7000E03549CF24FFCF34FFFEEF652D7003EE3F
:100F8000652C6053852D82852C83E0F534852D8278
:100F9000852C83A3E0F535E5577003021052300924
:100FA00023E558C454F0FFE534540F4F852D828556
:100FB0002C83F0E559C454F0FFE558C4540F4FA3F7
:100FC000F0021052852D82852C83E558F0E53554CA
:100FD000F04559A3F0807B852D82852C83E0F53484
:100FE000E557602230090EE558C454F0FFE534544B
:100FF0000F4FFF8002AF58852D82852C83EFF012B2
:101000002676EF600122E52A2401F526E43529F54C
:1010100025E43528F524E43527F523121EE0EF609A
:101020000122854A82854983E0F535E55760233002
:10103000090FE559C454F0FFE558C4540F4FFF8021
:1010400007E53554F04559FF854A82854983EFF01D
:10105000D20A300913E535C454F0FFE534C4540F07
:101060004FF537E535C48005853437E535540FF540
:1010700036E4F534F535AE36AF37C3EF94F7EE947A
:101080000F4003D38001C392097F00221200038F17
:1010900033E533700A122241EF70030211F322E5A7
:1010A0003364426003AF3322900456E024E0FF90A3
:1010B0000455E034FFFEC3E53E9FE53D9E5003022C
:1010C00011F3E53B700FE538700BE5397007E53A31
:1010D0007003021189900454E0FFC3E5489FFFE5C7
:1010E0002214FE5FF533E53E6008EE6533600302CF
:1010F00011F37F38E4FD120DD7EF600122200903C0
:101100000211F3122ACDEF6001227F387D02120D09
:10111000D7EF600122122676EF600122122BBAE48B
:10112000FFFE900455E06EFCA3E06F4C6013E54AAF
:101130002FF582E5493EF583E4F00FBF00010E80F4
:10114000E1E4F533122897E53E7010F53DF53E8554
:101150002648852547852446852345852234E53460
:101160006020121DDDEF600122E5262401F526E452
:101170003525F525E43524F524E43523F523153408
:1011800080DC122485EF606B22E53E7066E5482422
:10119000FFF548E54734FFF547E54634FFF546E5FA
:1011A0004534FFF545F523121ED7EF600122E4F523
:1011B0003DF53ED3900456E0953E900455E0953DB4
:1011C000402EE54A253EFFE549353D8F82F583E017
:1011D000B4E510E582240BF582E43583F583E05411
:1011E0000E60107420253EF53EE4353DF53D80C38C
:1011F0007FB222122ACDEF600122122676EF600123
:101200002285323B85313A853039852F3812248545
:10121000EF600122121ED4EF600122E54A253EFF55
:10122000E549353DFEE4FDEDC3940B50047C208080
:10123000027C00EF2DF582E43EF583ECF00DBD203D
:10124000E6EF2418F582E43EF5837421F0A37430B0
:10125000F0EF241CF582E43EF5837401F0E4FDED2B
:10126000C3940B5021A82BE6FC601BECB42E047D2C
:1012700008052BA82BE6FCEF2DF582E43EF583EC68
:10128000F00D052B80D9853B34853A358539368577
:101290003837EF241AF582E43EF583E534F0A3E510
:1012A00035F0EF2414F582E43E121DD4EF600122E4
:1012B000853B32853A3185393085382FE4F543F561
:1012C00042F541F540F54FF54EF54DF54CF5337DC2
:1012D000147F10122A5822EF8DF0A4A8F0CF8CF0C2
:1012E000A428CE8DF0A42EFE2275F008758200EFA2
:1012F0002FFFEE33FECD33CDCC33CCC58233C58248
:101300009BED9AEC99E58298400CF582EE9BFEED00
:101310009AFDEC99FC0FD5F0D6E4CEFBE4CDFAE4CF
:10132000CCF9A88222B800C1B90059BA002DEC8BC3
:10133000F084CFCECDFCE5F0CBF97818EF2FFFEE9F
:1013400033FEED33FDEC33FCEB33FB10D703994058
:1013500004EB99FB0FD8E5E4F9FA227818EF2FFF98
:10136000EE33FEED33FDEC33FCC933C910D7059BDA
:10137000E99A4007EC9BFCE99AF90FD8E0E4C9FA36
:10138000E4CCFB2275F010EF2FFFEE33FEED33FDC2
:10139000CC33CCC833C810D7079BEC9AE899400AE5
:1013A000ED9BFDEC9AFCE899F80FD5F0DAE4CDFB63
:1013B000E4CCFAE4C8F922EB9FF5F0EA9E42F0E9AA
:1013C0009D42F0E89C45F022E8600FECC313FCED71
:1013D00013FDEE13FEEF13FFD8F122E8600FEFC309
:1013E00033FFEE33FEED33FDEC33FCD8F122E6FCA7
:1013F00008E6FD08E6FE08E6FF22E6FB08E6F90837
:10140000E6FA08E6CBF822ECF608EDF608EEF60868
:10141000EFF622ECF0A3EDF0A3EEF0A3EFF022D074
:1014200083D082E493F608740193F608740293F66D
:1014300008740393F6740473BB010689828A83E0FF
:10144000225002E722BBFE02E32289828A83E493D0
:1014500022BB010CE58229F582E5833AF583E0227F
:101460005006E92582F8E622BBFE06E92582F8E26D
:1014700022E58229F582E5833AF583E49322BB01D4
:101480000689828A83F0225002F722BBFE01F322F2
:10149000FAE6FB0808E6F925F0F618E6CA3AF6225D
:1014A000D083D082F8E4937012740193700DA3A3DB
:1014B00093F8740193F5828883E4737402936860EF
:1014C000EFA3A3A380DFE53FD394145007E53FC308
:1014D000941250037FB422786BE6FF08F670063052
:1014E0000B030216AAE4786BF6786DF608F6786CB2
:1014F000E6700302162EE533F4704AE53B700CE506
:10150000387008E5397004E53A602DE53FB41209FA
:10151000E544640360037FB122AF32AE31AD30AC3D
:101520002F7875121407122AD9EF6001227F757D7A
:1015300002120DD7EF600822122586EF6001227893
:101540006E16E4F533122897786DE66069E52EB4DF
:1015500009047F408014E52EB40A047F20800BE547
:101560002EB40B047F1080027F08EF3395E0FE78E5
:101570006DE6C39FEE6480F8748098502E786DE617
:10158000FFE4FCFDFE786F1213FAEF2BFFEE3AFE3C
:10159000ED39FDEC38FCEF6526FFEE6525FEED65C7
:1015A00024FDEC6523FC4D4E4F600B1219C5EF6016
:1015B0000122E4786DF6786DE6700DAF26AE25ADAC
:1015C00024AC23786F121407C3E5229533FF786C9F
:1015D000E6FEEFD39E400CE60826F618E62533F526
:1015E00033804B786DEF26F6C318E69FF6E6701849
:1015F0007874E6654A700418E66549700B1219C5DF
:10160000EF600122E4786DF67F2FE4FD120DD7EF35
:101610006001223009067533FF0214EE85342F85F0
:101620003530853631853732E4F5330214EE300A31
:1016300007122676EF600122786DE660071219C561
:10164000EF600122786EE66035AF32AE31AD30AC7E
:101650002F7875121407786EE6FFE4EFF53274FF09
:10166000F531F530F52F12248FCBEFCB78751213AF
:10167000EE8F328E318D308C2FEB6002FF22AF4F18
:10168000AE4EAD4DAC4CAB43AA42A941A840C312EB
:1016900013B7500E854F43854E42854D41854C40D2
:1016A000D20BE53C30E406300B030228E27F002237
:1016B000E4F532F531F530F52F90044DE0FCA3E070
:1016C000FDA3E0FEA3E0FFAB32AA31A930A82FD3DF
:1016D0001213B740037FB122E5322401F532E4351D
:1016E00031F531E43530F530E4352FF52F7F2FE437
:1016F000FD120DD7EF600122E537700FE534700B56
:10170000E5357007E536700302183CE54464016076
:10171000A885492C854A2DE54464027051900455F2
:10172000E0C313FEA3E01324FFFFEE34FFF5348F74
:1017300035F5368F377402252DF52DF582E4352CDD
:10174000F52CF583E07011A3E0700D852D82852CBA
:101750008374FFF0A30217C4E5356009D535D6E5DB
:1017600034600880D01534153580CA0218239004DF
:1017700055E0FEA3E07802CEC313CE13D8F924FFC0
:10178000FFEE34FFF5348F35F5368F377404252D91
:10179000F52DE4352CF52C852D82F583E0600302D0
:1017A0001808A3E06003021808A3E0705BA3E054EC
:1017B0000F7055852D82852C8374FFF0A3F0A3F064
:1017C000A3E0440FF0AE36AF37EF4532FFEE4531C0
:1017D000FEE530FDE52FFCEEC0E0EFC0E0E535248E
:1017E000FFFFE53434FFCBEFCBFAD0E0FFD0E0FED3
:1017F000C3EF9BF532EE9AF531ED9400F530EC94A1
:1018000000F52FD20A7F0022E53560101535E53549
:10181000600302178CE534600A02178C1534153505
:1018200002178CAE36AF37E5324FF532E5314EF563
:1018300031E530F530E52FF52F0216B97F2F7DFF0A
:10184000120DD722300C0A7F34122AE6EF4235807F
:10185000077D037F34122B5090BDF1742BF00000F4
:1018600000E4F54B90BCF0741FF000007455F000DC
:10187000007453F000007442F0000004F0000074A3
:1018800003F000007407F000007405F00000740A13
:10189000F00000E4F0E52E24F8F8E537C333D8FC77
:1018A00090BCF0F00000E4F00000F000E53554805A
:1018B000F000E535540FF00000740AF0E53530E72C
:1018C000047F2880027F2A90BCF0EFF00000E4F053
:1018D000E53530E611786FE6F00008E6F00008E63E
:1018E000F00008E6801490BCF0E523F00000E52449
:1018F000F00000E525F00000E526F00000E490BCD3
:10190000F0F00000F00000E537F00000E4F0000027
:10191000F00000F00000F00000F00000F00000F027
:1019200000007F31122AE6EFF535CD7F1E122B50D5
:101930007F33122AE67D4F1229E8E54B7007E53523
:101940006440FD80027D007F31122B50E54B603BEF
:10195000854B35E54B641660057F52122AB1E54B85
:10196000B416037F82227F32122AE6EFC4540F445A
:1019700080FF7D411229E87F33122AE6EFC4540F1D
:10198000FF7D411229E8AF358F4B22300C047F36A2
:1019900080027F35E52E24F7F8E537088002C3334F
:1019A000D8FCFD122B50300C047F3780027F367D2F
:1019B00008122B507F20122AE6EF4408FD7F2012E8
:1019C0002B507F0022E4F536E53C20E654E52E64FA
:1019D00009604E753540786DE6F537121844EF60B2
:1019E00003021B09853C37E53C13135403FFE53C18
:1019F00054FC4FF53CE52EB409047F088014E52E15
:101A0000B40A047F10800BE52EB40B047F20800203
:101A10007F40786DE6FEEF8EF0A485F034F53580DA
:101A20006D90BDF17456F000000000E4F54B787243
:101A3000E690BCF0F0000018E6F0000018E6F000B8
:101A40000018E6F00000786DE6F0853C37E53C13C1
:101A5000135403FFE53C54FC4FF53CE52EB4090458
:101A60007F088014E52EB40A047F10800BE52EB4A5
:101A70000B047F2080027F40786DE6FEEF8EF0A49D
:101A800085F034F535122996E54B641E707BE537F9
:101A9000540C60137873E6FE08E6FF122375787322
:101AA000EEF608EFF6801790BDF1742BF000000001
:101AB00000E4F54B90BCF07440F0FF122B2890BD71
:101AC000F17457F0E54F2440F54FE4354EF54EE400
:101AD000354DF54DE4354CF54CE5356009D535A56A
:101AE000E5346008809F15341535809985373C12A0
:101AF0002996E54BB41412E53C20E503122BFF7840
:101B00006DE6786B26F67F002285373CE536C39478
:101B1000055022E54B6416601C1226E4E53C540C8B
:101B20007004FF122B28E536C39401400312279F4F
:101B300005360219C8122B3C12279F22E53FD39489
:101B4000145007E53FC3941250037FB422786BE62C
:101B500008F6E418F6786DF6C3E543954FFFE542C5
:101B6000954EFEE541954DFDE540954CFC122A94BD
:101B70008F378E368D358C34E5357004E53660064A
:101B8000786E76FF8004786EA637786CE670030274
:101B90001C91786EE67003021C91E533F470030229
:101BA0001C91122897786DE66069E52EB409047FD0
:101BB000408014E52EB40A047F20800BE52EB40B80
:101BC000047F1080027F08EF3395E0FE786DE6C356
:101BD0009FEE6480F8748098502E786DE6FFE4FCE8
:101BE000FDFE786F1213FAEF2BFFEE3AFEED39FD92
:101BF000EC38FCEF6526FFEE6525FEED6524FDEC77
:101C00006523FC4D4E4F600B121C9CEF600122E4DB
:101C1000786DF6786DE6700DAF26AE25AD24AC2359
:101C2000786F121407C3E5229533FFF534786EE61A
:101C3000FEEFD39E4003E6F534E534D3786C96404E
:101C40000CE60826F618E62533F5338049C3786C90
:101C5000E69534F608E53426F6C308E69534F6E54D
:101C6000342533F53365226003021B8A7F2FFD1272
:101C70000DD7EF6001223009067533FF021B8A85FC
:101C8000342F853530853631853732E4F533021B04
:101C90008A786DE66003021C9C7F0022E4F536E53D
:101CA0003C20E61FE52E640960197535C0786DE6A5
:101CB000F537121844EF6003021DA190BDF1745571
:101CC000F0802990BDF17454F000000000E4F54B61
:101CD0007872E690BCF0F0000018E6F0000018E61C
:101CE000F0000018E6F00000786DE6F0853C37E57E
:101CF0003C13135403FFE53C54FC4FF53CE52EB474
:101D000009047F088014E52EB40A047F10800BE5D7
:101D10002EB40B047F2080027F40786DE6FEEF8EAC
:101D2000F0A485F034F535122996E54B641D7071E9
:101D3000E537540C60137873E6FE08E6FF1223FEC5
:101D40007873EEF608EFF6801590BDF17428F00078
:101D5000000000E4F54B90BCF0E0FF12296390BD59
:101D6000F17455F0E54F2440F54FE4354EF54EE45F
:101D7000354DF54DE4354CF54CE5356009D535A7C5
:101D8000E534600880A115341535809B85373C12F9
:101D90002996E54BB4140A786DE6786B26F67F0039
:101DA0002285373CE536C394055022E54B64166026
:101DB0001C1226E4E53C540C7004FF122963E5363E
:101DC000C39401400312279F0536021C9F122B3C2F
:101DD00012279F22F583E536F0A3E537F0E4F536C8
:101DE000E53C20E63CE52E64096036E4F5357537C0
:101DF00001121844EF6003021EAE854927854A2868
:101E0000E52EB409047F088014E52EB40A047F107F
:101E1000800BE52EB40B047F2080027F408F35803D
:101E20005990BDF17456F000000000E4F54B90BCF1
:101E3000F0E526F00000E525F00000E524F00000C4
:101E4000E523F000007401F0854927854A28E52E36
:101E5000B409047F088014E52EB40A047F10800BB7
:101E6000E52EB40B047F2080027F408F35E535607E
:101E70001E122996E54B641E7034AF28AE2712233C
:101E8000758E278F2890BDF17457F0153580DE854B
:101E9000232785242885252985262A122996E54B7E
:101EA000B4140BE53C20E503122BFF7F0022E5363E
:101EB000C394055015E54B6416600FE536C39401D5
:101EC000400312279F0536021DE0122BBA122B3C4D
:101ED00012279F2285452385462485472585482648
:101EE000E526652A7015E5256529700FE524652826
:101EF0007009E52365277003021FCAE4F536E53C47
:101F000020E61DE52E6409601775358075370112CE
:101F10001844EF6003021FA590BDF17455F08027AF
:101F200090BDF17454F000000000E4F54B90BCF05B
:101F3000E526F00000E525F00000E524F00000E5CE
:101F400023F000007401F0854927854A28E52EB466
:101F500009047F088014E52EB40A047F10800BE585
:101F60002EB40B047F2080027F408F35E535601E44
:101F7000122996E54B641D702CAF28AE271223FE64
:101F80008E278F2890BDF17455F0153580DE85239E
:101F90002785242885252985262A122996E54BB4EC
:101FA00014037F0022E536C394055015E54B6416F3
:101FB000600FE536C39401400312279F0536021EC9
:101FC000FE122BBA122B3C02279F7F0022E53FC353
:101FD000941350037FB422121ED4EF600122C20A70
:101FE000E54A253EFFE549353DCBEFCBFA7873E670
:101FF000FFEB240BF582E43AF583E0F6EFF460138F
:102000008B828A83E582240BF582E43583F583EFA6
:10201000F0D20A7871E6F53708E6F536EB2416FFBC
:10202000E43AFE122BB018EEF608EFF6E536F4FEB1
:10203000E537F44E6012EB2416F582E43AF583E5B9
:1020400036F0A3E537F0D20A786FE6F53708E6F503
:1020500036EB2418FFE43AFE122BB018EEF608EF28
:10206000F6E536F4FEE537F44E6012EB2418F582FF
:10207000E43AF583E536F0A3E537F0D20A786B123F
:1020800013EE7877121407EB241CFFE43AFE122BB0
:1020900018786B1214077877E6F4601E1213EE8F2F
:1020A000438E428D418C40122BF3EB241CF582E4CD
:1020B0003AF583121413D20AC20B300A05C20A027F
:1020C0001DDD7F00224572726F723A202530325832
:1020D0000A0053746172740A005761697420556470
:1020E00069736B0A005265616479203F0A00546F7E
:1020F0006F206C6172676520736563746F72207303
:10210000697A650A004F70656E0A005C4335315C80
:1021100043483337354846542E43005C2A005C431D
:1021200035315C43483337352A004C697374206677
:10213000696C652025730A0020206D617463682036
:1021400066696C652025303364233A2025730A00C4
:10215000526561640A0053697A653D256C642C20E0
:102160004C656E3D25642C205365633D25640A0053
:10217000436C6F73650A004372656174650A005CA5
:10218000C0EFC3E6C8AB302E545854005772697480
:10219000650A004D6F646966790A0054616B6520B9
:1021A0006F75740A007535327F53122AB1E54B7092
:1021B00060122BE9E54A2406F582E43549F583E00F
:1021C000FFB40405752E0A8015EFB40805752E0BB3
:1021D000800CEFB41005752E0C8003752E09740168
:1021E0007E00A82E088005C333CE33CED8F99004E4
:1021F00056F0EE900455F0E52E24F7FF7408C8EF72
:10220000C8088002C333D8FCFD7F39122B507F00F1
:1022100022E54B64166027E54B641560217F32127E
:102220002AFD300C0B854B367F5A122AB185364B6E
:102230007F0A122AFD1535E53560030221A8AF4B50
:1022400022E53FC394135007120003EF60012212EE
:102250002A54EF600122121ED4EF600122E54A25C4
:102260003EFFE549353D8F82F58374E5F0121DDDB3
:10227000EF600122AF3BAE3AAD39AC388F378E36C6
:102280008D358C34EC4D4E4F604EE53B24FFF53BD5
:10229000E53A34FFF53AE53934FFF539E53834FFEE
:1022A000F538E4F532F531F530F52F7F347D011244
:1022B0000DD7EF600122E5322401F532E43531F526
:1022C00031E43530F530E4352FF52F3009DD1226B5
:1022D00076EF60012202248F7F0022E53B700CE53F
:1022E000387008E5397004E53A607B853B32853A01
:1022F0003185393085382FAF22E4FCFDFE786B1232
:1023000013FAC31213B740417F2FE4FD120DD7EF2C
:1023100060012220095085342F853530853631857E
:102320003732786B1213EEEFC0E0AF22CBEFCBD099
:10233000E0FFC3EF9BFFEE9400FEED9400FDEC94F4
:1023400000FC786B12140780AE786EE6FFE522146D
:102350005FF533122897AF26AE25AD24AC23786BFA
:102360001214077F00227533FF786B12141FFFFFD2
:10237000FFFF7F002290BDF1742BF0E4F54BE53CAC
:1023800054036403FD744090BCF0F0CD60411460D0
:10239000118F828E83E090BCF0F00FBF00010EDD44
:1023A000F02205A28F828E837D10E0A305A2F005A6
:1023B000A2E0A305A2F005A2E0A305A2F005A2E019
:1023C000A305A2F005A2DDE2AF82AE8305A222EF53
:1023D000C582F9EEC583C5A0F5F07D08E0A3F3E062
:1023E000A3F3E0A3F3E0A3F3E0A3F3E0A3F3E0A3FC
:1023F000F3E0A3F3DDE685F0A0AF82AE832290BDCB
:10240000F17428F0E4F54BE53C54036403FD90BC03
:10241000F0E0CD604114601190BCF0E08F828E83BB
:10242000F00FBF00010EDDF02205A28F828E837DAA
:102430001005A2E005A2F0A305A2E005A2F0A30505
:10244000A2E005A2F0A305A2E005A2F0A3DDE2AFA1
:1024500082AE8305A222EFC582F9EEC583C5A0F541
:10246000F07D08E3F0A3E3F0A3E3F0A3E3F0A3E33C
:10247000F0A3E3F0A3E3F0A3E3F0A3DDE685F0A08F
:10248000AF82AE832274FFF532F531F530F52F902F
:102490000444E0FCA3E0FD4C7002FF22CFEDCFCE60
:1024A000ECCEE4FCFD900440E0F8A3E0F9A3E0FAF0
:1024B000A3E02FF526EA3EF525ED39F524EC38F5B5
:1024C00023121EE0EF600122E54A24E8FFE54934CB
:1024D00001FE122B18E5322FF532E5313EF531E5DC
:1024E000303DF530E52F3CF52FAF32AE31AD30FC4D
:1024F000122BF3E54A24E8F582E5493401F583120D
:102500001413121DDD22E53FC3941250037FB42241
:10251000E53F6412704FE5446403604990045AE05B
:10252000F522AE42E543A82E088005CEC313CE1394
:10253000D8F9FFE4FCFD900457121413900451E005
:10254000F8A3E0F9A3E0FAA3E0FB90045AE0FFE46B
:10255000FCFDFEEB2FFFEE3AFEED39FDEC38FC9072
:102560000451121413E53FD39413400AE53FB41409
:1025700007786BE67002C20B300B071228E2EF609F
:102580000122122A54221216B9EF600564B16001CB
:1025900022EF60071216B0EF600122122676EF607C
:1025A000012285323B85313A853039852F38121E1C
:1025B000D4EF600122E54A253EFFE549353DFEF5B1
:1025C00083EF241CF582E43583F5837401F0853BA9
:1025D00034853A358539368538378F828E83E58262
:1025E000241AF582E43583F583E534F0A3E535F06C
:1025F0008F828E83E5822414F582E43583121DD404
:10260000227533057D067F65122B64E4F53F90BC8F
:10261000F0E0B49A0F7D067F9A122B6490BCF0E034
:1026200064656009122A0DD533DA7F812290045542
:102630007402F0A3E4F090BDF104F000000000C2C9
:102640000C533CBF90BCF0E0F533C394A2400BE5C3
:102650003394B64003433C40D20C753F017D157F57
:1026600006122B647F01122AFD90BCF0E0B45F03D8
:102670007F81227F0022852723852824852925859F
:102680002A26121DDDEF600122900446E0FEA3E041
:10269000FF4E604BE4FCFDE5262FF526E5253EF5D3
:1026A00025ED3524F524EC3523F523121DDDEF60EF
:1026B0000122900446E0FEA3E0FBCAEECAC3E52671
:1026C0009BF526E5259AF525E5249400F524E523D8
:1026D0009400F523F52785242885252985262AC2F7
:1026E0000A7F0022786DE67E00A82E088005C3339D
:1026F000CE33CED8F9FDCCEECCE535AE347806C37A
:1027000033CE33CED8F9FFC3ED9FF535EC9EF534CB
:10271000AE34AF35CBEFCBCAEECAC3E54F9FF54F12
:10272000E54E9AF54EE54D9400F54DE54C9400F5D7
:102730004CC3E49535FFE49534FE7874EF26F61823
:10274000EE36F622E53FC3941250037FB422AF4326
:10275000AE42AD41AC40122A948F378E368D358C07
:1027600034786B1213FAD31213B7400DAF37AE366D
:10277000AD35AC34786B121407786B1213EEE52E7E
:1027800024F8F9F81213DB8F378E368D358C3485AB
:10279000354C85364D85374EE4F54F1222DB2275D8
:1027A0003532122BFAD535FA90BDF17422F00000C3
:1027B000000090BCF0E0E54B6416600FE53F64015B
:1027C00060097F20122AE6EF20E506753F017F822F
:1027D00022300C19E53FC394034012854B35E4F5D4
:1027E0004B90BDF1745AF012299685354BE54B702C
:1027F000037F1022AF4B2212292CEF60037F82222D
:10280000E53FC39403501B122848EF600C7F32123F
:102810002AFD122848EF6001221221A5EF60030271
:10282000279F300C207F59122AB1AF4B8F35EF70A4
:1028300002FF227F0A122AFD7F5A122AB17F02125A
:102840002AFDAF35227F002212292CEF60037F8200
:10285000227F51122AB1E54B70327D037F02122A8A
:1028600058300C257F38122AE6EF601D122BE985BF
:102870004A82854983E0B405107D017F34122B50D4
:102880007F58122AB1E54B70037F00227D027F0240
:10289000122A5812279F22E53224FEFFE53134FF29
:1028A000FEE53034FFFDE52F34FFFC900448E0F9ED
:1028B000F81213DB900451E0F8A3E0F9A3E0FAA3C7
:1028C000E02FFBEA3EFAE93DF9E83CF8E4FCFDFEC6
:1028D000EB2533F526EE3AF525ED39F524EC38F500
:1028E0002322C20BE53FC39414403E121ED4EF6076
:1028F0000122E54A253EFFE549353DCBEFCBFAF510
:1029000083EB240BF582E43583F583E020E41AAFF2
:1029100043AE42AD41AC40122BF3EB241CF582E4F4
:102920003AF583121413021DDD7F002290BDF1746D
:1029300022F00000000090BCF0E0E4F54B7F201294
:102940002AE6EF30E517E53FC39402400A7F1B12E9
:102950002AE6EF547F7003753F027F0022753F0126
:102960007F8222EF6440702D7C027D0090BCF0E0FD
:102970008D828C83F00DBD00010CDFF0E4FF3099F7
:10298000FDC29974002FF582E43402F583E0F599D5
:102990000FBF04EA222220B2FD90BDF17422F05351
:1029A0004B80E54B6003E4F54B90BCF0E0F54BE564
:1029B0004BB41604753F0122E54BB41503753F0275
:1029C00022EFB40A07740D1229CC740A309811A8AA
:1029D00099B8130CC2983098FDA899C298B811F60E
:1029E0003099FDC299F5992290BDF1EDF0000000FB
:1029F00000E4F54B90BCF0EFF0122996E54B700423
:102A0000754B1022E54BB41403E4F54B2275368068
:102A100090BDF17401F00000000090BCF0E0FFD523
:102A200036EE90BDF17405F0000000007F32022AFE
:102A3000FDE581D394F040037FFC22753C02122C0B
:102A400007EFC3943550037FFF22754900754A0094
:102A5000122601227D107F10E53FC39F40028D3F6B
:102A6000E53F6D7002FF22753F0112292CEF6003D4
:102A70007F82227F8322EF601A7BFF7A2079C575DF
:102A80005A008F5B1204E2C294122B9CD294122B38
:102A90009C80F422C3E4CC13CD13CE13FFE52E2487
:102AA000F7600DF8C3ED13FDEE13FEEF13FFD8F43E
:102AB00022E4F54B90BDF1EFF0122996E54B70043E
:102AC000754B1022E54BB41403E4F54B22853B32E1
:102AD000853A3185393085382F1216B9EF64B160E7
:102AE00001221216B02290BDF1740AF0000000001D
:102AF00090BCF0EFF000006003E0FF2222EF75F0E1
:102B000005A4F536E536600A122BFA122BFA1536B3
:102B100080F222FFE43549FE8F828E83E0FFA3E03E
:102B2000FEA3E0FDA3E0FC22AE07EE600EEE600B1C
:102B3000122C0490BCF0EFF01E80F222E53FB4129C
:102B400004753F0322E53FD394104003753F1022E4
:102B500090BDF1740BF00000000090BCF0EFF000AD
:102B600000EDF02290BDF1EDF000000000E4F54B27
:102B700090BCF0EFF00000228D828C83A807E4FF68
:102B8000E493F6600508A30F80F6227598507587C8
:102B900080758920758DF3D28ED299227FC87EC828
:102BA00074032557F557DEF8DFF422FFE43549FEBC
:102BB0008F828E83E0FFA3E0FE2274FFF52AF529C1
:102BC000F528F527C20A22787FE4F6D8FD758188BA
:102BD000020AF478737602087640121B3C2278735E
:102BE00076020876401214C622122BBAAF4AAE49BA
:102BF0000223FEEFCCFFEECDFE227F96DFFE227F8A
:0B2C0000FADFFE227F30227F35222207
:00000001FF
