:03000000020201F8
:100100005C4335315C43483337354846542E430011
:100110004E6F74653A200D0AD5E2B8F6B3CCD0F232
:10012000CAC7D2D4D7D6BDDACEAAB5A5CEBBBDF844
:10013000D0D055C5CCCEC4BCFEB6C1D0B42C00B511
:10014000A5C6ACBBFAD6BBD0E8D2AAD3D0BCB8CA3D
:10015000AED7D6BDDAB5C452414DBECDBFC9D2D49B
:10016000C1CB0D0A005CCBABBBF7CED2B0C92E54CD
:100170005854007F00EF0F93F60870F9227FC87E75
:10018000C8000000DEFBDFF722C299F5993099FD27
:10019000223098FDE599C29822745712018974ABF8
:1001A000120189C298EF120189ED120189ED6009EF
:1001B0007820E612018908DDF9120191FF640070D0
:1001C00012120191FD6025FE7820120191F608DEE1
:1001D000F98019BF1D028014BF1E02800FBFEE02FE
:1001E000800ABF150512017D7F15800022EF700186
:1001F00022E4A29492E06401A2E0929412017D8034
:10020000F0E4F5D0F5A875816074FFF580F590F500
:10021000A0F5B0C29412017D12017DD29475985060
:10022000758780758920758DE6D28E007D007F6090
:100230001201991201EDE521C39402500812017DCB
:1002400012017D80E712017D12017DC2947B0512AF
:10025000017D7D007F71120199EF6002DBF1900159
:10026000007820120173EFFD7F64120199BFB30281
:100270008003BF42030202AA1201ED7A108A207D98
:10028000017F7B1201991201EDE520600FFF7821BB
:10029000E608DFFCE520C39A400280DF7400F52009
:1002A0007D017F671201991201ED9001657820129E
:1002B0000173EFFD7F651201991201ED9001107835
:1002C00021120173EFF52004FD7F7C1201991201C8
:1002D000ED90013F7821120173EFF52004FD7F7C42
:1002E0001201991201ED7401F5207D017F67120161
:1002F000991201ED7D007F601201991201EDE52157
:100300006401600812017D12017D80E8D29402022E
:010310002CC0
:00000001FF
