:040000000C94AB01B0
:14008C00A92300202020202020202020303030303020202024
:1400A0002020202020202020202020202020209040404040DC
:1400B40040404040404040404040400C0C0C0C0C0C0C0C0C0C
:1400C8000C404040404040400909090909090101010101011C
:1400DC00010101010101010101010101010140404040404082
:1400F0000A0A0A0A0A0A0202020202020202020202020202A4
:140104000202020202024040404020000000000000000000BB
:140118000000000000000000000000000000000000000000D3
:14012C000000000000000000000000000000000000000000BF
:140140000000000000000000000000000000000000000000AB
:14015400000000000000000000000000000000000000000097
:14016800000000000000000000000000000000000000000083
:14017C0000000000000000000000000000000000000000541B
:14019000616B65206F75740A004D6F646966790A0057726904
:1401A40074650A005C4E455746494C452E54585400437265B6
:1401B8006174650A004C696E6520313A2025730A00436C6FFC
:1401CC0073650A0053697A653D256C642C204C656E3D25643F
:1401E0002C205365633D25640A00526561640A00D5D2B2BB3A
:1401F400B5BD2F4335312F43483337354846542E43CEC4BCB3
:14020800FE0D0A0020206D617463682066696C652025303318
:14021C0064233A2025730A004C6973742066696C6520257337
:140230000A005C4335315C43483337352A005C2A005C4335A1
:14024400315C43483337354846542E43004F70656E0A0054AC
:140258006F6F206C6172676520736563746F722073697A65FE
:14026C000A005265616479203F0A00576169742055646973CC
:140280006B0A0053746172740A004572726F723A20253032F2
:14029400580A003C696E7465676572206F6E6C79207072697D
:1402A8006E74662C2073656C6563742050726F6A6563742D0A
:1402BC003E4F7074696F6E732D3E5461726765742C2246504E
:1402D000207072696E74662220746F207072696E7420666C03
:1402E4006F6174696E6720706F696E74206E756D626572731E
:1402F8003E00286E756C6C2070747220706173736564290092
:14030C00303132333435363738396162636465666768696AD9
:140320006B6C6D6E6F707172737475767778797A003031320E
:14033400333435363738396162636465666768696A6B6C6D00
:140348006E6F707172737475767778797A00CFEFDFE0CDBFB4
:14035C00DEBFC852D0400AEA08830024E7ECF2E01DE0EE345F
:14037000F10711F00192FBCF0083EFE8F1E0A0E0B1E013E0F4
:14038400E635F10721F0C89531960D92F9CF0E94A802FFCF9C
:1403980087EC92E09093D00C8093CF0C0E944007089587EC86
:1403AC0092E09093D00C8093CF0C0E9468080895B499FECF15
:1403C00002E249D077D00093320D8091320D863121F481E096
:1403D4008093310D07C08091320D853119F482E08093310D37
:1403E80008950AE411E002C00150104000300107D9F708957D
:1403FC000AE812E002C00150104000300107D9F70895089564
:140410000A9508950A95089585E08093300D0E94290A05339E
:1404240010F40FEF08C087EC94E09093100D80930F0D0E9402
:14043800100B089505E001C00A950023E9F7089522242ABAE9
:14044C0087E088BB8FE087BB08950E945D23402FEFDFEEDF78
:14046000C39A4BBB8FEF8ABB88B3897F88BB8FEF8ABB88B3DE
:14047400876088BB22242ABA88B3877F88BBDCDFDBDF0E9485
:14048800602308950E945D23402F4BBB8FEF8ABB88B3817FAB
:14049C0088BB8FEF8ABB88B3876088BB22242ABAC7DF0E946F
:1404B000602308950E945D23C1DF22242ABA88B3827F88BBAD
:1404C4002ABA49B388B3876088BB042F0E94602308950E9448
:1404D8005D2308C048E25AE002C04150504040304507D9F7F5
:1404EC00202E33240150222099F70E94602308950E945D2350
:14050000402F442309F410C0242F33270BEF11E00E94742472
:1405140008C088B38F7788BB04E6DBDFC79A04E6D8DFF7CF1B
:140528000E946023089522242092900087E689B988E18AB91A
:14053C0086E08093950081E090E090934D0D80934C0D089546
:140550002A977ADFC79ABF9A88B38F7788BB04E6BADFC79A5B
:14056400E4DF04EF11E00E94742454DF0E83C4DFE3C108EEA1
:1405780011E00E94742407C00E947A0B002309F406C004E686
:14058C00A4DF8091310D8230A8F388B38F7788BB0AEF9BDF45
:1405A00000240E820EC004E696DF0FED11E00E9474240E949D
:1405B400DC1D002309F406C00E8003940E828E81853078F370
:1405C8002090110D3090120D80E098E08215930560F408EC23
:1405DC0011E00E94742402C004E677DF0E947A0B0023D1F3D0
:1405F000A5C102EC11E00E94742422EB31E007EC1CE00E94C9
:1406040089220E9463140E83033B19F0023409F060C08E81E8
:14061800833B21F48FEA91E06C0103C083EA91E06C019601FF
:14062C0005E911E00E947424EE2429C0960107EC1CE00E947E
:14064000892207EC1CE00E9492220E8387EC9CE0E02FFF2701
:14065400E80FF91FE0820E9463140E83023409F415C08E8160
:14066800833459F487EC9CE0998388832E2D33270DE711E0CA
:14067C000E94742403C00E813BDF04C0E3948E2D8E3FA0F26F
:1406900081E691E06C0100240E8212C0F601208087EC92E00F
:1406A400EE81FF27E80FF91F2082222009F409C0C601019696
:1406B8006C010E8003940E828E818F3F59F72E80332438861C
:1406CC002F82002403940986DBC00E8111DF0BE511E00E9482
:1406E000742440E052E060E070E04090280D5090290D2090C1
:1406F400260D3090270D421553056405750570F42091110D06
:140708003091120D00E012E00E94C222098780E092E0988724
:14071C008F832BC02090110D3090120D442455248090280DF9
:140730009090290D6090260D7090270D620C731C841C951CBA
:1407440041E050E060E070E0641A750A860A970A44245524B1
:140758005A924A923A922A92830194010E94DC220987209044
:14076C00260D3090270D38862F82298433243D822C820F80E3
:1407800018841B820A824090280D5090290D2090260D3090E2
:14079400270D48825982910101E411E00E94742409840092B7
:1407A800C70C8091110D9091120D01971C0144245524809055
:1407BC00280D9090290D6090260D7090270D620C731C841CAA
:1407D000951C7092270D6092260D9092290D8092280DDADDB3
:1407E4000E838091110D9091120D01971C014424552480905B
:1407F800280D9090290D6090260D7090270D6218730884088A
:14080C0095087092270D6092260D9092290D8092280D6EDEF5
:140820000AE311E00E9474240E94AF180E8366DE20902B0390
:140834002E82222420922B0327EC32E00EE211E00E9474249A
:140848000E8000922B03AA24BB2417C087EC92E0F501E80FF8
:14085C00F91FE0808E2D813658F08AE78E1540F087EC92E02D
:14087000F501E80FF91F8E2D80528083C50101965C010F8096
:140884001884A014B10420F306E211E00E94742429E131E01A
:1408980007EC1CE00E9489220E94B7190E832ADE02E111E031
:1408AC000E94742409840092C70C79DD0E8320DE0AE011E04C
:1408C0000E9474248FEF8093CF0C9FEF9093CE0C8093CD0C07
:1408D40082EB90E39093CC0C8093CB0C2F80388444245524FF
:1408E8003092C80C2092C70C5092CA0C4092C90C0E94121CB2
:1408FC000E83FEDD0AE311E00E94742422242092C70C0E94F7
:14091000AF180E83F3DD00E011E00E94742407C00E947A0BB2
:14092400002309F006C004E6D4DD8091310D8230A8F7C79A41
:1409380008ECCDDD1CCE2A96089526E030E00091E80C10918A
:14094C00E90C0E947D2318012091E50C33270091C90C1127AD
:140960000E947D232801421853085092E90C4092E80C1201B3
:14097400442455248090240D9090250D6090220D7090230DAC
:1409880062187308840895087092230D6092220D9092250D96
:14099C008092240D4090CF0C5090D00C421853085092D00C2A
:1409B0004092CF0C08950E94552322242092EA0C2090300DF4
:1409C40026FC14C08091E50C893081F080EC8093E90C2090D9
:1409D800C90C2092EB0C0E94DD1F002309F0ABC005E50E94DC
:1409EC002B021BC004E50E942B0222242092320DEBECFCE04D
:140A000000810E9446020091CC0C0E9446020091CD0C0E9418
:140A140046020091CE0C0E9446020091C90C0E944602209031
:140A2800300D2092EB0C822D8C7F922D969596959370982B3F
:140A3C009093300D8091E50C893021F488E090E05C0115C06C
:140A50008091E50C8A3021F480E190E06C010CC08091E50CB5
:140A64008B3021F480E290E07C0103C080E490E07C016701E3
:140A780056012090C90C2A9C1092E90C0092E80C0E94DE012A
:140A8C008091320D8D3109F054C08091EB0C8C7059F000915D
:140AA000CF0C1091D00C0E94870A1093D00C0093CF0C0AC000
:140AB40008E20E942B0222242092320D0E945A020E94080294
:140AC80005E50E942B0240E450E060E070E04090240D50909C
:140ADC00250D2090220D3090230D240E351E461E571E3092E5
:140AF000230D2092220D5092250D4092240D8091E80C9091A4
:140B0400E90C01979093E90C8093E80C8030890709F0B8CF71
:140B18002090EB0C2092300D0E94DE018091320D843149F470
:140B2C002090C90C3090C70C320C3092C70C002724C020900F
:140B4000EB0C2092300D8091EA0C8530C0F48091320D863144
:140B5400A1F0F5DE8091300D8C7019F400270E9408028091EE
:140B6800EA0C813010F00E94E61C8091EA0C8F5F8093EA0C30
:140B7C0021CF0E942C1D0E94E61C0E94532308950E94552317
:140B900022242092EA0C2090300D26FC43C08091E50C893096
:140BA40009F43EC080E48093E90C2090C90C2092EB0C0E9406
:140BB800DD1F002309F0E1C02090300D2092EB0C822D8C7F20
:140BCC00922D969596959370982B9093300D8091E50C89301F
:140BE00021F488E090E05C0115C08091E50C8A3021F480E1B0
:140BF40090E06C010CC08091E50C8B3021F480E290E07C0123
:140C080003C080E490E07C01670156012090C90C2A9C109218
:140C1C00E90C0092E80C53C006E50E942B0222242092320D45
:140C3000EBECFCE000810E9446020091CC0C0E9446020091AE
:140C4400CD0C0E9446020091CE0C0E9446020091C90C0E947C
:140C580046022090300D2092EB0C822D8C7F922D96959695DB
:140C6C009370982B9093300D8091E50C893021F488E090E0A6
:140C80005C0115C08091E50C8A3021F480E190E06C010CC053
:140C94008091E50C8B3021F480E290E07C0103C080E490E094
:140CA8007C01670156012090C90C2A9C1092E90C0092E80C94
:140CBC000E94DE018091320D8E3109F05CC08091EB0C8C707B
:140CD00059F00091CF0C1091D00C0E94A10A1093D00C00937F
:140CE400CF0C0CC00BE20E942B0222242092320D00E40E94DC
:140CF800460200E40E940A0207E50E942B0240E450E060E0BF
:140D0C0070E04090240D5090250D2090220D3090230D240E6F
:140D2000351E461E571E3092230D2092220D5092250D4092DA
:140D3400240D8091E80C9091E90C01979093E90C8093E80CA8
:140D48008030890709F0B6CF2090EB0C2092300D0E94DE01C2
:140D5C008091320D843179F42090300D25FC02C00E94FE01A0
:140D70002090C90C3090C70C320C3092C70C002724C02090C9
:140D8400EB0C2092300D8091EA0C8530C0F48091320D8631FE
:140D9800A1F0D3DD8091300D8C7019F400270E940A028091C9
:140DAC00EA0C813010F00E94E61C8091EA0C8F5F8093EA0CEA
:140DC000EACE0E942C1D0E94E61C0E94532308958091310DD4
:140DD400823110F404EB51C02091280D3091290D0091260DB3
:140DE8001091270D0E94590A1093E90C0093E80C3093EB0C44
:140DFC002093EA0C4090C90C5090CA0C2090C70C3090C80CC8
:140E1000021513052405350550F4180129013092C80C20926D
:140E2400C70C5092CA0C4092C90C8091E50C99270897409057
:140E3800C90C5090CA0C2090C70C3090C80C8A9381019201D2
:140E4C000E9484231093E90C0093E80C3093EB0C2093EA0CC7
:140E6000222E2092250D212E2092240D202E2092230D2224A2
:140E7400E2E2FDE020820E94171E08950E945523229784E17B
:140E88002090310D821520F08091310D823110F404EB16C1F5
:140E9C002090C70C2092C80C22242092C70C2092C90C409017
:140EB000240D5090250D2090220D3090230D8090280D9090B7
:140EC400290D6090260D7090270D62187308840895088301EB
:140ED80094010E94590A1093E90C0093E80C3093EB0C2093E0
:140EEC00EA0C112311F4222321F08FEF8093CA0CD9C02090BD
:140F0000E80C2092CA0CD4C02090CA0C222009F4D4C0809163
:140F1400EC0C8F3F09F4CFC00E943C1D2090C90C222009F4B8
:140F280050C08091E50C893021F480E490E07C0115C080919E
:140F3C00E50C8A3021F480E290E05C010CC08091E50C8B3029
:140F500021F480E190E06C0103C088E090E06C015601750165
:140F64002090C90C33242E143F0424F53324442455248090B7
:140F7800CD0C9090CE0C6090CB0C7090CC0C620C731C841C56
:140F8C00951C40900D0D50900E0D20900B0D30900C0D2624D0
:140FA00037244824592440E050E060E070E024163506460658
:140FB400570649F0FEDC0883002E002309F082C022242092AA
:140FC800C90C2090C90C222081F440900D0D50900E0D20906F
:140FDC000B0D30900C0D3092CC0C2092CB0C5092CE0C40925F
:140FF000CD0C2090EC0C30902E0D3218232C2092E80C409062
:14100400CA0C431418F4242C2092E80C2090C80C3090E80C71
:14101800231458F43090C90C320C3092C90C3090EC0C320CE1
:14102C003092EC0C48C02090E80C3090C80C32183092C80CD6
:141040003090C90C320C3092C90C3090CA0C32183092CA0CBA
:141054003090EC0C320C3092EC0C20902E0D321429F5222740
:141068000DEE1CE00E943C100983002E002309F027C0209022
:14107C00F50C222021F08FEF8093EC0C13C04090EA0C50900A
:14109000EB0C2090E80C3090E90C3092EE0C2092ED0C5092B3
:1410A400F00C4092EF0C22242092EC0C2090C80C222009F0C0
:1410B80027CF2090C90C222011F079DC01C0002722960E94CF
:1410CC00532308950E945523269784E12090310D821520F02C
:1410E0008091310D823110F404EBAFC12090C70C2092C80C8E
:1410F400222039F42090F30C222019F00E94781DA2C122249F
:141108002092C70C2092C90C2092CA0C17C18091EC0C8F3F90
:14111C0009F04BC040E050E060E070E040902C0D50902D0DB8
:1411300020902A0D30902B0D241635064606570659F1809153
:14114400310D823131F480912F0D833011F001EB7AC1409089
:14115800EF0C5090F00C2090ED0C3090EE0C3092D20C2092F7
:14116C00D10C5092D40C4092D30C0E94F7130983002E002396
:1411800009F063C122E001ED1CE00E943C100983002E002387
:1411940041F059C10E94B31E0B83002E002309F052C180918D
:1411A800CA0C81508093CA0C22242092EC0C0E943C1D209008
:1411BC00C90C222009F450C08091E50C893021F480E490E057
:1411D0005C0115C08091E50C8A3021F480E290E07C010CC0ED
:1411E4008091E50C8B3021F480E190E06C0103C088E090E04C
:1411F8006C01760157012090C90C33242A143B0424F53324DE
:14120C00442455248090CD0C9090CE0C6090CB0C7090CC0C6B
:14122000620C731C841C951C40900D0D50900E0D20900B0DBF
:1412340030900C0D262437244824592440E050E060E070E05F
:14124800241635064606570649F09CDC0C83002E002309F0EA
:14125C00F6C022242092C90C2090C90C222081F440900D0DD5
:1412700050900E0D20900B0D30900C0D3092CC0C2092CB0CAB
:141284005092CE0C4092CD0C2090EC0C30902E0D3218232CB3
:1412980028824090C80C431458F43090C90C340C3092C90CE5
:1412AC003090EC0C340C3092EC0C4BC02090C90C0880200C38
:1412C0002092C90C2090C80C20182092C80C2220A1F42090CA
:1412D4000F0D3090100D4090CF0C5090D00C4214530449F4BC
:1412E80051DC0D83002E002309F0ABC022242092C90C22276A
:1412FC000DEE1CE00E943C100A83002E002309F09EC0209014
:14131000F50C222021F08FEF8093EC0C13C04090EA0C509073
:14132400EB0C2090E80C3090E90C3092EE0C2092ED0C50921C
:14133800F00C4092EF0C22242092EC0C2090C80C222009F029
:14134C00E4CE2090F40C222031F00E94D20FA02E002309F05B
:1413600074C02090C90C222029F010DCA02E002309F06BC064
:141374002090CA0C2220D9F14090EF0C5090F00C2090ED0C83
:141388003090EE0C3092D20C2092D10C5092D40C4092D30CF5
:14139C0040E05FEF6FEF7FEF2090CA0C332444245524242AF7
:1413B000352A462A572A3092EE0C2092ED0C5092F00C4092C2
:1413C400EF0C0E940E14A02E4090D30C5090D40C2090D10C8C
:1413D8003090D20C3092EE0C2092ED0C5092F00C4092EF0C51
:1413EC00002309F02CC04090240D5090250D2090220D309033
:14140000230D8090280D9090290D6090260D7090270D621440
:1414140073048404950458F43092270D2092260D5092290DED
:141428004092280D81E08093F30C2090300D24FE07C02090B0
:14143C00F30C222019F00E94781D01C0002726960E9453235F
:14145000089505E30895F80120802092E80C0F5F1F4FF80152
:1414640020802092E90C0F5F1F4FF80120802092EA0C0F5FA2
:141478001F4FF80120802092EB0C2091EA0C3091EB0C0091C0
:14148C00E80C1091E90C0895F80120802092E80C0F5F1F4F0A
:1414A000F80120802092E90C0091E80C1091E90C08950E949E
:1414B4009E228091E50C99270897FE0120803180428053801E
:1414C8008A93810192010E949D231093E90C0093E80C30939A
:1414DC00EB0C2093EA0C212E2092E80C222E2092E90C232E1F
:1414F0002092EA0C22242092EB0C2091EA0C3091EB0C009161
:14150400E80C1091E90C249608950E945B23B80108E20E948D
:141518002B0222242092320D0E945A02402F07C00E945A0229
:14152C00FB0100836F5F7F4F4A954423B9F78B010E944D23FC
:1415400008950E945B23B8010BE20E942B0222242092320D2E
:1415540000E40E94460240E4FB0100810E9446026F5F7F4F8E
:14156800842F8150482F8823A9F78B010E944D230895A8D076
:14157C0000910F0D1091100DC4DF08950E945D23402F85E0BA
:14159000849F0092EA0C09C00E94F5010E94F5018091EA0C9C
:1415A40081508093EA0C2090EA0C222099F70E94602308951F
:1415B8000E945B23422F602F2090310D261610F04093310DC4
:1415CC002090310D241611F4002709C081E08093310D8AD0E2
:1415E000002311F002E801C003E80E944D23089580E8809313
:1415F400EA0C0AC001E00E942B020E945A028091EA0C81509D
:141608008093EA0C2090EA0C222091F705E00E942B0202E3BC
:14161C00B5DF089585E08093EC0C1AC026E005E60E948F1FFE
:1416300022242092310D0E945A020A3949F426E00AE90E9457
:141644008F1F0E945A02053609F40CC0CFDF8091EC0C81505A
:141658008093EC0C2090EC0C222011F701E831C080E092E0D5
:14166C009093120D8093110D01E00E942B0222242092130D2F
:141680008091300D8F7B8093300D0E945A020093EC0C023AE9
:1416940050F0063B28F08091300D80648093300D81E08093B3
:1416A800130D81E08093310D25E106E00E948F1F01E066DFFA
:1416BC000E945A020F3511F401E801C0002708950E945B2345
:1416D0004FEF5FEF6FEF7FEF5093080D4093070D70930A0DB5
:1416E4006093090D22242092F40C0E944D23089502E20E94BC
:1416F8002B020E945A0222242092320D00E20E94BA1D05FF1D
:14170C000FC08091310D823030F00BE10E94BA1D802F8F77BF
:1417200019F482E08093310D002704C081E08093310D02E86E
:141734000895DEDF002311F002E82EC001E50E949F1F209055
:14174800320D222011F523E002E032DF2090130D2220C9F045
:14175C0008E30E94BA1D0023A1F009DFE0910F0DF091100D4E
:141770008081853061F421E004E30E94CC1D08E50E949F1F9A
:141784002090320D222009F002C0002705C022E002E010DFA6
:141798000E94E61C08950E9455234090090D50900A0D209055
:1417AC00070D3090080D80900D0D90900E0D60900B0D7090D3
:1417C0000C0D622473248424952440E050E060E070E0641624
:1417D40075068606970609F4A9C022242092EA0C2090300D1C
:1417E80026FC13C08091E50C893079F080E88093E90C81E003
:1417FC008093EB0C0E94DD1F002309F079C005E50E942B0223
:141810001AC004E50E942B0222242092320DEBE0FDE00081D2
:141824000E94460200910C0D0E94460200910D0D0E9446029D
:1418380000910E0D0E94460201E00E94460220900F0D3090AF
:14184C00100D3092080D2092070D8091E50C893021F488E096
:1418600090E05C0115C08091E50C8A3021F480E190E06C01C3
:141874000CC08091E50C8B3021F480E290E07C0103C080E44C
:1418880090E07C0167015601A092E90C17C00E94DE01809110
:14189C00320D8D3169F50091070D1091080D31DE1093080DBB
:1418B0000093070D05E50E942B028091E90C81508093E90CE5
:1418C4002090E90C222029F740900D0D50900E0D20900B0D5C
:1418D80030900C0D3092080D2092070D50920A0D4092090DA5
:1418EC000E94DE018091320D843111F400271BC08091EA0C54
:14190000853080F48091320D863161F08091EA0C813010F09A
:141914000E94E61C8091EA0C8F5F8093EA0C60CFD3DE0E949B
:141928002C1D0E94E61C01C000270E94532308950E94592303
:14193C0022242092EA0C2090300D26FC35C08091E50C8930EA
:1419500089F122242092E90C81E08093EB0C0E94DD1F0023F0
:1419640009F09FC020900F0D3090100D3092080D2092070DD1
:141978008091E50C893019F448E050E014C08091E50C8A30AB
:14198C0019F460E170E00CC08091E50C8B3021F480E290E039
:1419A0005C0103C080E490E05C01B501AB014093E90C46C0B2
:1419B40006E50E942B0222242092320DEBE0FDE000810E9463
:1419C800460200910C0D0E94460200910D0D0E944602009109
:1419DC000E0D0E94460201E00E94460220900F0D3090100D7E
:1419F0003092080D2092070D8091E50C893019F448E050E026
:141A040014C08091E50C8A3019F460E170E00CC08091E50CD2
:141A18008B3021F480E290E05C0103C080E490E05C01B50111
:141A2C00AB014093E90C17C00E94DE018091320D8E3199F53D
:141A40000091070D1091080D7CDD1093080D0093070D07E593
:141A54000E942B028091E90C81508093E90C2090E90C2220E9
:141A680029F740900D0D50900E0D20900B0D30900C0D309202
:141A7C00080D2092070D50920A0D4092090D0E94DE01809108
:141A9000320D843141F42090300D25FC02C00E94FE01002781
:141AA40019C08091EA0C853080F48091320D863161F08091BC
:141AB800EA0C813010F00E94E61C8091EA0C8F5F8093EA0CD1
:141ACC003ACFFEDD0E942C1D0E94E61C0E944F2308950E9440
:141AE000552325978091310D833038F424DEA02E002309F0A4
:141AF40053C20E941D1FE8DD2224E6EEFCE0208240E050E03E
:141B080060E070E050930C0D40930B0D70930E0D60930D0D27
:141B1C0040DEC02E002339F00E941D1F3ADEA02E002309F07D
:141B300035C2E6EEFCE02080222041F4E0910F0DF091100DB8
:141B440080818D7F893E69F1EE2426C080910F0D9091100DFC
:141B580082549E4FEE2DFF27E80FF91F24802220B1F08091CE
:141B6C000F0D9091100D82549E4F0E2D1127080F191F085F1F
:141B80001F4F69DC10930C0D00930B0D30930E0D20930D0D8C
:141B940008C08E2D805FE82E8E2D8034B9F602E9FBC1409030
:141BA8000D0D50900E0D20900B0D30900C0D3092040D2092EE
:141BBC00030D5092060D4092050DEBDD0C83002E002309F08B
:141BD000E5C1E0910F0DF091100D80818D7F893E11F001EA70
:141BE400DBC1E0910F0DF091100D258420922E0D20922F0DA2
:141BF80086E08093FE0C0FC020902F0D26FE01C011C0209035
:141C0C002F0D220C20922F0D8091FE0C81508093FE0C2090B3
:141C2000FE0C222069F781E080932E0DE0910F0DF091100D2A
:141C3400268837883092000D2092FF0C222051F5332041F592
:141C4800E0910F0DF091100D24A035A046A057A03092EE0C2B
:141C5C002092ED0C5092F00C4092EF0C40E050E061E070E03D
:141C7000241635064606570638F0E6EEFCE02080222011F087
:141C840002EA8AC12090ED0C3090EE0C3092000D2092FF0C26
:141C9800E0910F0DF091100D2488E0910F0DF091100D33887B
:141CAC00322899F000910F0D1091100D0D5E1F4FEBDB18011E
:141CC0004424552430922B0D20922A0D50922D0D40922C0D25
:141CD40010C0E0910F0DF091100D20A031A042A053A03092D9
:141CE8002B0D20922A0D50922D0D40922C0D00910F0D109152
:141CFC00100D0F5E1F4FC8DB180125E030E00091110D1091BB
:141D1000120D0E9496231127015010401127020D131D209144
:141D2400E50C3327255030400E949623180144245524309264
:141D38001F0D20921E0D5092210D4092200DE0910F0DF09171
:141D4C00100D268437843092150D2092140D2090FF0C3090CF
:141D6000000D4090140D5090150D420C531C120144245524BE
:141D74008090200D9090210D60901E0D70901F0D260C371C04
:141D8800481C591C3092EE0C2092ED0C5092F00C4092EF0C5C
:141D9C0081E020888215D8F42090FF0C3090000D442455245E
:141DB0008090EF0C9090F00C6090ED0C7090EE0C620C731C18
:141DC400841C951C7092EE0C6092ED0C9092F00C8092EF0CA8
:141DD80006C0222433243092000D2092FF0C4090EF0C50905D
:141DEC00F00C2090ED0C3090EE0C80902C0D90902D0D6090F1
:141E00002A0D70902B0D62187308840895082090FE0C332430
:141E14002A92830194010E949D23FE01008311832283338312
:141E2800FE0120803180428053803092F70C2092F60C509266
:141E3C00F90C4092F80C45EF5FEF60E070E0FE012080318055
:141E5000428053802416350646065706B0F4222433243092C8
:141E6400020D2092010D8091F60C9091F70C853FEFE09E072C
:141E780020F481E080932F0D1DC082E080932F0D19C0E091BA
:141E8C000F0DF091100D20A831A83092020D2092010D24A48E
:141EA00035A446A457A430921F0D20921E0D5092210D4092C3
:141EB400200D83E080932F0D2090140D3090150D222011F441
:141EC800332079F140E050E060E070E04090200D5090210D5E
:141EDC0020901E0D30901F0D2416350646065706F1F081E0CB
:141EF000E0910F0DF091100D2088821540F42090FF0C3090C5
:141F0400000D222011F4332071F0E0910F0DF091100D2384EF
:141F1800222039F4E0910F0DF091100D8485823040F4E6EE58
:141F2C00FCE02080222019F481E08083E5CD40900D0D5090F6
:141F40000E0D20900B0D30900C0D6090140D7090150D8824F2
:141F54009924620C731C841C951C7092FB0C6092FA0C90924B
:141F6800FD0C8092FC0C8090EF0C9090F00C6090ED0C709032
:141F7C00EE0C620C731C841C951C70921B0D60921A0D9092A4
:141F90001D0D80921C0D20E103E00EDB25960E94532308959B
:141FA4000E9459234090090D50900A0D2090070D3090080D95
:141FB80030920C0D20920B0D50920E0D40920D0DB7DCA02E26
:141FCC00002309F050C02090FF0C3090000D222019F43320AB
:141FE00009F443C02090FF0C3090000D4424552480900D0D5A
:141FF40090900E0D60900B0D70900C0D620C731C841C951C2F
:1420080070920C0D60920B0D90920E0D80920D0D8FDCA02EFD
:14201C00002309F028C02090FF0C3090000D44245524809033
:142030000D0D90900E0D60900B0D70900C0D621873088408A5
:14204400950870920C0D60920B0D90920E0D80920D0D130149
:1420580024013092080D2092070D50920A0D4092090D22248B
:14206C002092F40C00270E944F2308950E945723A22E680181
:14208000249780912F0D823079F4F601208031804280538048
:14209400220C331C441C551CFE0120823182428253822DC010
:1420A80080912F0D833091F482E090E0F601208031804280C3
:1420BC0053808A93810192010E948423FE0100831183228307
:1420D000338317C0F6012080318039822882822D817080930F
:1420E400F50C3694279448805980420C531C12014424552410
:1420F800FE0120823182428253828091110D9091120D0197E0
:14210C00FE01208031802822392240900F0D5090100D240CB1
:14212000351C3092E70C2092E60CFE01008111812281338198
:14213400BED94090FC0C5090FD0C2090FA0C3090FB0C380189
:142148004901620C731C841C951CFE016082718282829382FE
:14215C004090090D50900A0D2090070D3090080DFE0160801A
:14217000718082809380622473248424952440E050E060E047
:1421840070E06416750686069706D9F02090F40C222029F005
:1421980005DFC02E002309F0A7C1FE012080318042805380F8
:1421AC0030920C0D20920B0D50920E0D40920D0DF0DAC02ED9
:1421C000002309F095C1AA2051F18A2D8F3F51F44FEF5FEF37
:1421D4006FEF7FEFFE0140835183628373831AC08A2D813078
:1421E80051F440E050E060E070E0FE0140835183628373834D
:1421FC000DC04090EF0C5090F00C2090ED0C3090EE0CFE01F9
:14221000208231824282538281E08093F40C80912F0D823059
:1422240061F5E091E60CF091E70C208031803092E90C2092BF
:14223800E80C222433243092EB0C2092EA0C8091E80C90917A
:14224C00E90C873FEFEF9E0720F081E090E06C0102C0CC2440
:14226000DD24C092F50CAA2041F028803980E091E60CF091D6
:14227400E70C31822082002739C180912F0D833009F035C0FF
:14228800E091E60CF091E70C20803180428053803092E90CCE
:14229C002092E80C5092EB0C4092EA0C852D807F9B819F700B
:1422B000982B9B83852D8F708093EB0C8F3020F081E090E0DE
:1422C4006C0102C0CC24DD24C092F50CAA2069F0FE012080D1
:1422D800318042805380E091E60CF091E70C208231824282BC
:1422EC0053820027FFC089818F70898320900F0D3090100D65
:142300008091110D9091120D820D931D01972090E60C309021
:14231400E70C2816390609F438C0F10120802092E80C218077
:142328002092E90CAA2009F4ADC02090F50C2220C9F0888111
:14233C008F7082959091E80C9F70982BE091E60CF091E70CB9
:14235000908389818F708295988192959F70982BE091E60CD1
:14236400F091E70C918390C02880E091E60CF091E70C20826C
:1423780029808091E90C807F8229E091E60CF091E70C81831D
:14238C007FC0E091E60CF091E70C20802092E80CAA2019F10D
:1423A0002090F50C222099F028803324220C331C220C331CB4
:1423B400220C331C220C331C8091E80C99278F7090706C01EA
:1423C800C228D32802C0C880DD24E091E60CF091E70CC082F8
:1423DC00E3DDC02E002309F085C041E050E060E070E040902D
:1423F000090D50900A0D2090070D3090080D240E351E461E4A
:14240400571E30920C0D20920B0D50920E0D40920D0DC3D925
:14241800C02E002309F068C0E0910F0DF091100D2080209201
:14242C00E90CAA2069F12090F50C2220B9F029803324220CB9
:14244000331C220C331C220C331C220C331CA880BB24B59472
:14245400A794B594A794B594A794B594A794A228B3280AC03E
:14246800298033248091E90C9927807F90705C01A228B32899
:14247C00E0910F0DF091100DA08281E08093F40C2090F50CDA
:14249000222091F08091E90C8F7082959091E80C92959F700E
:1424A400982B9093E80C8091E90C82958F708093E90C05C061
:1424B8008091E90C8F708093E90C222433243092EB0C2092FB
:1424CC00EA0C8091E80C9091E90C873FEFE09E0720F081E040
:1424E00090E05C0102C0AA24BB24A092F50C002724960E94F6
:1424F400512308950E94592370C14090F80C5090F90C20900B
:14250800F60C3090F70C8090EF0C9090F00C6090ED0C7090EA
:14251C00EE0C261437044804590410F401EB5EC141E050E033
:1425300060E070E04090EF0C5090F00C2090ED0C3090EE0CFD
:14254400240E351E461E571E3092EE0C2092ED0C5092F00CE0
:142558004092EF0C22270DEE1CE08ADDA02E002309F03EC112
:14256C0040E050E060E070E04090EA0C5090EB0C2090E80C3A
:142580003090E90C241635064606570609F428C180912F0D41
:14259400813009F422C120900F0D3090100D3092E70C209292
:1425A800E60C823009F07CC08091110D9091120D9695879590
:1425BC0001979093E90C8093E80C9093EB0C8093EA0C809120
:1425D000E60C9091E70C02969093E70C8093E60CFC012080A1
:1425E4003180222009F036C0332009F033C08FEF9FEFE09145
:1425F800E60CF091E70C918380832090EA0C3090EB0C44248D
:14260C0055248090EF0C9090F00C6090ED0C7090EE0C6228AD
:142620007328842895288091E80C9091E90C01971C0144246A
:14263400552462187308840895087092EE0C6092ED0C9092F2
:14264800F00C8092EF0C81E08093F40C0027C8C08091E80C4D
:14265C009091E90C01979093E90C8093E80C8030890709F064
:14267000AECF2090EA0C3090EB0C442455248090EF0C909070
:14268400F00C6090ED0C7090EE0C62287328842895287092D3
:14269800EE0C6092ED0C9092F00C8092EF0C9BC08091110D94
:1426AC009091120D969587959695879501979093E90C809389
:1426C000E80C9093EB0C8093EA0C8091E60C9091E70C04963E
:1426D4009093E70C8093E60CFC0120803180222009F054C03A
:1426E800332009F051C0E091E60CF091E70C2280222009F0CD
:1426FC0049C0E091E60CF091E70C83818F7009F041C08FEF6F
:142710009FEFE091E60CF091E70C91838083E091E60CF09155
:14272400E70C82838091E60C9091E70C0396FC0180818F600C
:1427380080832090EA0C3090EB0C442455248090EF0C909021
:14274C00F00C6090ED0C7090EE0C62287328842895288091FB
:14276000E80C9091E90C01971C014424552462187308840844
:1427740095087092EE0C6092ED0C9092F00C8092EF0C81E041
:142788008093F40C00272CC08091E80C9091E90C0197909341
:14279C00E90C8093E80C8030890709F090CF2090EA0C30902F
:1427B000EB0C442455248090EF0C9090F00C6090ED0C70902D
:1427C400EE0C62287328842895287092EE0C6092ED0C909270
:1427D800F00C8092EF0C8FCE2FEF0DEE1CE048DC0E944F233A
:1427EC0008950E94592382DEA02E013B09F00DC040E050E09E
:1428000060E070E05093EE0C4093ED0C7093F00C6093EF0C9E
:1428140071DE0E944F2308950E9459232090010D3090020D05
:14282800222021F4332011F4002746C04090050D5090060DEB
:14283C002090030D3090040D6090010D7090020D8824992481
:14285000620C731C841C951C70920C0D60920B0D90920E0DC4
:1428640080920D0D0E94CF0BA02E002309F026C080910F0DBB
:142878009091100D88519E4FFC0140805180628073806091F4
:14288C00EF0C7091F00C4091ED0C5091EE0C440D551D661D55
:1428A000771D5093EE0C4093ED0C7093F00C6093EF0C2A01CF
:1428B4003B0140825182628273823CD80E944F2308950E94FF
:1428C8005523299702E20E942B020E945A028091310D803113
:1428DC0028F4FFD8A02E002309F037C420E100E10E94DC0AA6
:1428F000A02E002309F02FC422242092F30C8091C70C8C355B
:1429040011F08F3239F488EC9CE09093F20C8093F10C10C0DF
:142918008091C80C8A3309F0B7C08091C70C833408F4B2C090
:14292C008AEC9CE09093F20C8093F10C80912F0D833071F40F
:142940004090200D5090210D20901E0D30901F0DFE01208210
:1429540031824282538209C040E050E060E070E0FE014083B8
:14296800518362837383FE01208031804280538030922B0DCD
:14297C0020922A0D50922D0D40922C0DE091F10CF091F20C4A
:142990002080222009F0BAC34FEF5FEF6FEF7FEF5093270D6C
:1429A4004093260D7093290D6093280D80912F0D833009F4BB
:1429B80047C082E0EAE2FDE080834090200D5090210D20903B
:1429CC001E0D30901F0D33244424552480901C0D90901D0D25
:1429E00060901A0D70901B0D621873088408950870921B0D5C
:1429F40060921A0D90921D0D80921C0D2091E50C33270091A2
:142A08001E0D10911F0D0E947D231801442455243092270D90
:142A1C002092260D5092290D4092280D20902E0D33244424F8
:142A3000552430921F0D20921E0D5092210D4092200D80E8D7
:142A440080932E0D40902C0D50902D0D20902A0D30902B0D2E
:142A58003092EE0C2092ED0C5092F00C4092EF0C40E050E008
:142A6C0060E070E05093230D4093220D7093250D6093240D58
:142A800022242092EC0C82E18093310D01E463C387EC9CE0A4
:142A94009093F20C8093F10C37C3E091F10CF091F20C808115
:142AA800853E11F485E0808340E050E060E070E040902C0D01
:142ABC0050902D0D20902A0D30902B0D2416350646065706EF
:142AD00099F120902E0D2092EC0C42E050E060E070E0409021
:142AE4002C0D50902D0D20902A0D30902B0D241A350A460ADF
:142AF800570A6090FE0C77246A92810192010E948423180161
:142B0C00290180901C0D90901D0D60901A0D70901B0D260C97
:142B2000371C481C591C3092170D2092160D5092190D4092E0
:142B3400180DB5C24090200D5090210D20901E0D30901F0D1F
:142B48002092EC0C33244424552480901C0D90901D0D609024
:142B5C001A0D70901B0D62187308840895087092170D6092E0
:142B7000160D9092190D8092180D93C24090180D5090190D5F
:142B84002090160D3090170D30920C0D20920B0D50920E0DE4
:142B980040920D0D0E94CF0B0F83002E002309F0D6C2222407
:142BAC0033243092150D2092140D4CC220900F0D3090100D50
:142BC0004090140D5090150D420C531C5092E70C4092E60CB8
:142BD400F20120802D82222009F497C28D81853E09F42BC258
:142BE8008D81853011F485EE8D83E091F10CF091F20C208001
:142BFC0033244D8055244214530421F0822D8A3209F017C22D
:142C100022242092EB0C00240C8271C02090F10C3090F20C73
:142C2400E091EB0CFF27E20DF31D20804090E60C5090E70CDA
:142C3800EC81FF27E40DF51D3080321409F453C02090F10C3F
:142C4C003090F20CE091EB0CFF27E20DF31D20802220A1F0B6
:142C60002090F10C3090F20CE091EB0CFF27E20DF31D808167
:142C74008C3541F0E091EB0CFF27E20DF31D80818F32B1F466
:142C88002090E60C3090E70CEC81FF27E20DF31D808180329E
:142C9C0009F033C08C81883020F4F1018085803261F58BE0F5
:142CB0008C8329C02090F10C3090F20CE091EB0CFF27E20D30
:142CC400F31D80818E32E9F48091EB0C883059F02090E60CA3
:142CD8003090E70CEC81FF27E20DF31D8081803271F487E024
:142CEC008C830C8003940C828091EB0C8F5F8093EB0C8C8107
:142D00008B3008F48BCF8C818B3008F4D1C0E091E60CF09175
:142D1400E70C238423FCCAC022242092F50CE091E60CF0918B
:142D2800E70C228C338C4424552430922B0D20922A0D509291
:142D3C002D0D40922C0D80912F0D833031F4248835883092EE
:142D50002D0D20922C0D2090F10C3090F20CE091EB0CFF2751
:142D6400E20DF31D2080222029F02090F50C222009F48DC024
:142D780040902C0D50902D0D20902A0D30902B0D3092EE0C89
:142D8C002092ED0C5092F00C4092EF0C40E050E060E070E0FD
:142DA0005093230D4093220D7093250D6093240D22242092B9
:142DB400EC0CE091E60CF091E70C238424FE22C04FEF5FEF05
:142DC8006FEF7FEF5093270D4093260D7093290D6093280DAD
:142DDC0023E100E10E94DC0A0887002E002309F0B4C1209078
:142DF000F50C222021F083E490E07C0103C081E490E07C0112
:142E04000E2DA7C1E091E60CF091E70C248C358C468C578C1A
:142E18003092270D2092260D5092290D4092280D40E050E05C
:142E2C0060E070E040902C0D50902D0D20902A0D30902B0D00
:142E4000241635064606570679F48FEF8093EC0C40E050E01A
:142E540060E070E05093270D4093260D7093290D6093280D5C
:142E680024E100E10E94DC0A0E83002E002309F06EC120902E
:142E7C00F50C222021F083E490E07C0102C0EE24FF240E2D68
:142E900062C12090F10C3090F20C8091EB0C9927820D931D99
:142EA40001969093F20C8093F10CF7CD2090F10C3090F20C23
:142EB800E091EB0CFF27E20DF31D80818A3209F0BAC0E091D8
:142ECC00E60CF091E70C238423FCB3C02090F10C3090F20CE8
:142EE000E091EB0CFF27E20DF31D2180222009F05DC0CC2468
:142EF40022242092E90C45C02090E60C3090E70CEC2DFF2744
:142F0800E20DF31D8081803209F438C08C2D883081F4209078
:142F1C00F10C3090F20CE091E90CFF27E20DF31D8EE28083E8
:142F30008091E90C8F5F8093E90C2090E60C3090E70CEC2D23
:142F4400FF27E20DF31D20804090F10C5090F20CE091E90CA3
:142F5800FF27E40DF51D20822090E90C222049F4E091F10C08
:142F6C00F091F20C8081853011F485EE80838091E90C8F5FAD
:142F80008093E90CC3948C2D8B3008F4B7CF2090F10C30907B
:142F9400F20CE091E90CFF27E20DF31D2224208281E0809344
:142FA800F50CBBCE2090F10C3090F20CE091EB0CFF27E20DA3
:142FBC00F31D81818F3F79F540E050E060E070E04090280DCE
:142FD0005090290D2090260D3090270D2416350646065706E2
:142FE40009F485CF57FE02C00E94070241E050E060E070E0E5
:142FF8004090280D5090290D2090260D3090270D241A350A56
:14300C00460A570A3092270D2092260D5092290D4092280D05
:143020000EC02090F10C3090F20C8091EB0C9927820D931D5C
:143034000196FC018081815080838091140D9091150D809694
:143048009093150D8093140D2090110D3090120D4090140D5D
:14305C005090150D4214530408F4A8CD41E050E060E070E05F
:143070004090180D5090190D2090160D3090170D240E351E15
:14308400461E571E3092170D2092160D5092190D4092180DA5
:143098008091EC0C81508093EC0C2090EC0C222009F068CD27
:1430AC0040E050E060E070E040902C0D50902D0D20902A0D26
:1430C00030902B0D241635064606570609F41FC022270AE2D5
:1430D4001DE00E943C10A02E002309F03AC02090F50C222026
:1430E80009F011C04090EA0C5090EB0C2090E80C3090E90C14
:1430FC0030922B0D20922A0D50922D0D40922C0DC8CCAA2454
:1431100012C02090F10C3090F20CEA2DFF27E20DF31D208092
:143124003324822D8C3511F08F3211F403EB11C0A394209063
:14313800F10C3090F20CEA2DFF27E20DF31D20803324222053
:14314C0019F0822D8A32F9F602E429960E94532308950E9410
:1431600059238091310D823110F404EB5AC08091310D8231CE
:14317400C9F580912F0D8330A9F14090200D5090210D209034
:143188001E0D30901F0D20922E0D2091E50C33270091260D6F
:14319C001091270D0E94962318014424552430921F0D209255
:1431B0001E0D5092210D4092200D33244424552480901C0D60
:1431C40090901D0D60901A0D70901B0D620C731C841C951C20
:1431D80070921B0D60921A0D90921D0D80921C0D83E1209005
:1431EC00310D821540F48091310D843139F42090C70C2220D0
:1432000019F422242092F30C2090F30C222029F06FD4A02E9B
:14321400002309F004C020E100E10E94DC0A0E944F230895AB
:143228000E9457238091310D833128F448DBA02E002309F04A
:14323C0095C020E100E10E94DC0AA02E002309F08DC04090B8
:14325000180D5090190D2090160D3090170D30920C0D2092FB
:143264000B0D50920E0D40920D0D0E94CF0BA02E002309F0EF
:1432780077C020900F0D3090100DA090140DB090150DA20C01
:14328C00B31C85EEF50180830E949C0CA02E002309F064C09B
:1432A00040902C0D50902D0D20902A0D30902B0D3092E90C61
:1432B4002092E80C5092EB0C4092EA0C40E050E060E070E0DF
:1432C800241635064606570609F449C041E050E060E070E0ED
:1432DC00241A350A460A570A30922B0D20922A0D50922D0DB1
:1432F00040922C0D40E050E060E070E05093EE0C4093ED0C36
:143304007093F00C6093EF0C21E008EE1CE00E943C10C02EF9
:14331800002309F025C041E050E060E070E04090EF0C509014
:14332C00F00C2090ED0C3090EE0C240E351E461E571E30920E
:14334000EE0C2092ED0C5092F00C4092EF0C2090F50C222036
:14335400D9F20E94D20FA02E002309F003C05CDA01C000274C
:143368000E94512308950E9455232297A8DA0093EC0C00239B
:14337C0031F454DFA02E002309F454C149C28091EC0C823418
:1433900011F0082F43C28091110D9091120D80972090140D95
:1433A4003090150D2816390608F440C140E050E060E070E0D9
:1433B80040902C0D50902D0D20902A0D30902B0D241635068A
:1433CC004606570609F4D1C040901C0D50901D0D20901A0DDC
:1433E00030901B0D6090180D7090190D4090160D5090170DBF
:1433F400421880912E0D815048224092EC0C8091140D9091C7
:14340800150D9070882331F080912E0D8150481609F00AC183
:14341C0022270AE21DE00E943C10A02E002309F0F7C120902A
:14343000F50C222009F4FCC040902C0D50902D0D20902A0D82
:1434440030902B0D3092EE0C2092ED0C5092F00C4092EF0C6A
:14345800CAD9A02E002309F0DDC122E00AE21DE00E943C105C
:14346C00A02E002309F0D4C10E94D20FA02E002309F0CEC1D1
:143480000E94660BAA24BB240CC020900F0D3090100DF5010D
:14349400E20DF31D22242082C50101965C012090110D3090F5
:1434A800120D250142245324442059F7552049F7222420928D
:1434BC00EC0CDCD28091140D9091150D90708823B1F422244B
:1434D00033243092150D2092140D40900D0D50900E0D209045
:1434E4000B0D30900C0D3092170D2092160D5092190D40924E
:1434F800180D20902E0D2092E80C23C00E949C0CA02E0023EC
:14350C0009F086C141E050E060E070E040900D0D50900E0DA5
:1435200020900B0D30900C0D240E351E461E571E30920C0DBD
:1435340020920B0D50920E0D40920D0D8091E80C81508093E7
:14354800E80C2090E80C2220C9F64FEF5FEF6FEF7FEF50939B
:14355C00EE0C4093ED0C7093F00C6093EF0C58D9C02E002366
:1435700009F45EC053C18091140D9091150D9070882309F0FF
:1435840055C041E050E060E070E04090180D5090190D209092
:14359800160D3090170D241A350A460A570A3092170D209252
:1435AC00160D5092190D4092180D30920C0D20920B0D509262
:1435C0000E0D40920D0D0E94CF0BA02E002309F025C122245E
:1435D40033243092150D2092140D1BC020900F0D3090100D51
:1435E800A090140DB090150DA20CB31CF5018081853E21F4D0
:1435FC0083858E7009F416C08091140D9091150D8096909334
:14361000150D8093140D2090110D3090120D4090140D5090D2
:14362400150D42145304D0F202EBF6C040902C0D50902D0D3B
:1436380020902A0D30902B0D3092EE0C2092ED0C5092F00C5A
:14364C004092EF0CCED8A02E002309F0E1C00E94D20FA02E1B
:14366000002309F0DBC04090EF0C5090F00C2090ED0C30908F
:14367400EE0C30922B0D20922A0D50922D0D40922C0D4FEF00
:143688005FEF6FEF7FEF5093EE0C4093ED0C7093F00C609379
:14369C00EF0CBED8A02E002309F0BAC04090180D5090190D2A
:1436B0002090160D3090170D30920C0D20920B0D50920E0DAD
:1436C40040920D0D0E94CF0BA02E002309F0A4C020900F0D70
:1436D8003090100D4090140D5090150D420C531C59824882AC
:1436EC00CC2411C08C2D8B3020F480E290E05C0102C0AA24C2
:14370000BB24EC2DFF2708801980E00DF11DA082C3948C2D49
:14371400803260F381E290E3E881F981918F808F81E0E881EA
:14372800F981848FEE242DC0E091F10CF091F20C2080222032
:14373C0009F429C0E091F10CF091F20C80818E3241F488E048
:14375000E82ECF0101969093F20C8093F10CEE2DFF270880EE
:143764001980E00DF11DA091F10CB091F20C2C902082E3947B
:143778008091F10C9091F20C01969093F20C8093F10C8E2D8D
:14378C008B3008F4CFCF20902A0D30902B0DE881F981338E51
:1437A000228E20902C0D30902D0DE881F981358A248A0E9490
:1437B4009C0CA02E002309F02FC040902C0D50902D0D2090AD
:1437C8002A0D30902B0D3092EE0C2092ED0C5092F00C4092A7
:1437DC00EF0C40E050E060E070E05093270D4093260D7093DE
:1437F000290D6093280D40E050E060E070E05093230D4093A1
:14380400220D7093250D6093240D22242092EC0C24E100E152
:143818000E94DC0A22960E94532308950E945B238091310D38
:14382C00833110F404EBC9C04090180D5090190D2090160D8A
:143840003090170D30920C0D20920B0D50920E0D40920D0D02
:143854000E94CF0B402F002309F0B3C022242092F40C20903E
:143868000F0D3090100D4091140D5091150D420D531D6091AE
:14387C00CF0CFA0123842092CF0C8FEF90E0262E3324282647
:143890003926222011F4332029F0FA01638781E08093F40CB9
:1438A4002090CD0C3090CE0C3092EB0C2092EA0CFA012688E3
:1438B80037883092CE0C2092CD0C8FEF9FEF2090EA0C3090A4
:1438CC00EB0C28263926222011F4332051F02090EA0C309003
:1438E000EB0CFA01378A268A81E08093F40C2090CB0C3090B6
:1438F400CC0C3092EB0C2092EA0CFA01208C318C3092CC0C89
:143908002092CB0C8FEF9FEF2090EA0C3090EB0C282639260C
:14391C00222011F4332051F02090EA0C3090EB0CFA01318EA5
:14393000208E81E08093F40C4090C90C5090CA0C2090C70C83
:143944003090C80C3092D40C2092D30C5092D60C4092D50C31
:14395800FA01248C358C468C578C3092C80C2092C70C50923D
:14396C00CA0C4092C90C8091D60C8F3FD9F04090D50C5090AF
:14398000D60C2090D30C3090D40C3092270D2092260D509265
:14399400290D4092280DFA01248E358E468E578E81E0809345
:1439A800F40C22242092F30C2090F40C222031F02224209209
:1439BC00F40C0E949C0C01C000270E944D23089582E380939E
:1439D000E90C07C00E94F5018091E90C81508093E90C209000
:1439E400E90C2220A9F702E20E942B020E945A028091320DF7
:1439F800863141F08091310D813021F000E2B6D005FD05C093
:143A0C0081E08093310D02E820C02090130D2220A1F0809176
:143A2000310D833080F02090320D2092E90C22242092320D64
:143A34000AE50E942B020E94DE012090E90C2092320D2090F9
:143A4800320D222011F400E102C00091320D08958091310D85
:143A5C00823121F483E08093310D07C080E12090310D82152D
:143A700010F48093310D08950E945B2342E050E060E070E04E
:143A84004090EF0C5090F00C2090ED0C3090EE0C241A350AA7
:143A9800460A570A6090FE0C77246A92810192010E9484237A
:143AAC001801290180901C0D90901D0D60901A0D70901B0D01
:143AC000260C371C481C591C6090EC0C772488249924260C76
:143AD400371C481C591C30920C0D20920B0D50920E0D40923E
:143AE8000D0D0E944D2308950E945D2322242092F30C8091D7
:143AFC00310D843108F434C04090180D5090190D2090160D05
:143B10003090170D30920C0D20920B0D50920E0D40920D0D2F
:143B24000E94CF0B402F002309F01FC020900F0D3090100DFE
:143B38004091140D5091150D420D531DFA01238424FC10C033
:143B4C004090280D5090290D2090260D3090270DFA01248EC6
:143B6000358E468E578E0E949C0C01C000270E9460230895E1
:143B74000E945D23402F0AE00E942B02042F0E94460244236F
:143B880019F00E945A0201C0042F0E94602308950E945B234C
:143B9C00422F602F0BE00E942B02062F0E944602042F0E9467
:143BB00046020E944D2308950E945D230E947A0B002311F09D
:143BC40002E830C08091310D833090F40E949B0B002349F0E9
:143BD80002E30E94C40A0E949B0B402F002309F01FC027D1DA
:143BEC00002311F0EDDE1AC02090130D2220A9F009E59FD1F3
:143C00002090320D2092E90C222011F400270CC00AE00E9454
:143C1400C40A0AE592D102E00E94C40A0091E90C01C00027BC
:143C28000E94602308950E94592340E050E060E070E04090F8
:143C3C002C0D50902D0D20902A0D30902B0D24163506460681
:143C5000570609F475C040902C0D50902D0D20902A0D309007
:143C64002B0D3092EE0C2092ED0C5092F00C4092EF0C37C00B
:143C780022270DEE1CE00E943C10A02E002309F06BC0209045
:143C8C00F50C222009F056C04090EA0C5090EB0C2090E80C91
:143CA0003090E90C3092EE0C2092ED0C5092F00C4092EF0C49
:143CB40020902E0D3324442455248090C90C9090CA0C60900E
:143CC800C70C7090C80C62187308840895087092C80C60925B
:143CDC00C70C9092CA0C8092C90C20902E0D332444245524FF
:143CF0008090C90C9090CA0C6090C70C7090C80C6214730461
:143D04008404950408F0B6CF822D8150130124012822209258
:143D1800EC0CAEDE40900D0D50900E0D20900B0D30900C0D8D
:143D2C003092C80C2092C70C5092CA0C4092C90C002710C012
:143D40008FEF8093EC0C4FEF5FEF6FEF7FEF5093C80C409304
:143D5400C70C7093CA0C6093C90C00270E944F2308950E946D
:143D680059230E947C12A02E002319F0013B09F05DC0AA2085
:143D7C0091F040E050E060E070E05093EE0C4093ED0C709326
:143D9000F00C6093EF0C0E947C12A02E002309F049C00E9470
:143DA400D20FA02E002309F043C04090EF0C5090F00C2090E6
:143DB800ED0C3090EE0C30922B0D20922A0D50922D0D409273
:143DCC002C0D4090180D5090190D2090160D3090170D309236
:143DE0000C0D20920B0D50920E0D40920D0D0E94CF0BA02EB9
:143DF400002309F01DC020900F0D3090100DA090140DB09088
:143E0800150DA20CB31C81E0F501848F20902A0D30902B0DBE
:143E1C00F501338E228E20902C0D30902D0DF501358A248AE5
:143E30000E949C0C0E944F23089582E38093E90C66C003E508
:143E44007CD02090320D222009F03DC00E94BD0AE0910F0D01
:143E5800F091100D8681843021F48AE08093E50C19C0E09130
:143E6C000F0DF091100D8681883021F48BE08093E50C0EC077
:143E8000E0910F0DF091100D8681803121F48CE08093E50CC6
:143E940003C089E08093E50C2091E50C332701E010E00E947B
:143EA8007D231093120D0093110D1091E50C1650135008E0B0
:143EBC000E949023202F09E369DE002729C08091320D863104
:143ED00021F08091320D853109F41EC002E30E94C40A2090E7
:143EE400130D222051F02090320D2092EA0C0AE524D02090FD
:143EF800EA0C2092320D0AE00E94C40A8091E90C815080938B
:143F0C00E90C2090E90C222009F095CF0091320D08950E9459
:143F20005B23622F402F062F0E942B0222242092320D042FA1
:143F34000E9446020E944D2308950E945D23402F2224209257
:143F4800320D042F0E942B020E94DE012090320D222021F45D
:143F5C0080E18093320D07C08091320D843119F422242092CD
:143F7000320D0E94602308950E945B23622F402F062F0E9445
:143F84002B0222242092320D042F0E9446020E94DE01209077
:143F9800320D222021F480E18093320D07C08091320D843100
:143FAC0019F422242092320D0E944D2308950E945D2320903C
:143FC000130D222041F004E3D5DD2090E90C202A2092E90C2B
:143FD40003C023E004E3DEDD0BE20E942B0222242092320D7E
:143FE8000FE10E94460205E50E94460203E50E94460202E45F
:143FFC000E94460203E40E94460203E00E94460207E00E94A0
:14401000460205E00E9446020AE00E94460200270E944602A0
:144024002091E50C3327285030400091EB0C11270E947D23A2
:144038000E94460200270E94460200270E9446020091E90CE2
:14404C0000780E9446020091E90C0F700E9446020AE00E9483
:1440600046022090E90C27FE03C048E250E002C04AE250E0FF
:14407400042F0E94460200270E9446022090E90C26FE12C06F
:144088000091CE0C0E9446020091CD0C0E9446020091CC0C12
:14409C000E944602EBECFCE000810E94460211C000910E0D8B
:1440B0000E94460200910D0D0E94460200910C0D0E944602E9
:1440C400EBE0FDE000810E94460200270E94460200270E94FB
:1440D80046020091EB0C0E94460200270E94460200270E9440
:1440EC00460200270E94460200270E94460200270E94460245
:1441000000270E94460200270E94460201E332DD0093E90C0E
:14411400202F0EE13FDD03E32BDD2FE42BDF2090320D222001
:1441280041F480E490E04091E90C55274827592702C044271C
:14413C005527242F01E32ADD2090320D222019F12090320D8B
:144150002092E90C8091320D863111F002E5EFDE8091320DA8
:14416400863111F402E839C002E302DD21E402950F70006861
:14417800FFDE03E3FBDC21E402950F70F9DE2090E90C209250
:14418C00320D022D26C01091E50C19500091EB0C0E949023F3
:1441A000202F2090130D222019F046E350E002C045E350E02E
:1441B400042FF0DC28E02090130D222019F047E350E002C0B9
:1441C80046E350E0042FE4DC00E2D0DC202F286000E2DEDC96
:1441DC0000270E9460230895ABD161D22A97002411241F827C
:1441F0000E8283C1EE89FF898081853251F00081EC89FD8973
:1442040071D28E819F8101969F838E836FC1EE24FF2443E3DF
:144218005DE060E28E899F8901969F8B8E8BE82FF92F20801B
:14422C0033243D822C82822D932D8835E0E09E0709F489C0E3
:1442400088E582159305A4F08C819D818534E0E09E0709F4F4
:1442540048C18534E0E09E070CF443C08C819D818335E0E089
:144268009E0709F4DBC03BC08C819D818F36E0E09E0709F4B8
:14427C006AC08FE690E02C803D8082159305DCF08C819D8190
:144290008336E0E09E0709F4B0C08436E0E09E0709F42DC086
:1442A4008536E0E09E0709F41CC18636E0E09E0709F417C116
:1442B8008936E0E09E07F9F012C08C819D818337E0E09E07C9
:1442CC0009F4D7C08537E0E09E0709F43CC08837E0E09E070C
:1442E00009F437C000C0EE89FF890081EC89FD89FBD18E81C0
:1442F4009F8101969F838E83F9C0888D998D0296998F888F01
:14430800E82FF92F32972080318039862886822D932D8030BC
:14431C00E0E09E0774F48E2D9F2D8860E82EF92E6DE2822D16
:14433000932D809590958F5F9F4F998788878AE090E099837E
:14434400888328853985042F152F1FD24FC0888D998D0296A5
:14435800998F888FE82FF92F32972080318039862886EE89D5
:14436C00FF898081853751F48AE090E099838883222D332D03
:14438000042F152F58D234C0EE89FF8980818F3651F488E022
:1443940090E09983888328853985042F152F49D225C080E13B
:1443A80090E09983888328853985042F152F3FD2EE89FF8978
:1443BC0080818835B9F483E39DE0C82ED92E0DC0EC2DFD2D92
:1443D0000081112775D2EC2DFD2D00838C2D9D2D0196C82E03
:1443E400D92EEC2DFD2D2080222071F783E39DE0C82ED92E51
:1443F80054C0888D998D0296998F888FE82FF92F32972080E3
:14440C0031802A82022DEC89FD8968D18E819F8101969F83F4
:144420008E8366C0888D998D0296998F888FE82FF92F329737
:14443400A080B1806D32D9F40DE2EC89FD8952D18E819F817B
:1444480001969F838E8311C0EA2DFB2DC895002DEC89FD8901
:14445C0045D18E819F8101969F838E838A2D9B2D0196A82E51
:14447000B92EEA2DFB2DC895002051F739C0888D998D029681
:14448400998F888FE82FF92F3297C080D180CC2031F4DD203E
:1444980021F48BE692E0C82ED92E6D32D1F40DE2EC89FD89CD
:1444AC001DD18E819F8101969F838E8310C0EC2DFD2D008181
:1444C000EC89FD8911D18E819F8101969F838E838C2D9D2D8F
:1444D4000196C82ED92EEC2DFD2D2080222059F705C088E09E
:1444E80092E0C82ED92ED9CF8E899F8901969F8B8E8BEE8919
:1444FC00FF892080222009F077CE0E811F812A96CCD02496BF
:144510000895A02FB12FE22FF32F01900D920020E1F7089553
:14452400E02FF12FAA27BB270190002011F01196FBCF0A2F45
:144538001B2F08953A932A931A930A9308956894DA92D12EB0
:14454C0004C0E894DA92D12ED32617FF04C0109500950F5F35
:144560001F4F37FF04C0309520952F5F3F4F0BD0D7FE04C0D5
:14457400109500950F5F1F4FD9900895689401C0E894EA9262
:14458800FA928A93EE24FF2480E1000F111FEE1CFF1CE21684
:14459C00F30618F0E21AF30A03958A95A1F716F40E2D1F2D31
:1445B0008991F990E9900895E89401C068942FD0CC2408C04E
:1445C400E89401C0689429D037FD53D0B7FD5AD07724882435
:1445D8009924AA24BB2441D0C1F044D0B1F0E8E2000F111FE5
:1445EC00221F331F771C881C991CAA1CBB1C88169906AA06B2
:14460000BB0628F0881A990AAA0ABB0A0395EA9559F726F48E
:14461400082D192D2A2D3B2D13C07A928A929A92AA92BA92A9
:14462800CA92EA938A939A93AA93BA938B859C85AD85BE852B
:14463C00C32E0EF0CB260895C7FC17D0B991A991999189917B
:14465000E991C990B990A99099908990799024960895E02F50
:14466400E12BE22BE32B0895E82FE92BEA2BEB2B08950095F6
:144678001095209530950F5F1F4F2F4F3F4F08958095909550
:14468C00A095B0958F5F9F4FAF4FBF4F0895E2E012C0E4E0C3
:1446A00010C0E8E00EC0EE270CC0FA92EA92DA92CA92BA92A3
:1446B400AA927A936A935A934A930895E1E049915991E0FDE3
:1446C800089569917991E1FD0895A990B990E2FD0895C9906B
:1446DC00D990E3FD0895E990F99008950A92C8950A923196E9
:1446F000C895F02DE99109900994222321F0000F111F2A9538
:14470400FACF08950F920990002031F0000F111F221F331FEE
:144718000A94F8CF0F900895112319F0000F1A95FBCF08958A
:14472C00222321F0169507952A95FACF08950F92099000205D
:1447400031F036952795179507950A94F8CF0F900895B3DF42
:14475400402F20904C0D30904D0D222011F4332021F04A309A
:1447680011F40DE0F2DF5D9BFECF4CB9042F1127A3DF089526
:14477C00822F932F01968E7F800F911F082F192F08958DDF4B
:14479000C22ED32E402F512FA297ACA4BDA48C2D9D2D803018
:1447A400E0E09E0744F461E0809590958F5F9F4FC82ED92E10
:1447B80001C06627222429A28C2F9D2F8196E82EF92E8E2DF8
:1447CC009F2D0197282E392EE82EF92E2A2D3B2D0C2D1D2D39
:1447E000B2DEE02FF12F8DE792E0E80FF91F4080E22DF32D22
:1447F40040822A2D3B2D0C2D1D2DA7DEC02ED12ECC2009F74F
:14480800DD20F9F6662359F08E2D9F2D0197282E392EE82EEC
:14481C00F92E8DE2E22DF32D80832E2D3F2D042F152F71DE33
:14483000A29639DF08953BDFA22EB32EC02ED12EA2976AA587
:144844007BA5222429A24C2F5D2F4F5D5F4F842F952F0197BF
:14485800282E392E482F592F262F372F0A2D1B2D8BDEE02FDE
:14486C00F12F82EA92E0E80FF91F4080E22DF32D4082262F25
:14488000372F0A2D1B2D7EDEA02EB12EAA2009F7BB20F9F6A2
:14489400242F352F0C2D1D2D3ADEA29600DF08958FE890E023
:1448A800202E312E280E391EE22DF32DC895002D112702705F
:1448BC0010700895FCDE402F512F042F152FECDF0030010788
:1448D00039F0042F152F015610400F5B1F4F02C0042F152F7C
:1448E400EDDE089529DEE7DE229722E030E00C2F1D2F0C5FCF
:1448F8001F4F40DF402F512F598348832C813D810CE810E03A
:0E490C006BDC402F512F2296D5DE24960895A5
:00000001FF
