:10000000022E9690BDF17422F00000000090BCF02A
:10001000E0FFE53FC3941050071207DCEF600122B8
:10002000122D49EF600122C20B7850E6645C600437
:10003000E6B42F05752B5180177851E6643A6003BA
:1000400002010418E6C394435003020104752B53C4
:10005000E544B40310904E17E0FCA3E0FDA3E0FEDE
:10006000A3E0FF8005E4FFFEFDFC8F3B8E3A8D3957
:100070008C38A82BE6600302010774FFF543F542B4
:10008000F541F540E5446403605D753B02904E1117
:10009000E0FCA3E0FDA3E0FEA3E0FFEFC0E0904E94
:1000A0001AE0FBD0E0FFC3EF9BFFEE9400FEED945F
:1000B00000FDEC9400FC904E11122097904E19E038
:1000C000FEA3E0A82E088005C333CE33CED8F9FFB7
:1000D000E48F438E42F541F540AF22FCFDFE904E89
:1000E00017122097752280853B32853A3185393049
:1000F00085382FE4F54FF54EF54DF54CF533753F4A
:10010000127F4122752B50A82BE6B4E5027605E557
:100110003B700CE5387008E5397004E53A603E85BF
:100120002233E53B24FEFFE53A34FFFEE53934FF98
:10013000FDE53834FFFC904E08E0F9F812205F909E
:100140004E11E0F8A3E0F9A3E0FAA3E02FF548EAA6
:100150003EF547E93DF546E83CF545802B904E1AC3
:10016000E0F533AF33CBEFCB904E11E0FCA3E0FDD5
:10017000A3E0FEA3E0C39BF548EE9400F547ED94A1
:1001800000F546EC9400F545E533700302043312A4
:10019000224AEF600122E4F53DF53ED3904E16E091
:1001A000953E904E15E0953D5003020419E54A2511
:1001B0003EF52DE549353DF52C852D82F583E0FF93
:1001C0007003020460EF64E5700302040BBF0502D4
:1001D0007FE5A82BE6FE6F6008EE642A6003020448
:1001E0000BE4F537FFEFC3940B5078E52D2FF58224
:1001F000E4352CF583E0FEAD37E52B2DF8EE666097
:100200005DAD37E52B2DF8E66015AD37E52B2DF804
:10021000E6645C600AAD37E52B2DF8E6B42F1FEEDF
:100220006420703FEFC394085010E52D2408F58238
:10023000E4352CF583E0642070297F0B8025AE37F0
:10024000E52B2EF8E6B42E1BE5376408600EE52D8D
:100250002FF582E4352CF583E0B420077F070F05E6
:10026000378082EFC3940B500302034CE52D240B1F
:10027000F582E4352CF583E030E30302034CC20938
:10028000E52D241AFFE4352CFE122E7FE48F3B8EE1
:100290003AF539F538E544B40310E52D2414FFE4AC
:1002A000352CFE122E7F8E388F39AF37E52B2FF885
:1002B000E66006200903020342853B32853A318518
:1002C000393085382FE4F54FF54EF54DF54CF533C3
:1002D000E52D240BF582E4352CF583E030E41F7422
:1002E000FFF543F542F541F5407D137F10122D4D8A
:1002F000EF6001223009047F4380027F4122E52D17
:10030000241CFFE4352CFE122E0A8F438E428D41B1
:100310008C40E53B7017E5387013E539700FE53A0E
:10032000700B7533FFF543F542F541F5407D147FC1
:1003300010122D4DEF6001223009047F4380027FAF
:100340000022E53704252BF52B020107AF37E52BFB
:100350002FF8E6642A600302040BE52D240BF582D6
:10036000E4352CF583E030E30302040BE537042584
:100370002BF8E67053E4FFF535E52D2FF582E435D3
:100380002CF583E06420602FBF080AAE35E52B2EE4
:10039000F8762E0535E52D2FF582E4352CF583E032
:1003A000FEAD35E52B2DF8EEF6E5357008A82BE609
:1003B000B4050276E505350FBF0BBEAF35E52B2F33
:1003C000F8E4F6D209020280E53704252BF8E6F4BA
:1003D0007032E543700CE5407008E5417004E54279
:1003E0006093E54030E703122ED6E54324FFF54342
:1003F000E54234FFF542E54134FFF541E54034FF85
:10040000F5408007E53704252BF8167420253EF5C6
:100410003EE4353DF53D02019BE5482401F548E405
:100420003547F547E43546F546E43545F54515339A
:10043000020188E53B700CE5387008E5397004E589
:100440003A601D7F38E4FD120AF4EF6001222009B2
:100450000F85343885353985363A85373B020107B3
:10046000E4FFE52B2FF8E6FE6013642A600FEE64CC
:100470005C6004EEB42F037FB3220F80E57F42223D
:10048000E518240CF8E60518227809300702780CE4
:10049000E475F0011221140220BC2000EB7F2ED263
:1004A000008018EF540F2490D43440D4FF30040B54
:1004B000EF24BFB41A0050032461FFE51960021550
:1004C00019051CE51C7002051B30070D7809E47541
:1004D000F001122114EF022102022C947403D207BE
:1004E0008003E4C207F5188B098A0A890BE4F51921
:1004F000F51BF51CE51960077F201204BB80F5751C
:100500001AFFC201C200C202C203C205C206C2086B
:10051000120489FF700D3007057F001204CCAF1C58
:10052000AE1B22B4255FC2D5C204120489FF24D0B9
:10053000B40A00501A75F00A781930D50508B6FFCC
:100540000106C6A426F620D5047002D20380D92461
:10055000CFB41A00EF5004C2E5D2040206CCD20197
:1005600080C6D20080C0D20280BCD2D580BAD2056B
:1005700080B47F201204BB2002077401B51900402B
:10058000F1120480FF1204BB0204F4D208D20680E8
:1005900095120480FB120480FA120480F94A4B7011
:1005A00006799D7A077BFF20022EE519602A7E00DE
:1005B0008E827583001220D560060EEE651A70F0EB
:1005C000C2D5EBC0E0EAC0E0E9C0E0EE120713D00C
:1005D000E0F9D0E0FAD0E0FB1220BCFF60AAEBC04B
:1005E000E0EAC0E0E9C0E01204BBD0E02401F9D0A9
:1005F000E03400FAD0E0FBE51A0460DCD51AD980BB
:10060000877BFF7A07790FD202809C79108002796C
:1006100008C206C2088008D2D5790A8004790AC2C5
:10062000D5E51A047002F51AE4FAFDFEFF12048003
:10063000FC7B08200113120480FD7B1030000A129D
:100640000480FE120480FF7B20EC3382D592D550CB
:1006500013C3E43000069FFFE49EFEE42001039DE7
:10066000FDE49CFCE4CBF8C201EC700CCFCECDCC09
:10067000E824F8F870F38017C3EF33FFEE33FEED94
:1006800033FDEC33FCEB33FB994002FB0FD8E9EB75
:10069000300105F8D0E0C448B201C0E00AEC4D4E8C
:1006A0004F78207B0070C2EAB51A0040BCC0E0124F
:1006B0000715D0F0D0E0200104C4C0E0C4B201C0EE
:1006C000F01204A4D0F0D5F0EB0204F412212405BA
:1006D0009153060B5805624C055E42060F4F0617F4
:1006E00044061749057743061D5506014606014590
:1006F00006014707BD5005662D056A2E058D2B05A1
:100700006E23058B2007A62A052648000005853F95
:100710003F3F00790AA2D5200314300509B9100221
:100720000404B9080104A2D52006025001042002E5
:10073000689202B519005034C0E07F203003197F61
:1007400030A20272067205500F12076CC202C20676
:10075000C205C2087F30800F300503E9C0E01204F3
:10076000BB300503D0E0F9D0E0B519CC3005177FD8
:1007700030B9100C1204BB7F583004077F78800317
:10078000B908031204BB3002057F2D0204BB7F2091
:100790002008F87F2B2006F322920280CF286E7566
:1007A0006C6C2900D2011204803001F8C201781962
:1007B00030D50108F60205262D5043495812048011
:1007C0002403B405004001E49007B8931204AC740C
:1007D0003A1204ACD20375190402060BE53FC39428
:1007E00003500A122ADEEF60012212243B122E89E6
:1007F000E4F52CE4F526F525F524F523122256EF31
:10080000600A12243B122256EF600122E52C700D83
:10081000854A82854983E054FD64E96053E4FDED37
:1008200064406049E54A24BEFFE5493401FEED7AA3
:10083000002FFFEA3EF583EF2404F582E43583F5CB
:1008400083E06023E54A24BEFFE5493401FEED2F35
:10085000FFEA3ECF2408CF3400FE122E0A8F268EE8
:10086000258D248C23800974102DFD80B27F922267
:10087000AF26AE25AD24AC23904E00122097122255
:1008800056EF600122854A82854983E054FD64E980
:1008900060037FA122E54A240DF582E43549F58302
:1008A000E0F522F544904E087406F0E54420E61287
:1008B000E54425E0F544904E08E014F0E070EC7556
:1008C0002201E54A2416122E7A904E06EEF0A3EF8E
:1008D000F04E702CE54A2424122E058F328E318D75
:1008E000308C2FE4FBFA7901F8D312203B5007E556
:1008F0002C60037FA222904E06E531F0A3E532F092
:10090000E54A2414F582E43549F583E0FFE54A24FD
:1009100013F582E43549F583E04F6012E54A24136C
:10092000122E7AE48F3B8E3AF539F538800FE54A7E
:100930002420122E058F3B8E3A8D398C38E54A24BF
:1009400011122E7ACCEECCCDEFCD904E15E0FEA359
:10095000E07805CEC313CE13D8F9147E002DFFEE38
:100960003CFEE52E24FBFDEFC8EDC8088005CEC394
:1009700013CE13D8F9FFE4FCFD904E17122097E533
:100980004A240E122E7A8E3D8F3E904E07E0253E71
:10099000FF904E06E0353DFEE4FCFD904E17E0F87A
:1009A000A3E0F9A3E0FAA3E02FF532EA3EF531ED3A
:1009B00039F530EC38F52FE54A2410F582E4354955
:1009C000F583E0D39401401E904E06E0FEA3E0FFC5
:1009D000E5322FF532E5313EF531ED3530F530ECCD
:1009E000352FF52F8007E4904E06F0A3F0C3E53BCA
:1009F0009532FFE53A9531FEE5399530FDE53895BC
:100A00002FFC904E08E0F9F812204C904E0D122069
:100A100097E47BF57AFFF9F8D312203B401FE4906E
:100A20004E04F0A3F0904E0FE0FEA3E094F5EE9498
:100A30000F50057544018024754402801FE54A2447
:100A400030122E7A904E04EEF0A3EFF0E54A242CFB
:100A5000122E05904E17122097754403E53E453D32
:100A6000604E904E17E0FCA3E0FDA3E0FEA3E0FF84
:100A7000EC4D4E4F603AE54A2410F582E43549F5D5
:100A800083E0D39401400A904E06E07002A3E06038
:100A90001FE54A240BF582E43549F583E07011E542
:100AA0004A240CF582E43549F583E0C39402500AE8
:100AB000E52C7006752C010207F3E53E2526FFE5BF
:100AC0003D3525FEE43524FDE43523FC904E091226
:100AD0002097E5322526FFE5313525FEE530352422
:100AE000FDE52F3523FC904E111220977D107F03DA
:100AF000122D4D228D12EFC8E544B4020712207268
:100B000078018008B40312122072780212205F8FDD
:100B1000168E158D148C1380231220728E138F1451
:100B2000EF139209E513C313FEE514132514FFE533
:100B3000133EFEE48F168E15F514F513904E16E055
:100B400024FFFD904E15E034FF5EFEED5F254AF573
:100B50002DEE3549F52CAF16AE15AD14AC13122D94
:100B60006B904E09E0F8A3E0F9A3E0FAA3E02FF5BB
:100B700016EA3EF515E93DF514E83CF513E5166572
:100B80002A7012E5156529700CE51465287006E5D4
:100B9000136527601D300A0712290CEF60012285BA
:100BA0001323851424851525851626122256EF60F9
:100BB0000122E5126025B4FF0474FF8006E512B43B
:100BC000010BE4F516F515F514F513800C852F16B9
:100BD000853015853114853213D20AE544640270DC
:100BE0003F852D82852C83E0F534A3E0F5358534EF
:100BF00037853536E4F534F535AE36AF37C3EF9487
:100C0000F7EE94FF4003D38001C39209E512600D13
:100C1000852D82852C83E513F0A3E514F07F002257
:100C2000E5446403705A852D82852C83E0FCA3E0A3
:100C3000FDA3E0FEA3E0F5378E368D358C34E53725
:100C400054F0FFE516540F4FF516E537540F853471
:100C500037F534AF368535368F35AF34EFC3940F63
:100C60004003D38001C39209E5126011AF16AE159F
:100C7000AD14AC13852D82852C831220977F002222
:100C800053140F904E16E0254AFF904E15E035495B
:100C9000CF24FFCF34FFFEEF652D7003EE652C608F
:100CA00053852D82852C83E0F534852D82852C8318
:100CB000A3E0F535E5127003020D6F300923E5134B
:100CC000C454F0FFE534540F4F852D82852C83F0FA
:100CD000E514C454F0FFE513C4540F4FA3F0020D04
:100CE0006F852D82852C83E513F0E53554F045148E
:100CF000A3F0807B852D82852C83E0F534E512609E
:100D00002230090EE513C454F0FFE534540F4FFFB1
:100D10008002AF13852D82852C83EFF012290CEF12
:100D2000600122E52A2401F526E43529F525E4357C
:100D300028F524E43527F523122256EF6001228599
:100D40004A82854983E0F535E512602330090FE5D5
:100D500014C454F0FFE513C4540F4FFF8007E5356A
:100D600054F04514FF854A82854983EFF0D20A305A
:100D70000913E535C454F0FFE534C4540F4FF5377B
:100D8000E535C48005853437E535540FF536E4F58F
:100D900034F535AE36AF37C3EF94F7EE940F40031A
:100DA000D38001C392097F00221200038F33E53301
:100DB000700A1224D7EF7003020F1022E533644249
:100DC0006003AF3322904E16E024E0FF904E15E012
:100DD00034FFFEC3E53E9FE53D9E5003020F10E544
:100DE0003B700FE538700BE5397007E53A70030288
:100DF0000EA6904E14E0FFC3E5489FFFE52214FEC7
:100E00005FF533E53E6008EE65336003020F107F47
:100E100038E4FD120AF4EF600122200903020F10EA
:100E2000122DBFEF6001227F387D02120AF4EF60BD
:100E3000012212290CEF600122122E89E4FFFE909C
:100E40004E15E06EFCA3E06F4C6013E54A2FF5826F
:100E5000E5493EF583E4F00FBF00010E80E1E4F5C3
:100E600033122B2DE53E7010F53DF53E8526488565
:100E70002547852446852345852234E534602012A4
:100E80002153EF600122E5262401F526E43525F5FE
:100E900025E43524F524E43523F523153480DC12CC
:100EA000271BEF606B22E53E7066E54824FFF5489E
:100EB000E54734FFF547E54634FFF546E54534FFA1
:100EC000F545F52312224DEF600122E4F53DF53E94
:100ED000D3904E16E0953E904E15E0953D402EE5A0
:100EE0004A253EFFE549353D8F82F583E0B4E510A4
:100EF000E582240BF582E43583F583E0540E60101F
:100F00007420253EF53EE4353DF53D80C37FB22299
:100F1000122DBFEF60012212290CEF6001228532F1
:100F20003B85313A853039852F3812271BEF600118
:100F30002212224AEF600122E54A253EFFE54935AB
:100F40003DFEE4FDEDC3940B50047C2080027C0048
:100F5000EF2DF582E43EF583ECF00DBD20E6EF24A5
:100F600018F582E43EF5837421F0A37430F0EF2489
:100F70001CF582E43EF5837401F0E4FDEDC3940BAF
:100F80005021A82BE6FC601BECB42E047D08052B39
:100F9000A82BE6FCEF2DF582E43EF583ECF00D0581
:100FA0002B80D9853B34853A35853936853837EFFE
:100FB000241AF582E43EF583E534F0A3E535F0EF3D
:100FC0002414F582E43E12214AEF600122853B326F
:100FD000853A3185393085382FE4F543F542F541BE
:100FE000F540F54FF54EF54DF54CF5337D147F107A
:100FF000122D4D22E53FD394145007E53FC39412C0
:1010000050037FB4227850E6FF08F67006300B03D9
:101010000211D8E47850F67852F608F67851E67066
:101020000302115CE533F4704AE53B700CE538705F
:1010300008E5397004E53A602DE53FB41209E5444E
:10104000640360037FB122AF32AE31AD30AC2F7894
:101050005A12208B122DCBEF6001227F5A7D021293
:101060000AF4EF60082212281CEF60012278531660
:10107000E4F533122B2D7852E66069E52EB40904AD
:101080007F408014E52EB40A047F20800BE52EB447
:101090000B047F1080027F08EF3395E0FE7852E664
:1010A000C39FEE6480F8748098502E7852E6FFE477
:1010B000FCFDFE785412207EEF2BFFEE3AFEED3958
:1010C000FDEC38FCEF6526FFEE6525FEED6524FDA1
:1010D000EC6523FC4D4E4F600B1219BAEF600122F4
:1010E000E47852F67852E6700DAF26AE25AD24AC0A
:1010F00023785412208BC3E5229533FF7851E6FE06
:10110000EFD39E400CE60826F618E62533F533802B
:101110004B7852EF26F6C318E69FF6E6701878591A
:10112000E6654A700418E66549700B1219BAEF605B
:101130000122E47852F67F2FE4FD120AF4EF6001F9
:10114000223009067533FF02101C85342F85353097
:10115000853631853732E4F53302101C300A071228
:10116000290CEF6001227852E660071219BAEF608D
:1011700001227853E66035AF32AE31AD30AC2F7816
:101180005A12208B7853E6FFE4EFF53274FFF53105
:10119000F530F52F122725CBEFCB785A1220728F1E
:1011A000328E318D308C2FEB6002FF22AF4FAE4E6E
:1011B000AD4DAC4CAB43AA42A941A840C312203B61
:1011C000500E854F43854E42854D41854C40D20B94
:1011D000E53C30E406300B03022B787F0022E53F2C
:1011E00064156007122C6CEF6001227850E6F52B35
:1011F0007006300B03021395E47850F6E52B70036C
:1012000002138DE533F47077E53B700CE538700818
:10121000E5397004E53A602585324F85314E8530D9
:101220004D852F4C122DCBEF6001227F4C7D021299
:101230000AF4EF60012212290CEF60082212281C28
:10124000EF60012285324F85314E85304D852F4C20
:1012500074FFF532F531F530F52F122725CBEFCBA2
:10126000854F32854E31854D30854C2FEB60012204
:1012700085434F85424E85414D85404CE4F5331200
:101280002B2D122256EF600122904E15E0FCA3E0B8
:10129000FD24FFFBEC34FF554EFEEB554FFFC3ED35
:1012A0009FFFEC9EFEC3EF952BEE94004005852B2F
:1012B000348006E54FF404F534904E16E024FFFD2B
:1012C000904E15E034FF554EFEED554F254AF52D55
:1012D000EE3549F52CAF34E4FCFDFEE54F2FF54F1C
:1012E000EE354EF54EED354DF54DEC354CF54CC328
:1012F000E52B9534F52B7850E62451FFE53426F69E
:10130000C8EFC8E6852D82852C83F0052DE52D706C
:1013100002052C0FD534E9122153EF600122AF4FA3
:10132000AE4EAD4DAC4CAB43AA42A941A840C3124E
:10133000203B500E854F43854E42854D41854C40A4
:10134000D20B904E16E024FFFD904E15E034FF5571
:101350004EFEED554F4E60030211FC0533E533C3DD
:10136000952250030211FC7F2FE4FD120AF4EF6076
:1013700001223009067533FF0211FC85342F8535B3
:1013800030853631853732E4F5330211FCE53C30E7
:10139000E406300B03022B787F0022E4F532F531AE
:1013A000F530F52F904E0DE0FCA3E0FDA3E0FEA389
:1013B000E0FFAB32AA31A930A82FD312203B400363
:1013C0007FB122E5322401F532E43531F531E435DF
:1013D00030F530E4352FF52F7F2FE4FD120AF4EFBE
:1013E000600122E537700FE534700BE5357007E5D5
:1013F000367003021527E544640160A885492C85F1
:101400004A2DE54464027051904E15E0C313FEA3CB
:10141000E01324FFFFEE34FFF5348F35F5368F37B8
:101420007402252DF52DF582E4352CF52CF583E09D
:101430007011A3E0700D852D82852C8374FFF0A3BD
:101440000214AFE5356009D535D6E534600880D0A3
:101450001534153580CA02150E904E15E0FEA3E036
:101460007802CEC313CE13D8F924FFFFEE34FFF574
:10147000348F35F5368F377404252DF52DE4352C52
:10148000F52C852D82F583E060030214F3A3E06060
:10149000030214F3A3E0705BA3E0540F7055852D95
:1014A00082852C8374FFF0A3F0A3F0A3E0440FF037
:1014B000AE36AF37EF4532FFEE4531FEE530FDE5A4
:1014C0002FFCEEC0E0EFC0E0E53524FFFFE534344B
:1014D000FFCBEFCBFAD0E0FFD0E0FEC3EF9BF532BD
:1014E000EE9AF531ED9400F530EC9400F52FD20A28
:1014F0007F0022E53560101535E53560030214776D
:10150000E534600A02147715341535021477AE36C7
:10151000AF37E5324FF532E5314EF531E530F53094
:10152000E52FF52F0213A47F2F7DFF120AF4224529
:1015300072726F723A20253032580A002E20202015
:1015400020202020202020100000000000000000AB
:101550000000000021300000000000002E2E20209E
:10156000202020202020201000000000000000008B
:1015700000000000213000000000000000537461F2
:1015800072740A005761697420556469736B0A00AC
:101590005265616479203F0A00546F6F206C61725C
:1015A000676520736563746F722073697A650A00DA
:1015B000437265617465204C6576656C203120440A
:1015C00069726563746F7279202F594541523230C8
:1015D0003034200A002F5945415232303034004314
:1015E0007265617465204E65772046696C65202FB1
:1015F00059454152323030342F44454D4F3230300E
:10160000342E545854200A002F594541523230305C
:10161000342F44454D4F323030342E5458540057F7
:101620007269746520736F6D6520646174612074E4
:101630006F2066696C652044454D4F323030342E42
:10164000545854200A00D1DDCABECAFDBEDD0D0AC1
:1016500000436C6F73652066696C652044454D4F8F
:10166000323030342E545854200A0043726561746D
:1016700065204C6576656C20322044697265637420
:101680006F7279202F59454152323030342F4D4FEF
:101690004E54483035200A002F59454152323030DF
:1016A000342F4D4F4E5448303500436C6F73650AEC
:1016B0000054616B65206F75740A00300C0A7F342A
:1016C000122DD8EF423580077D037F34122E2E90E5
:1016D000BDF1742BF0000000E4F54B90BCF0741FDA
:1016E000F000007455F000007453F000007442F0F4
:1016F000000004F000007403F000007407F0000024
:101700007405F00000740AF00000E4F0E52E24F8FF
:10171000F8E537C333D8FC90BCF0F00000E4F000EB
:1017200000F000E5355480F000E535540FF000007E
:10173000740AF0E53530E7047F2880027F2A90BCE8
:10174000F0EFF00000E4F0E53530E6117854E6F013
:101750000008E6F00008E6F00008E6801490BCF00F
:10176000E523F00000E524F00000E525F00000E5A9
:1017700026F00000E490BCF0F00000F00000E53737
:10178000F00000E4F00000F00000F00000F00000C5
:10179000F00000F00000F000007F31122DD8EFF5CE
:1017A00035CD7F1E122E2E7F33122DD87D4F122C59
:1017B000BBE54B7007E5356440FD80027D007F315D
:1017C000122E2EE54B603B854B35E54B64166005CC
:1017D0007F52122D88E54BB416037F82227F32128E
:1017E0002DD8EFC4540F4480FF7D41122CBB7F33B2
:1017F000122DD8EFC4540FFF7D41122CBBAF358F93
:101800004B22300C047F3680027F35E52E24F7F81A
:10181000E537088002C333D8FCFD122E2E300C04AD
:101820007F3780027F367D08122E2E7F20122DD822
:10183000EF4408FD7F20122E2E7F00227509FFE461
:10184000FB74502BF8E6601774502BF8E6645C606C
:101850000874502BF8E6B42F028B090BBB1EE2E490
:10186000FBE5096009B402117851E6B43A0BE4F5DE
:101870000DF50CF50BF50A8030E509F4601F745086
:101880002509F8E4F6120003AB07EB70047BB38084
:1018900005BB4102E4FB74502509F8765C853B0DDD
:1018A000853A0C85390B85380AEB60030219B712AB
:1018B0000003AB07EB70057B430219B7BB4105E49E
:1018C000FB0219B7EB644260030219B7120DA9AB12
:1018D00007EB60030219B7750E10750F0075101530
:1018E00075113C7B40851182851083E493850F82BE
:1018F000850E83F0050FE50F7002050E0511E51149
:1019000070020510DBDF783BE690101AF018E6A3B2
:10191000F018E6901014F018E6A3F0780DE6901099
:101920003AF018E6A3F018E6901034F018E6A3F0A9
:101930007F407E00904E15E06E7003A3E06F60174D
:10194000850F82850E83E4F0050FE50F7002050E0A
:101950000FBF00010E80DD78507601122EADAB076F
:10196000EB7054750E10750F007B40850F82850E4D
:1019700083E4F0050FE50F7002050EDBEE7509013B
:10198000E5096522601078507601122EADAB07EBA9
:101990007004050980EAE509B5221C78501220A3DD
:1019A0000000000074FF7854F608F608F608F60800
:1019B0007610122343AB07AF0322E4F536E53C2053
:1019C000E654E52E6409604E7535407852E6F537E9
:1019D0001216BBEF6003021AFE853C37E53C131379
:1019E0005403FFE53C54FC4FF53CE52EB409047F5D
:1019F000088014E52EB40A047F10800BE52EB40B8A
:101A0000047F2080027F407852E6FEEF8EF0A485AE
:101A1000F034F535806D90BDF17456F00000000093
:101A2000E4F54B7857E690BCF0F0000018E6F000C3
:101A30000018E6F0000018E6F000007852E6F085A5
:101A40003C37E53C13135403FFE53C54FC4FF53C95
:101A5000E52EB409047F088014E52EB40A047F1033
:101A6000800BE52EB40B047F2080027F407852E685
:101A7000FEEF8EF0A485F034F535122C41E54B6471
:101A80001E707BE537540C60137858E6FE08E6FFBD
:101A900012260B7858EEF608EFF6801790BDF17419
:101AA0002BF000000000E4F54B90BCF07440F0FF18
:101AB000122ED890BDF17457F0E54F2440F54FE455
:101AC000354EF54EE4354DF54DE4354CF54CE535E8
:101AD0006009D535A5E5346008809F15341535803B
:101AE0009985373C122C41E54BB41412E53C20E5B6
:101AF00003122ECE7852E6785026F67F00228537E4
:101B00003CE536C394055022E54B6416601C12294F
:101B10007AE53C540C7004FF122ED8E536C39401CC
:101B20004003122A3505360219BD122E1A122A3523
:101B300022E53FD394145007E53FC3941250037F2E
:101B4000B4227850E608F6E418F67852F6C3E54376
:101B5000954FFFE542954EFEE541954DFDE54095DB
:101B60004CFC122D6B8F378E368D358C34E53570ED
:101B700004E5366006785376FF80047853A63778FC
:101B800051E67003021C867853E67003021C86E55A
:101B900033F47003021C86122B2D7852E66069E53F
:101BA0002EB409047F408014E52EB40A047F2080FF
:101BB0000BE52EB40B047F1080027F08EF3395E015
:101BC000FE7852E6C39FEE6480F8748098502E78B9
:101BD00052E6FFE4FCFDFE785412207EEF2BFFEE70
:101BE0003AFEED39FDEC38FCEF6526FFEE6525FE8B
:101BF000ED6524FDEC6523FC4D4E4F600B121DCBB3
:101C0000EF600122E47852F67852E6700DAF26AE0E
:101C100025AD24AC23785412208BC3E5229533FFE5
:101C2000F5347853E6FEEFD39E4003E6F534E53411
:101C3000D3785196400CE60826F618E62533F5339E
:101C40008049C37851E69534F608E53426F6C30892
:101C5000E69534F6E5342533F53365226003021B3F
:101C60007F7F2FFD120AF4EF6001223009067533E1
:101C7000FF021B7F85342F8535308536318537321D
:101C8000E4F533021B7F7852E66003021DCB7F0030
:101C900022D294C2947F64122DA4D294122E697B16
:101CA000FF7A15797D1204E2122D048F08122D2778
:101CB0007BFF7A1579841204E2E53F640260051225
:101CC0002C4180F5C2947FC8122DA4E4F5087F64EE
:101CD000122DA47BFF7A1579901204E2122A8DEF5F
:101CE00060090508E508C3940540E3D3904E16E06B
:101CF0009400904E15E0941040167BFF7A15799968
:101D00001204E2122C0AEF70A77F64122DA480F354
:101D1000C2957BFF7A1579B01204E27F507C157D65
:101D2000D5122E56C29612183C8F08122D277BFF13
:101D30007A1579DF1204E27F507C167D08122E5648
:101D4000120DA98F08122D277BFF7A16791F120416
:101D5000E27F517C167D46122E568F087850A608D9
:101D60001211DE8F08122D277BFF7A16795112048B
:101D7000E27850760112279C8F08122D277BFF7A7C
:101D800016796B1204E27F507C167D98122E561243
:101D9000183C8F08122D277BFF7A1679AA1204E2CD
:101DA000E47850F612279C8F08D296D2957BFF7A62
:101DB0001679B11204E2E53F64016005122C4180FE
:101DC000F5D2947FC8122DA4021CB0E4F536E53C90
:101DD00020E61FE52E640960197535C07852E6F5D6
:101DE000371216BBEF6003021ED090BDF17455F0A0
:101DF000802990BDF17454F000000000E4F54B78A8
:101E000057E690BCF0F0000018E6F0000018E6F08D
:101E1000000018E6F000007852E6F0853C37E53C1B
:101E200013135403FFE53C54FC4FF53CE52EB40975
:101E3000047F088014E52EB40A047F10800BE52E81
:101E4000B40B047F2080027F407852E6FEEF8EF0D4
:101E5000A485F034F535122C41E54B641D7071E515
:101E600037540C60137858E6FE08E6FF1226947883
:101E700058EEF608EFF6801590BDF17428F00000DA
:101E80000000E4F54B90BCF0E0FF122ED790BDF1BE
:101E90007455F0E54F2440F54FE4354EF54EE435EA
:101EA0004DF54DE4354CF54CE5356009D535A7E5E4
:101EB00034600880A115341535809B85373C122C81
:101EC00041E54BB4140A7852E6785026F67F00229A
:101ED00085373CE536C394055022E54B6416601CFB
:101EE00012297AE53C540C7004FF122ED7E536C354
:101EF00094014003122A350536021DCE122E1A1205
:101F00002A3522E53F64156007122C6CEF60012230
:101F10007850E6F52BE4F6E52B7003022038904E5E
:101F200015E0FCA3E0FD24FFFBEC34FF554EFEEB77
:101F3000554FFFC3ED9FFFEC9EFEC3EF952BEE9434
:101F4000004005852B348006E54FF404F534AF34AA
:101F5000EF254FFFE4354EFEE4354DFDE4354CFCF6
:101F6000AB43AA42A941A840D312203B500CC3E581
:101F700043954FF5347003022038122B2D12225650
:101F8000EF600122904E16E024FFFD904E15E034E4
:101F9000FF554EFEED554F254AF52DEE3549F52CF2
:101FA000AF34E4FCFDFEE54F2FF54FEE354EF54E18
:101FB000ED354DF54DEC354CF54CC3E52B9534F531
:101FC0002B7850E62451FFE53426F6852D82852CAA
:101FD00083E0C8EFC8F60F052DE52D7002052CD55E
:101FE00034E9904E16E024FFFD904E15E034FF5585
:101FF0004EFEED554F4E6003021F170533E533C308
:1020000095225003021F177F2FE4FD120AF4EF60A0
:1020100001223009117533FF854F43854E42854DAE
:1020200041854C40801285342F8535308536318589
:102030003732E4F533021F177F0022EB9FF5F0EAF9
:102040009E42F0E99D42F0E89C45F022E8600FECEA
:10205000C313FCED13FDEE13FEEF13FFD8F122E8DE
:10206000600FEFC333FFEE33FEED33FDEC33FCD8EE
:10207000F122E6FC08E6FD08E6FE08E6FF22E6FBA4
:1020800008E6F908E6FA08E6CBF822ECF608EDF6E1
:1020900008EEF608EFF622ECF0A3EDF0A3EEF0A3C5
:1020A000EFF022D083D082E493F608740193F6080F
:1020B000740293F608740393F6740473BB010689E3
:1020C000828A83E0225002E722BBFE02E322898259
:1020D0008A83E49322BB010CE58229F582E5833AE9
:1020E000F583E0225006E92582F8E622BBFE06E9E8
:1020F0002582F8E222E58229F582E5833AF583E438
:102100009322BB010689828A83F0225002F722BB08
:10211000FE01F322FAE6FB0808E6F925F0F618E6D8
:10212000CA3AF622D083D082F8E4937012740193F5
:10213000700DA3A393F8740193F5828883E47374FC
:1021400002936860EFA3A3A380DFF583E536F0A3D5
:10215000E537F0E4F536E53C20E63CE52E64096021
:1021600036E4F5357537011216BBEF600302222401
:10217000854927854A28E52EB409047F088014E59F
:102180002EB40A047F10800BE52EB40B047F208050
:10219000027F408F35805990BDF17456F0000000E9
:1021A00000E4F54B90BCF0E526F00000E525F000DA
:1021B00000E524F00000E523F000007401F08549FB
:1021C00027854A28E52EB409047F088014E52EB43B
:1021D0000A047F10800BE52EB40B047F2080027F61
:1021E000408F35E535601E122C41E54B641E70347E
:1021F000AF28AE2712260B8E278F2890BDF174577B
:10220000F0153580DE852327852428852529852618
:102210002A122C41E54BB4140BE53C20E503122EA9
:10222000CE7F0022E536C394055015E54B64166059
:102230000FE536C394014003122A350536022156B4
:10224000122E89122E1A122A3522854523854624FC
:10225000854725854826E526652A7015E5256529E3
:10226000700FE52465287009E523652770030223B4
:1022700040E4F536E53C20E61DE52E64096017755F
:1022800035807537011216BBEF600302231B90BD2A
:10229000F17455F0802790BDF17454F000000000F7
:1022A000E4F54B90BCF0E526F00000E525F00000D9
:1022B000E524F00000E523F000007401F0854927D3
:1022C000854A28E52EB409047F088014E52EB40A57
:1022D000047F10800BE52EB40B047F2080027F402A
:1022E0008F35E535601E122C41E54B641D702CAF17
:1022F00028AE271226948E278F2890BDF17455F0B2
:10230000153580DE85232785242885252985262ADD
:10231000122C41E54BB414037F0022E536C394052B
:102320005015E54B6416600FE536C3940140031267
:102330002A350536022274122E89122E1A022A35E7
:102340007F0022E53FC3941350037FB42212224A38
:10235000EF600122C20AE54A253EFFE549353DCB43
:10236000EFCBFA7858E6FFEB240BF582E43AF583DD
:10237000E0F6EFF460138B828A83E582240BF5820A
:10238000E43583F583EFF0D20A7856E6F53708E6B0
:10239000F536EB2416FFE43AFE122E7F18EEF6080F
:1023A000EFF6E536F4FEE537F44E6012EB2416F551
:1023B00082E43AF583E536F0A3E537F0D20A7854A3
:1023C000E6F53708E6F536EB2418FFE43AFE122E60
:1023D0007F18EEF608EFF6E536F4FEE537F44E60CA
:1023E00012EB2418F582E43AF583E536F0A3E537DD
:1023F000F0D20A7850122072785C12208BEB241CE9
:10240000FFE43AFE122E0A785012208B785CE6F434
:10241000601E1220728F438E428D418C40122EC25C
:10242000EB241CF582E43AF583122097D20AC20B02
:10243000300A05C20A0221537F00227535327F53CC
:10244000122D88E54B7060122EB8E54A2406F582FD
:10245000E43549F583E0FFB40405752E0A8015EFD5
:10246000B40805752E0B800CEFB41005752E0C808A
:1024700003752E0974017E00A82E088005C333CE93
:1024800033CED8F9904E16F0EE904E15F0E52E248E
:10249000F7FF7408C8EFC8088002C333D8FCFD7F7B
:1024A00039122E2E7F0022E54B64166027E54B641F
:1024B0001560217F32122DEF300C0B854B367F5A81
:1024C000122D8885364B7F0A122DEF1535E53560C4
:1024D0000302243EAF4B22E53FC394135007120082
:1024E00003EF600122122D49EF60012212224AEF10
:1024F000600122E54A253EFFE549353D8F82F5839F
:1025000074E5F0122153EF600122AF3BAE3AAD39D2
:10251000AC388F378E368D358C34EC4D4E4F604E47
:10252000E53B24FFF53BE53A34FFF53AE53934FF66
:10253000F539E53834FFF538E4F532F531F530F5A5
:102540002F7F347D01120AF4EF600122E53224016D
:10255000F532E43531F531E43530F530E4352FF539
:102560002F3009DD12290CEF6001220227257F00A0
:1025700022E53B700CE5387008E5397004E53A60F7
:102580007B853B32853A3185393085382FAF22E45F
:10259000FCFDFE785012207EC312203B40417F2F6D
:1025A000E4FD120AF4EF60012220095085342F85E2
:1025B00035308536318537327850122072EFC0E0E1
:1025C000AF22CBEFCBD0E0FFC3EF9BFFEE9400FE3A
:1025D000ED9400FDEC9400FC785012208B80AE78D6
:1025E00053E6FFE522145FF533122B2DAF26AE25FF
:1025F000AD24AC23785012208B7F00227533FF78F6
:10260000501220A3FFFFFFFF7F002290BDF1742B2B
:10261000F0E4F54BE53C54036403FD744090BCF0DA
:10262000F0CD60411460118F828E83E090BCF0F099
:102630000FBF00010EDDF02205A28F828E837D1078
:10264000E0A305A2F005A2E0A305A2F005A2E0A385
:1026500005A2F005A2E0A305A2F005A2DDE2AF828B
:10266000AE8305A222EFC582F9EEC583C5A0F5F0C1
:102670007D08E0A3F3E0A3F3E0A3F3E0A3F3E0A37A
:10268000F3E0A3F3E0A3F3E0A3F3DDE685F0A0AF6E
:1026900082AE832290BDF17428F0E4F54BE53C5402
:1026A000036403FD90BCF0E0CD604114601190BC68
:1026B000F0E08F828E83F00FBF00010EDDF0220567
:1026C000A28F828E837D1005A2E005A2F0A305A251
:1026D000E005A2F0A305A2E005A2F0A305A2E00593
:1026E000A2F0A3DDE2AF82AE8305A222EFC582F99C
:1026F000EEC583C5A0F5F07D08E3F0A3E3F0A3E306
:10270000F0A3E3F0A3E3F0A3E3F0A3E3F0A3E3F08B
:10271000A3DDE685F0A0AF82AE832274FFF532F52B
:1027200031F530F52F904E04E0FCA3E0FD4C700233
:10273000FF22CFEDCFCEECCEE4FCFD904E00E0F8D2
:10274000A3E0F9A3E0FAA3E02FF526EA3EF525ED94
:1027500039F524EC38F523122256EF600122E54AC0
:1027600024E8FFE5493401FE122E0AE5322FF53246
:10277000E5313EF531E5303DF530E52F3CF52FAF45
:1027800032AE31AD30FC122EC2E54A24E8F582E5C6
:10279000493401F58312209712215322E53FC39457
:1027A0001250037FB422E53F6412704FE544640386
:1027B0006049904E1AE0F522AE42E543A82E08800B
:1027C00005CEC313CE13D8F9FFE4FCFD904E1712CB
:1027D0002097904E11E0F8A3E0F9A3E0FAA3E0FB04
:1027E000904E1AE0FFE4FCFDFEEB2FFFEE3AFEED0B
:1027F00039FDEC38FC904E11122097E53FD394132D
:10280000400AE53FB414077850E67002C20B300B63
:1028100007122B78EF600122122D49221213A4EF28
:10282000600564B1600122EF600712139BEF600145
:102830002212290CEF60012285323B85313A853026
:1028400039852F3812224AEF600122E54A253EFFE2
:10285000E549353DFEF583EF241CF582E43583F52B
:10286000837401F0853B34853A35853936853837B0
:102870008F828E83E582241AF582E43583F583E521
:1028800034F0A3E535F08F828E83E5822414F5823F
:10289000E4358312214A227533057D067F65122EA9
:1028A00042E4F53F90BCF0E0B49A0F7D067F9A12A7
:1028B0002E4290BCF0E064656009122CE0D533DA5A
:1028C0007F8122904E157402F0A3E4F090BDF104D4
:1028D000F000000000C20C533CBF90BCF0E0F533A8
:1028E000C394A2400BE53394B64003433C40D20C62
:1028F000753F017D157F06122E427F01122DEF904C
:10290000BCF0E0B45F037F81227F0022852723850E
:102910002824852925852A26122153EF600122903B
:102920004E06E0FEA3E0FF4E604BE4FCFDE5262FE3
:10293000F526E5253EF525ED3524F524EC3523F582
:1029400023122153EF600122904E06E0FEA3E0FB2C
:10295000CAEECAC3E5269BF526E5259AF525E524AA
:102960009400F524E5239400F523F5278524288594
:10297000252985262AC20A7F00227852E67E00A8F1
:102980002E088005C333CE33CED8F9FDCCEECCE58E
:1029900035AE347806C333CE33CED8F9FFC3ED9FBE
:1029A000F535EC9EF534AE34AF35CBEFCBCAEECA7D
:1029B000C3E54F9FF54FE54E9AF54EE54D9400F572
:1029C0004DE54C9400F54CC3E49535FFE49534FE99
:1029D0007859EF26F618EE36F622E53FC3941250EA
:1029E000037FB422AF43AE42AD41AC40122D6B8F9A
:1029F000378E368D358C34785012207ED312203BA2
:102A0000400DAF37AE36AD35AC34785012208B78F0
:102A100050122072E52E24F8F9F812205F8F378EBD
:102A2000368D358C3485354C85364D85374EE4F5FD
:102A30004F12257122753532122EC9D535FA90BD47
:102A4000F17422F00000000090BCF0E0E54B641649
:102A5000600FE53F640160097F20122DD8EF20E56B
:102A600006753F017F8222300C19E53FC394034075
:102A700012854B35E4F54B90BDF1745AF0122C41A0
:102A800085354BE54B70037F1022AF4B22122C0A89
:102A9000EF60037F8222E53FC39403501B122ADEBE
:102AA000EF600C7F32122DEF122ADEEF600122124E
:102AB000243BEF6003022A35300C207F59122D8809
:102AC000AF4B8F35EF7002FF227F0A122DEF7F5A36
:102AD000122D887F02122DEFAF35227F0022122C9B
:102AE0000AEF60037F82227F51122D88E54B7032FE
:102AF0007D037F02122D4D300C257F38122DD8EF2B
:102B0000601D122EB8854A82854983E0B405107D88
:102B1000017F34122E2E7F58122D88E54B70037FD3
:102B200000227D027F02122D4D122A3522E5322429
:102B3000FEFFE53134FFFEE53034FFFDE52F34FFC5
:102B4000FC904E08E0F9F812205F904E11E0F8A3D7
:102B5000E0F9A3E0FAA3E02FFBEA3EFAE93DF9E849
:102B60003CF8E4FCFDFEEB2533F526EE3AF525EDC9
:102B700039F524EC38F52322C20BE53FC394144009
:102B80003E12224AEF600122E54A253EFFE5493523
:102B90003DCBEFCBFAF583EB240BF582E43583F5DF
:102BA00083E020E41AAF43AE42AD41AC40122EC2E6
:102BB000EB241CF582E43AF5831220970221537F1F
:102BC0000022E53F64156007122C6CEF600122784B
:102BD000501220728F4F8E4E8D4D8C4CAB43AA42BB
:102BE000A941A840C312203B500C85434F85424E5B
:102BF00085414D85404CAF4FAE4EAD4DAC4C122D86
:102C00006B785012208B1225712290BDF17422F046
:102C10000000000090BCF0E0E4F54B7F20122DD8BE
:102C2000EF30E517E53FC39402400A7F1B122DD811
:102C3000EF547F7003753F027F0022753F017F8252
:102C40002220B2FD90BDF17422F0534B80E54B6021
:102C500003E4F54B90BCF0E0F54BE54BB41604757E
:102C60003F0122E54BB41503753F0222E53F641492
:102C700060037FB422853B32853A3185393085380F
:102C80002FE4F54FF54EF54DF54CF5337D157F14DA
:102C9000122D4D22EFB40A07740D122C9F740A30C6
:102CA0009811A899B8130CC2983098FDA899C298A9
:102CB000B811F63099FDC299F5992290BDF1EDF069
:102CC00000000000E4F54B90BCF0EFF0122C41E561
:102CD0004B7004754B1022E54BB41403E4F54B2202
:102CE00075368090BDF17401F00000000090BCF0DA
:102CF000E0FFD536EE90BDF17405F0000000007FD6
:102D000032022DEFE581D394F040037FFC22753C25
:102D100005122ED3EFC3943550037FFF227549006F
:102D2000754A0012289722EF601E7BFF7A15792FD3
:102D3000750C008F0D1204E2C2947FC8122DA4D22C
:102D4000947FC8122DA480F0227D107F10E53FC330
:102D50009F40028D3FE53F6D7002FF22753F0112DB
:102D60002C0AEF60037F82227F8322C3E4CC13CD41
:102D700013CE13FFE52E24F7600DF8C3ED13FDEE1F
:102D800013FEEF13FFD8F422E4F54B90BDF1EFF002
:102D9000122C41E54B7004754B1022E54BB4140323
:102DA000E4F54B22EF60177EC874032509F509DEB0
:102DB000F87EC874032509F509DEF81F80E6228530
:102DC0003B32853A3185393085382F1213A4EF64B0
:102DD000B160012212139B2290BDF1740AF0000031
:102DE000000090BCF0EFF000006003E0FF2222EF53
:102DF00075F005A4F536E536600A122EC9122EC903
:102E0000153680F222FFE43549FE8F828E83E0FF83
:102E1000A3E0FEA3E0FDA3E0FC22E53FB4120475AD
:102E20003F0322E53FD394104003753F102290BD2D
:102E3000F1740BF00000000090BCF0EFF00000ED2A
:102E4000F02290BDF1EDF000000000E4F54B90BCE5
:102E5000F0EFF00000228D828C83A807E4FFE4935A
:102E6000F6600508A30F80F6227598507587807567
:102E70008921758DF3D28ED29922FFE43549FE8FD8
:102E8000828E83E0FFA3E0FE2274FFF52AF529F588
:102E900028F527C20A22787FE4F6D8FD75816D02F5
:102EA0001C9178587610087600121B3122785876DB
:102EB00010087600120FF422122E89AF4AAE490292
:102EC0002694EFCCFFEECDFE227F96DFFE227FFA26
:092ED000DFFE227F3522222222BE
:00000001FF
