:1000000002286A7F2212276E1227E090022EE0C398
:1000100094105007120CAAEF600122122670EF60B4
:100020000122C20B900241E0645C6004E0B42F083E
:10003000750802750942801D900242E0643A60032F
:1000400002011C900241E0C39443500302011C755D
:100050000802750944900234E0FBB40310900239A1
:10006000E0FCA3E0FDA3E0FEA3E0FF8005E4FFFECB
:10007000FDFC900223121C07850982850883E0603D
:100080000302012290022F121C13FFFFFFFFEB64FB
:1000900003605D9002267402F090022AE0FCA3E067
:1000A000FDA3E0FEA3E0FFEFC0E090023CE0FBD048
:1000B000E0FFC3EF9BFFEE9400FEED9400FDEC9497
:1000C00000FC90022A121C0790023BA3E07F00254F
:1000D000E0FEE4FCFD90022F121C07900200E0FFFE
:1000E000E4FCFDFE900239121C079002007480F0BF
:1000F000900223E0FCA3E0FDA3E0FEA3E0FF90025A
:1001000012121C0790023D121C1300000000E49024
:10011000021AF090022E7412F07F412275080275C7
:100120000941850982850883E0B4E5037405F090F0
:100130000226E0700E900223E07008A3E07004A392
:10014000E06046900200E090021AF0900223E0FC8A
:10015000A3E0FDA3E0FEA3E024FEFFEE34FFFEEDEE
:1001600034FFFDEC34FFFC900211E0F9F8121BF4AF
:1001700090022AE0F8A3E0F9A3E0FAA3E02FFFEA57
:100180003EFEE93DFDE83C802490023CE090021AEE
:10019000F0FB90022AE0FCA3E0FDA3E0FEA3E0C395
:1001A0009BFFEE9400FEED9400FDEC9400FC9002A9
:1001B00035121C0790021AE07003020543121AC29E
:1001C000EF600122E4900228F0A3F0900228E0FE04
:1001D000A3E0FFC3EE9402400302051BEF2400F5E9
:1001E0000BEE3400F50A850B82F583E0FF70030205
:1001F000058AEF64E5700302050AEFB405027FE5A6
:10020000850982850883E0FE6F6008EE642A60033A
:1002100002050AE4900222F0FFEFC3940B400302B0
:1002200002C6900222E02509F582E43508F583E054
:10023000FEE50B2FF582E4350AF583E0FD6E607C68
:10024000900222E02509F582E43508F583E0602379
:10025000900222E02509F582E43508F583E0645C2C
:100260006011900222E02509F582E43508F583E06B
:10027000B42F1FED6420704EEFC394085010E50BAF
:100280002408F582E4350AF583E0642070387F0B9A
:100290008034900222E02509F582E43508F583E0F8
:1002A000642E7022900222E06408600EE50B2FF5A8
:1002B00082E4350AF583E0B4200C7F070F90022218
:1002C000E004F0020219EFC3940B50030203DCE5D3
:1002D0000B240BF582E4350AF583E030E3030203D7
:1002E000DCC209E50B241AFFE4350AFE122876E485
:1002F000FCFD900223121C07900234E0B40314E5C5
:100300000B2414FFE4350AFE122876900223EEF047
:10031000A3EFF0900222E02509F582E43508F58389
:10032000E060062009030203C5900223E0FCA3E07D
:10033000FDA3E0FEA3E0FF900212121C0790023D15
:10034000121C1300000000E490021AF0E50B240BCD
:10035000F582E4350AF583E030E41F90022F121C89
:1003600013FFFFFFFF7D137F10122674EF60012241
:100370003009047F4380027F4122E50B241CFFE407
:10038000350AFE12284190022F121C07900226E027
:10039000701E900223E07018A3E07014A3E07010A8
:1003A00090021A74FFF090022F121C13000000003C
:1003B0007D147F10122674EF6001223009047F4300
:1003C00080027F0022900222E02401FFE433FEEF4E
:1003D0002509F509EE3508F508020122900222E010
:1003E0002509F582E43508F583E0642A60030205F7
:1003F0000AE50B240BF582E4350AF583E030E303CC
:1004000002050A900222E02401FFE433FEE5092FF1
:10041000F582E5083EF583E0707CE4FF900220F071
:10042000E50B2FF582E4350AF583E06420604EEF9A
:10043000B40816900220E02509F582E43508F5831A
:10044000742EF0900220E004F0E50B2FF582E435E5
:100450000AF583E0FE900220E02509F582E43508E4
:10046000F583EEF0900220E0700D85098285088307
:10047000E0B4050374E5F0900220E004F00FEFB45F
:100480000B9E900220E02509F582E43508F583E40F
:10049000F0D2090202E3900222E02401FFE433FEDD
:1004A000E5092FF582E5083EF583E0F470459002FA
:1004B00032E0701190022FE0700BA3E07007A3E010
:1004C000700302041A90022FE030E7031228A19073
:1004D000022FE0FCA3E0FDA3E0FEA3E024FFFFEE7B
:1004E00034FFFEED34FFFDEC34FFFC90022F121CB4
:1004F000078017900222E02401FFE433FEE5092F74
:10050000F582E5083EF583E014F0900229E024200E
:10051000F0900228E03400F00201CB900235E0FCBC
:10052000A3E0FDA3E0FEA3E02401FFE43EFEE43DE2
:10053000FDE43CFC900235121C0790021AE014F016
:100540000201B4900226E0700E900223E07008A32E
:10055000E07004A3E060337E027F23E4FD1205B661
:10056000EF60012220092390021FE0900223F09007
:100570000220E0900224F0900221E0900225F09009
:100580000222E0900226F0020122E4FFE5092FF5A5
:1005900082E43508F583E0FE6013642A600FEE64A0
:1005A0005C6004EEB42F037FB3220F80DF7F422212
:1005B0007E027F12E4FD900265EDF0900234E0B41B
:1005C00002138F828E83E0FCA3E0FDA3E0FEA3E094
:1005D000FF78018014B403198F828E83E0FCA3E0BE
:1005E000FDA3E0FEA3E0FF7802121BF490026680F8
:1005F000308F828E83A3A3E0FFA3E0900266CFF04A
:10060000A3EFF0900267E0139209900266E0C31333
:10061000FEA3E013FFE02FFF900266E03EFEE4FC45
:10062000FD121C07900268E0FEA3E0FFEE5401FEFD
:10063000EF2400F50BEE3400F50A900266E0FCA30F
:10064000E0FDA3E0FEA3E0FF122880900216E0F890
:10065000A3E0F9A3E0FAA3E02FFFEA3EFEE93DFDA7
:10066000E83CFC900266121C07900208E0FF900232
:1006700069E06F7024900207E0FF900268E06F70FD
:1006800018900206E0FF900267E06F700C90020580
:10069000E0FF900266E06F6031300A07122017EF2A
:1006A000600122900266E0900201F0900267E09003
:1006B0000202F0900268E0900203F0900269E0907C
:1006C0000204F0121AE2EF600122900265E0FF607E
:1006D00040B4FF0AA3121C13FFFFFFFF80319002FA
:1006E00065E0B4010AA3121C1300000000802090F2
:1006F0000212E0900269F0900213E0900268F0901C
:100700000214E0900267F0900215E0900266F0D2C9
:100710000A900234E0FE64027055850B82850A83DC
:10072000E0FDA3E090021FCDF0A3EDF090021FE0EA
:10073000900222F0900220E0A3F0E490021FF0A3C8
:10074000F0900221E0FCA3E0C394F7EC94FF400397
:10075000D38001C39209900265E06010A3E0FDA37D
:10076000E0850B82850A83CDF0A3EDF07F0022EEB9
:1007700064037077850B82850A83E0FCA3E0FDA308
:10078000E0FEA3E0FF90021F121C07900222E0543B
:10079000F0FF900269E0540F4FF0900222E0540FF6
:1007A000FF90021FE0900222F090021FEFF09002F3
:1007B00021E0FF900220E0A3F0900220EFF09002F1
:1007C0001FE0C3940F4003D38001C39209900265D8
:1007D000E06015A3E0FCA3E0FDA3E0FEA3E0FF853D
:1007E0000B82850A83121C077F0022900267E05467
:1007F0000FF0C3E50B9400FFE50A9400FEEFF470E0
:1008000003EE64016065850B82850A83E0FFA3E047
:1008100090021FCFF0A3EFF0900265E07003020991
:1008200001300925A3E0C454F0FF90021FE0540FEB
:100830004F850B82850A83F0900267E0C454F0FF75
:10084000900266E0C4540F8016900266E0850B8229
:10085000850A83F0900220E054F0FF900267E04F99
:10086000850B82850A83A3F0020901850B82850A24
:1008700083E090021FF0900265E06027300910A32A
:10088000E0C454F0FF90021FE0540F4FFF8005902A
:100890000266E0FF850B82850A83EFF0122017EFD6
:1008A000600122900205E0FCA3E0FDA3E0FEA3E0CE
:1008B0002401FFE43EFEE43DFDE43CFC9002011215
:1008C0001C07121AE2EF600122900000E090022063
:1008D000F0900265E0602A300913900267E0C4548A
:1008E000F0FF900266E0C4540F4FFF800D9002208D
:1008F000E054F0FF900267E04FFF900000EFF0D26D
:100900000A30091B900220E0C454F0FF90021FE05F
:10091000C4540F4F900222F0900220E0C4800C904B
:10092000021FE0900222F0900220E0540FA3F0E4B6
:1009300090021FF0A3F0900221E0FEA3E0C394F721
:10094000EE940F4003D38001C392097F0022E53A61
:10095000242EF8E6053A22782B300702782EE4752B
:10096000F001121C9C021C442000EB7F2ED2008060
:1009700018EF540F2490D43440D4FF30040BEF24EC
:10098000BFB41A0050032461FFE53B6002153B052C
:100990003EE53E7002053D30070D782BE475F00111
:1009A000121C9CEF021C8A0226997403D207800352
:1009B000E4C207F53A8B2B8A2C892DE4F53BF53DF3
:1009C000F53EE53B60077F2012098980F5753CFF05
:1009D000C201C200C202C203C205C206C208120995
:1009E00057FF700D3007057F0012099AAF3EAE3DEC
:1009F00022B4255FC2D5C204120957FF24D0B40A1D
:100A000000501A75F00A783B30D50508B6FF01068C
:100A1000C6A426F620D5047002D20380D924CFB410
:100A20001A00EF5004C2E5D204020B9AD20180C62C
:100A3000D20080C0D20280BCD2D580BAD20580B4A8
:100A40007F201209892002077401B53B0040F11292
:100A5000094EFF1209890209C2D208D206809512F6
:100A6000094EFB12094EFA12094EF94A4B700679EB
:100A70006B7A0C7BFF20022EE53B602A7E008E8283
:100A8000758300121C5D60060EEE653C70F0C2D5E9
:100A9000EBC0E0EAC0E0E9C0E0EE120BE1D0E0F923
:100AA000D0E0FAD0E0FB121C44FF60AAEBC0E0EA01
:100AB000C0E0E9C0E0120989D0E02401F9D0E034B7
:100AC00000FAD0E0FBE53C0460DCD53CD980877BB4
:100AD000FF7A0B79DDD202809C791080027908C2FE
:100AE00006C2088008D2D5790A8004790AC2D5E501
:100AF0003C047002F53CE4FAFDFEFF12094EFC7B5B
:100B00000820011312094EFD7B1030000A12094E15
:100B1000FE12094EFF7B20EC3382D592D55013C3D1
:100B2000E43000069FFFE49EFEE42001039DFDE407
:100B30009CFCE4CBF8C201EC700CCFCECDCCE82409
:100B4000F8F870F38017C3EF33FFEE33FEED33FD9B
:100B5000EC33FCEB33FB994002FB0FD8E9EB30019F
:100B600005F8D0E0C448B201C0E00AEC4D4E4F7821
:100B7000207B0070C2EAB53C0040BCC0E0120BE331
:100B8000D0F0D0E0200104C4C0E0C4B201C0F01233
:100B90000972D0F0D5F0EB0209C2121CAC0A5F5307
:100BA0000AD9580A304C0A2C420ADD4F0AE5440A99
:100BB000E5490A45430AEB550ACF460ACF450ACF15
:100BC000470C8B500A342D0A382E0A5B2B0A3C2323
:100BD0000A59200C742A09F44800000A533F3F3F89
:100BE00000790AA2D5200314300509B910020404C3
:100BF000B9080104A2D5200602500104200268921F
:100C000002B53B005034C0E07F203003197F30A292
:100C10000272067205500F120C3AC202C206C205D9
:100C2000C2087F30800F300503E9C0E01209893027
:100C30000503D0E0F9D0E0B53BCC3005177F30B9E3
:100C4000100C1209897F583004077F788003B90897
:100C5000031209893002057F2D0209897F202008AF
:100C6000F87F2B2006F322920280CF286E756C6CE1
:100C70002900D20112094E3001F8C201783B30D56B
:100C80000108F60209F42D5043495812094E240375
:100C9000B405004001E4900C869312097A743A126C
:100CA000097AD203753B04020AD990022EE0C3945C
:100CB000035007122461EF600122122851900201B3
:100CC000121C1300000000121AE2EF600A122596AF
:100CD000121AE2EF600122900000E0FF64EB60373F
:100CE000EF64E96032E4FDED6440602874C22DF5E4
:100CF00082E43401F583E06015ED7E0024C6FFEE4A
:100D00003401FE122841900209121C07801374104E
:100D10002DFD80D37F9222900209121C1300000047
:100D200000900209E0FCA3E0FDA3E0FEA3E0FF9039
:100D30000201121C07121AE2EF600122900000E08B
:100D4000FF64EB6008EF64E960037FA12290000D6F
:100D5000E0900200F030E6089002117406F0804244
:100D600030E5089002117405F0803730E4089002F5
:100D7000117404F0802C30E3089002117403F080A9
:100D80002130E2089002117402F0801630E10890E0
:100D900002117401F0800B9002007401F0E49002E3
:100DA00011F07E007F1612287690020FEEF0A3EF6E
:100DB000F04E70397E007F24122841900212121CDE
:100DC00007900212E0FCA3E0FDA3E0FEA3E0FFE435
:100DD000FBFA7901F8D3121BD050037FA2229002B4
:100DE00014E0FFA3E090020FCFF0A3EFF090001407
:100DF000E0FF900013E04F600C7E007F1312287616
:100E0000E4FCFD80077E007F20122841900223121F
:100E10001C077E007F11122876EF240FFFE43EC4EA
:100E2000F854F0C868FEEFC4540F48FFE4FCFD908E
:100E30000239121C077E007F0E122876E4FCFD901A
:100E40000216121C0790020FE0FEA3E0FFE4FCFD77
:100E5000900216E0F8A3E0F9A3E0FAA3E02FFFEA7E
:100E60003EFEED39FDEC38FC900239E0F8A3E0F9E4
:100E7000A3E0FAA3E02FFFEA3EFEE93DFDE83CFCDB
:100E800090022A121C07900010E0D39401402D908C
:100E9000022AE0F8A3E0F9A3E0FAA3E0FB90020F36
:100EA000E0FEA3E0FFE4FCFDEB2FFFEA3EFEED39A0
:100EB000FDEC38FC90022A121C078007E490020F18
:100EC000F0A3F090022AE0F8A3E0F9A3E0FAA3E08F
:100ED000FB900223E0FCA3E0FDA3E0FEA3E0C39BA4
:100EE000FFEE9AFEED99FDEC98FC900211E0F9F806
:100EF000121BE190021B121C07E47BF57AFFF9F844
:100F0000D3121BD04022E490020DF0A3F090021DFA
:100F1000E0FEA3E094F5EE940F90023450057401C6
:100F2000F080277402F080227E007F3012287690B5
:100F3000020DEEF0A3EFF07E007F2C12284190020C
:100F400039121C079002347403F0900216E0FCA3DF
:100F5000E0FDA3E0FEA3E0FF900209E0F8A3E0F9C2
:100F6000A3E0FAA3E0FBEF2BFFEE3AFEED39FDEC38
:100F700038FC900216121C0790022AE0FCA3E0FD48
:100F8000A3E0FEA3E0FF900209E0F8A3E0F9A3E0EC
:100F9000FAA3E0FBEF2BFFEE3AFEED39FDEC38FC57
:100FA00090022A121C077D107F0312267422120061
:100FB0000390021AEFF0700A121F5CEF7003021127
:100FC000512290021AE0FF6442600122C39002297C
:100FD000E094E0900228E094015003021151900245
:100FE00026E07011900223E0700BA3E07007A3E0ED
:100FF00070030210DE90022DE0FF900238E0C39FE4
:10100000FF900200E014FE5F90021AF0900229E0C7
:10101000600A90021AE06E60030211517E027F2383
:10102000E4FD1205B6EF60012220090302115112FE
:101030001854EF6001227E027F237D021205B6EF75
:10104000600122122017EF600122122851E4FFFEF6
:10105000EE64024F601374002FF58274003EF58336
:10106000E4F00FBF00010E80E7E490021AF01224B2
:1010700009900229E0701A900228F0A3F090020172
:10108000E0FCA3E0FDA3E0FEA3E0FF900235121C0C
:1010900007900200E090021FF090021FE0602E1205
:1010A0001E9AEF600122900201E0FCA3E0FDA3E0A4
:1010B000FEA3E02401FFE43EFEE43DFDE43CFC90A1
:1010C0000201121C0790021FE014F080CC90021263
:1010D000121C13FFFFFFFF12226BEF6074229002BD
:1010E00029E0706D900235E0FCA3E0FDA3E0FEA3D3
:1010F000E024FFFFEE34FFFEED34FFFDEC34FFFC97
:10110000900235121ABFEF600122E4900228F0A38A
:10111000F0900228E0FEA3E0FFC3EE9402502FEF10
:101120002400FFEE34008F82F583E0B4E510E58201
:10113000240BF582E43583F583E0540E60139002AE
:1011400029E02420F0900228E03400F080C37FB230
:1011500022121854EF600122122017EF6001229032
:101160000212E0FCA3E0FDA3E0FEA3E0FF90022357
:10117000121C07900212121C13FFFFFFFF12226BBA
:10118000EF600122121AC2EF600122900229E024CE
:1011900000FF900228E03400FEE4FDEDC3940B5004
:1011A000047C2080027C00EF2DF582E43EF583EC88
:1011B000F00DEDB420E5EF2418F582E43EF58374DC
:1011C00021F0A37430F0EF241CF582E43EF5837423
:1011D00001F0E4FDEDC3940B503585098285088349
:1011E000E0FC602BECB42E0A7D080509E5097002CD
:1011F0000508850982850883E0FCEF2DF582E43E31
:10120000F583ECF00D0509E50970C9050880C59066
:101210000226E090021FF0900225E0900220F0905C
:101220000224E0900221F0900223E0900222F0904C
:10123000021FE0FCA3E0FDEF241AF582E43EF583F3
:10124000ECF0A3EDF0900221E0FCA3E0FDEF24140C
:10125000F582E43E121E93EF600122900223E0FC2F
:10126000A3E0FDA3E0FEA3E0FF900212121C079092
:10127000022F121C130000000090023D121C1300EC
:10128000000000E490021AF07D147F1012267422F0
:1012900090022EE06415600712260BEF6001229089
:1012A0000241E0F5087006300B030214D3E490020B
:1012B00041F0E50870030214C990021AE0F46003DB
:1012C000021363900226E0700E900223E07008A3E0
:1012D000E07004A3E0602F900212E0FCA3E0FDA305
:1012E000E0FEA3E0FF90023D121C07121868EF60B9
:1012F00001227E027F3D7D021205B6EF60012212BF
:101300002017EF6008221220CDEF60012290021218
:10131000E0FCA3E0FDA3E0FEA3E0FF90023D121C71
:1013200007900212121C13FFFFFFFF12226BCBEF7C
:10133000CB90023DE0FCA3E0FDA3E0FEA3E0FF9024
:101340000212121C07EB6002FF2290022FE0FCA3A6
:10135000E0FDA3E0FEA3E0FF90023D121C07E49035
:10136000021AF0122409121AE2EF60012290023FE1
:10137000E0FEA3E0FFEE5401FEC3E49FFF74029E73
:10138000FEC3EF9508EE9400400890021FE508F0B8
:10139000800A900240E0F40490021FF090023FE0C7
:1013A000FEA3E0FFEE5401FE74002FF58274003EB0
:1013B000AF82F50A8F0B90023DE0F8A3E0F9A3E0BD
:1013C000FAA3E0FB90021FE0FFE4FCFDFEEB2FFF21
:1013D000EE3AFEED39FDEC38FC90023D121C079010
:1013E000021FE0FFC3E5089FF508900241E0244298
:1013F000F582E43402AF82FE90021FE0FD900241CC
:10140000E02DF08F828E83E0850B82850A83F005C4
:101410000BE50B7002050A0FBF00010E90021FE0E2
:1014200014F070DF121E9AEF60012290023DE0FC82
:10143000A3E0FDA3E0FEA3E0FF90022FE0F8A3E00D
:10144000F9A3E0FAA3E0FBC3121BD0501690023DB3
:10145000E0FCA3E0FDA3E0FEA3E0FF90022F121C3E
:1014600007D20B90023FE0FEA3E0FFEE5401FEEF37
:101470004E60030212B2900200E0FF90021AE004F4
:10148000F0C39F50030212B27E027F12E4FD1205E8
:10149000B6EF60012230090990021A74FFF00212BF
:1014A000B290021FE0900212F0900220E09002132E
:1014B000F0900221E0900214F0900222E0900215D8
:1014C000F0E490021AF00212B2900227E030E40633
:1014D000300B0302254E7F002212285ED294C29464
:1014E0007F641227ABD2941228307BFF7A1C79DFFD
:1014F0001209B01226E58F2212270A7BFF7A1C7987
:10150000E61209B090022EE0640260051226C08047
:10151000F3C2947FC81227ABE4F5227F641227AB95
:101520007BFF7A1C79F21209B01223AEEF60090535
:1015300022E522C3940540E3C2957BFF7A1C79FB28
:101540001209B07E027F417C1D7D011226411200EE
:10155000038F22E52270367BFF7A1D790D90022FD2
:10156000E0FCA3E0FDA3E0FEA3E0F5318E308D2F7B
:101570008C2E1209B07BFF7A1D791E1209B09002E1
:1015800041121C13FFFFFFFF1223488013E522B412
:101590004212C2967BFF7A1D792B1209B0120FAE50
:1015A0008F228002AF2212270AC2967BFF7A1D7912
:1015B000331209B0752EFF752F1D75304090022F24
:1015C000E0FCA3E0FDA3E0FEA3E0F5348E338D3212
:1015D0008C317B017A0279421209AA8F2290024152
:1015E000E522F01212908F2212270A7BFF7A1D79D2
:1015F000591209B0752408D28C752305E58B541F48
:10160000752500F526AF8CEFAD8AF527EDF5287529
:101610002EFF752F1D7530697531008523328525A4
:1016200033852634753500852436852737F5387B94
:10163000017A0279421209AA8E298F2A900241EF7B
:10164000F01212908F2212270A0524E524B414A761
:101650007BFF7A1D79811209B07E027F427C1D7D5D
:101660008C1226418F22900241E522F01212908FB7
:101670002212270A7BFF7A1D79A41209B090024139
:101680007401F01221658F2212270AD296D2957B1F
:10169000FF7A1D79AB1209B090022EE0640160055B
:1016A0001226C080F3D2947FC81227AB0214FB909D
:1016B000022EE06415600712260BEF6001229002F3
:1016C00041E0F508E4F0E508700302185190023F8C
:1016D000E0FEA3E0FFEE5401FEC3E49FFF74029E10
:1016E000FEC3EF9508EE9400400890021FE508F055
:1016F000800A900240E0F40490021FF090023DE066
:10170000F8A3E0F9A3E0FAA3E0FB90022FE0FCA32A
:10171000E0FDA3E0FEA3E0C39BFBEE9AFAED99F98E
:10172000EC98F890021FE0FFE4FCFDFED3121BD002
:101730005014900240E0FF900232E0C39F90021FDD
:10174000F07003021851122409121AE2EF6001220C
:1017500090023FE0FEA3E0FFEE5401FE74002FF57F
:101760008274003EAF82F50A8F0B90023DE0F8A331
:10177000E0F9A3E0FAA3E0FB90021FE0FFE4FCFD28
:10178000FEEB2FFFEE3AFEED39FDEC38FC90023D0A
:10179000121C0790021FE0FFC3E5089FF5089002A6
:1017A00041E02442F582E43402AF82FE90021FE061
:1017B000FD900241E02DF0850B82850A83E08F8247
:1017C0008E83F00FBF00010E050BE50B7002050ABA
:1017D00090021FE014F070DF90023FE0FEA3E0FFF4
:1017E000EE5401FEEF4E60030216C6900200E0FFC9
:1017F00090021AE004F0C39F50030216C67E027FD7
:1018000012E4FD1205B6EF60012230091C90021AA5
:1018100074FFF090023DE0FCA3E0FDA3E0FEA3E036
:10182000FF90022F121C07802890021FE0900212E6
:10183000F0900220E0900213F0900221E090021458
:10184000F0900222E0900215F0E490021AF00216E5
:10185000C67F0022900223E0FCA3E0FDA3E0FEA3EC
:10186000E0FF900212121C0790021BE0FCA3E0FDB7
:10187000A3E0FEA3E0FF900212E0F8A3E0F9A3E0EA
:10188000FAA3E0FBD3121BD040037FB122900212D7
:10189000E0FCA3E0FDA3E0FEA3E02401FFE43EFEA4
:1018A000E43DFDE43CFC900212121C071205B0EF6F
:1018B000600122900222E0701190021FE0700BA3E1
:1018C000E07007A3E07003021982900234E0FF6425
:1018D000016095750A00750B00EF6402704090027C
:1018E0001F74FFF07402250BF50BF582E4350AF541
:1018F0000AF583E07017A3E07013850B82850A83D5
:1019000074FFF0A3F090021FE0F404805A90021FCD
:10191000E014F070CF90021574FFF0021868900286
:101920001F747FF07404250BF50BF582E4350AF57E
:101930000AF583E0703AA3E07036A3E07032A3E0CA
:10194000540F702C850B82850A8374FFF0A3F0A3DB
:10195000F0A3E0440FF0900215E05480FF90021FC6
:10196000E0FEC374809E4F900215F0D20A7F0022E1
:1019700090021FE014F070AC900215E0447FF0027A
:1019800018687E027F127DFF1205B62290022EE0BB
:10199000C3941350037FB422121AC2EF600122C213
:1019A0000A900229E02400FB900228E03400FA901B
:1019B0000249E0FFEB240BF582E43AF583E0900264
:1019C00049F0EFF460138B828A83E582240BF58261
:1019D000E43583F583EFF0D20A900247E0900222CB
:1019E000F0900248E0900221F0EB2416FFE43AFE6A
:1019F000122876900247EEF0A3EFF0900221E0F477
:101A0000FEA3E0F44E6018900221E0FEA3E0FFEB9D
:101A10002416F582E43AF583EEF0A3EFF0D20A90B3
:101A20000245E0900222F0900246E0900221F0EBA5
:101A30002418FFE43AFE122876900245EEF0A3EF58
:101A4000F0900221E0F4FEA3E0F44E601890022131
:101A5000E0FEA3E0FFEB2418F582E43AF583EEF014
:101A6000A3EFF0D20A900241E0FCA3E0FDA3E0FE68
:101A7000A3E0FF90024D121C07EB241CFFE43AFE8A
:101A8000122841900241121C0790024DE0F460249C
:101A9000E0FCA3E0FDA3E0FEA3E0FF90022F121CF8
:101AA00007122829EB241CF582E43AF583121C075F
:101AB000D20AC20B300A05C20A021E9A7F00221205
:101AC0001C07900235E0900201F0900236E090028F
:101AD00002F0900237E0900203F0900238E09002AA
:101AE00004F0900208E0FF900204E06F702790027B
:101AF00007E0FF900203E06F701B900206E0FF908A
:101B00000202E06F700F900205E0FF900201E06FAB
:101B10007003021BCDE4900221F07F5412276EE483
:101B2000F50C900204E0FF12280A900203E0FF1275
:101B3000280A900202E0FF12280A900201E0FF1238
:101B4000280A7F0112280A9002057400F0A374008D
:101B5000F09002207408F01226C0E50C641D704C51
:101B6000900205E0FEA3E0FF1224B7900205EEF01C
:101B7000A3EFF07F5512276E900220E014F0E07082
:101B8000D6900201E0900205F0900202E090020679
:101B9000F0900203E0900207F0900204E090020847
:101BA000F01226C0E50CB414037F0022900221E05D
:101BB000C394055012E0C3940140031221E990023E
:101BC00021E004F0021B1A1228510221E97F0022B1
:101BD000EB9FF5F0EA9E42F0E99D42F0E89C45F06B
:101BE00022E8600FECC313FCED13FDEE13FEEF13C0
:101BF000FFD8F122E8600FEFC333FFEE33FEED3381
:101C0000FDEC33FCD8F122ECF0A3EDF0A3EEF0A351
:101C1000EFF022A8828583F0D083D082121C2A1292
:101C20001C2A121C2A121C2AE473E493A3C583C540
:101C3000F0C583C8C582C8F0A3C583C5F0C583C8F5
:101C4000C582C822BB010689828A83E0225002E74E
:101C500022BBFE02E32289828A83E49322BB010C29
:101C6000E58229F582E5833AF583E0225006E925ED
:101C700082F8E622BBFE06E92582F8E222E5822907
:101C8000F582E5833AF583E49322BB010689828AD3
:101C900083F0225002F722BBFE01F322FAE6FB0892
:101CA00008E6F925F0F618E6CA3AF622D083D08283
:101CB000F8E4937012740193700DA3A393F8740168
:101CC00093F5828883E4737402936860EFA3A3A3FF
:101CD00080DF4572726F723A20253032580A005305
:101CE000746172740A005761697420556469736B7A
:101CF0000A005265616479203F0A004F70656E0AE0
:101D0000002F4D595F4144432E5458540046696C8E
:101D1000652073697A65203D20256C640A004C6F4C
:101D200063617465207461696C0A00437265617453
:101D3000650A00577269746520626567696E0A00FA
:101D4000B4CBC7B0CEC4BCFEB3A4B6C83D20256C8E
:101D50006420D7D6BDDA0D0A005772697465204138
:101D6000444320646174610A00253032642E2530BA
:101D700032642E25303264204144433D25750D0ADE
:101D800000577269746520656E640A00BDF1CCEC81
:101D9000B5C4414443CAFDBEDDB5BDB4CBBDE1CA47
:101DA000F80D0A00436C6F73650A0054616B65207F
:101DB0006F75740A00900226E07011900223E070A3
:101DC0000BA3E07007A3E07003021E80900223E0E3
:101DD000FCA3E0FDA3E0FEA3E0FF9002128073905D
:101DE0000200E0FFE4FCFDFE900241E0F8A3E0F910
:101DF000A3E0FAA3E0FBC3121BD0405B1205B0EFD7
:101E000060012220097A90021FE0900212F09002F5
:101E100020E0900213F0900221E0900214F0900272
:101E200022E0900215F0900241E0FCA3E0FDA3E067
:101E3000FEA3E0FFEFC0E0900200E0FBD0E0FFC3B4
:101E4000EF9BFFEE9400FEED9400FDEC9400FC90FF
:101E50000241121C078088900244E0FF900200E0DB
:101E6000145F90021AF0122409900201E0FCA3E032
:101E7000FDA3E0FEA3E0FF900241121C077F0022B9
:101E800090021A74FFF0900241121C13FFFFFFFF33
:101E90007F0022F583ECF0A3EDF0E4900221F07FC7
:101EA0005612276EE4F50C900204E0FF12280A9007
:101EB0000203E0FF12280A900202E0FF12280A90B3
:101EC0000201E0FF12280A7F0112280A900205741D
:101ED00000F0A37400F09002207408F01226C0E510
:101EE0000C641E7056900205E0FEA3E0FF1225046C
:101EF000900205EEF0A3EFF07F5712276E900220BC
:101F0000E014F0E070D6900201E0900205F090023B
:101F100002E0900206F0900203E0900207F09002C7
:101F200004E0900208F01226C0E50CB4140D9002F3
:101F300027E020E5031228997F0022900221E0C3C8
:101F400094055012E0C3940140031221E99002214C
:101F5000E004F0021E9F1228510221E990022EE0B7
:101F6000C394135007120003EF600122122670EF92
:101F7000600122121AC2EF600122900229E02400BF
:101F8000FF900228E034008F82F58374E5F0121E82
:101F90009AEF600122900223E0FCA3E0FDA3E0FEA3
:101FA000A3E0FF90021F121C07EC4D4E4F6065909E
:101FB0000223E0FCA3E0FDA3E0FEA3E024FFFFEE8C
:101FC00034FFFEED34FFFDEC34FFFC900223121CC5
:101FD00007900212121C13000000007E027F1F7D7A
:101FE000011205B6EF600122900212E0FCA3E0FDB1
:101FF000A3E0FEA3E02401FFE43EFEE43DFDE43C5B
:10200000FC900212121C073009D1122017EF600158
:102010002202226B7F0022900205E0900201F090E4
:102020000206E0900202F0900207E0900203F090B6
:102030000208E0900204F0121E9AEF600122900262
:102040000FE07002A3E070030220C8900201E0F8E4
:10205000A3E0F9A3E0FAA3E0FB90020FE0FEA3E007
:10206000FFE4FCFDEB2FFFEA3EFEED39FDEC38FC12
:10207000900201121C07121E9AEF600122900201C9
:10208000E0FCA3E0FDA3E0FEA3E0FF90020FE0FA76
:10209000A3E0FBC3EF9BFFEE9AFEED9400FDEC94F2
:1020A00000FC900201121C07900201E0900205F072
:1020B000900202E0900206F0900203E0900207F026
:1020C000900204E0900208F0C20A7F002212186811
:1020D000EF600122122017EF600122900212E0FC53
:1020E000A3E0FDA3E0FEA3E0FF900223121ABFEFDE
:1020F000600122900229E02400FF900228E03400D1
:10210000FEF583EF241CF582E43583F5837401F03A
:10211000900226E090021FF0900225E0900220F04D
:10212000900224E0900221F0900223E0900222F03D
:1021300090021FE0FCA3E0FD8F828E83E582241ACB
:10214000F582E43583F583ECF0A3EDF0900221E015
:10215000FCA3E0FD8F828E83E5822414F582E435B2
:1021600083121E932290022EE0C3941250037FB478
:102170002290022EE06412704D900234E0640360FD
:102180004590023CE0900200F0900231E0FEEEC388
:1021900013FF7E00E4FCFD900239121C0790022A16
:1021A000E0F8A3E0F9A3E0FAA3E0FB90023CE0FF33
:1021B000E4FCFDFEEB2FFFEE3AFEED39FDEC38FCC2
:1021C00090022A121C0790022EE0D39413400AE0DA
:1021D000B41408900241E07002C20B300B071225C4
:1021E0004EEF600122122670229002207432F0120B
:1021F0002894900220E014F0E070F47F2212276E01
:102200001227E0E50C6416601190022EE064016074
:10221000097F2012274DEF20E50990022E7401F06E
:102220007F8222900233E0602090022EE0C394036C
:102230004017900220E50CF0E4F50C7F5A12276E4F
:102240001226C0900220E0F50C90022EE0B4120598
:102250007403F0800C90022EE0D3941040037410AD
:10226000F0E50C70037F1022AF0C2290020DE0FC11
:10227000A3E0FD4C7002FF22EDCFECCEE4FCFD901C
:102280000209E0F8A3E0F9A3E0FAA3E02FFFEA3E99
:10229000FEED39FDEC38FC900201121C07121AE227
:1022A000EF600122900212E0F8A3E0F9A3E0FAA3A4
:1022B000E0FB7E017FE8122841EB2FFFEA3EFEE9BA
:1022C0003DFDE83CFC900212121C079002121228FD
:1022D0001E9001E8121C07121E9A2290021A740521
:1022E000F07D067F651227F5E490022EF01227E0BC
:1022F000BF9A0F7D067F9A1227F51227E0EF6465DB
:10230000600F12272C90021AE014F0E070D37F8146
:10231000227F0112276EE4900233F01227E0EFC310
:1023200094A240069002337401F090022E7401F0E2
:102330007D157F061227F57F0112278D1227E0BF3A
:102340005F037F81227F002290022EE064156007E8
:1023500012260BEF600122900241E0FCA3E0FDA3F6
:10236000E0FEA3E0FF90023D121C0790022FE0F870
:10237000A3E0F9A3E0FAA3E0FBC3121BD050149032
:10238000022FE0FCA3E0FDA3E0FEA3E0FF90023DEE
:10239000121C0790023DE0FCA3E0FDA3E0FEA3E0D9
:1023A000FF122880900241121C07121DB52212252F
:1023B000D2EF60037F822290022EE0C39403501B71
:1023C000122461EF600C7F3212278D122461EF60BE
:1023D0000122122596EF60030221E9900233E060AA
:1023E000257F591227C6AF0C90021FEFF07002FF35
:1023F000227F0A12278D7F5A1227C67F0212278D4D
:1024000090021FE0FF227F0022900212E0FCA3E076
:10241000FDA3E0FEA3E024FEFFEE34FFFEED34FF5B
:10242000FDEC34FFFC900211E0F9F8121BF490026D
:102430002AE0F8A3E0F9A3E0FAA3E02FFBEA3EFAD2
:10244000E93DF9E83CF890021AE0FFE4FCFDFEEB00
:102450002FFFEE3AFEED39FDEC38FC900201021C34
:10246000071225D2EF60037F82227F511227C6E533
:102470000C703A7D037F02122674900233E0602ACA
:102480007F3812274DEF602212288A900000E0B4B6
:1024900005187F0B12276E7F3412280A7F0112283D
:1024A0000A7F581227C6E50C70037F00227D027F49
:1024B000021226740221E990026AEEF0A3EFF07F87
:1024C0002812276EE4F50C1227E090026CEFF090D2
:1024D000026CE060261227E090026AE0FCA3E0F5BF
:1024E000828C83EFF090026BE004F0700690026A39
:1024F000E004F090026CE014F080D490026AE0FEF8
:10250000A3E0FF2290026AEEF0A3EFF07F2B1227E8
:102510006EE4F50C7F4012280A90026C7440F09033
:10252000026AE0FEA3E0F5828E83E0FF12280A90A3
:10253000026BE004F0700690026AE004F090026C16
:10254000E014F070DA90026AE0FEA3E0FF22C20B12
:1025500090022EE0C39414403A121AC2EF60012296
:10256000900229E02400FB900228E03400FAF58371
:10257000EB240BF582E43583F583E020E41590022B
:102580002F12281EEB241CF582E43AF583121C0757
:10259000021E9A7F002290021F7408F07F531227B8
:1025A000C6AF0C900222EFF07002FF227F0A1227C2
:1025B0008D900233E060057F5A1227C67F141227E0
:1025C0008D90021FE014F0E070D2900222E0FFF53F
:1025D0000C227F2212276E1227E0E4F50C7F2012D6
:1025E000274DEF30E51C90022EE0C39402400A7F95
:1025F0001B12274DEF547F700690022E7402F07F5D
:10260000002290022E7401F07F822290022EE0645C
:102610001460037FB422900223E0FCA3E0FDA3E05A
:10262000FEA3E0FF900212121C0790023D121C1341
:1026300000000000E490021AF07D157F1412267449
:10264000228E2B8F2C8C2D8D2EE4FF852E82852DB6
:1026500083E493852C82852B83F06013052CE52C75
:102660007002052B052EE52E7002052D0F80DC2251
:102670007D107F1090022EE0C39F4002EDF090028B
:102680002EE06D7002FF2290022E7401F01225D20E
:10269000EF60037F82227F8322EFB40A07740D125A
:1026A00026A4740A309811A899B8130CC2983098CF
:1026B000FDA899C298B811F63099FDC299F59922F2
:1026C00020B2FD7F2212276E1227E08F0CE50CB49A
:1026D000160790022E7401F022E50CB41506900244
:1026E0002E7402F022E581D394EE40037FFC229009
:1026F00002277405F0E4900000F012289EEFC394C6
:102700003050037FFF221222DB22EF601E7BFF7A14
:102710001C79D2752E008F2F1209B0C2947F6412DB
:1027200027ABD2947F641227AB80F02290022174F1
:1027300080F07F0112276E1227E0900221E014F052
:10274000E070EF7F0512276E7F3202278D90026ABC
:10275000EFF07F0A12276E90026AE0FF12280A90BB
:10276000026AE060030227E090026AE0FF2212287A
:10277000A21228A28F80D290C291C292C291D2920C
:10278000D291C2907580FF1228A20228A2EF75F0A4
:1027900005A4900221F0900221E0600E122894120C
:1027A0002894900221E014F080EC22EF60177EC89C
:1027B0007403252BF52BDEF87EC87403252BF52B2F
:1027C000DEF81F80E622E4F50C12276E1226C0E523
:1027D0000C7004750C1022E50CB41403E4F50C2203
:1027E0001228A27580FFC290C291C293C291AF809D
:1027F000D293D29122900265EFF0EDCF12276EE4D2
:10280000F50C900265E0FF02280A8F80C290C29109
:10281000C292C291D292D2917580FF0228A2E0FCAE
:10282000A3E0FDA3E0FEA3E0FFEFCCFFEECDFE2290
:10283000759850758780758920758DF3D28ED299E1
:10284000228F828E83E0FFA3E0FEA3E0FDA3E0FCE5
:1028500022900205121C13FFFFFFFFC20A22D29131
:10286000D292D293C2907580FF22787FE4F6D8FD91
:1028700075813E0214D98F828E83E0FFA3E0FE2291
:10288000C3E4CC13CD13CE13FF221228517E007F58
:10289000000224B77F96DFFE227FFADFFE227F3020
:0328A000222222CF
:00000001FF
