:040000000C94C1019A
:14008C00CC25002020202020202020203030303030202020FF
:1400A0002020202020202020202020202020209040404040DC
:1400B40040404040404040404040400C0C0C0C0C0C0C0C0C0C
:1400C8000C404040404040400909090909090101010101011C
:1400DC00010101010101010101010101010140404040404082
:1400F0000A0A0A0A0A0A0202020202020202020202020202A4
:140104000202020202024040404020000000000000000000BB
:140118000000000000000000000000000000000000000000D3
:14012C000000000000000000000000000000000000000000BF
:140140000000000000000000000000000000000000000000AB
:14015400000000000000000000000000000000000000000097
:14016800000000000000000000000000000000000000000083
:14017C0000000000000000000000000000000000000000541B
:14019000616B65206F75740A004E6F74653A200D0AD5E2B832
:1401A400F6B3CCD0F2CAC7D2D4D7D6BDDACEAAB5A5CEBBBD7D
:1401B800F8D0D055C5CCCEC4BCFEB6C1D0B42CB5A5C6ACBBBB
:1401CC00FAD6BBD0E8D2AAD3D0363030D7D6BDDAB5C45241D7
:1401E0004D0D0A0057726974650A002F4E455746494C452E2B
:1401F400545854004372656174650A00436C6F73650A00CECB
:14020800C4BCFED2D1BEADBDE1CAF80A000A00256300B4D3D3
:14021C00CEC4BCFED6D0B6C1B3F6B5C4C7B02564B8F6D7D6E8
:14023000B7FBCAC73A0A0020206D617463682066696C652006
:1402440025303364233A2025730A004C6973742066696C653F
:140258002025730A002F4335312F43483337352A002F2A001C
:14026C002F4335312F43483337354846542E43004F70656E68
:140280000A00546F6F206C6172676520736563746F722073C0
:14029400697A650A005265616479203F0A005761697420559C
:1402A8006469736B0A0053746172740A004572726F723A2011
:1402BC00253032580A003C696E7465676572206F6E6C792019
:1402D0007072696E74662C2073656C6563742050726F6A659B
:1402E40063742D3E4F7074696F6E732D3E5461726765742CDA
:1402F800224650207072696E74662220746F207072696E7415
:14030C0020666C6F6174696E6720706F696E74206E756D624D
:140320006572733E00286E756C6C20707472207061737365AC
:1403340064290030313233343536373839616263646566675F
:1403480068696A6B6C6D6E6F707172737475767778797A003E
:14035C00303132333435363738396162636465666768696A89
:110370006B6C6D6E6F707172737475767778797A0054
:14038200CFEFDFE0CDBFDEBFC852D0400AEA08830024E2EF23
:14039600F2E01DE0E937F10711F00192FBCF0083EFE8F1E0E3
:1403AA00A0E0B1E013E0E138F10721F0C89531960D92F9CF8E
:1403BE000E94BE02FFCF82EF92E09093FB0C8093FA0C0E9433
:1403D200D409089582EF92E09093FB0C8093FA0C0E94FC0ACF
:1403E6000895B499FECF02E249D077D000935D0D80915D0D90
:1403FA00863121F481E080935C0D07C080915D0D853119F441
:14040E0082E080935C0D08950AE411E002C0015010400030ED
:140422000107D9F708950AE812E002C00150104000300107D2
:14043600D9F7089508950A9508950A95089585E080935B0D50
:14044A000E94BD0C053310F40FEF08C082EF94E090933B0DE1
:14045E0080933A0D0E94A40D089505E001C00A950023E9F7F8
:14047200089522242ABA87E088BB8FE087BB08950E94802570
:14048600402FEFDFEEDFC39A4BBB8FEF8ABB88B3897F88BBAC
:14049A008FEF8ABB88B3876088BB22242ABA88B3877F88BB78
:1404AE00DCDFDBDF0E94832508950E948025402F4BBB8FEFA4
:1404C2008ABB88B3817F88BB8FEF8ABB88B3876088BB2224F5
:1404D6002ABAC7DF0E94832508950E948025C1DF22242ABA90
:1404EA0088B3827F88BB2ABA49B388B3876088BB042F0E9465
:1404FE00832508950E94802508C048E25AE002C0415050404F
:1405120040304507D9F7202E33240150222099F70E94832537
:1405260008950E948025402F442309F410C0242F332706E2A5
:14053A0012E00E94972608C088B38F7788BB04E6DBDFC79A0B
:14054E0004E6D8DFF7CF0E948325089522242092900087E656
:1405620089B988E18AB986E08093950081E090E09093780D10
:140576008093770D089522977ADFC79ABF9A88B38F7788BBED
:14058A0004E6BADFC79AE4DF0FE112E00E94972654DF402FD3
:14059E00C4DF11C103E112E00E94972601C01DDF80915C0D68
:1405B2008230D9F788B38F7788BB08ECA1DF44270CC004E69A
:1405C6009DDF0AE012E00E9497260E947020002309F403C055
:1405DA0043954A3090F320903C0D30903D0D80E098E08215C6
:1405EE00930560F403EF11E00E94972602C004E681DF0E941D
:140602000E0E0023D1F3DDC00DEE11E00E9497262DED31E0CE
:1406160002EF1CE00E941D250E94F716402F033B19F0023464
:14062A0009F03AC0433B19F46AED71E002C06EEC71E09B018D
:14063E0000EC11E00E949726AA2428C09B0102EF1CE00E948B
:140652001D2502EF1CE00E942625402F82EF9CE0E42FFF27E3
:14066600E80FF91FA0820E94F716402F023409F45CC043346B
:14067A0059F482EF9CE0998388832A2D332708EA11E00E94D5
:14068E00972603C0042F49DF4CC0A3948A2D8E3FA8F247C015
:1406A200042F41DF88E592E06C019C010BE811E00E949726C5
:1406B60030C08DE190E08C159D0510F4A82E01C0AC2CA0927A
:1406CA00F20C0E945C042BDF2090F20C3324C218D3084427ED
:1406DE000DC083EF9CE0E42FFF27E80FF91F2081332708E81A
:1406F20011E00E94972643952090F20C421579F72A1448F4DD
:1407060006E811E00E94972608E711E00E94972604C0CC20B2
:14071A0071F6DD2061F601E711E00E9497260E94431B402F69
:14072E00FCDE09E611E00E9497262CE531E002EF1CE00E94ED
:140742001D250E944B1C402FEEDE05E511E00E9497266AE099
:1407560071E01CC044270FC0FB01A08083EF9CE0E42FFF27E5
:14076A00E80FF91FA082AA2009F405C06F5F7F4F43954D31CC
:14077E0078F3442309F407C04093F20C0E948705402FCBDEBA
:14079200E3CF01E711E00E94972681E08093F20C0E94431BF7
:1407A600402FBFDE00E011E00E94972601C019DE80915C0DD1
:1407BA008130D9F7C79A08EC9FDEEECE229608950E947E2582
:1407CE0080915C0D843111F004EB23C04090570D5090580D9C
:1407E2002090550D3090560D3092190D2092180D50921B0D05
:1407F60040921A0D40E050E060E070E050934E0D40934D0DAB
:14080A007093500D60934F0D22242092170D25E104E10E9482
:14081E00700D0E94702508950E947C2580915C0D853129F0E9
:14083200CBDFA02E002309F03BC04090F40C5090F50C2090C2
:14084600F20C3090F30C30924E0D20924D0D5092500D4092A7
:14085A004F0D8090530D9090540D6090510D7090520D62141A
:14086E0073048404950450F41301240130924E0D20924D0D38
:140882005092500D40924F0D20914F0D3091500D00914D0DDF
:1408960010914E0D0E94ED0C1093F30C0093F20C3093F50CC0
:1408AA002093F40C0E94AB200E94722508950E9478258091F4
:1408BE005C0D853129F082DFA02E002309F01DC12090F20C17
:1408D200ECE1FDE0208222242092F20C0DC180913C0D909187
:1408E6003D0D019720904D0D30904E0D2822392240903C0D39
:1408FA0050903D0D42185308ECE1FDE02080332442145304BD
:14090E0018F02092130D0CC040904F0D5090500D20904D0DBC
:1409220030904E0D332432183092130D2090130D3324442494
:14093600552480904F0D9090500D60904D0D70904E0D620C38
:14094A00731C841C951C4090530D5090540D2090510D30907A
:14095E00520D6214730484049504B8F040904F0D5090500D07
:1409720020904D0D30904E0D6090530D7090540D4090510D6D
:140986005090520D4218242C2092130D442009F4B7C00E9428
:14099A00D01F0E94630EA02E002309F0B0C080913C0D909172
:1409AE003D0D019720904D0D30904E0D2822392240903A0D72
:1409C20050903B0D240C351C3092120D2092110D2090130DF7
:1409D60033244424552480904F0D9090500D60904D0D7090A2
:1409EA004E0D620C731C841C951C70924E0D60924D0D909285
:1409FE00500D80924F0D30901C0D321830921C0D83EF9CE00E
:140A1200C090F20CDD24C80ED91E3090F20C320C3092F20CF8
:140A2600E091110DF091120D2080F6012082CF0101966C0180
:140A3A008091110D9091120D01969093120D8093110D80911E
:140A4E00130D8150282E2092130D882329F780913C0D909135
:140A62003D0D019720904D0D30904E0D28223922222009F099
:140A760041C0332009F03EC08091170D8F5F282E2092170DD2
:140A8A004090590D8415A0F1222708E11DE00E94D012E02E37
:140A9E00002309F032C02090200D2220A1F08FEF8093170DD1
:140AB20040904F0D5090500D20904D0D30904E0D3092520D81
:140AC6002092510D5092540D4092530D19C04090150D5090EC
:140ADA00160D2090130D3090140D3092190D2092180D509293
:140AEE001B0D40921A0D22242092170DECE1FDE0208022202B
:140B020009F0EDCE00270E94762508950E947825249780911F
:140B16005C0D853129F056DEA02E002309F09EC12090F20C68
:140B2A00ECE1FDE020822090F20C222039F420901E0D222031
:140B3E0019F00E940C208EC122242092F20C78C18091170D19
:140B52008F3F09F086C040E050E060E070E04090570D50908E
:140B6600580D2090550D3090560D241635064606570641F191
:140B7A0040901A0D50901B0D2090180D3090190D30924E0D90
:140B8E0020924D0D5092500D40924F0D0E948B160983002EDD
:140BA200002309F05DC122E00DE41DE00E94D0120983002ED7
:140BB600002309F053C10E9466120983002E002341F04CC1C6
:140BCA000E9447210B83002E002309F045C140901A0D509058
:140BDE001B0D2090180D3090190D30924E0D20924D0D509215
:140BF200500D40924F0D4FEF5FEF6FEF7FEF5093190D409330
:140C0600180D70931B0D60931A0D0E94A2160A8340904F0D5D
:140C1A005090500D20904D0D30904E0D3092190D2092180DA5
:140C2E0050921B0D40921A0D002E002309F012C14090530D62
:140C42005090540D2090510D3090520D30924E0D20924D0D07
:140C56005092500D40924F0D22242092170D0E94D01F0E94CE
:140C6A00630E0883002E002309F0F6C080913C0D90913D0DB5
:140C7E00019720904D0D30904E0D2822392240903C0D509007
:140C92003D0D42185308ECE1FDE0208033244214530418F0F9
:140CA6002092130D0CC040904F0D5090500D20904D0D309069
:140CBA004E0D332432183092130D80913C0D90913D0D0197EB
:140CCE0020904D0D30904E0D2822392240903A0D50903B0D09
:140CE200240C351C3092120D2092110D2090130D332444243D
:140CF600552480904F0D9090500D60904D0D70904E0D620C75
:140D0A00731C841C951C70924E0D60924D0D9092500D8092BB
:140D1E004F0D30901C0D321830921C0D83EF9CE0A090F20C2B
:140D3200BB24A80EB91E3090F20C320C3092F20CF5012080EF
:140D4600E091110DF091120D20828091110D9091120D0196C2
:140D5A009093120D8093110DC50101965C018091130D815056
:140D6E00282E2092130D882329F70E94300FE02E002309F073
:140D82006FC040904F0D5090500D20904D0D30904E0D809090
:140D9600530D9090540D6090510D7090520D62147304840446
:140DAA00950458F43092520D2092510D5092540D4092530DAA
:140DBE0081E080931E0D80913C0D90913D0D019720904D0D1B
:140DD20030904E0D28223922222081F5332071F58091170DA7
:140DE6008F5F282E2092170D4090590D841520F1222708E1CD
:140DFA001DE00E94D012C02E002309F02DC02090200D22204E
:140E0E0021F08FEF8093170D13C04090150D5090160D209092
:140E2200130D3090140D3092190D2092180D50921B0D409220
:140E36001A0D22242092170DECE1FDE02080222009F082CE90
:140E4A0020905B0D24FE07C020901E0D222019F00E940C209F
:140E5E0001C0002724960E947625089526E030E00091130D3D
:140E72001091140D0E94A02518012091100D33270091F40C71
:140E860011270E94A0252801421853085092140D4092130DE6
:140E9A0012014424552480904F0D9090500D60904D0D70901D
:140EAE004E0D621873088408950870924E0D60924D0D9092EC
:140EC200500D80924F0D4090FA0C5090FB0C421853085092FD
:140ED600FB0C4092FA0C08950E94782522242092150D209083
:140EEA005B0D26FC14C08091100D893081F080EC8093140D9E
:140EFE002090F40C2092160D0E947122002309F0ABC005E5B5
:140F12000E9441021BC004E50E944102222420925D0DE6EF06
:140F2600FCE000810E945C020091F70C0E945C020091F80C31
:140F3A000E945C020091F90C0E945C020091F40C0E945C027C
:140F4E0020905B0D2092160D822D8C7F922D969596959370D0
:140F6200982B90935B0D8091100D893021F488E090E05C01FC
:140F760015C08091100D8A3021F480E190E06C010CC080917A
:140F8A00100D8B3021F480E290E07C0103C080E490E07C0103
:140F9E00670156012090F40C2A9C1092140D0092130D0E94F3
:140FB200F40180915D0D8D3109F054C08091160D8C7059F077
:140FC6000091FA0C1091FB0C0E941B0D1093FB0C0093FA0CCB
:140FDA000AC008E20E944102222420925D0D0E9470020E9452
:140FEE001E0205E50E94410240E450E060E070E040904F0DF0
:141002005090500D20904D0D30904E0D240E351E461E571E1A
:1410160030924E0D20924D0D5092500D40924F0D8091130DFF
:14102A009091140D01979093140D8093130D8030890709F028
:14103E00B8CF2090160D20925B0D0E94F40180915D0D843163
:1410520049F42090F40C3090F20C320C3092F20C002724C0D6
:141066002090160D20925B0D8091150D8530C0F480915D0D72
:14107A008631A1F0F5DE80915B0D8C7019F400270E941E02DC
:14108E008091150D813010F00E947A1F8091150D8F5F8093FB
:1410A200150D21CF0E94C01F0E947A1F0E94762508950E94F0
:1410B600782522242092150D20905B0D26FC43C08091100D04
:1410CA00893009F43EC080E48093140D2090F40C2092160D41
:1410DE000E947122002309F0E1C020905B0D2092160D822D70
:1410F2008C7F922D969596959370982B90935B0D8091100D4B
:14110600893021F488E090E05C0115C08091100D8A3021F400
:14111A0080E190E06C010CC08091100D8B3021F480E290E0E7
:14112E007C0103C080E490E07C01670156012090F40C2A9CE7
:141142001092140D0092130D53C006E50E9441022224209249
:141156005D0DE6EFFCE000810E945C020091F70C0E945C0255
:14116A000091F80C0E945C020091F90C0E945C020091F40CB5
:14117E000E945C0220905B0D2092160D822D8C7F922D9695CC
:1411920096959370982B90935B0D8091100D893021F488E069
:1411A60090E05C0115C08091100D8A3021F480E190E06C0158
:1411BA000CC08091100D8B3021F480E290E07C0103C080E4E1
:1411CE0090E07C01670156012090F40C2A9C1092140D009296
:1411E200130D0E94F40180915D0D8E3109F05CC08091160DBF
:1411F6008C7059F00091FA0C1091FB0C0E94350D1093FB0CD3
:14120A000093FA0C0CC00BE20E944102222420925D0D00E453
:14121E000E945C0200E40E94200207E50E94410240E450E0EF
:1412320060E070E040904F0D5090500D20904D0D30904E0D8A
:14124600240E351E461E571E30924E0D20924D0D5092500DCE
:14125A0040924F0D8091130D9091140D01979093140D8093F0
:14126E00130D8030890709F0B6CF2090160D20925B0D0E94FF
:14128200F40180915D0D843179F420905B0D25FC02C00E9429
:1412960014022090F40C3090F20C320C3092F20C002724C0B7
:1412AA002090160D20925B0D8091150D8530C0F480915D0D2C
:1412BE008631A1F0D3DD80915B0D8C7019F400270E942002B7
:1412D2008091150D813010F00E947A1F8091150D8F5F8093B5
:1412E600150DEACE0E94C01F0E947A1F0E9476250895809173
:1412FA005C0D823110F404EB51C02091530D3091540D0091FC
:14130E00510D1091520D0E94ED0C1093140D0093130D309398
:14132200160D2093150D4090F40C5090F50C2090F20C3090A0
:14133600F30C021513052405350550F4180129013092F30CCA
:14134A002092F20C5092F50C4092F40C8091100D992708979D
:14135E004090F40C5090F50C2090F20C3090F30C8A938101BE
:1413720092010E94A7251093140D0093130D3093160D209356
:14138600150D222E2092500D212E20924F0D202E20924E0D1A
:14139A002224EDE4FDE020820E94AB2008950E9478252297A7
:1413AE0084E120905C0D821520F080915C0D823110F404EBE6
:1413C20016C12090F20C2092F30C22242092F20C2092F40C39
:1413D60040904F0D5090500D20904D0D30904E0D8090530D05
:1413EA009090540D6090510D7090520D6218730884089508A3
:1413FE00830194010E94ED0C1093140D0093130D3093160DCA
:141412002093150D112311F4222321F08FEF8093F50CD9C037
:141426002090130D2092F50CD4C02090F50C222009F4D4C017
:14143A008091170D8F3F09F4CFC00E94D01F2090F40C22208C
:14144E0009F450C08091100D893021F480E490E07C0115C05B
:141462008091100D8A3021F480E290E05C010CC08091100D50
:141476008B3021F480E190E06C0103C088E090E06C015601F5
:14148A0075012090F40C33242E143F0424F5332444245524FB
:14149E008090F80C9090F90C6090F60C7090F70C620C731C0F
:1414B200841C951C4090380D5090390D2090360D3090370DA3
:1414C600262437244824592440E050E060E070E0241635062F
:1414DA004606570649F0FEDC0883002E002309F082C02224E5
:1414EE002092F40C2090F40C222081F44090380D5090390D96
:141502002090360D3090370D3092F70C2092F60C5092F90C7E
:141516004092F80C2090170D3090590D3218232C2092130D86
:14152A004090F50C431418F4242C2092130D2090F30C3090E8
:14153E00130D231458F43090F40C320C3092F40C3090170D52
:14155200320C3092170D48C02090130D3090F30C32183092BE
:14156600F30C3090F40C320C3092F40C3090F50C32183092E5
:14157A00F50C3090170D320C3092170D2090590D321429F5DA
:14158E00222708E11DE00E94D0120983002E002309F027C0D9
:1415A2002090200D222021F08FEF8093170D13C04090150D8B
:1415B6005090160D2090130D3090140D3092190D2092180DAE
:1415CA0050921B0D40921A0D22242092170D2090F30C2220FD
:1415DE0009F027CF2090F40C222011F079DC01C00027229622
:1415F2000E94762508950E947825269784E120905C0D8215FA
:1416060020F080915C0D823110F404EBAFC12090F20C2092D0
:14161A00F30C222039F420901E0D222019F00E940C20A2C1F7
:14162E0022242092F20C2092F40C2092F50C17C18091170D40
:141642008F3F09F04BC040E050E060E070E04090570D5090CE
:14165600580D2090550D3090560D241635064606570659F17E
:14166A0080915C0D823131F480915A0D833011F001EB7AC1C7
:14167E0040901A0D50901B0D2090180D3090190D3092FD0CD3
:141692002092FC0C5092FF0C4092FE0C0E948B160983002EC4
:1416A600002309F063C122E00CEF1CE00E94D0120983002EB9
:1416BA00002341F059C10E9447210B83002E002309F052C1B9
:1416CE008091F50C81508093F50C22242092170D0E94D01F64
:1416E2002090F40C222009F450C08091100D893021F480E495
:1416F60090E05C0115C08091100D8A3021F480E290E07C01F2
:14170A000CC08091100D8B3021F480E190E06C0103C088E098
:14171E0090E06C01760157012090F40C33242A143B0424F56E
:141732003324442455248090F80C9090F90C6090F60C709040
:14174600F70C620C731C841C951C4090380D5090390D209053
:14175A00360D3090370D262437244824592440E050E060E016
:14176E0070E0241635064606570649F09CDC0C83002E002368
:1417820009F0F6C022242092F40C2090F40C222081F4409075
:14179600380D5090390D2090360D3090370D3092F70C209266
:1417AA00F60C5092F90C4092F80C2090170D3090590D321828
:1417BE00232C28824090F30C431458F43090F40C340C3092EA
:1417D200F40C3090170D340C3092170D4BC02090F40C0880B6
:1417E600200C2092F40C2090F30C20182092F30C2220A1F4A2
:1417FA0020903A0D30903B0D4090FA0C5090FB0C4214530472
:14180E0049F451DC0D83002E002309F0ABC022242092F40C1F
:14182200222708E11DE00E94D0120A83002E002309F09EC0CA
:141836002090200D222021F08FEF8093170D13C04090150DF4
:14184A005090160D2090130D3090140D3092190D2092180D17
:14185E0050921B0D40921A0D22242092170D2090F30C222066
:1418720009F0E4CE20901F0D222031F00E946612A02E00236D
:1418860009F074C02090F40C222029F010DCA02E002309F040
:14189A006BC02090F50C2220D9F140901A0D50901B0D2090A3
:1418AE00180D3090190D3092FD0C2092FC0C5092FF0C4092D7
:1418C200FE0C40E05FEF6FEF7FEF2090F50C332444245524E5
:1418D600242A352A462A572A3092190D2092180D50921B0D97
:1418EA0040921A0D0E94A216A02E4090FE0C5090FF0C209054
:1418FE00FC0C3090FD0C3092190D2092180D50921B0D40926A
:141912001A0D002309F02CC040904F0D5090500D20904D0D1F
:1419260030904E0D8090530D9090540D6090510D7090520DF4
:14193A00621473048404950458F43092520D2092510D50922C
:14194E00540D4092530D81E080931E0D20905B0D24FE07C052
:1419620020901E0D222019F00E940C2001C0002726960E9437
:141976007625089505E30895F80120802092130D0F5F1F4F59
:14198A00F80120802092140D0F5F1F4FF80120802092150D94
:14199E000F5F1F4FF80120802092160D2091150D3091160D34
:1419B2000091130D1091140D0895F80120802092130D0F5F38
:1419C6001F4FF80120802092140D0091130D1091140D089523
:1419DA000E9432258091100D99270897FE0120803180428061
:1419EE0053808A93810192010E94C0251093140D0093130DE2
:141A02003093160D2093150D212E2092130D222E2092140DD1
:141A1600232E2092150D22242092160D2091150D3091160DC5
:141A2A000091130D1091140D249608950E947E25B80108E2F6
:141A3E000E944102222420925D0D0E947002402F07C00E9461
:141A52007002FB0100836F5F7F4F4A954423B9F78B010E94CF
:141A6600702508950E947E25B8010BE20E9441022224209272
:141A7A005D0D00E40E945C0240E4FB0100810E945C026F5F9B
:141A8E007F4F842F8150482F8823A9F78B010E9470250895D0
:141AA200A8D000913A0D10913B0DC4DF08950E948025402F01
:141AB60085E0849F0092150D09C00E940B020E940B028091A8
:141ACA00150D81508093150D2090150D222099F70E948325F2
:141ADE0008950E947E25422F602F20905C0D261610F04093EA
:141AF2005C0D20905C0D241611F4002709C081E080935C0D52
:141B06008AD0002311F002E801C003E80E947025089580E87B
:141B1A008093150D0AC001E00E9441020E9470028091150DAB
:141B2E0081508093150D2090150D222091F705E00E94410237
:141B420002E3B5DF089585E08093170D1AC026E005E60E9470
:141B56002322222420925C0D0E9470020A3949F426E00AE948
:141B6A000E9423220E947002053609F40CC0CFDF8091170D85
:141B7E0081508093170D2090170D222011F701E831C080E0F3
:141B920092E090933D0D80933C0D01E00E9441022224209246
:141BA6003E0D80915B0D8F7B80935B0D0E9470020093170D17
:141BBA00023A50F0063B28F080915B0D806480935B0D81E009
:141BCE0080933E0D81E080935C0D25E106E00E94232201E014
:141BE20066DF0E9470020F3511F401E801C0002708950E943D
:141BF6007E254FEF5FEF6FEF7FEF5093330D4093320D7093A8
:141C0A00350D6093340D222420921F0D0E947025089502E274
:141C1E000E9441020E947002222420925D0D00E20E944E2065
:141C320005FF0FC080915C0D823030F00BE10E944E20802FD4
:141C46008F7719F482E080935C0D002704C081E080935C0DD1
:141C5A0002E80895DEDF002311F002E82EC001E50E94332259
:141C6E0020905D0D222011F523E002E032DF20903E0D2220CD
:141C8200C9F008E30E944E200023A1F009DFE0913A0DF091C5
:141C96003B0D8081853061F421E004E30E94602008E50E944E
:141CAA00332220905D0D222009F002C0002705C022E002E0EA
:141CBE0010DF0E947A1F08950E9478254090340D5090350DD9
:141CD2002090320D3090330D8090380D9090390D6090360D21
:141CE6007090370D622473248424952440E050E060E070E048
:141CFA00641675068606970609F4A9C022242092150D209088
:141D0E005B0D26FC13C08091100D893079F080E88093140D78
:141D220081E08093160D0E947122002309F079C005E50E9400
:141D360041021AC004E50E944102222420925D0DE6E3FDE0A6
:141D4A0000810E945C020091370D0E945C020091380D0E94B7
:141D5E005C020091390D0E945C0201E00E945C0220903A0D64
:141D720030903B0D3092330D2092320D8091100D893021F466
:141D860088E090E05C0115C08091100D8A3021F480E190E071
:141D9A006C010CC08091100D8B3021F480E290E07C0103C0EC
:141DAE0080E490E07C0167015601A092140D17C00E94F40150
:141DC20080915D0D8D3169F50091320D1091330D31DE109313
:141DD600330D0093320D05E50E9441028091140D8150809302
:141DEA00140D2090140D222029F74090380D5090390D2090A6
:141DFE00360D3090370D3092330D2092320D5092350D4092A1
:141E1200340D0E94F40180915D0D843111F400271BC080919C
:141E2600150D853080F480915D0D863161F08091150D8130F6
:141E3A0010F00E947A1F8091150D8F5F8093150D60CFD3DE23
:141E4E000E94C01F0E947A1F01C000270E94762508950E9460
:141E62007C2522242092150D20905B0D26FC35C08091100D54
:141E7600893089F122242092140D81E08093160D0E94712240
:141E8A00002309F09FC020903A0D30903B0D3092330D209216
:141E9E00320D8091100D893019F448E050E014C08091100DA3
:141EB2008A3019F460E170E00CC08091100D8B3021F480E298
:141EC60090E05C0103C080E490E05C01B501AB014093140DF1
:141EDA0046C006E50E944102222420925D0DE6E3FDE0008195
:141EEE000E945C020091370D0E945C020091380D0E945C0235
:141F02000091390D0E945C0201E00E945C0220903A0D30905C
:141F16003B0D3092330D2092320D8091100D893019F448E060
:141F2A0050E014C08091100D8A3019F460E170E00CC080913C
:141F3E00100D8B3021F480E290E05C0103C080E490E05C017F
:141F5200B501AB014093140D17C00E94F40180915D0D8E317D
:141F660099F50091320D1091330D7CDD1093330D0093320D1A
:141F7A0007E50E9441028091140D81508093140D2090140D7A
:141F8E00222029F74090380D5090390D2090360D3090370DAB
:141FA2003092330D2092320D5092350D4092340D0E94F4016A
:141FB60080915D0D843141F420905B0D25FC02C00E941402FF
:141FCA00002719C08091150D853080F480915D0D863161F024
:141FDE008091150D813010F00E947A1F8091150D8F5F80939C
:141FF200150D3ACFFEDD0E94C01F0E947A1F0E947225089543
:142006000E947825259780915C0D833038F424DEA02E00237F
:14201A0009F053C20E94B121E8DD2224E1E1FDE0208240E0C4
:14202E0050E060E070E05093370D4093360D7093390D609365
:14204200380D40DEC02E002339F00E94B1213ADEA02E002370
:1420560009F035C2E1E1FDE02080222041F4E0913A0DF09197
:14206A003B0D80818D7F893E69F1EE2426C080913A0D90917B
:14207E003B0D82549E4FEE2DFF27E80FF91F24802220B1F06C
:1420920080913A0D90913B0D82549E4F0E2D1127080F191FF4
:1420A600085F1F4F69DC1093370D0093360D3093390D209393
:1420BA00380D08C08E2D805FE82E8E2D8034B9F602E9FBC190
:1420CE004090380D5090390D2090360D3090370D30922F0DCE
:1420E20020922E0D5092310D4092300DEBDD0C83002E002326
:1420F60009F0E5C1E0913A0DF0913B0D80818D7F893E11F0E1
:14210A0001EADBC1E0913A0DF0913B0D25842092590D209246
:14211E005A0D86E08093290D0FC020905A0D26FE01C011C0FB
:1421320020905A0D220C20925A0D8091290D81508093290DDA
:142146002090290D222069F781E08093590DE0913A0DF091EA
:14215A003B0D2688378830922B0D20922A0D222051F53320FE
:14216E0041F5E0913A0DF0913B0D24A035A046A057A030926E
:14218200190D2092180D50921B0D40921A0D40E050E061E0B8
:1421960070E0241635064606570638F0E1E1FDE0208022201E
:1421AA0011F002EA8AC12090180D3090190D30922B0D209282
:1421BE002A0DE0913A0DF0913B0D2488E0913A0DF0913B0D28
:1421D2003388322899F000913A0D10913B0D0D5E1F4FEBDBFB
:1421E6001801442455243092560D2092550D5092580D409299
:1421FA00570D10C0E0913A0DF0913B0D20A031A042A053A0B6
:14220E003092560D2092550D5092580D4092570D00913A0D2E
:1422220010913B0D0F5E1F4FC8DB180125E030E000913C0D39
:1422360010913D0D0E94B9251127015010401127020D131DD9
:14224A002091100D3327255030400E94B925180144245524F9
:14225E0030924A0D2092490D50924C0D40924B0DE0913A0D2E
:14227200F0913B0D268437843092400D20923F0D20902A0D36
:1422860030902B0D40903F0D5090400D420C531C12014424CB
:14229A00552480904B0D90904C0D6090490D70904A0D260C07
:1422AE00371C481C591C3092190D2092180D50921B0D409255
:1422C2001A0D81E020888215D8F420902A0D30902B0D44242E
:1422D600552480901A0D90901B0D6090180D7090190D620C53
:1422EA00731C841C951C7092190D6092180D90921B0D809265
:1422FE001A0D06C02224332430922B0D20922A0D40901A0D68
:1423120050901B0D2090180D3090190D8090570D9090580DFB
:142326006090550D7090560D62187308840895082090290DEA
:14233A0033242A92830194010E94C025FE0100831183228321
:14234E003383FE0120803180428053803092220D2092210D0F
:142362005092240D4092230D45EF5FEF60E070E0FE012080A1
:142376003180428053802416350646065706B0F422243324AE
:14238A0030922D0D20922C0D8091210D9091220D853FEFE036
:14239E009E0720F481E080935A0D1DC082E080935A0D19C005
:1423B200E0913A0DF0913B0D20A831A830922D0D20922C0D0E
:1423C60024A435A446A457A430924A0D2092490D50924C0D21
:1423DA0040924B0D83E080935A0D20903F0D3090400D22209D
:1423EE0011F4332079F140E050E060E070E040904B0D509031
:142402004C0D2090490D30904A0D2416350646065706F1F051
:1424160081E0E0913A0DF0913B0D2088821540F420902A0D76
:14242A0030902B0D222011F4332071F0E0913A0DF0913B0D2A
:14243E002384222039F4E0913A0DF0913B0D8485823040F404
:14245200E1E1FDE02080222019F481E08083E5CD4090380DBD
:142466005090390D2090360D3090370D60903F0D7090400DBC
:14247A0088249924620C731C841C951C7092260D6092250D3E
:14248E009092280D8092270D80901A0D90901B0D6090180D09
:1424A2007090190D620C731C841C951C7092460D6092450D19
:1424B6009092480D8092470D20E103E00EDB25960E94762570
:1424CA0008950E947C254090340D5090350D2090320D30903C
:1424DE00330D3092370D2092360D5092390D4092380DB7DCDD
:1424F200A02E002309F050C020902A0D30902B0D222019F4AE
:14250600332009F443C020902A0D30902B0D4424552480909E
:14251A00380D9090390D6090360D7090370D620C731C841CEE
:14252E00951C7092370D6092360D9092390D8092380D8FDC43
:14254200A02E002309F028C020902A0D30902B0D44245524F3
:142556008090380D9090390D6090360D7090370D621873084A
:14256A00840895087092370D6092360D9092390D8092380DFA
:14257E00130124013092330D2092320D5092350D4092340DE6
:14259200222420921F0D00270E94722508950E947A25A22E03
:1425A6006801249780915A0D823079F4F6012080318042805C
:1425BA005380220C331C441C551CFE012082318242825382FF
:1425CE002DC080915A0D833091F482E090E0F6012080318042
:1425E200428053808A93810192010E94A725FE01008311839A
:1425F6002283338317C0F6012080318039822882822D817052
:14260A008093200D3694279448805980420C531C120144241E
:14261E005524FE01208231824282538280913C0D90913D0D7D
:142632000197FE01208031802822392240903A0D50903B0DC8
:14264600240C351C3092120D2092110DFE0100811181228199
:14265A003381BED94090270D5090280D2090250D3090260D33
:14266E0038014901620C731C841C951CFE01608271828282AF
:1426820093824090340D5090350D2090320D3090330DFE010E
:142696006080718082809380622473248424952440E050E07C
:1426AA0060E070E06416750686069706D9F020901F0D222087
:1426BE0029F005DFC02E002309F0A7C1FE0120803180428087
:1426D20053803092370D2092360D5092390D4092380DF0DA1D
:1426E600C02E002309F095C1AA2051F18A2D8F3F51F44FEF6C
:1426FA005FEF6FEF7FEFFE0140835183628373831AC08A2DB0
:14270E00813051F440E050E060E070E0FE0140835183628366
:1427220073830DC040901A0D50901B0D2090180D3090190D26
:14273600FE01208231824282538281E080931F0D80915A0D8A
:14274A00823061F5E091110DF091120D208031803092140D10
:14275E002092130D222433243092160D2092150D8091130D0E
:142772009091140D873FEFEF9E0720F081E090E06C0102C0B8
:14278600CC24DD24C092200DAA2041F028803980E091110DE4
:14279A00F091120D31822082002739C180915A0D833009F0F1
:1427AE0035C0E091110DF091120D208031804280538030924B
:1427C200140D2092130D5092160D4092150D852D807F9B814A
:1427D6009F70982B9B83852D8F708093160D8F3020F081E0E8
:1427EA0090E06C0102C0CC24DD24C092200DAA2069F0FE01AA
:1427FE002080318042805380E091110DF091120D208231825D
:14281200428253820027FFC089818F70898320903A0D309067
:142826003B0D80913C0D90913D0D820D931D01972090110DEC
:14283A003090120D2816390609F438C0F10120802092130DD5
:14284E0021802092140DAA2009F4ADC02090200D2220C9F0F6
:1428620088818F7082959091130D9F70982BE091110DF09120
:14287600120D908389818F708295988192959F70982BE09179
:14288A00110DF091120D918390C02880E091110DF091120D41
:14289E00208229808091140D807F8229E091110DF091120DD0
:1428B20081837FC0E091110DF091120D20802092130DAA2064
:1428C60019F12090200D222099F028803324220C331C220CA2
:1428DA00331C220C331C220C331C8091130D99278F709070B1
:1428EE006C01C228D32802C0C880DD24E091110DF091120D4A
:14290200C082E3DDC02E002309F085C041E050E060E070E08F
:142916004090340D5090350D2090320D3090330D240E351E06
:14292A00461E571E3092370D2092360D5092390D4092380D86
:14293E00C3D9C02E002309F068C0E0913A0DF0913B0D208096
:142952002092140DAA2069F12090200D2220B9F029803324B2
:14296600220C331C220C331C220C331C220C331CA880BB2462
:14297A00B594A794B594A794B594A794B594A794A228B32894
:14298E000AC0298033248091140D9927807F90705C01A22853
:1429A200B328E0913A0DF0913B0DA08281E080931F0D209053
:1429B600200D222091F08091140D8F7082959091130D92956D
:1429CA009F70982B9093130D8091140D82958F708093140D68
:1429DE0005C08091140D8F708093140D222433243092160D39
:1429F2002092150D8091130D9091140D873FEFE09E0720F040
:142A060081E090E05C0102C0AA24BB24A092200D00272496DF
:142A1A000E94742508950E947C2570C14090230D5090240D4B
:142A2E002090210D3090220D80901A0D90901B0D6090180D33
:142A42007090190D261437044804590410F401EB5EC141E00C
:142A560050E060E070E040901A0D50901B0D2090180D309018
:142A6A00190D240E351E461E571E3092190D2092180D509233
:142A7E001B0D40921A0D222708E11DE08ADDA02E002309F0A3
:142A92003EC140E050E060E070E04090150D5090160D2090AC
:142AA600130D3090140D241635064606570609F428C1809106
:142ABA005A0D813009F422C120903A0D30903B0D3092120D30
:142ACE002092110D823009F07CC080913C0D90913D0D96954D
:142AE200879501979093140D8093130D9093160D8093150D3A
:142AF6008091110D9091120D02969093120D8093110DFC0155
:142B0A0020803180222009F036C0332009F033C08FEF9FEFEA
:142B1E00E091110DF091120D918380832090150D3090160DA8
:142B32004424552480901A0D90901B0D6090180D7090190DF4
:142B460062287328842895288091130D9091140D01971C01C5
:142B5A004424552462187308840895087092190D6092180D29
:142B6E0090921B0D80921A0D81E080931F0D0027C8C0809170
:142B8200130D9091140D01979093140D8093130D803089078E
:142B960009F0AECF2090150D3090160D4424552480901A0DE8
:142BAA0090901B0D6090180D7090190D622873288428952806
:142BBE007092190D6092180D90921B0D80921A0D9BC08091D5
:142BD2003C0D90913D0D969587959695879501979093140DD1
:142BE6008093130D9093160D8093150D8091110D9091120DBE
:142BFA0004969093120D8093110DFC0120803180222009F031
:142C0E0054C0332009F051C0E091110DF091120D228022202E
:142C220009F049C0E091110DF091120D83818F7009F041C070
:142C36008FEF9FEFE091110DF091120D91838083E091110DA9
:142C4A00F091120D82838091110D9091120D0396FC018081CB
:142C5E008F6080832090150D3090160D4424552480901A0DA3
:142C720090901B0D6090180D7090190D62287328842895283D
:142C86008091130D9091140D01971C0144245524621873083C
:142C9A00840895087092190D6092180D90921B0D80921A0D3B
:142CAE0081E080931F0D00272CC08091130D9091140D019754
:142CC2009093140D8093130D8030890709F090CF2090150D1D
:142CD6003090160D4424552480901A0D90901B0D6090180D92
:142CEA007090190D62287328842895287092190D6092180DE3
:142CFE0090921B0D80921A0D8FCE2FEF08E11DE048DC0E9418
:142D1200722508950E947C2582DEA02E013B09F00DC040E0E6
:142D260050E060E070E05093190D4093180D70931B0D6093BA
:142D3A001A0D71DE0E94722508950E947C2520902C0D30904D
:142D4E002D0D222021F4332011F4002746C04090300D50906E
:142D6200310D20902E0D30902F0D60902C0D70902D0D882429
:142D76009924620C731C841C951C7092370D6092360D9092A1
:142D8A00390D8092380D0E94630EA02E002309F026C08091A4
:142D9E003A0D90913B0D88519E4FFC01408051806280738048
:142DB20060911A0D70911B0D4091180D5091190D440D551D0C
:142DC600661D771D5093190D4093180D70931B0D60931A0D9C
:142DDA002A013B0140825182628273823CD80E947225089526
:142DEE000E947825299702E20E9441020E94700280915C0D7B
:142E0200803128F4FFD8A02E002309F037C420E100E10E94AF
:142E1600700DA02E002309F02FC4222420921E0D8091F20C1C
:142E2A008C3511F08F3239F483EF9CE090931D0D80931C0D6D
:142E3E0010C08091F30C8A3309F0B7C08091F20C833408F4B1
:142E5200B2C085EF9CE090931D0D80931C0D80915A0D833056
:142E660071F440904B0D50904C0D2090490D30904A0DFE0176
:142E7A00208231824282538209C040E050E060E070E0FE01AE
:142E8E004083518362837383FE012080318042805380309217
:142EA200560D2092550D5092580D4092570DE0911C0DF0910D
:142EB6001D0D2080222009F0BAC34FEF5FEF6FEF7FEF50934B
:142ECA00520D4093510D7093540D6093530D80915A0D833082
:142EDE0009F447C082E0E5E5FDE0808340904B0D50904C0D6F
:142EF2002090490D30904A0D3324442455248090470D9090F3
:142F0600480D6090450D7090460D62187308840895087092AD
:142F1A00460D6092450D9092480D8092470D2091100D332707
:142F2E000091490D10914A0D0E94A02518014424552430928D
:142F4200520D2092510D5092540D4092530D2090590D33242A
:142F56004424552430924A0D2092490D50924C0D40924B0D00
:142F6A0080E88093590D4090570D5090580D2090550D309027
:142F7E00560D3092190D2092180D50921B0D40921A0D40E0FA
:142F920050E060E070E050934E0D40934D0D7093500D6093AD
:142FA6004F0D22242092170D82E180935C0D01E463C382EF44
:142FBA009CE090931D0D80931C0D37C3E0911C0DF0911D0DBF
:142FCE008081853E11F485E0808340E050E060E070E040900E
:142FE200570D5090580D2090550D3090560D2416350646063C
:142FF600570699F12090590D2092170D42E050E060E070E012
:14300A004090570D5090580D2090550D3090560D241A350A87
:14301E00460A570A6090290D77246A92810192010E94A725AD
:14303200180129018090470D9090480D6090450D7090460DD9
:14304600260C371C481C591C3092420D2092410D5092440DD4
:14305A004092430DB5C240904B0D50904C0D2090490D3090A2
:14306E004A0D2092170D3324442455248090470D9090480D10
:143082006090450D7090460D62187308840895087092420D36
:143096006092410D9092440D8092430D93C24090430D5090BC
:1430AA00440D2090410D3090420D3092370D2092360D5092D7
:1430BE00390D4092380D0E94630E0F83002E002309F0D6C21A
:1430D200222433243092400D20923F0D4CC220903A0D30907B
:1430E6003B0D40903F0D5090400D420C531C5092120D4092B5
:1430FA00110DF20120802D82222009F497C28D81853E09F4FC
:14310E002BC28D81853011F485EE8D83E0911C0DF0911D0D30
:14312200208033244D8055244214530421F0822D8A3209F03A
:1431360017C222242092160D00240C8271C020901C0D309015
:14314A001D0DE091160DFF27E20DF31D20804090110D509020
:14315E00120DEC81FF27E40DF51D3080321409F453C02090F2
:143172001C0D30901D0DE091160DFF27E20DF31D208022209B
:14318600A1F020901C0D30901D0DE091160DFF27E20DF31D28
:14319A0080818C3541F0E091160DFF27E20DF31D80818F32B3
:1431AE00B1F42090110D3090120DEC81FF27E20DF31D808128
:1431C200803209F033C08C81883020F4F1018085803261F583
:1431D6008BE08C8329C020901C0D30901D0DE091160DFF2705
:1431EA00E20DF31D80818E32E9F48091160D883059F020904F
:1431FE00110D3090120DEC81FF27E20DF31D8081803271F416
:1432120087E08C830C8003940C828091160D8F5F8093160D29
:143226008C818B3008F48BCF8C818B3008F4D1C0E091110D92
:14323A00F091120D238423FCCAC022242092200DE091110DDC
:14324E00F091120D228C338C442455243092560D2092550D45
:143262005092580D4092570D80915A0D833031F42488358822
:143276003092580D2092570D20901C0D30901D0DE091160DB0
:14328A00FF27E20DF31D2080222029F02090200D222009F4F4
:14329E008DC04090570D5090580D2090550D3090560D30925F
:1432B200190D2092180D50921B0D40921A0D40E050E060E078
:1432C60070E050934E0D40934D0D7093500D60934F0D222444
:1432DA002092170DE091110DF091120D238424FE22C04FEFF2
:1432EE005FEF6FEF7FEF5093520D4093510D7093540D6093E8
:14330200530D23E100E10E94700D0887002E002309F0B4C105
:143316002090200D222021F083E490E07C0103C081E490E087
:14332A007C010E2DA7C1E091110DF091120D248C358C468CFD
:14333E00578C3092520D2092510D5092540D4092530D40E0D2
:1433520050E060E070E04090570D5090580D2090550D30905C
:14336600560D241635064606570679F48FEF8093170D40E090
:14337A0050E060E070E05093520D4093510D7093540D6093B5
:14338E00530D24E100E10E94700D0E83002E002309F06EC1BC
:1433A2002090200D222021F083E490E07C0102C0EE24FF249C
:1433B6000E2D62C120901C0D30901D0D8091160D9927820D5F
:1433CA00931D019690931D0D80931C0DF7CD20901C0D3090C2
:1433DE001D0DE091160DFF27E20DF31D80818A3209F0BAC0C8
:1433F200E091110DF091120D238423FCB3C020901C0D3090C6
:143406001D0DE091160DFF27E20DF31D2180222009F05DC0D6
:14341A00CC2422242092140D45C02090110D3090120DEC2DCA
:14342E00FF27E20DF31D8081803209F438C08C2D883081F4D7
:1434420020901C0D30901D0DE091140DFF27E20DF31D8EE28C
:1434560080838091140D8F5F8093140D2090110D3090120D5E
:14346A00EC2DFF27E20DF31D208040901C0D50901D0DE091FC
:14347E00140DFF27E40DF51D20822090140D222049F4E0918D
:143492001C0DF0911D0D8081853011F485EE80838091140DEF
:1434A6008F5F8093140DC3948C2D8B3008F4B7CF20901C0DCA
:1434BA0030901D0DE091140DFF27E20DF31D2224208281E014
:1434CE008093200DBBCE20901C0D30901D0DE091160DFF27A4
:1434E200E20DF31D81818F3F79F540E050E060E070E04090E9
:1434F600530D5090540D2090510D3090520D24163506460633
:14350A00570609F485CF57FE02C00E941D0241E050E060E096
:14351E0070E04090530D5090540D2090510D3090520D241A6D
:14353200350A460A570A3092520D2092510D5092540D40924F
:14354600530D0EC020901C0D30901D0D8091160D9927820DFD
:14355A00931D0196FC0180818150808380913F0D9091400D79
:14356E0080969093400D80933F0D20903C0D30903D0D409091
:143582003F0D5090400D4214530408F4A8CD41E050E060E00D
:1435960070E04090430D5090440D2090410D3090420D240E41
:1435AA00351E461E571E3092420D2092410D5092440D4092CB
:1435BE00430D8091170D81508093170D2090170D222009F05D
:1435D20068CD40E050E060E070E04090570D5090580D2090A7
:1435E600550D3090560D241635064606570609F41FC0222709
:1435FA0005E51DE00E94D012A02E002309F03AC02090200D91
:14360E00222009F011C04090150D5090160D2090130D309017
:14362200140D3092560D2092550D5092580D4092570DC8CC29
:14363600AA2412C020901C0D30901D0DEA2DFF27E20DF31DE1
:14364A0020803324822D8C3511F08F3211F403EB11C0A39448
:14365E0020901C0D30901D0DEA2DFF27E20DF31D2080332462
:14367200222019F0822D8A32F9F602E429960E947625089520
:143686000E947C2580915C0D823110F404EB5AC080915C0D39
:14369A008231C9F580915A0D8330A9F140904B0D50904C0D85
:1436AE002090490D30904A0D2092590D2091100D332700911A
:1436C200510D1091520D0E94B92518014424552430924A0D03
:1436D6002092490D50924C0D40924B0D33244424552480902B
:1436EA00470D9090480D6090450D7090460D620C731C841CD1
:1436FE00951C7092460D6092450D9092480D8092470D83E12D
:1437120020905C0D821540F480915C0D843139F42090F20CB5
:14372600222019F4222420921E0D20901E0D222029F06FD4A4
:14373A00A02E002309F004C020E100E10E94700D0E94722593
:14374E0008950E947A2580915C0D833128F448DBA02E00232B
:1437620009F095C020E100E10E94700DA02E002309F08DC0CD
:143776004090430D5090440D2090410D3090420D3092370DDB
:14378A002092360D5092390D4092380D0E94630EA02E0023F3
:14379E0009F077C020903A0D30903B0DA0903F0DB090400DDF
:1437B200A20CB31C85EEF50180830E94300FA02E002309F04F
:1437C60064C04090570D5090580D2090550D3090560D30925B
:1437DA00140D2092130D5092160D4092150D40E050E060E05F
:1437EE0070E0241635064606570609F449C041E050E060E0C2
:1438020070E0241A350A460A570A3092560D2092550D509219
:14381600580D4092570D40E050E060E070E05093190D409347
:14382A00180D70931B0D60931A0D21E003E11DE00E94D012BA
:14383E00C02E002309F025C041E050E060E070E040901A0DAF
:1438520050901B0D2090180D3090190D240E351E461E571E41
:143866003092190D2092180D50921B0D40921A0D2090200DAF
:14387A002220D9F20E946612A02E002309F003C05CDA01C06F
:14388E0000270E94742508950E9478252297A8DA0093170DF6
:1438A200002331F454DFA02E002309F454C149C28091170D54
:1438B600823411F0082F43C280913C0D90913D0D809720907F
:1438CA003F0D3090400D2816390608F440C140E050E060E087
:1438DE0070E04090570D5090580D2090550D3090560D24169E
:1438F20035064606570609F4D1C04090470D5090480D209047
:14390600450D3090460D6090430D7090440D4090410D5090B9
:14391A00420D42188091590D815048224092170D80913F0DEB
:14392E009091400D9070882331F08091590D8150481609F0AC
:143942000AC1222705E51DE00E94D012A02E002309F0F7C150
:143956002090200D222009F4FCC04090570D5090580D20905C
:14396A00550D3090560D3092190D2092180D50921B0D409229
:14397E001A0DCAD9A02E002309F0DDC122E005E51DE00E9458
:14399200D012A02E002309F0D4C10E946612A02E002309F0BC
:1439A600CEC10E94FA0DAA24BB240CC020903A0D30903B0D5D
:1439BA00F501E20DF31D22242082C50101965C0120903C0D69
:1439CE0030903D0D250142245324442059F7552049F7222429
:1439E2002092170DDCD280913F0D9091400D90708823B1F432
:1439F600222433243092400D20923F0D4090380D5090390DD8
:143A0A002090360D3090370D3092420D2092410D5092440D6D
:143A1E004092430D2090590D2092130D23C00E94300FA02EF8
:143A3200002309F086C141E050E060E070E04090380D509047
:143A4600390D2090360D3090370D240E351E461E571E30920F
:143A5A00370D2092360D5092390D4092380D8091130D8150DE
:143A6E008093130D2090130D2220C9F64FEF5FEF6FEF7FEFE8
:143A82005093190D4093180D70931B0D60931A0D58D9C02ECB
:143A9600002309F45EC053C180913F0D9091400D9070882354
:143AAA0009F055C041E050E060E070E04090430D5090440DC8
:143ABE002090410D3090420D241A350A460A570A3092420DA8
:143AD2002092410D5092440D4092430D3092370D2092360D90
:143AE6005092390D4092380D0E94630EA02E002309F025C1AA
:143AFA00222433243092400D20923F0D1BC020903A0D30907C
:143B0E003B0DA0903F0DB090400DA20CB31CF5018081853E1B
:143B220021F483858E7009F416C080913F0D9091400D8096C0
:143B36009093400D80933F0D20903C0D30903D0D40903F0D8D
:143B4A005090400D42145304D0F202EBF6C04090570D509014
:143B5E00580D2090550D3090560D3092190D2092180D509218
:143B72001B0D40921A0DCED8A02E002309F0E1C00E946612D3
:143B8600A02E002309F0DBC040901A0D50901B0D2090180DD2
:143B9A003090190D3092560D2092550D5092580D4092570D7B
:143BAE004FEF5FEF6FEF7FEF5093190D4093180D70931B0D7F
:143BC20060931A0DBED8A02E002309F0BAC04090430D5090DB
:143BD600440D2090410D3090420D3092370D2092360D5092A0
:143BEA00390D4092380D0E94630EA02E002309F0A4C0209059
:143BFE003A0D30903B0D40903F0D5090400D420C531C598283
:143C12004882CC2411C08C2D8B3020F480E290E05C0102C09A
:143C2600AA24BB24EC2DFF2708801980E00DF11DA082C39409
:143C3A008C2D803260F381E290E3E881F981918F808F81E06F
:143C4E00E881F981848FEE242DC0E0911C0DF0911D0D208088
:143C6200222009F429C0E0911C0DF0911D0D80818E3241F4EB
:143C760088E0E82ECF01019690931D0D80931C0DEE2DFF278B
:143C8A0008801980E00DF11DA0911C0DB0911D0D2C902082E7
:143C9E00E39480911C0D90911D0D019690931D0D80931C0DF6
:143CB2008E2D8B3008F4CFCF2090550D3090560DE881F981D6
:143CC600338E228E2090570D3090580DE881F981358A248AF0
:143CDA000E94300FA02E002309F02FC04090570D5090580DA3
:143CEE002090550D3090560D3092190D2092180D50921B0DC4
:143D020040921A0D40E050E060E070E05093520D4093510D61
:143D16007093540D6093530D40E050E060E070E050934E0DC4
:143D2A0040934D0D7093500D60934F0D22242092170D24E188
:143D3E0000E10E94700D22960E94762508950E947E25809189
:143D52005C0D833110F404EBC9C04090430D5090440D2090C3
:143D6600410D3090420D3092370D2092360D5092390D4092F7
:143D7A00380D0E94630E402F002309F0B3C0222420921F0DBB
:143D8E0020903A0D30903B0D40913F0D5091400D420D531D18
:143DA2006091FA0CFA0123842092FA0C8FEF90E0262E332423
:143DB60028263926222011F4332029F0FA01638781E0809340
:143DCA001F0D2090F80C3090F90C3092160D2092150DFA018C
:143DDE00268837883092F90C2092F80C8FEF9FEF2090150D09
:143DF2003090160D28263926222011F4332051F02090150D80
:143E06003090160DFA01378A268A81E080931F0D2090F60C07
:143E1A003090F70C3092160D2092150DFA01208C318C3092F2
:143E2E00F70C2092F60C8FEF9FEF2090150D3090160D2826BA
:143E42003926222011F4332051F02090150D3090160DFA0182
:143E5600318E208E81E080931F0D4090F40C5090F50C2090EA
:143E6A00F20C3090F30C3092FF0C2092FE0C5092010D40923C
:143E7E00000DFA01248C358C468C578C3092F30C2092F20C91
:143E92005092F50C4092F40C8091010D8F3FD9F04090000DD4
:143EA6005090010D2090FE0C3090FF0C3092520D2092510D64
:143EBA005092540D4092530DFA01248E358E468E578E81E0F5
:143ECE0080931F0D222420921E0D20901F0D222031F02224F9
:143EE20020921F0D0E94300F01C000270E947025089582E3EC
:143EF6008093140D07C00E940B028091140D81508093140DD7
:143F0A002090140D2220A9F702E20E9441020E947002809102
:143F1E005D0D863141F080915C0D813021F000E2B6D005FD97
:143F320005C081E080935C0D02E820C020903E0D2220A1F041
:143F460080915C0D833080F020905D0D2092140D22242092E5
:143F5A005D0D0AE50E9441020E94F4012090140D20925D0D91
:143F6E0020905D0D222011F400E102C000915D0D0895809192
:143F82005C0D823121F483E080935C0D07C080E120905C0DDA
:143F9600821510F480935C0D08950E947E2542E050E060E08C
:143FAA0070E040901A0D50901B0D2090180D3090190D241ABB
:143FBE00350A460A570A6090290D77246A92810192010E948B
:143FD200A725180129018090470D9090480D6090450D7090B1
:143FE600460D260C371C481C591C6090170D772488249924FE
:143FFA00260C371C481C591C3092370D2092360D5092390D32
:14400E004092380D0E94702508950E948025222420921E0D49
:1440220080915C0D843108F434C04090430D5090440D20906A
:14403600410D3090420D3092370D2092360D5092390D409224
:14404A00380D0E94630E402F002309F01FC020903A0D3090E9
:14405E003B0D40913F0D5091400D420D531DFA01238424FC3A
:1440720010C04090530D5090540D2090510D3090520DFA01D1
:14408600248E358E468E578E0E94300F01C000270E948325E5
:14409A0008950E948025402F0AE00E944102042F0E945C02BD
:1440AE00442319F00E94700201C0042F0E94832508950E94FD
:1440C2007E25422F602F0BE00E944102062F0E945C02042F0F
:1440D6000E945C020E94702508950E9480250E940E0E0023DA
:1440EA0011F002E830C080915C0D833090F40E942F0E002334
:1440FE0049F002E30E94580D0E942F0E402F002309F01FC040
:1441120027D1002311F0EDDE1AC020903E0D2220A9F009E514
:144126009FD120905D0D2092140D222011F400270CC00AE004
:14413A000E94580D0AE592D102E00E94580D0091140D01C0BC
:14414E0000270E94832508950E947C2540E050E060E070E02C
:144162004090570D5090580D2090550D3090560D2416350626
:144176004606570609F475C04090570D5090580D2090550DCF
:14418A003090560D3092190D2092180D50921B0D40921A0D3C
:14419E0037C0222708E11DE00E94D012A02E002309F06BC04E
:1441B2002090200D222009F056C04090150D5090160D209026
:1441C600130D3090140D3092190D2092180D50921B0D409249
:1441DA001A0D2090590D3324442455248090F40C9090F50C2B
:1441EE006090F20C7090F30C62187308840895087092F30CB1
:144202006092F20C9092F50C8092F40C2090590D33244424AE
:1442160055248090F40C9090F50C6090F20C7090F30C621487
:14422A0073048404950408F0B6CF822D815013012401282268
:14423E002092170DAEDE4090380D5090390D2090360D30901C
:14425200370D3092F30C2092F20C5092F50C4092F40C0027C7
:1442660010C08FEF8093170D4FEF5FEF6FEF7FEF5093F30C85
:14427A004093F20C7093F50C6093F40C00270E94722508956B
:14428E000E947C250E941015A02E002319F0013B09F05DC0C6
:1442A200AA2091F040E050E060E070E05093190D4093180DDC
:1442B60070931B0D60931A0D0E941015A02E002309F049C0F5
:1442CA000E946612A02E002309F043C040901A0D50901B0DDA
:1442DE002090180D3090190D3092560D2092550D5092580D91
:1442F2004092570D4090430D5090440D2090410D3090420D24
:144306003092370D2092360D5092390D4092380D0E94630E56
:14431A00A02E002309F01DC020903A0D30903B0DA0903F0D4D
:14432E00B090400DA20CB31C81E0F501848F2090550D309035
:14434200560DF501338E228E2090570D3090580DF501358AAF
:14435600248A0E94300F0E947225089582E38093140D66C02F
:14436A0003E57CD020905D0D222009F03DC00E94510DE09148
:14437E003A0DF0913B0D8681843021F48AE08093100D19C0D8
:14439200E0913A0DF0913B0D8681883021F48BE08093100D27
:1443A6000EC0E0913A0DF0913B0D8681803121F48CE0809368
:1443BA00100D03C089E08093100D2091100D332701E010E07D
:1443CE000E94A02510933D0D00933C0D1091100D1650135024
:1443E20008E00E94B325202F09E369DE002729C080915D0D58
:1443F600863121F080915D0D853109F41EC002E30E94580DF3
:14440A0020903E0D222051F020905D0D2092150D0AE524D04F
:14441E002090150D20925D0D0AE00E94580D8091140D8150A8
:144432008093140D2090140D222009F095CF00915D0D08953A
:144446000E947E25622F402F062F0E944102222420925D0DA1
:14445A00042F0E945C020E94702508950E948025402F22244B
:14446E0020925D0D042F0E9441020E94F40120905D0D222013
:1444820021F480E180935D0D07C080915D0D843119F42224E9
:1444960020925D0D0E94832508950E947E25622F402F062F95
:1444AA000E944102222420925D0D042F0E945C020E94F401ED
:1444BE0020905D0D222021F480E180935D0D07C080915D0D59
:1444D200843119F4222420925D0D0E94702508950E94802597
:1444E60020903E0D222041F004E3D5DD2090140D202A2092EE
:1444FA00140D03C023E004E3DEDD0BE20E944102222420925B
:14450E005D0D0FE10E945C0205E50E945C0203E50E945C026D
:1445220002E40E945C0203E40E945C0203E00E945C0207E0EE
:144536000E945C0205E00E945C020AE00E945C0200270E94D9
:14454A005C022091100D3327285030400091160D11270E9461
:14455E00A0250E945C0200270E945C0200270E945C020091A5
:14457200140D00780E945C020091140D0F700E945C020AE081
:144586000E945C022090140D27FE03C048E250E002C04AE220
:14459A0050E0042F0E945C0200270E945C022090140D26FE8E
:1445AE0012C00091F90C0E945C020091F80C0E945C0200916B
:1445C200F70C0E945C02E6EFFCE000810E945C0211C000914E
:1445D600390D0E945C020091380D0E945C020091370D0E943E
:1445EA005C02E6E3FDE000810E945C0200270E945C020027EA
:1445FE000E945C020091160D0E945C0200270E945C020027A7
:144612000E945C0200270E945C0200270E945C0200270E947D
:144626005C0200270E945C0200270E945C0201E332DD00934E
:14463A00140D202F0EE13FDD03E32BDD2FE42BDF20905D0DCC
:14464E00222041F480E490E04091140D55274827592702C0EE
:1446620044275527242F01E32ADD20905D0D222019F1209009
:144676005D0D2092140D80915D0D863111F002E5EFDE8091FB
:14468A005D0D863111F402E839C002E302DD21E402950F7034
:14469E000068FFDE03E3FBDC21E402950F70F9DE2090140D43
:1446B20020925D0D022D26C01091100D19500091160D0E9446
:1446C600B325202F20903E0D222019F046E350E002C045E330
:1446DA0050E0042FF0DC28E020903E0D222019F047E350E0F5
:1446EE0002C046E350E0042FE4DC00E2D0DC202F286000E263
:14470200DEDC00270E9483250895ABD1F0D12A970024112484
:144716001F820E8283C1EE89FF898081853251F00081EC892C
:14472A00FD8900D28E819F8101969F838E836FC1EE24FF24C5
:14473E004EE55DE060E28E899F8901969F8B8E8BE82FF92F5D
:14475200208033243D822C82822D932D8835E0E09E0709F461
:1447660089C088E582159305A4F08C819D818534E0E09E077D
:14477A0009F448C18534E0E09E070CF443C08C819D81833521
:14478E00E0E09E0709F4DBC03BC08C819D818F36E0E09E07CA
:1447A20009F46AC08FE690E02C803D8082159305DCF08C8186
:1447B6009D818336E0E09E0709F4B0C08436E0E09E0709F42A
:1447CA002DC08536E0E09E0709F41CC18636E0E09E0709F4D6
:1447DE0017C18936E0E09E07F9F012C08C819D818337E0E06B
:1447F2009E0709F4D7C08537E0E09E0709F43CC08837E0E0E1
:144806009E0709F437C000C0EE89FF890081EC89FD898AD16F
:14481A008E819F8101969F838E83F9C0888D998D0296998FDD
:14482E00888FE82FF92F32972080318039862886822D932D2A
:144842008030E0E09E0774F48E2D9F2D8860E82EF92E6DE2EA
:14485600822D932D809590958F5F9F4F998788878AE090E0C0
:14486A009983888328853985042F152FAED14FC0888D998D68
:14487E000296998F888FE82FF92F3297208031803986288689
:14489200EE89FF898081853751F48AE090E099838883222DC1
:1448A600332D042F152FE7D134C0EE89FF8980818F3651F471
:1448BA0088E090E09983888328853985042F152FD8D125C07B
:1448CE0080E190E09983888328853985042F152FCED1EE89E6
:1448E200FF8980818835B9F48EE59DE0C82ED92E0DC0EC2DFC
:1448F600FD2D0081112704D2EC2DFD2D00838C2D9D2D019615
:14490A00C82ED92EEC2DFD2D2080222071F78EE59DE0C82E29
:14491E00D92E54C0888D998D0296998F888FE82FF92F329750
:14493200208031802A82022DEC89FD89F7D08E819F810196BD
:144946009F838E8366C0888D998D0296998F888FE82FF92FB3
:14495A003297A080B1806D32D9F40DE2EC89FD89E1D08E8119
:14496E009F8101969F838E8311C0EA2DFB2DC895002DEC893C
:14498200FD89D4D08E819F8101969F838E838A2D9B2D0196E8
:14499600A82EB92EEA2DFB2DC895002051F739C0888D998D18
:1449AA000296998F888FE82FF92F3297C080D180CC2031F478
:1449BE00DD2021F486E992E0C82ED92E6D32D1F40DE2EC892D
:1449D200FD89ACD08E819F8101969F838E8310C0EC2DFD2DC3
:1449E6000081EC89FD89A0D08E819F8101969F838E838C2D1F
:1449FA009D2D0196C82ED92EEC2DFD2D2080222059F705C011
:144A0E0083E392E0C82ED92ED9CF8E899F8901969F8B8E8BFE
:144A2200EE89FF892080222009F077CE0E811F812A965BD047
:144A360024960895A02FB12FE22FF32F01900D920020E1F70B
:144A4A000895E02FF12FAA27BB270190002011F01196FBCFB6
:144A5E000A2F1B2F08953A932A931A930A9308956894DA924B
:144A7200D12E04C0E894DA92D12ED32617FF04C01095009579
:144A86000F5F1F4F37FF04C0309520952F5F3F4F0BD0D7FE00
:144A9A0004C0109500950F5F1F4FD9900895689401C0E894EF
:144AAE00EA92FA928A93EE24FF2480E1000F111FEE1CFF1CD5
:144AC200E216F30618F0E21AF30A03958A95A1F716F40E2D5A
:144AD6001F2D8991F990E9900895E2E012C0E4E010C0E8E0D7
:144AEA000EC0EE270CC0FA92EA92DA92CA92BA92AA927A93A4
:144AFE006A935A934A930895E1E049915991E0FD0895699147
:144B12007991E1FD0895A990B990E2FD0895C990D990E3FD6A
:144B26000895E990F99008950A92C8950A923196C895F02D69
:144B3A00E99109900994222321F0000F111F2A95FACF0895FD
:144B4E000F920990002031F0000F111F221F331F0A94F8CFA1
:144B62000F900895112319F0000F1A95FBCF0895222321F04B
:144B7600169507952A95FACF08950F920990002031F0369579
:144B8A002795179507950A94F8CF0F900895B3DF402F2090C1
:144B9E00770D3090780D222011F4332021F04A3011F40DE023
:144BB200F2DF5D9BFECF4CB9042F1127A3DF0895822F932F57
:144BC60001968E7F800F911F082F192F08958DDFC22ED32E7F
:144BDA00402F512FA297ACA4BDA48C2D9D2D8030E0E09E0756
:144BEE0044F461E0809590958F5F9F4FC82ED92E01C06627D9
:144C0200222429A28C2F9D2F8196E82EF92E8E2D9F2D019793
:144C1600282E392EE82EF92E2A2D3B2D0C2D1D2D23DFE02F3D
:144C2A00F12F88EA92E0E80FF91F4080E22DF32D40822A2D5B
:144C3E003B2D0C2D1D2D18DFC02ED12ECC2009F7DD20F9F6BB
:144C5200662359F08E2D9F2D0197282E392EE82EF92E8DE2F4
:144C6600E22DF32D80832E2D3F2D042F152FE2DEA29639DFBA
:144C7A0008953BDFA22EB32EC02ED12EA2976AA57BA5222423
:144C8E0029A24C2F5D2F4F5D5F4F842F952F0197282E392E1A
:144CA200482F592F262F372F0A2D1B2DFCDEE02FF12F8DEC43
:144CB60092E0E80FF91F4080E22DF32D4082262F372F0A2DC6
:144CCA001B2DEFDEA02EB12EAA2009F7BB20F9F6242F352FC9
:144CDE000C2D1D2DABDEA29600DF08958FE890E0202E312E6E
:144CF200280E391EE22DF32DC895002D1127027010700895A1
:144D0600FCDE402F512F042F152FECDF0030010739F0042FFA
:144D1A00152F015610400F5B1F4F02C0042F152FEDDE089521
:144D2E009ADEE7DE229722E030E00C2F1D2F0C5F1F4F40DFEA
:144D4200402F512F598348832C813D810CE810E0DCDC402F51
:0A4D5600512F2296D5DE2496089511
:00000001FF
