:10000000020641C2947F641205FD7F641205FDD291
:1000100094759850758780758920758DE6D28E7598
:10002000083C7D017FA51204BC8F2E12062D758D14
:10003000F37F058015E4FD7F601204BC8F2E12064D
:100040002DE509C3940250077F641205FD80E67F09
:10005000C81205FDC294E4F52E7F641205FDE4FD8F
:100060007F711204BCEF6009052EE52EC394054094
:10007000E878087C007D007BFF7A05797A7E007F36
:10008000201203697D207F641204BC8F2EE52E644C
:10009000B36009E52E64426003020128E4F52F787D
:1000A000087C007D007BFF7A05798A7E007F201224
:1000B0000369E4F52E7408252EF8E66007052EE5A1
:1000C0002EB41FF17408252EF8A62FE52E04FD7F0F
:1000D000631204BC8F2EE52E64426018E52E600B7F
:1000E00064436007AF2E12062D8009052FE52FC34C
:1000F00094FF40AB78007C007D017BFF7A05798D11
:1001000012047FE4F534F533F532F5317B017A00E2
:1001100079001206188E358F36E53624FFE5353422
:1001200001C313F5300201E3AF2E12062DE4FD7F6B
:10013000681204BC8F2E12062DAF0BAE0AAD09ACAF
:10014000088F348E338D328C317F007E807DFF7C32
:10015000FFAB34AA33A932A831D312038F400B75F9
:100160003040753580753600801FE53424FFFFE58B
:10017000333401FEE43532FDE43531FC78091203F5
:10018000A08F30853335853436853008752C007561
:100190002D007D017F6B1204BC8F2E12062D1204E0
:1001A000B58F2E12062DE4FFFEC3EF9536EE953582
:1001B000503174002FF58274003EF583E0F52FC3B3
:1001C00094614018E52FD3947A5011E52F24E0FD77
:1001D00074002FF58274003EF583EDF00FBF00012F
:1001E0000E80C678087C007D007BFF7A0579EA7E68
:1001F000007F201203697D207F651204BC8F2E12C0
:10020000062D750801752C00752D007D017F6C127F
:1002100004BC8F2E12062DE530D394014011E53039
:1002200014F5087D017F6C1204BC8F2E12062D750B
:1002300010FF74FFF50EF50F750C30750DB2AE356D
:10024000E485360B8E0AF509F5087D097F691204ED
:10025000BC8F2E12062D1204B58F2E12062D780893
:100260007C007D007BFF7A0579F87E007F201203F9
:10027000697D207F661204BC8F2EE4FD7F6012042E
:10028000BC8F2E12062DE509D3940140077F64121E
:1002900005FD80E6D294020035E709F608DFFA8012
:1002A00046E709F208DFFA803E88828C83E709F08E
:1002B000A3DFFA8032E309F608DFFA8078E309F277
:1002C00008DFFA807088828C83E309F0A3DFFA806C
:1002D0006489828A83E0A3F608DFFA805889828ADB
:1002E00083E0A3F208DFFA804C80D280FA80C680D7
:1002F000D4806980F28033801080A680EA809A8062
:10030000A880DA80E280CA803389828A83ECFAE4AA
:1003100093A3C8C582C8CCC583CCF0A3C8C582C886
:10032000CCC583CCDFE9DEE7800D89828A83E49344
:10033000A3F608DFF9ECFAA9F0EDFB2289828A83A3
:10034000ECFAE0A3C8C582C8CCC583CCF0A3C8C56D
:1003500082C8CCC583CCDFEADEE880DB89828A8371
:10036000E493A3F208DFF980CC88F0EF60010E4E31
:1003700060C388F0ED2402B4040050B9F582EB2488
:1003800002B4040050AF23234582239002E973EBAB
:100390009FF5F0EA9E42F0E99D42F0E89C45F0228C
:1003A000E8600FECC313FCED13FDEE13FEEF13FF3B
:1003B000D8F122E709F60870FA8046E709F20870DA
:1003C000FA803E88828C83E709F0A370FA807EE38E
:1003D00009F60870FA8076E309F20870FA806E88F0
:1003E000828C83E309F0A370FA806289828A83E0B9
:1003F000A3F60870FA805689828A83E0A3F2087017
:10040000FA804A80D280FA80C680D4806580F280EB
:1004100031801080A680EA809A80A880DA80E2800D
:10042000CA803189828A83ECFAE493A3C8C582C862
:10043000CCC583CCF0A3C8C582C8CCC583CC70E939
:10044000800D89828A83E493A3F60870F9ECFAA9F7
:10045000F0EDFB2289828A83ECFAE0A3C8C582C84A
:10046000CCC583CCF0A3C8C582C8CCC583CC70EA08
:1004700080DD89828A83E493A3F20870F980CE88B4
:10048000F0ED2402B4040050C4F582EB2402B4045D
:100490000050BA232345822390040373BB010689CD
:1004A000828A83E0225002E722BBFE02E322898295
:1004B0008A83E49322E4F5087D017F67AE05C29547
:1004C000C295C298D29512064DAF0612064DEE6047
:1004D00012E4FCEC6E600C74082CF8E6FF12064D7A
:1004E0000C80F0120655AD07ED701B120655AC07D7
:1004F000EC7003020577E4FE12065574082EF8A688
:10050000070EDCF48071BD1D197C40120655852D47
:1005100082852C83EFF0052DE52D7002052CDCEB98
:1005200080C1BD1E197C40852D82852C83E0FF1281
:10053000064D052DE52D7002052CDCEB80A5BDEEEA
:1005400029120655AC07120655AD07ECFEED7A00F0
:100550002400FFEA3EFEC3E49FFFE49EFEEF252D4C
:10056000F52DEE352CF52C0204E3ED64826003BD1D
:1005700015057F641205FDAF05225C4335315C43F0
:10058000483337354846542E43005C2A004E6F747A
:10059000653A200AD4ADB1BECAC7B4F2CBE3BDAB55
:1005A0002F4335312F43483337354846542E43CEF9
:1005B000C4BCFED6D0B5C4D0A1D0B4D7D6C4B8D7A9
:1005C000AAB3C9B4F3D0B4BAF3D0B4C8EBD0C2B5AF
:1005D000C4CEC4BCFE2CB5ABCAC7D5D2B2BBB5BD68
:1005E000D5E2B8F6CEC4BCFE0A005CCBABBBF7CEFE
:1005F000D2B0C92E545854005C4F4C4400EF6017E1
:100600007EC874032537F537DEF87EC874032537B6
:10061000F537DEF81F80E622E4FFFE12049C600C32
:100620000FEF70010E09E970F20A80EF22EF6010FF
:10063000E4FDED1392947F641205FD63050180F2E1
:1006400022787FE4F6D8FD758137020003C2998FC6
:0D065000993099FD223098FDAF99C2982293
:00000001FF
