:10000000022C887F22122AE4122BB5E53FC39410FC
:1000100050071207D5EF600122122AA3EF600122D8
:10002000C20B786DE6645C6004E6B42F05752B6E38
:100030008017786EE6643A60030200FD18E6C39408
:100040004350030200FD752B70E544B40310900883
:1000500017E0FCA3E0FDA3E0FEA3E0FF8005E4FFC2
:10006000FEFDFC8F3B8E3A8D398C38A82BE6600361
:1000700002010074FFF543F542F541F540E54464A3
:1000800003605D753B02900811E0FCA3E0FDA3E076
:10009000FEA3E0FFEFC0E090081AE0FBD0E0FFC352
:1000A000EF9BFFEE9400FEED9400FDEC9400FC90BD
:1000B0000811121E38900819E0FEA3E0A82E08804F
:1000C00005C333CE33CED8F9FFE48F438E42F541DA
:1000D000F540AF22FCFDFE900817121E38752280F5
:1000E000853B32853A3185393085382FE4F54FF537
:1000F0004EF54DF54CF533753F127F4122752B6D52
:10010000A82BE6B4E5027605E53B700CE5387008EF
:10011000E5397004E53A603E852233E53B24FEFF75
:10012000E53A34FFFEE53934FFFDE53834FFFC9055
:100130000808E0F9F8121E00900811E0F8A3E0F9B1
:10014000A3E0FAA3E02FF548EA3EF547E93DF5467E
:10015000E83CF545802B90081AE0F533AF33CBEF40
:10016000CB900811E0FCA3E0FDA3E0FEA3E0C39B5D
:10017000F548EE9400F547ED9400F546EC9400F553
:1001800045E533700302042C1221D6EF600122E40E
:10019000F53DF53ED3900816E0953E900815E095A4
:1001A0003D5003020412E54A253EF52DE549353D53
:1001B000F52C852D82F583E0FF7003020459EF646E
:1001C000E57003020404BF05027FE5A82BE6FE6F7D
:1001D0006008EE642A6003020404E4F537FFEFC30D
:1001E000940B5078E52D2FF582E4352CF583E0FE55
:1001F000AD37E52B2DF8EE66605DAD37E52B2DF8BC
:10020000E66015AD37E52B2DF8E6645C600AAD3786
:10021000E52B2DF8E6B42F1FEE6420703FEFC3945A
:10022000085010E52D2408F582E4352CF583E064B0
:100230002070297F0B8025AE37E52B2EF8E6B42EF3
:100240001BE5376408600EE52D2FF582E4352CF5AB
:1002500083E0B420077F070F05378082EFC3940B3C
:100260005003020345E52D240BF582E4352CF5837C
:10027000E030E303020345C209E52D241AFFE4350B
:100280002CFE122C65E48F3B8E3AF539F538E544A7
:10029000B40310E52D2414FFE4352CFE122C658EDA
:1002A000388F39AF37E52B2FF8E6600620090302B7
:1002B000033B853B32853A3185393085382FE4F56B
:1002C0004FF54EF54DF54CF533E52D240BF582E455
:1002D000352CF583E030E41F74FFF543F542F5411A
:1002E000F5407D137F10122AA7EF60012230090428
:1002F0007F4380027F4122E52D241CFFE4352CFE44
:10030000122BCF8F438E428D418C40E53B7017E519
:10031000387013E539700FE53A700B7533FFF5430C
:10032000F542F541F5407D147F10122AA7EF6001D8
:10033000223009047F4380027F0022E53704252B09
:10034000F52B020100AF37E52B2FF8E6642A600396
:10035000020404E52D240BF582E4352CF583E0300E
:10036000E303020404E53704252BF8E67053E4FFA9
:10037000F535E52D2FF582E4352CF583E06420601A
:100380002FBF080AAE35E52B2EF8762E0535E52D64
:100390002FF582E4352CF583E0FEAD35E52B2DF805
:1003A000EEF6E5357008A82BE6B4050276E50535CE
:1003B0000FBF0BBEAF35E52B2FF8E4F6D2090202D2
:1003C00079E53704252BF8E6F47032E543700CE547
:1003D000407008E5417004E5426093E54030E70372
:1003E000122CC8E54324FFF543E54234FFF542E50E
:1003F0004134FFF541E54034FFF5408007E537041F
:10040000252BF8167420253EF53EE4353DF53D02DA
:100410000194E5482401F548E43547F547E43546BD
:10042000F546E43545F5451533020181E53B700C91
:10043000E5387008E5397004E53A601D7F38E4FD61
:10044000120AEDEF60012220090F85343885353915
:1004500085363A85373B020100E4FFE52B2FF8E6AD
:10046000FE6013642A600FEE645C6004EEB42F0338
:100470007FB3220F80E57F4222E568245CF8E60521
:1004800068227859300702785CE475F001121EB5D5
:10049000021E5D2000EB7F2ED2008018EF540F2447
:1004A00090D43440D4FF30040BEF24BFB41A005072
:1004B000032461FFE56960021569056CE56C700253
:1004C000056B30070D7859E475F001121EB5EF0287
:1004D0001EA3022A597403D2078003E4C207F568F9
:1004E0008B598A5A895BE4F569F56BF56CE56960AF
:1004F000077F201204B480F5756AFFC201C200C2F2
:1005000002C203C205C206C208120482FF700D3087
:1005100007057F001204C5AF6CAE6B22B4255FC225
:10052000D5C204120482FF24D0B40A00501A75F018
:100530000A786930D50508B6FF0106C6A426F6205C
:10054000D5047002D20380D924CFB41A00EF50042E
:10055000C2E5D2040206C5D20180C6D20080C0D254
:100560000280BCD2D580BAD20580B47F201204B4F8
:100570002002077401B5690040F1120479FF1204EA
:10058000B40204EDD208D2068095120479FB12045D
:1005900079FA120479F94A4B700679967A077BFF4B
:1005A00020022EE569602A7E008E82758300121E6D
:1005B0007660060EEE656A70F0C2D5EBC0E0EAC068
:1005C000E0E9C0E0EE12070CD0E0F9D0E0FAD0E0AC
:1005D000FB121E5DFF60AAEBC0E0EAC0E0E9C0E0EC
:1005E0001204B4D0E02401F9D0E03400FAD0E0FBEA
:1005F000E56A0460DCD56AD980877BFF7A077908D1
:10060000D202809C791080027908C206C208800854
:10061000D2D5790A8004790AC2D5E56A047002F558
:100620006AE4FAFDFEFF120479FC7B082001131234
:100630000479FD7B1030000A120479FE120479FF60
:100640007B20EC3382D592D55013C3E43000069F53
:10065000FFE49EFEE42001039DFDE49CFCE4CBF856
:10066000C201EC700CCFCECDCCE824F8F870F3804A
:1006700017C3EF33FFEE33FEED33FDEC33FCEB330A
:10068000FB994002FB0FD8E9EB300105F8D0E0C43C
:1006900048B201C0E00AEC4D4E4F78207B0070C29A
:1006A000EAB56A0040BCC0E012070ED0F0D0E020EE
:1006B0000104C4C0E0C4B201C0F012049DD0F0D562
:1006C000F0EB0204ED121EC5058A53060458055BC3
:1006D0004C05574206084F06104406104905704362
:1006E00006165505FA4605FA4505FA4707B65005B8
:1006F0005F2D05632E05862B056723058420079F44
:100700002A051F480000057E3F3F3F00790AA2D519
:10071000200314300509B910020404B9080104A229
:10072000D52006025001042002689202B5690050EB
:1007300034C0E07F203003197F30A20272067205B8
:10074000500F120765C202C206C205C2087F308080
:100750000F300503E9C0E01204B4300503D0E0F91E
:10076000D0E0B569CC3005177F30B9100C1204B455
:100770007F583004077F788003B908031204B4302F
:1007800002057F2D0204B47F202008F87F2B20066D
:10079000F322920280CF286E756C6C2900D2011270
:1007A00004793001F8C201786930D50108F60205F4
:1007B0001F2D504349581204792403B40500400109
:1007C000E49007B1931204A5743A1204A5D20375FC
:1007D0006904020604E53FC39403500A12284EEF51
:1007E0006001221222C7122C6FE4F52CE4F526F5E5
:1007F00025F524F5231221E2EF600A1222C7122107
:10080000E2EF600122E52C700D854A82854983E084
:1008100054FD64E96053E4FDED64406049E54A2419
:10082000BEFFE5493401FEED7A002FFFEA3EF58375
:10083000EF2404F582E43583F583E06023E54A2460
:10084000BEFFE5493401FEED2FFFEA3ECF2408CF7D
:100850003400FE122BCF8F268E258D248C23800909
:1008600074102DFD80B27F9222AF26AE25AD24AC50
:1008700023900800121E381221E2EF600122854AFF
:1008800082854983E054FD64E960037FA122E54A43
:10089000240DF582E43549F583E0F522F54490080E
:1008A000087406F0E54420E612E54425E0F544909E
:1008B0000808E014F0E070EC752201E54A241612F5
:1008C0002C60900806EEF0A3EFF04E702CE54A2461
:1008D00024122BCA8F328E318D308C2FE4FBFA79A3
:1008E00001F8D3121DDC5007E52C60037FA2229093
:1008F0000806E531F0A3E532F0E54A2414F582E478
:100900003549F583E0FFE54A2413F582E43549F5DE
:1009100083E04F6012E54A2413122C60E48F3B8E73
:100920003AF539F538800FE54A2420122BCA8F3B5F
:100930008E3A8D398C38E54A2411122C60CCEECCDD
:10094000CDEFCD900815E0FEA3E07805CEC313CE21
:1009500013D8F9147E002DFFEE3CFEE52E24FBFD9E
:10096000EFC8EDC8088005CEC313CE13D8F9FFE455
:10097000FCFD900817121E38E54A240E122C608EDA
:100980003D8F3E900807E0253EFF900806E0353D8C
:10099000FEE4FCFD900817E0F8A3E0F9A3E0FAA359
:1009A000E02FF532EA3EF531ED39F530EC38F52F30
:1009B000E54A2410F582E43549F583E0D3940140FB
:1009C0001E900806E0FEA3E0FFE5322FF532E53188
:1009D0003EF531ED3530F530EC352FF52F8007E45D
:1009E000900806F0A3F0C3E53B9532FFE53A953158
:1009F000FEE5399530FDE538952FFC900808E0F9C3
:100A0000F8121DED90080D121E38E47BF57AFFF9FF
:100A1000F8D3121DDC401FE4900804F0A3F0900806
:100A20000FE0FEA3E094F5EE940F500575440180AD
:100A300024754402801FE54A2430122C609008047B
:100A4000EEF0A3EFF0E54A242C122BCA90081712FF
:100A50001E38754403E53E453D604E900817E0FCA6
:100A6000A3E0FDA3E0FEA3E0FFEC4D4E4F603AE5AE
:100A70004A2410F582E43549F583E0D39401400A15
:100A8000900806E07002A3E0601FE54A240BF5829F
:100A9000E43549F583E07011E54A240CF582E4352C
:100AA00049F583E0C39402500AE52C7006752C01C9
:100AB0000207ECE53E2526FFE53D3525FEE435241D
:100AC000FDE43523FC900809121E38E5322526FF87
:100AD000E5313525FEE5303524FDE52F3523FC9045
:100AE0000811121E387D107F03122AA7228D59EF9C
:100AF000C8E544B40207121E1378018008B403123B
:100B0000121E137802121E008F5D8E5C8D5B8C5A54
:100B10008023121E138E5A8F5BEF139209E55AC37E
:100B200013FEE55B13255BFFE55A3EFEE48F5D8E09
:100B30005CF55BF55A900816E024FFFD900815E07F
:100B400034FF5EFEED5F254AF52DEE3549F52CAFFD
:100B50005DAE5CAD5BAC5A122B21900809E0F8A3A6
:100B6000E0F9A3E0FAA3E02FF55DEA3EF55CE93D8C
:100B7000F55BE83CF55AE55D652A7012E55C652990
:100B8000700CE55B65287006E55A6527601D300A24
:100B900007122683EF600122855A23855B24855C3A
:100BA00025855D261221E2EF600122E5596025B41A
:100BB000FF0474FF8006E559B4010BE4F55DF55CB4
:100BC000F55BF55A800C852F5D85305C85315B8542
:100BD000325AD20AE5446402703F852D82852C8307
:100BE000E0F534A3E0F535853437853536E4F53462
:100BF000F535AE36AF37C3EF94F7EE94FF4003D32D
:100C00008001C39209E559600D852D82852C83E50D
:100C10005AF0A3E55BF07F0022E5446403705A8537
:100C20002D82852C83E0FCA3E0FDA3E0FEA3E0F58C
:100C3000378E368D358C34E53754F0FFE55D540F33
:100C40004FF55DE537540F853437F534AF368535CC
:100C5000368F35AF34EFC3940F4003D38001C39276
:100C600009E5596011AF5DAE5CAD5BAC5A852D8274
:100C7000852C83121E387F0022535B0F900816E0EC
:100C8000254AFF900815E03549CF24FFCF34FFFEF9
:100C9000EF652D7003EE652C6053852D82852C83C6
:100CA000E0F534852D82852C83A3E0F535E5597078
:100CB00003020D68300923E55AC454F0FFE53454AB
:100CC0000F4F852D82852C83F0E55BC454F0FFE542
:100CD0005AC4540F4FA3F0020D68852D82852C83D2
:100CE000E55AF0E53554F0455BA3F0807B852D8215
:100CF000852C83E0F534E559602230090EE55AC4AD
:100D000054F0FFE534540F4FFF8002AF5A852D8217
:100D1000852C83EFF0122683EF600122E52A24015F
:100D2000F526E43529F525E43528F524E43527F5BD
:100D3000231221E2EF600122854A82854983E0F592
:100D400035E559602330090FE55BC454F0FFE55ADF
:100D5000C4540F4FFF8007E53554F0455BFF854ACB
:100D600082854983EFF0D20A300913E535C454F087
:100D7000FFE534C4540F4FF537E535C4800585349D
:100D800037E535540FF536E4F534F535AE36AF3783
:100D9000C3EF94F7EE940F4003D38001C392097F11
:100DA00000221200038F33E533700A122363EF70C1
:100DB00003020F0922E53364426003AF3322900837
:100DC00016E024E0FF900815E034FFFEC3E53E9FE7
:100DD000E53D9E5003020F09E53B700FE538700BAF
:100DE000E5397007E53A7003020E9F900814E0FFA2
:100DF000C3E5489FFFE52214FE5FF533E53E60083A
:100E0000EE65336003020F097F38E4FD120AEDEF4F
:100E1000600122200903020F09122B58EF60012202
:100E20007F387D02120AEDEF600122122683EF6007
:100E30000122122C6FE4FFFE900815E06EFCA3E087
:100E40006F4C6013E54A2FF582E5493EF583E4F0E7
:100E50000FBF00010E80E1E4F53312289DE53E70DE
:100E600010F53DF53E852648852547852446852392
:100E700045852234E5346020121FEEEF600122E543
:100E8000262401F526E43525F525E43524F524E46A
:100E90003523F523153480DC122497EF606B22E5AF
:100EA0003E7066E54824FFF548E54734FFF547E521
:100EB0004634FFF546E54534FFF545F5231221D9C3
:100EC000EF600122E4F53DF53ED3900816E0953E33
:100ED000900815E0953D402EE54A253EFFE5493551
:100EE0003D8F82F583E0B4E510E582240BF582E4C2
:100EF0003583F583E0540E60107420253EF53EE402
:100F0000353DF53D80C37FB222122B58EF600122A0
:100F1000122683EF60012285323B85313A853039D4
:100F2000852F38122497EF6001221221D6EF60013D
:100F300022E54A253EFFE549353DFEE4FDEDC3943B
:100F40000B50047C2080027C00EF2DF582E43EF5FE
:100F500083ECF00DBD20E6EF2418F582E43EF58326
:100F60007421F0A37430F0EF241CF582E43EF58385
:100F70007401F0E4FDEDC3940B5021A82BE6FC6056
:100F80001BECB42E047D08052BA82BE6FCEF2DF5F9
:100F900082E43EF583ECF00D052B80D9853B34854A
:100FA0003A35853936853837EF241AF582E43EF52F
:100FB00083E534F0A3E535F0EF2414F582E43E1226
:100FC0001FE5EF600122853B32853A318539308556
:100FD000382FE4F543F542F541F540F54FF54EF570
:100FE0004DF54CF5337D147F10122AA722E53FD32F
:100FF00094145007E53FC3941250037FB422786DD8
:10100000E6FF08F67006300B030211D1E4786DF6A6
:10101000786FF608F6786EE67003021155E533F442
:10102000704AE53B700CE5387008E5397004E53A24
:10103000602DE53FB41209E544640360037FB122EB
:10104000AF32AE31AD30AC2F7877121E2C122B643C
:10105000EF6001227F777D02120AEDEF6008221215
:101060002598EF600122787016E4F53312289D78F8
:101070006FE66069E52EB409047F408014E52EB464
:101080000A047F20800BE52EB40B047F1080027FC2
:1010900008EF3395E0FE786FE6C39FEE6480F87446
:1010A0008098502E786FE6FFE4FCFDFE7871121EEA
:1010B0001FEF2BFFEE3AFEED39FDEC38FCEF652615
:1010C000FFEE6525FEED6524FDEC6523FC4D4E4FDE
:1010D000600B1218A0EF600122E4786FF6786FE6DB
:1010E000700DAF26AE25AD24AC237871121E2CC333
:1010F000E5229533FF786EE6FEEFD39E400CE608BE
:1011000026F618E62533F533804B786FEF26F6C3C5
:1011100018E69FF6E670187876E6654A700418E6D9
:101120006549700B1218A0EF600122E4786FF67F1A
:101130002FE4FD120AEDEF6001223009067533FF3E
:1011400002101585342F853530853631853732E4E8
:10115000F533021015300A07122683EF600122785A
:101160006FE660071218A0EF6001227870E6603524
:10117000AF32AE31AD30AC2F7877121E2C7870E6DE
:10118000FFE4EFF53274FFF531F530F52F1224A1AD
:10119000CBEFCB7877121E138F328E318D308C2FA0
:1011A000EB6002FF22AF4FAE4EAD4DAC4CAB43AA4D
:1011B00042A941A840C3121DDC500E854F43854E05
:1011C00042854D41854C40D20BE53C30E406300B66
:1011D000030228E87F0022122C7CD294C294122CA5
:1011E00051D294122C407BFF7A1E79F81204DB1244
:1011F0002A808F50122B037BFF7A1E79FF1204DBAB
:10120000E53F64026005122AC580F5C294122C5194
:10121000122C51E4F550122C517BFF7A1F790B12DE
:1012200004DB1227FDEF60090550E550C39405402B
:10123000E5D3900816E09400900815E09408401457
:101240007BFF7A1F79141204DB1229ABEF70A8120E
:101250002C5180F5C2957BFF7A1F792B1204DB7F1E
:101260006D7C1F7D31122C071200038F50E55070EA
:101270002C7BFF7A1F793D85435F85425E85415D0A
:1012800085405C1204DB7BFF7A1F794E1204DB7809
:101290006D121E44FFFFFFFF1229328013E550B488
:1012A0004212C2967BFF7A1F795B1204DB120DA2F9
:1012B0008F508002AF50122B03C2967BFF7A1F79AA
:1012C000631204DB755CFF755D1F755E708543629C
:1012D00085426185416085405F7B007A00796E12AE
:1012E00004D58F50786DA6501213AC8F50122B037B
:1012F0007BFF7A1F79891204DB755208D28C7551F5
:1013000005E58B541F755300F554AF8CEFAD8AF58E
:1013100055EDF556755CFF755D1F755E99755F003F
:10132000855160855361855462756300855264857B
:101330005565F5667B007A00796E1204D58E578F5D
:1013400058786DA6071213AC8F50122B030552E587
:1013500052B414A87BFF7A1F79B11204DB7F6E7C34
:101360001F7DBC122C078F50786DA6501213AC8FC6
:1013700050122B037BFF7A1F79D41204DB786D7631
:10138000011225188F50122B03D296D2957BFF7A2B
:101390001F79DB1204DBE53F64016005122AC5807A
:1013A000F5D294122C51122C510211F7E53F64151D
:1013B0006007122A0AEF600122786DE6F52B7006AD
:1013C000300B03021563E4786DF6E52B700302150C
:1013D0005BE533F47077E53B700CE5387008E53970
:1013E0007004E53A602585324F85314E85304D8554
:1013F0002F4C122B64EF6001227F4C7D02120AED0C
:10140000EF600122122683EF600822122598EF6018
:10141000012285324F85314E85304D852F4C74FF2A
:10142000F532F531F530F52F1224A1CBEFCB854FF6
:1014300032854E31854D30854C2FEB60012285433E
:101440004F85424E85414D85404CE4F53312289D31
:101450001221E2EF600122900815E0FCA3E0FD24D8
:10146000FFFBEC34FF554EFEEB554FFFC3ED9FFFE6
:10147000EC9EFEC3EF952BEE94004005852B348047
:1014800006E54FF404F534900816E024FFFD9008BB
:1014900015E034FF554EFEED554F254AF52DEE353E
:1014A00049F52CAF34E4FCFDFEE54F2FF54FEE354A
:1014B0004EF54EED354DF54DEC354CF54CC3E52B69
:1014C0009534F52B786DE6246EFFE53426F6C8EFEB
:1014D000C8E6852D82852C83F0052DE52D7002054B
:1014E0002C0FD534E9121FEEEF600122AF4FAE4E44
:1014F000AD4DAC4CAB43AA42A941A840C3121DDC80
:10150000500E854F43854E42854D41854C40D20B50
:10151000900816E024FFFD900815E034FF554EFEBC
:10152000ED554F4E60030213CA0533E533C39522D0
:1015300050030213CA7F2FE4FD120AEDEF6001226F
:101540003009067533FF0213CA85342F853530857F
:101550003631853732E4F5330213CAE53C30E40610
:10156000300B030228E87F0022300C0A7F34122B54
:101570009FEF423580077D037F34122C1A7F2B1298
:101580002AE4E4F54B7F1F122BDF7F55122BDF7F00
:1015900053122BDF7F42122BDF7F43122BDF7F039F
:1015A000122BDF7F07122BDF7F05122BDF7F0A1242
:1015B0002BDFE4FF122BDFE52E24F8FFE537C8EF21
:1015C000C8088002C333D8FCFF122BDFE4FF122BC4
:1015D000DFE4FF122BDFE5355480FF122BDFE5350A
:1015E000540FFF122BDF7F0A122BDFE53530E704A3
:1015F0007F2880027F2A122BDFE4FF122BDFE535E4
:1016000030E61B7871E6FF122BDF7872E6FF122BB3
:10161000DF7873E6FF122BDF7874E6FF8011AF23CB
:10162000122BDFAF24122BDFAF25122BDFAF2612D8
:101630002BDFE4FF122BDFE4FF122BDFAF37122B7F
:10164000DFE4FF122BDFE4FF122BDFE4FF122BDFBE
:10165000E4FF122BDFE4FF122BDFE4FF122BDFE4A9
:10166000FF122BDF7F31122B9FCDEFCD8D357F1EEB
:10167000122C1A7F33122B9F7D4F122A32E54B70AA
:1016800007E5356440FD80027D007F31122C1AE5AC
:101690004B603B854B35E54B641660057F52122B42
:1016A0003EE54BB416037F82227F32122B9FEFC49C
:1016B000540F4480FF7D41122A327F33122B9FEF5B
:1016C000C4540FFF7D41122A32AF358F4B22300CAC
:1016D000047F3680027F35E52E24F7FEE537C8EE1D
:1016E000C8088002C333D8FCFD122C1A300C047FCA
:1016F0003780027F367D08122C1A7F20122B9FEF35
:101700004408FD7F20122C1A7F0022E4F532F531C7
:10171000F530F52F90080DE0FCA3E0FDA3E0FEA35B
:10172000E0FFAB32AA31A930A82FD3121DDC400351
:101730007FB122E5322401F532E43531F531E4356B
:1017400030F530E4352FF52F7F2FE4FD120AEDEF51
:10175000600122E537700FE534700BE5357007E561
:10176000367003021898E544640160A885492C8509
:101770004A2DE54464027052900815E0C313FEA39D
:10178000E01324FFFFEE34FFF5348F35F5368F3745
:101790007402252DF52DE4352CF52C852D82F5834D
:1017A000E07011A3E0700D852D82852C8374FFF00D
:1017B000A3021820E5356009D535D5E534600880E9
:1017C000CF1534153580C902187F900815E0FEA3A7
:1017D000E07802CEC313CE13D8F924FFFFEE34FF16
:1017E000F5348F35F5368F377404252DF52DE43516
:1017F0002CF52C852D82F583E06003021864A3E0AC
:101800006003021864A3E0705BA3E0540F70558579
:101810002D82852C8374FFF0A3F0A3F0A3E0440F86
:10182000F0AE36AF37EF4532FFEE4531FEE530FD25
:10183000E52FFCEEC0E0EFC0E0E53524FFFFE53426
:1018400034FFCBEFCBFAD0E0FFD0E0FEC3EF9BF547
:1018500032EE9AF531ED9400F530EC9400F52FD28C
:101860000A7F0022E53560101535E5356003021763
:10187000E8E534600A0217E8153415350217E8AEBA
:1018800036AF37E5324FF532E5314EF531E530F51B
:1018900030E52FF52F0217147F2F7DFF120AED225E
:1018A000E4F536E53C20E654E52E6409604E7535D6
:1018B00040786FE6F537121569EF60030219E0858D
:1018C0003C37E53C13135403FFE53C54FC4FF53C17
:1018D000E52EB409047F088014E52EB40A047F10B5
:1018E000800BE52EB40B047F2080027F40786FE6EA
:1018F000FEEF8EF0A485F034F535806F7F56122A06
:10190000E4E4F54B7874E6FF122BDF7873E6FF1200
:101910002BDF7872E6FF122BDF7871E6FF122BDFE8
:10192000786FE6FF122BDF853C37E53C1313540339
:10193000FFE53C54FC4FF53CE52EB409047F0880DC
:1019400014E52EB40A047F10800BE52EB40B047F3F
:101950002080027F40786FE6FEEF8EF0A485F034A1
:10196000F535122AC5E54B641E7075E537540C60D9
:10197000137875E6FE08E6FF1229DC7875EEF608A6
:10198000EFF680127F2B122AE4E4F54B7F40122BF6
:10199000DF7F40122CCA7F57122AE4E54F2440F51E
:1019A0004FE4354EF54EE4354DF54DE4354CF54CF0
:1019B000E5356009D535ABE534600880A5153415EB
:1019C00035809F85373C122AC5E54BB41412E53C9F
:1019D00020E503122CC0786FE6786D26F67F002292
:1019E00085373CE536C394055022E54B6416601CF0
:1019F0001226F1E53C540C7004FF122CCAE536C3E4
:101A0000940140031227AC05360218A3122BF312DF
:101A100027AC22E53FD394145007E53FC3941250FE
:101A2000037FB422786DE608F6E418F6786FF6C303
:101A3000E543954FFFE542954EFEE541954DFDE5A9
:101A400040954CFC122B218F378E368D358C34E52A
:101A5000357004E5366006787076FF80047870A6ED
:101A600037786EE67003021B687870E67003021B1D
:101A700068E533F47003021B6812289D786FE660F6
:101A800069E52EB409047F408014E52EB40A047F72
:101A900020800BE52EB40B047F1080027F08EF330B
:101AA00095E0FE786FE6C39FEE6480F874809850EE
:101AB0002E786FE6FFE4FCFDFE7871121E1FEF2BFF
:101AC000FFEE3AFEED39FDEC38FCEF6526FFEE65E2
:101AD00025FEED6524FDEC6523FC4D4E4F600B1299
:101AE0001CABEF600122E4786FF6786FE6700DAF03
:101AF00026AE25AD24AC237871121E2CC3E52295A9
:101B000033FFF5347870E6FEEFD39E4003E6F534FC
:101B1000E534D3786E96400CE60826F618E62533B1
:101B2000F5338049C3786EE69534F608E53426F639
:101B3000C308E69534F6E5342533F53365226003B2
:101B4000021A617F2FFD120AEDEF600122300906B3
:101B50007533FF021A6185342F853530853631851E
:101B60003732E4F533021A61786FE66003021CAB8A
:101B70007F0022E53F64156007122A0AEF60012208
:101B8000786DE6F52BE4F6E52B7003021CA89008AF
:101B900015E0FCA3E0FD24FFFBEC34FF554EFEEB0B
:101BA000554FFFC3ED9FFFEC9EFEC3EF952BEE94C8
:101BB000004005852B348006E54FF404F534AF343E
:101BC000EF254FFFE4354EFEE4354DFDE4354CFC8A
:101BD000AB43AA42A941A840D3121DDC500CC3E577
:101BE00043954FF5347003021CA812289D1221E280
:101BF000EF600122900816E024FFFD900815E03404
:101C0000FF554EFEED554F254AF52DEE3549F52C85
:101C1000AF34E4FCFDFEE54F2FF54FEE354EF54EAB
:101C2000ED354DF54DEC354CF54CC3E52B9534F5C4
:101C30002B786DE6246EFFE53426F6852D82852C03
:101C400083E0C8EFC8F60F052DE52D7002052CD5F1
:101C500034E9900816E024FFFD900815E034FF55A4
:101C60004EFEED554F4E6003021B870533E533C32F
:101C700095225003021B877F2FE4FD120AEDEF60CF
:101C800001223009117533FF854F43854E42854D42
:101C900041854C40801285342F853530853631851D
:101CA0003732E4F533021B877F0022E4F536E53C4A
:101CB00020E61EE52E640960187535C0786FE6F5DC
:101CC00037121569EF6003021DA97F55122AE480BF
:101CD0002B7F54122AE4E4F54B7874E6FF122BDFD5
:101CE0007873E6FF122BDF7872E6FF122BDF787134
:101CF000E6FF122BDF786FE6FF122BDF853C37E51E
:101D00003C13135403FFE53C54FC4FF53CE52EB463
:101D100009047F088014E52EB40A047F10800BE5C7
:101D20002EB40B047F2080027F40786FE6FEEF8E9A
:101D3000F0A485F034F535122AC5E54B641D7069B1
:101D4000E537540C60137875E6FE08E6FF12297A31
:101D50007875EEF608EFF6800E7F28122AE4E4F597
:101D60004B122BB5122CC97F55122AE4E54F2440A3
:101D7000F54FE4354EF54EE4354DF54DE4354CF573
:101D80004CE5356009D535AFE534600880A91534D8
:101D9000153580A385373C122AC5E54BB4140A7863
:101DA0006FE6786D26F67F002285373CE536C394D2
:101DB000055022E54B6416601C1226F1E53C540CDC
:101DC0007004FF122CC9E536C3940140031227ACFE
:101DD0000536021CAE122BF31227AC22EB9FF5F056
:101DE000EA9E42F0E99D42F0E89C45F022E8600F4F
:101DF000ECC313FCED13FDEE13FEEF13FFD8F1223D
:101E0000E8600FEFC333FFEE33FEED33FDEC33FC40
:101E1000D8F122E6FC08E6FD08E6FE08E6FF22E629
:101E2000FB08E6F908E6FA08E6CBF822ECF608ED3E
:101E3000F608EEF608EFF622ECF0A3EDF0A3EEF0D4
:101E4000A3EFF022D083D082E493F608740193F6D6
:101E500008740293F608740393F6740473BB0106C6
:101E600089828A83E0225002E722BBFE02E32289B4
:101E7000828A83E49322BB010CE58229F582E58303
:101E80003AF583E0225006E92582F8E622BBFE06F9
:101E9000E92582F8E222E58229F582E5833AF58395
:101EA000E49322BB010689828A83F0225002F72242
:101EB000BBFE01F322FAE6FB0808E6F925F0F61866
:101EC000E6CA3AF622D083D082F8E4937012740105
:101ED00093700DA3A393F8740193F5828883E47340
:101EE0007402936860EFA3A3A380DF4572726F72E0
:101EF0003A20253032580A0053746172740A005730
:101F000061697420556469736B0A00526561647974
:101F1000203F0A00546F6F206C6172676520736503
:101F200063746F722073697A650A004F70656E0A78
:101F3000002F4D595F4144432E5458540046696C5C
:101F4000652073697A65203D20256C640A004C6F1A
:101F500063617465207461696C0A00437265617421
:101F6000650A00577269746520626567696E0A00C8
:101F7000B4CBC7B0CEC4BCFEB3A4B6C83D20256C5C
:101F80006420D7D6BDDA0D0A005772697465204106
:101F9000444320646174610A00253032642E253088
:101FA00032642E25303264204144433D25750D0AAC
:101FB00000577269746520656E640A00BDF1CCEC4F
:101FC000B5C4414443CAFDBEDDB5BDB4CBBDE1CA15
:101FD000F80D0A00436C6F73650A0054616B65204D
:101FE0006F75740A00F583E536F0A3E537F0E4F584
:101FF00036E53C20E63CE52E64096036E4F53575AF
:102000003701121569EF60030220B8854927854A18
:1020100028E52EB409047F088014E52EB40A047F55
:1020200010800BE52EB40B047F2080027F408F359B
:1020300080537F56122AE4E4F54BAF26122BDFAF14
:1020400025122BDFAF24122BDFAF23122BDF7F01F2
:10205000122BDF854927854A28E52EB409047F081D
:102060008014E52EB40A047F10800BE52EB40B0417
:102070007F2080027F408F35E535601D122AC5E53F
:102080004B641E7033AF28AE271229DC8E278F28B1
:102090007F57122AE4153580DF852327852428857C
:1020A000252985262A122AC5E54BB4140BE53C20C8
:1020B000E503122CC07F0022E536C394055015E5D8
:1020C0004B6416600FE536C3940140031227AC053C
:1020D00036021FF1122C6F122BF31227AC22E53FB0
:1020E000C3941350037FB4221221D6EF600122C2A1
:1020F0000AE54A253EFFE549353DCBEFCBFA787539
:10210000E6FFEB240BF582E43AF583E0F6EFF460AA
:10211000138B828A83E582240BF582E43583F58371
:10212000EFF0D20A7873E6F53708E6F536EB2416B9
:10213000FFE43AFE122C6518EEF608EFF6E536F4E9
:10214000FEE537F44E6012EB2416F582E43AF5838F
:10215000E536F0A3E537F0D20A7871E6F53708E600
:10216000F536EB2418FFE43AFE122C6518EEF6085B
:10217000EFF6E536F4FEE537F44E6012EB2418F581
:1021800082E43AF583E536F0A3E537F0D20A786DBC
:10219000121E137879121E2CEB241CFFE43AFE1257
:1021A0002BCF786D121E2C7879E6F4601E121E1368
:1021B0008F438E428D418C40122CB4EB241CF5824F
:1021C000E43AF583121E38D20AC20B300A05C20A5D
:1021D000021FEE7F002285452385462485472585FD
:1021E0004826E526652A7015E5256529700FE52442
:1021F00065287009E523652770030222C4E4F536DB
:10220000E53C20E61CE52E640960167535807537BF
:1022100001121569EF600302229F7F55122AE480A4
:10222000217F54122AE4E4F54BAF26122BDFAF25B1
:10223000122BDFAF24122BDFAF23122BDF7F011213
:102240002BDF854927854A28E52EB409047F0880BD
:1022500014E52EB40A047F10800BE52EB40B047F26
:102260002080027F408F35E535601D122AC5E54B81
:10227000641D702BAF28AE2712297A8E278F287FF6
:1022800055122AE4153580DF8523278524288525E6
:102290002985262A122AC5E54BB414037F0022E5BE
:1022A00036C394055015E54B6416600FE536C394AC
:1022B0000140031227AC0536022200122C6F122BAC
:1022C000F30227AC7F00227535327F53122B3EE597
:1022D0004B7060122CAAE54A2406F582E43549F5D4
:1022E00083E0FFB40405752E0A8015EFB408057568
:1022F0002E0B800CEFB41005752E0C8003752E0983
:1023000074017E00A82E088005C333CE33CED8F9E1
:10231000900816F0EE900815F0E52E24F7FF7408EB
:10232000C8EFC8088002C333D8FCFD7F39122C1ACD
:102330007F0022E54B64166027E54B641560217F22
:1023400032122B89300C0B854B367F5A122B3E856F
:10235000364B7F0A122B891535E53560030222CAF8
:10236000AF4B22E53FC394135007120003EF600107
:1023700022122AA3EF6001221221D6EF600122E58A
:102380004A253EFFE549353D8F82F58374E5F0121D
:102390001FEEEF600122AF3BAE3AAD39AC388F375C
:1023A0008E368D358C34EC4D4E4F604EE53B24FF20
:1023B000F53BE53A34FFF53AE53934FFF539E538D0
:1023C00034FFF538E4F532F531F530F52F7F347D03
:1023D00001120AEDEF600122E5322401F532E43505
:1023E00031F531E43530F530E4352FF52F3009DDA6
:1023F000122683EF6001220224A17F0022E53B70B8
:102400000CE5387008E5397004E53A607B853B32AD
:10241000853A3185393085382FAF22E4FCFDFE78CE
:102420006D121E1FC3121DDC40417F2FE4FD120AF6
:10243000EDEF60012220095085342F853530853637
:1024400031853732786D121E13EFC0E0AF22CBEF2B
:10245000CBD0E0FFC3EF9BFFEE9400FEED9400FDB8
:10246000EC9400FC786D121E2C80AE7870E6FFE5CF
:1024700022145FF53312289DAF26AE25AD24AC2380
:10248000786D121E2C7F00227533FF786D121E446A
:10249000FFFFFFFF7F002274FFF532F531F530F5C5
:1024A0002F900804E0FCA3E0FD4C7002FF22CFED6A
:1024B000CFCEECCEE4FCFD900800E0F8A3E0F9A359
:1024C000E0FAA3E02FF526EA3EF525ED39F524ECF8
:1024D00038F5231221E2EF600122E54A24E8FFE506
:1024E000493401FE122BCFE5322FF532E5313EF5AE
:1024F00031E5303DF530E52F3CF52FAF32AE31AD53
:1025000030FC122CB4E54A24E8F582E5493401F5A3
:1025100083121E38121FEE22E53FC3941250037F30
:10252000B422E53F6412704FE544640360499008AB
:102530001AE0F522AE42E543A82E088005CEC3136B
:10254000CE13D8F9FFE4FCFD900817121E3890084E
:1025500011E0F8A3E0F9A3E0FAA3E0FB90081AE089
:10256000FFE4FCFDFEEB2FFFEE3AFEED39FDEC380B
:10257000FC900811121E38E53FD39413400AE53F42
:10258000B41407786DE67002C20B300B071228E80E
:10259000EF600122122AA322121714EF600564B122
:1025A000600122EF600712170BEF600122122683F1
:1025B000EF60012285323B85313A853039852F38ED
:1025C0001221D6EF600122E54A253EFFE549353D5F
:1025D000FEF583EF241CF582E43583F5837401F066
:1025E000853B34853A358539368538378F828E83F9
:1025F000E582241AF582E43583F583E534F0A3E51A
:1026000035F08F828E83E5822414F582E4358312BF
:102610001FE5227533057D067F65122C2DE4F53FFD
:10262000122BB5BF9A0F7D067F9A122C2D122BB557
:10263000EF64656009122B71D533DB7F812290082E
:10264000157402F0A3E4F07F01122AE4C20C533C9B
:10265000BF122BB58F33E533C394A2400BE53394FF
:10266000B64003433C40D20C753F017D157F0612F6
:102670002C2D7F01122B89122BB5BF5F037F812286
:102680007F0022852723852824852925852A26124F
:102690001FEEEF600122900806E0FEA3E0FF4E600F
:1026A0004BE4FCFDE5262FF526E5253EF525ED3529
:1026B00024F524EC3523F523121FEEEF6001229060
:1026C0000806E0FEA3E0FBCAEECAC3E5269BF5269A
:1026D000E5259AF525E5249400F524E5239400F5F5
:1026E00023F52785242885252985262AC20A7F00E7
:1026F00022786FE67E00A82E088005C333CE33CE45
:10270000D8F9FDCCEECCE535AE347806C333CE3304
:10271000CED8F9FFC3ED9FF535EC9EF534AE34AF5E
:1027200035CBEFCBCAEECAC3E54F9FF54FE54E9AC6
:10273000F54EE54D9400F54DE54C9400F54CC3E4A1
:102740009535FFE49534FE7876EF26F618EE36F6EA
:1027500022E53FC3941250037FB422AF43AE42AD93
:1027600041AC40122B218F378E368D358C34786DED
:10277000121E1FD3121DDC400DAF37AE36AD35AC87
:1027800034786D121E2C786D121E13E52E24F8F984
:10279000F8121E008F378E368D358C3485354C857A
:1027A000364D85374EE4F54F1223FD227535321232
:1027B0002CBBD535FA7F22122AE4122BB5E54B64E7
:1027C00016600FE53F640160097F20122B9FEF2008
:1027D000E506753F017F8222300C18E53FC3940364
:1027E0004011854B35E4F54B7F5A122AE4122AC575
:1027F00085354BE54B70037F1022AF4B221229AB7E
:10280000EF60037F8222E53FC39403501B12284EE2
:10281000EF600C7F32122B8912284EEF60012212DA
:1028200022C7EF60030227AC300C207F59122B3EE9
:10283000AF4B8F35EF7002FF227F0A122B897F5A30
:10284000122B3E7F02122B89AF35227F00221229E4
:10285000ABEF60037F82227F51122B3EE54B70323B
:102860007D037F02122AA7300C257F38122B9FEFA1
:10287000601D122CAA854A82854983E0B405107D2B
:10288000017F34122C1A7F58122B3EE54B70037FC8
:1028900000227D027F02122AA71227AC22E53224F1
:1028A000FEFFE53134FFFEE53034FFFDE52F34FF58
:1028B000FC900808E0F9F8121E00900811E0F8A357
:1028C000E0F9A3E0FAA3E02FFBEA3EFAE93DF9E8DC
:1028D0003CF8E4FCFDFEEB2533F526EE3AF525ED5C
:1028E00039F524EC38F52322C20BE53FC39414409C
:1028F0003E1221D6EF600122E54A253EFFE549352B
:102900003DCBEFCBFAF583EB240BF582E43583F571
:1029100083E020E41AAF43AE42AD41AC40122CB488
:10292000EB241CF582E43AF583121E38021FEE7F79
:102930000022E53F64156007122A0AEF6001227841
:102940006D121E138F4F8E4E8D4D8C4CAB43AA4291
:10295000A941A840C3121DDC500C85434F85424E4F
:1029600085414D85404CAF4FAE4EAD4DAC4C122B1A
:1029700021786D121E2C1223FD228E5E8F5F7F2820
:10298000122AE4E4F54B122BB58F60E56060171254
:102990002BB5855F82855E83EFF0055FE55F700292
:1029A000055E156080E5AE5EAF5F227F22122AE4ED
:1029B000122BB5E4F54B7F20122B9FEF30E517E586
:1029C0003FC39402400A7F1B122B9FEF547F70037A
:1029D000753F027F0022753F017F82228E5E8F5FEE
:1029E0007F2B122AE4E4F54B7F40122BDF75604009
:1029F000855F82855E83E0FF122BDF055FE55F70F8
:102A000002055ED560EAAE5EFF22E53F6414600316
:102A10007FB422853B32853A3185393085382FE4C1
:102A2000F54FF54EF54DF54CF5337D157F14122A13
:102A3000A7228F5ECEEDCECFEECF122AE4E4F54B87
:102A4000AF5E122BDF122AC5E54B7004754B1022C6
:102A5000E54BB41403E4F54B22EFB40A07740D12EE
:102A60002A64740A309811A899B8130CC298309847
:102A7000FDA899C298B811F63099FDC299F599222E
:102A8000E581D394EE40037FFC22753C05122CC5F2
:102A9000EFC3943550037FFF22754900754A001239
:102AA0002613227D107F10E53FC39F40028D3FE536
:102AB0003F6D7002FF22753F011229ABEF60037F6B
:102AC00082227F832220B2FD7F22122AE4122BB5BC
:102AD0008F4BE54BB41604753F0122E54BB415034B
:102AE000753F0222122CCB122CCB8F80D290C29138
:102AF000C292C291D292D291C2907580FF122CCB19
:102B0000022CCBEF601A7BFF7A1E79EB755C008F8D
:102B10005D1204DBC294122C51D294122C5180F419
:102B200022C3E4CC13CD13CE13FFE52E24F7600DA2
:102B3000F8C3ED13FDEE13FEEF13FFD8F422E4F516
:102B40004B122AE4122AC5E54B7004754B1022E59E
:102B50004BB41403E4F54B22853B32853A31853979
:102B60003085382F121714EF64B160012212170B51
:102B7000227536807F01122AE4122BB5D536F57FF7
:102B800005122AE47F32022B89EF75F005A4F53691
:102B9000E536600A122CBB122CBB153680F2228F50
:102BA0005E7F0A122AE4AF5E122BDFE55E6003024D
:102BB0002BB5AF5E22122CCB7580FFC290C291C2A2
:102BC00093C291AF80D293D29122FFE43549FE8F18
:102BD000828E83E0FFA3E0FEA3E0FDA3E0FC228F52
:102BE00080C290C291C292C291D292D2917580FF5E
:102BF000022CCBE53FB41204753F0322E53FD3948A
:102C0000104003753F10228D828C83A807E4FFE4F7
:102C100093F6600508A30F80F6228F5E8D5F7F0B11
:102C2000122AE4AF5E122BDFAF5F022BDF8F59CE8B
:102C3000EDCECFEECF122AE4E4F54BAF59022BDFF5
:102C4000759850758780758920758DF3D28ED299CD
:102C5000227FC87EC874032559F559DEF8DFF422B7
:102C6000FFE43549FE8F828E83E0FFA3E0FE2274ED
:102C7000FFF52AF529F528F527C20A22D291D2922A
:102C8000D293C2907580FF22787FE4F6D8FD7581DB
:102C9000900211D778757600087600121A13227800
:102CA000757600087600120FED22122C6FAF4AAE37
:102CB0004902297AEFCCFFEECDFE227F96DFFE227D
:0C2CC0007FFADFFE227F35222222222232
:00000001FF
