:10000000022C1A90BDF17422F00000000090BCF0A8
:10001000E0FFE53FC394105007120B30EF60012260
:10002000122AAEEF600122C20B786BE6645C6004BA
:10003000E6B42F05752B6C8017786CE6643A600384
:1000400002010418E6C394435003020104752B6EA9
:10005000E544B40310900217E0FCA3E0FDA3E0FE2A
:10006000A3E0FF8005E4FFFEFDFC8F3B8E3A8D3957
:100070008C38A82BE6600302010774FFF543F542B4
:10008000F541F540E5446403605D753B0290021163
:10009000E0FCA3E0FDA3E0FEA3E0FFEFC0E09002E0
:1000A0001AE0FBD0E0FFC3EF9BFFEE9400FEED945F
:1000B00000FDEC9400FC900211121484900219E0EF
:1000C000FEA3E0A82E088005C333CE33CED8F9FFB7
:1000D000E48F438E42F541F540AF22FCFDFE9002D5
:1000E00017121484752280853B32853A3185393068
:1000F00085382FE4F54FF54EF54DF54CF533753F4A
:10010000127F4122752B6BA82BE6B4E5027605E53C
:100110003B700CE5387008E5397004E53A603E85BF
:100120002233E53B24FEFFE53A34FFFEE53934FF98
:10013000FDE53834FFFC900208E0F9F812144C9009
:100140000211E0F8A3E0F9A3E0FAA3E02FF548EAF2
:100150003EF547E93DF546E83CF545802B90021A0F
:10016000E0F533AF33CBEFCB900211E0FCA3E0FD21
:10017000A3E0FEA3E0C39BF548EE9400F547ED94A1
:1001800000F546EC9400F545E533700302043312A4
:100190002041EF600122E4F53DF53ED3900216E0E8
:1001A000953E900215E0953D5003020419E54A255D
:1001B0003EF52DE549353DF52C852D82F583E0FF93
:1001C0007003020460EF64E5700302040BBF0502D4
:1001D0007FE5A82BE6FE6F6008EE642A6003020448
:1001E0000BE4F537FFEFC3940B5078E52D2FF58224
:1001F000E4352CF583E0FEAD37E52B2DF8EE666097
:100200005DAD37E52B2DF8E66015AD37E52B2DF804
:10021000E6645C600AAD37E52B2DF8E6B42F1FEEDF
:100220006420703FEFC394085010E52D2408F58238
:10023000E4352CF583E0642070297F0B8025AE37F0
:10024000E52B2EF8E6B42E1BE5376408600EE52D8D
:100250002FF582E4352CF583E0B420077F070F05E6
:10026000378082EFC3940B500302034CE52D240B1F
:10027000F582E4352CF583E030E30302034CC20938
:10028000E52D241AFFE4352CFE122BF6E48F3B8E6D
:100290003AF539F538E544B40310E52D2414FFE4AC
:1002A000352CFE122BF68E388F39AF37E52B2FF811
:1002B000E66006200903020342853B32853A318518
:1002C000393085382FE4F54FF54EF54DF54CF533C3
:1002D000E52D240BF582E4352CF583E030E41F7422
:1002E000FFF543F542F541F5407D137F10122AB228
:1002F000EF6001223009047F4380027F4122E52D17
:10030000241CFFE4352CFE122B728F438E428D414C
:100310008C40E53B7017E5387013E539700FE53A0E
:10032000700B7533FFF543F542F541F5407D147FC1
:1003300010122AB2EF6001223009047F4380027F4D
:100340000022E53704252BF52B020107AF37E52BFB
:100350002FF8E6642A600302040BE52D240BF582D6
:10036000E4352CF583E030E30302040BE537042584
:100370002BF8E67053E4FFF535E52D2FF582E435D3
:100380002CF583E06420602FBF080AAE35E52B2EE4
:10039000F8762E0535E52D2FF582E4352CF583E032
:1003A000FEAD35E52B2DF8EEF6E5357008A82BE609
:1003B000B4050276E505350FBF0BBEAF35E52B2F33
:1003C000F8E4F6D209020280E53704252BF8E6F4BA
:1003D0007032E543700CE5407008E5417004E54279
:1003E0006093E54030E703122C63E54324FFF543B7
:1003F000E54234FFF542E54134FFF541E54034FF85
:10040000F5408007E53704252BF8167420253EF5C6
:100410003EE4353DF53D02019BE5482401F548E405
:100420003547F547E43546F546E43545F54515339A
:10043000020188E53B700CE5387008E5397004E589
:100440003A601D7F38E4FD120E48EF60012220095A
:100450000F85343885353985363A85373B020107B3
:10046000E4FFE52B2FF8E6FE6013642A600FEE64CC
:100470005C6004EEB42F037FB3220F80E57F42223D
:10048000E566245AF8E60566227857300702785A5E
:10049000E475F0011215010214A92000EB7F2ED2A1
:1004A000008018EF540F2490D43440D4FF30040B54
:1004B000EF24BFB41A0050032461FFE56760021502
:1004C00067056AE56A7002056930070D7857E475BB
:1004D000F001121501EF0214EF022A1B7403D20778
:1004E0008003E4C207F5668B578A588959E4F5679B
:1004F000F569F56AE56760077F201204BB80F57532
:1005000068FFC201C200C202C203C205C206C2081D
:10051000120489FF700D3007057F001204CCAF6A0A
:10052000AE6922B4255FC2D5C204120489FF24D06B
:10053000B40A00501A75F00A786730D50508B6FF7E
:100540000106C6A426F620D5047002D20380D92461
:10055000CFB41A00EF5004C2E5D2040206CCD20197
:1005600080C6D20080C0D20280BCD2D580BAD2056B
:1005700080B47F201204BB2002077401B5670040DD
:10058000F1120480FF1204BB0204F4D208D20680E8
:1005900095120480FB120480FA120480F94A4B7011
:1005A00006799D7A077BFF20022EE567602A7E0090
:1005B0008E827583001214C260060EEE656870F0BC
:1005C000C2D5EBC0E0EAC0E0E9C0E0EE120713D00C
:1005D000E0F9D0E0FAD0E0FB1214A9FF60AAEBC06A
:1005E000E0EAC0E0E9C0E01204BBD0E02401F9D0A9
:1005F000E03400FAD0E0FBE5680460DCD568D9801F
:10060000877BFF7A07790FD202809C79108002796C
:1006100008C206C2088008D2D5790A8004790AC2C5
:10062000D5E568047002F568E4FAFDFEFF12048067
:10063000FC7B08200113120480FD7B1030000A129D
:100640000480FE120480FF7B20EC3382D592D550CB
:1006500013C3E43000069FFFE49EFEE42001039DE7
:10066000FDE49CFCE4CBF8C201EC700CCFCECDCC09
:10067000E824F8F870F38017C3EF33FFEE33FEED94
:1006800033FDEC33FCEB33FB994002FB0FD8E9EB75
:10069000300105F8D0E0C448B201C0E00AEC4D4E8C
:1006A0004F78207B0070C2EAB5680040BCC0E01201
:1006B0000715D0F0D0E0200104C4C0E0C4B201C0EE
:1006C000F01204A4D0F0D5F0EB0204F412151105D9
:1006D0009153060B5805624C055E42060F4F0617F4
:1006E00044061749057743061D5506014606014590
:1006F00006014707BD5005662D056A2E058D2B05A1
:100700006E23058B2007A62A052648000005853F95
:100710003F3F00790AA2D5200314300509B9100221
:100720000404B9080104A2D52006025001042002E5
:10073000689202B567005034C0E07F203003197F13
:1007400030A20272067205500F12076CC202C20676
:10075000C205C2087F30800F300503E9C0E01204F3
:10076000BB300503D0E0F9D0E0B567CC3005177F8A
:1007700030B9100C1204BB7F583004077F78800317
:10078000B908031204BB3002057F2D0204BB7F2091
:100790002008F87F2B2006F322920280CF286E7566
:1007A0006C6C2900D2011204803001F8C201786714
:1007B00030D50108F60205262D5043495812048011
:1007C0002403B405004001E49007B8931204AC740C
:1007D0003A1204ACD20375670402060BD294C29499
:1007E000122BE2D294122BD17BFF7A1F7952120482
:1007F000E2122A8B8F50122AD07BFF7A1F7959126E
:1008000004E2E53F640260051229F080F5C294120B
:100810002BE2122BE2E4F550122BE27BFF7A1F79D8
:10082000651204E2122884EF60090550E550C39474
:100830000540E5D3900216E09400900215E0940282
:1008400040147BFF7A1F796E1204E21229B9EF700F
:10085000A8122BE280F5C2957BFF7A1F79851204DE
:10086000E27F6B7C1F7D8B122BBE1200038F50E545
:100870005064B36006E55064427077E550B4B30845
:1008800075551F75569B800675551F75569E755A72
:10089000FF85555B85565C7BFF7A1F79AA1204E2BF
:1008A000E4F5517F6BAD56AC55122BBE8F50746B77
:1008B0002FF8A6511200038F50E5506442700302D6
:1008C0000A33E550B4431A755A0085515B755C00D4
:1008D000755D00755E6B7BFF7A1F79B81204E2804C
:1008E00005AF50020A300551E551C394FF40B402F0
:1008F0000A33AF50122AD07BFF7A1F79D01204E25C
:10090000900215E0FEA3E0FF7C007D03121348E493
:10091000FDAB43AA42A941A840D312142840187540
:100920005203900215E0FEA3E0FF7C007D0312134A
:10093000488E538F548048900215E0FEA3E0FFEFED
:100940002543FFEE3542FEE43541FDE43540FCEF42
:1009500024FFFFEE34FFFEED34FFFDEC34FFFCC05E
:1009600006C007900215E0FEA3E0FBAA06E4F9F832
:10097000D007D0061213968F528542538543547B7D
:10098000FF7A1F79D685435D85425C85415B854052
:100990005A85535E85545F7560008552611204E28A
:1009A000900216E024FFFF900215E034FFFEE4FC05
:1009B000FDE5432FF543E5423EF542ED3541F54176
:1009C000EC3540F540E5526033786B7601122C2609
:1009D0008F50122AD0122C0D900064E0F550E4F0F4
:1009E000755A01755B00755C007BFF7A1F79F01208
:1009F00004E2900064E550F0155280C9900216E0C0
:100A000024FFFF900215E034FFFEFAC3E5439FF593
:100A100043E5429AF542E5419400F541E5409400F2
:100A2000F5407BFF7A1F79FC1204E21225938F5068
:100A3000122AD0C296900215E0FEA3E07802C333DA
:100A4000CE33CED8F9F5548E537552047BFF7A20FD
:100A500079031204E27F6B7C207D0B122BBE1210F7
:100A6000FD8F50122AD07BFF7A2079191204E2E41C
:100A7000F550E5506552600E786B7601122C3112FC
:100A80002AD0055080EC7BFF7A2079231204E2788B
:100A90006B121490000000001227D18F50122AD040
:100AA0007BFF7A2079301204E2E4F555F556E552E1
:100AB0006046122C0DE4FFFE900215E06E7003A359
:100AC000E06F6024855682855583E493FD74002F82
:100AD000F58274003EF583EDF00556E5567002058B
:100AE000550FBF00010E80D0786B7601122C318F2C
:100AF00050122AD0155280B67BFF7A1F79FC12045F
:100B0000E2786B76011225938F50122AD0D296D2BA
:100B1000957BFF7A2079371204E2E53F6401600596
:100B20001229F080F5D294122BE2122BE20207F97F
:100B3000E53FC39403500A1228D5EF600122122228
:100B400032122C0DE4F52CE4F526F525F524F523D9
:100B500012204DEF600A12223212204DEF60012266
:100B6000E52C700D854A82854983E054FD64E96077
:100B700053E4FDED64406049E54A24BEFFE5493495
:100B800001FEED7A002FFFEA3EF583EF2404F582A3
:100B9000E43583F583E06023E54A24BEFFE549346C
:100BA00001FEED2FFFEA3ECF2408CF3400FE122BCA
:100BB000728F268E258D248C23800974102DFD8044
:100BC000B27F9222AF26AE25AD24AC239002001254
:100BD000148412204DEF600122854A82854983E00A
:100BE00054FD64E960037FA122E54A240DF582E407
:100BF0003549F583E0F522F5449002087406F0E5E6
:100C00004420E612E54425E0F544900208E014F0A3
:100C1000E070EC752201E54A2416122BF1900206D1
:100C2000EEF0A3EFF04E702CE54A2424122B6D8FCA
:100C3000328E318D308C2FE4FBFA7901F8D3121407
:100C4000285007E52C60037FA222900206E531F0D0
:100C5000A3E532F0E54A2414F582E43549F583E052
:100C6000FFE54A2413F582E43549F583E04F60122D
:100C7000E54A2413122BF1E48F3B8E3AF539F5380F
:100C8000800FE54A2420122B6D8F3B8E3A8D398CD4
:100C900038E54A2411122BF1CCEECCCDEFCD9002E9
:100CA00015E0FEA3E07805CEC313CE13D8F9147E69
:100CB000002DFFEE3CFEE52E24FBFDEFC8EDC8083D
:100CC0008005CEC313CE13D8F9FFE4FCFD900217C4
:100CD000121484E54A240E122BF18E3D8F3E9002B1
:100CE00007E0253EFF900206E0353DFEE4FCFD9066
:100CF0000217E0F8A3E0F9A3E0FAA3E02FF532EA47
:100D00003EF531ED39F530EC38F52FE54A2410F594
:100D100082E43549F583E0D39401401E900206E059
:100D2000FEA3E0FFE5322FF532E5313EF531ED353A
:100D300030F530EC352FF52F8007E4900206F0A354
:100D4000F0C3E53B9532FFE53A9531FEE539953044
:100D5000FDE538952FFC900208E0F9F8121439905F
:100D6000020D121484E47BF57AFFF9F8D3121428EB
:100D7000401FE4900204F0A3F090020FE0FEA3E015
:100D800094F5EE940F50057544018024754402805B
:100D90001FE54A2430122BF1900204EEF0A3EFF08D
:100DA000E54A242C122B6D9002171214847544030B
:100DB000E53E453D604E900217E0FCA3E0FDA3E058
:100DC000FEA3E0FFEC4D4E4F603AE54A2410F58259
:100DD000E43549F583E0D39401400A900206E070BF
:100DE00002A3E0601FE54A240BF582E43549F58350
:100DF000E07011E54A240CF582E43549F583E0C33F
:100E00009402500AE52C7006752C01020B47E53E52
:100E10002526FFE53D3525FEE43524FDE43523FC9C
:100E2000900209121484E5322526FFE5313525FEAE
:100E3000E5303524FDE52F3523FC90021112148492
:100E40007D107F03122AB2228D57EFC8E544B40209
:100E50000712145F78018008B4031212145F78023D
:100E600012144C8F5B8E5A8D598C58802312145F4C
:100E70008E588F59EF139209E558C313FEE55913A5
:100E80002559FFE5583EFEE48F5B8E5AF559F5581B
:100E9000900216E024FFFD900215E034FF5EFEEDA7
:100EA0005F254AF52DEE3549F52CAF5BAE5AAD59AD
:100EB000AC58122AEE900209E0F8A3E0F9A3E0FA98
:100EC000A3E02FF55BEA3EF55AE93DF559E83CF51C
:100ED00058E55B652A7012E55A6529700CE559657D
:100EE000287006E5586527601D300A07122703EFB2
:100EF000600122855823855924855A25855B261251
:100F0000204DEF600122E5576025B4FF0474FF8097
:100F100006E557B4010BE4F55BF55AF559F5588031
:100F20000C852F5B85305A853159853258D20AE5B8
:100F3000446402703F852D82852C83E0F534A3E064
:100F4000F535853437853536E4F534F535AE36AFCD
:100F500037C3EF94F7EE94FF4003D38001C39209A7
:100F6000E557600D852D82852C83E558F0A3E55962
:100F7000F07F0022E5446403705A852D82852C831E
:100F8000E0FCA3E0FDA3E0FEA3E0F5378E368D354F
:100F90008C34E53754F0FFE55B540F4FF55BE537D4
:100FA000540F853437F534AF368535368F35AF3449
:100FB000EFC3940F4003D38001C39209E55760113A
:100FC000AF5BAE5AAD59AC58852D82852C83121477
:100FD000847F002253590F900216E0254AFF9002A9
:100FE00015E03549CF24FFCF34FFFEEF652D7003A8
:100FF000EE652C6053852D82852C83E0F534852D9C
:1010000082852C83A3E0F535E55770030210C330C9
:101010000923E558C454F0FFE534540F4F852D8261
:10102000852C83F0E559C454F0FFE558C4540F4FA4
:10103000A3F00210C3852D82852C83E558F0E53599
:1010400054F04559A3F0807B852D82852C83E0F5F3
:1010500034E557602230090EE558C454F0FFE534FA
:10106000540F4FFF8002AF58852D82852C83EFF0FF
:10107000122703EF600122E52A2401F526E4352931
:10108000F525E43528F524E43527F52312204DEF26
:10109000600122854A82854983E0F535E557602362
:1010A00030090FE559C454F0FFE558C4540F4FFF01
:1010B0008007E53554F04559FF854A82854983EF1D
:1010C000F0D20A300913E535C454F0FFE534C454B6
:1010D0000F4FF537E535C48005853437E535540FB6
:1010E000F536E4F534F535AE36AF37C3EF94F7EEA9
:1010F000940F4003D38001C392097F0022120003A2
:101100008F33E533700A1222CEEF7003021264228D
:10111000E53364426003AF3322900216E024E0FF1F
:10112000900215E034FFFEC3E53E9FE53D9E50036F
:10113000021264E53B700FE538700BE5397007E586
:101140003A70030211FA900214E0FFC3E5489FFFD2
:10115000E52214FE5FF533E53E6008EE653360037B
:101160000212647F38E4FD120E48EF60012220096C
:1011700003021264122B27EF6001227F387D0212D6
:101180000E48EF600122122703EF600122122C0D9E
:10119000E4FFFE900215E06EFCA3E06F4C6013E5E7
:1011A0004A2FF582E5493EF583E4F00FBF00010EBA
:1011B00080E1E4F533122924E53E7010F53DF53E5B
:1011C000852648852547852446852345852234E59F
:1011D000346020121E4EEF600122E5262401F52620
:1011E000E43525F525E43524F524E43523F52315E8
:1011F0003480DC122512EF606B22E53E7066E54814
:1012000024FFF548E54734FFF547E54634FFF5464A
:10121000E54534FFF545F523122044EF600122E453
:10122000F53DF53ED3900216E0953E900215E0950F
:101230003D402EE54A253EFFE549353D8F82F58349
:10124000E0B4E510E582240BF582E43583F583E014
:10125000540E60107420253EF53EE4353DF53D808A
:10126000C37FB222122B27EF600122122703EF6007
:10127000012285323B85313A853039852F38122558
:1012800012EF600122122041EF600122E54A253E63
:10129000FFE549353DFEE4FDEDC3940B50047C2091
:1012A00080027C00EF2DF582E43EF583ECF00DBD6D
:1012B00020E6EF2418F582E43EF5837421F0A37450
:1012C00030F0EF241CF582E43EF5837401F0E4FD78
:1012D000EDC3940B5021A82BE6FC601BECB42E044C
:1012E0007D08052BA82BE6FCEF2DF582E43EF58367
:1012F000ECF00D052B80D9853B34853A35853936A0
:10130000853837EF241AF582E43EF583E534F0A3FF
:10131000E535F0EF2414F582E43E121E45EF60013E
:1013200022853B32853A3185393085382FE4F543C3
:10133000F542F541F540F54FF54EF54DF54CF533D9
:101340007D147F10122AB222EF8DF0A4A8F0CF8C6A
:10135000F0A428CE8DF0A42EFE2275F00875820030
:10136000EF2FFFEE33FECD33CDCC33CCC58233C56A
:10137000829BED9AEC99E58298400CF582EE9BFEFB
:10138000ED9AFDEC99FC0FD5F0D6E4CEFBE4CDFA56
:10139000E4CCF9A88222B800C1B90059BA002DECFA
:1013A0008BF084CFCECDFCE5F0CBF97818EF2FFF92
:1013B000EE33FEED33FDEC33FCEB33FB10D703993A
:1013C0004004EB99FB0FD8E5E4F9FA227818EF2FE7
:1013D000FFEE33FEED33FDEC33FCC933C910D70506
:1013E0009BE99A4007EC9BFCE99AF90FD8E0E4C925
:1013F000FAE4CCFB2275F010EF2FFFEE33FEED3355
:10140000FDCC33CCC833C810D7079BEC9AE8994081
:101410000AED9BFDEC9AFCE899F80FD5F0DAE4CDE3
:10142000FBE4CCFAE4C8F922EB9FF5F0EA9E42F027
:10143000E99D42F0E89C45F022E8600FECC313FC04
:10144000ED13FDEE13FEEF13FFD8F122E8600FEF6E
:10145000C333FFEE33FEED33FDEC33FCD8F122E66F
:10146000FC08E6FD08E6FE08E6FF22E6FB08E6F9D2
:1014700008E6FA08E6CBF822ECF608EDF608EEF6F8
:1014800008EFF622ECF0A3EDF0A3EEF0A3EFF022CC
:10149000D083D082E493F608740193F60874029323
:1014A000F608740393F6740473BB010689828A8379
:1014B000E0225002E722BBFE02E32289828A83E413
:1014C0009322BB010CE58229F582E5833AF583E09E
:1014D000225006E92582F8E622BBFE06E92582F8BD
:1014E000E222E58229F582E5833AF583E49322BB83
:1014F000010689828A83F0225002F722BBFE01F3A3
:1015000022FAE6FB0808E6F925F0F618E6CA3AF6EC
:1015100022D083D082F8E4937012740193700DA3EB
:10152000A393F8740193F5828883E473740293683B
:1015300060EFA3A3A380DFE53FD394145007E53FFA
:10154000C3941250037FB422786BE6FF08F670064E
:10155000300B0302171BE4786BF6786DF608F6780B
:101560006CE6700302169FE533F4704AE53B700C9D
:10157000E5387008E5397004E53A602DE53FB412AE
:1015800009E544640360037FB122AF32AE31AD3070
:10159000AC2F7875121478122B33EF6001227F750F
:1015A0007D02120E48EF600822122613EF6001221E
:1015B000786E16E4F533122924786DE66069E52E1D
:1015C000B409047F408014E52EB40A047F20800B08
:1015D000E52EB40B047F1080027F08EF3395E0FE08
:1015E000786DE6C39FEE6480F8748098502E786D15
:1015F000E6FFE4FCFDFE786F12146BEF2BFFEE3A72
:10160000FEED39FDEC38FCEF6526FFEE6525FEEDBD
:101610006524FDEC6523FC4D4E4F600B121A36EF2E
:10162000600122E4786DF6786DE6700DAF26AE2588
:10163000AD24AC23786F121478C3E5229533FF787C
:101640006CE6FEEFD39E400CE60826F618E625333E
:10165000F533804B786DEF26F6C318E69FF6E670FB
:10166000187874E6654A700418E66549700B121A1A
:1016700036EF600122E4786DF67F2FE4FD120E480C
:10168000EF6001223009067533FF02155F85342FA4
:10169000853530853631853732E4F53302155F30D4
:1016A0000A07122703EF600122786DE66007121A1D
:1016B00036EF600122786EE66035AF32AE31AD3084
:1016C000AC2F7875121478786EE6FFE4EFF532747B
:1016D000FFF531F530F52F12251CCBEFCB787512C5
:1016E000145F8F328E318D308C2FEB6002FF22AF72
:1016F0004FAE4EAD4DAC4CAB43AA42A941A840C33E
:10170000121428500E854F43854E42854D41854C1D
:1017100040D20BE53C30E406300B0302296F7F001A
:1017200022E4F532F531F530F52F90020DE0FCA3FF
:10173000E0FDA3E0FEA3E0FFAB32AA31A930A82F61
:10174000D312142840037FB122E5322401F532E49C
:101750003531F531E43530F530E4352FF52F7F2F75
:10176000E4FD120E48EF600122E537700FE534709A
:101770000BE5357007E53670030218ADE5446401EA
:1017800060A885492C854A2DE54464027051900279
:1017900015E0C313FEA3E01324FFFFEE34FFF5347E
:1017A0008F35F5368F377402252DF52DF582E4350A
:1017B0002CF52CF583E07011A3E0700D852D82854A
:1017C0002C8374FFF0A3021835E5356009D535D6B2
:1017D000E534600880D01534153580CA021894901D
:1017E0000215E0FEA3E07802CEC313CE13D8F9248D
:1017F000FFFFEE34FFF5348F35F5368F377404254F
:101800002DF52DE4352CF52C852D82F583E0600334
:10181000021879A3E06003021879A3E0705BA3E0EB
:10182000540F7055852D82852C8374FFF0A3F0A38F
:10183000F0A3E0440FF0AE36AF37EF4532FFEE4590
:1018400031FEE530FDE52FFCEEC0E0EFC0E0E53510
:1018500024FFFFE53434FFCBEFCBFAD0E0FFD0E03C
:10186000FEC3EF9BF532EE9AF531ED9400F530ECC6
:101870009400F52FD20A7F0022E53560101535E57A
:101880003560030217FDE534600A0217FD153415B3
:10189000350217FDAE36AF37E5324FF532E5314E42
:1018A000F531E530F530E52FF52F02172A7F2F7D32
:1018B000FF120E4822300C0A7F34122B40EF4235C3
:1018C00080077D037F34122B9690BDF1742BF000BE
:1018D0000000E4F54B90BCF0741FF000007455F06C
:1018E00000007453F000007442F0000004F00000A7
:1018F0007403F000007407F000007405F000007439
:101900000AF00000E4F0E52E24F8F8E537C333D8F8
:10191000FC90BCF0F00000E4F00000F000E535546D
:1019200080F000E535540FF00000740AF0E5353022
:10193000E7047F2880027F2A90BCF0EFF00000E4EB
:10194000F0E53530E611786FE6F00008E6F00008C3
:10195000E6F00008E6801490BCF0E523F00000E516
:1019600024F00000E525F00000E526F00000E490FA
:10197000BCF0F00000F00000E537F00000E4F000FB
:1019800000F00000F00000F00000F00000F00000A7
:10199000F000007F31122B40EFF535CD7F1E122B6A
:1019A000967F33122B407D4F122A42E54B7007E59C
:1019B000356440FD80027D007F31122B96E54B603F
:1019C0003B854B35E54B641660057F52122B0BE5CA
:1019D0004BB416037F82227F32122B40EFC4540F88
:1019E0004480FF7D41122A427F33122B40EFC454C2
:1019F0000FFF7D41122A42AF358F4B22300C047FFE
:101A00003680027F35E52E24F7F8E537088002C3DB
:101A100033D8FCFD122B96300C047F3780027F36C2
:101A20007D08122B967F20122B40EF4408FD7F206B
:101A3000122B967F0022E4F536E53C20E654E52E95
:101A40006409604E753540786DE6F5371218B5EFCC
:101A50006003021B7A853C37E53C13135403FFE512
:101A60003C54FC4FF53CE52EB409047F088014E596
:101A70002EB40A047F10800BE52EB40B047F208067
:101A8000027F40786DE6FEEF8EF0A485F034F535E8
:101A9000806D90BDF17456F000000000E4F54B78C5
:101AA00072E690BCF0F0000018E6F0000018E6F0D6
:101AB000000018E6F00000786DE6F0853C37E53C64
:101AC00013135403FFE53C54FC4FF53CE52EB409D9
:101AD000047F088014E52EB40A047F10800BE52EE5
:101AE000B40B047F2080027F40786DE6FEEF8EF01D
:101AF000A485F034F5351229F0E54B641E707BE5C2
:101B000037540C60137873E6FE08E6FF122402785F
:101B100073EEF608EFF6801790BDF1742BF000001D
:101B20000000E4F54B90BCF07440F0FF122C65907F
:101B3000BDF17457F0E54F2440F54FE4354EF54EB6
:101B4000E4354DF54DE4354CF54CE5356009D535BA
:101B5000A5E5346008809F15341535809985373C9C
:101B60001229F0E54BB41412E53C20E503122C5B7E
:101B7000786DE6786B26F67F002285373CE536C324
:101B800094055022E54B6416601C122771E53C5405
:101B90000C7004FF122C65E536C394014003122833
:101BA0002C0536021A39122B8212282C22E53FD33B
:101BB00094145007E53FC3941250037FB422786B0E
:101BC000E608F6E418F6786DF6C3E543954FFFE5B1
:101BD00042954EFEE541954DFDE540954CFC122A9F
:101BE000EE8F378E368D358C34E5357004E53660F2
:101BF00006786E76FF8004786EA637786CE6700300
:101C0000021D02786EE67003021D02E533F47003D4
:101C1000021D02122924786DE66069E52EB40904DC
:101C20007F408014E52EB40A047F20800BE52EB49B
:101C30000B047F1080027F08EF3395E0FE786DE69D
:101C4000C39FEE6480F8748098502E786DE6FFE4B0
:101C5000FCFDFE786F12146BEF2BFFEE3AFEED39B0
:101C6000FDEC38FCEF6526FFEE6525FEED6524FDF5
:101C7000EC6523FC4D4E4F600B121D0DEF600122F1
:101C8000E4786DF6786DE6700DAF26AE25AD24AC28
:101C900023786F121478C3E5229533FFF534786EFC
:101CA000E6FEEFD39E4003E6F534E534D3786C9638
:101CB000400CE60826F618E62533F5338049C3784C
:101CC0006CE69534F608E53426F6C308E69534F656
:101CD000E5342533F53365226003021BFB7F2FFDBE
:101CE000120E48EF6001223009067533FF021BFB1C
:101CF00085342F853530853631853732E4F533022A
:101D00001BFB786DE66003021D0D7F0022E4F536B3
:101D1000E53C20E61FE52E640960197535C0786D35
:101D2000E6F5371218B5EF6003021E1290BDF1748C
:101D300055F0802990BDF17454F000000000E4F5E6
:101D40004B7872E690BCF0F0000018E6F000001846
:101D5000E6F0000018E6F00000786DE6F0853C370C
:101D6000E53C13135403FFE53C54FC4FF53CE52ED2
:101D7000B409047F088014E52EB40A047F10800B98
:101D8000E52EB40B047F2080027F40786DE6FEEFE5
:101D90008EF0A485F034F5351229F0E54B641D7002
:101DA00071E537540C60137873E6FE08E6FF1224E1
:101DB0008B7873EEF608EFF6801590BDF17428F07D
:101DC00000000000E4F54B90BCF0E0FF122C6490A2
:101DD000BDF17455F0E54F2440F54FE4354EF54E16
:101DE000E4354DF54DE4354CF54CE5356009D53518
:101DF000A7E534600880A115341535809B85373CF4
:101E00001229F0E54BB4140A786DE6786B26F67F5C
:101E1000002285373CE536C394055022E54B641615
:101E2000601C122771E53C540C7004FF122C64E511
:101E300036C39401400312282C0536021D10122BC4
:101E40008212282C22F583E536F0A3E537F0E4F57D
:101E500036E53C20E63CE52E64096036E4F5357550
:101E600037011218B5EF6003021F1F854927854A05
:101E700028E52EB409047F088014E52EB40A047FF7
:101E800010800BE52EB40B047F2080027F408F353D
:101E9000805990BDF17456F000000000E4F54B90BD
:101EA000BCF0E526F00000E525F00000E524F00098
:101EB00000E523F000007401F0854927854A28E5F4
:101EC0002EB409047F088014E52EB40A047F108024
:101ED0000BE52EB40B047F2080027F408F35E53563
:101EE000601E1229F0E54B641E7034AF28AE271235
:101EF00024028E278F2890BDF17457F0153580DEAF
:101F000085232785242885252985262A1229F0E579
:101F10004BB4140BE53C20E503122C5B7F0022E55B
:101F200036C394055015E54B6416600FE536C3942F
:101F300001400312282C0536021E51122C0D122BC3
:101F40008212282C224572726F723A202530325844
:101F50000A0053746172740A0057616974205564F1
:101F600069736B0A005265616479203F0A00546FFF
:101F70006F206C6172676520736563746F72207384
:101F8000697A650A004F70656E0A005C4335315C02
:101F900043483337354846542E43005C2A005C439F
:101FA00035315C43483337352A004C6973742066F9
:101FB000696C652025730A0020206D6174636820B8
:101FC00066696C652025303364233A2025730A0046
:101FD000526561640A0053697A653D256C642C2062
:101FE0004C656E3D25642C205365633D25640A00D5
:101FF0004C696E6520313A2025730A00436C6F737B
:10200000650A004372656174650A005CB3CCD0F266
:10201000BFD5BCE42E42494E0050726557726974B8
:10202000650A004C6F6361746520686561640A002D
:1020300057726974650A0054616B65206F75740A84
:1020400000854523854624854725854826E5266560
:102050002A7015E5256529700FE52465287009E5C6
:102060002365277003022137E4F536E53C20E61DA1
:10207000E52E640960177535807537011218B5EFC4
:10208000600302211290BDF17455F0802790BDF1DC
:102090007454F000000000E4F54B90BCF0E526F02D
:1020A0000000E525F00000E524F00000E523F00045
:1020B000007401F0854927854A28E52EB409047F7C
:1020C000088014E52EB40A047F10800BE52EB40BB3
:1020D000047F2080027F408F35E535601E1229F095
:1020E000E54B641D702CAF28AE2712248B8E278FF2
:1020F0002890BDF17455F0153580DE8523278524A1
:102100002885252985262A1229F0E54BB414037F5A
:102110000022E536C394055015E54B6416600FE5C3
:1021200036C39401400312282C053602206B122C72
:102130000D122B8202282C7F0022E53FC3941350FE
:10214000037FB422122041EF600122C20AE54A2532
:102150003EFFE549353DCBEFCBFA7873E6FFEB2444
:102160000BF582E43AF583E0F6EFF460138B828A94
:1021700083E582240BF582E43583F583EFF0D20A00
:102180007871E6F53708E6F536EB2416FFE43AFEFB
:10219000122BF618EEF608EFF6E536F4FEE537F406
:1021A0004E6012EB2416F582E43AF583E536F0A38F
:1021B000E537F0D20A786FE6F53708E6F536EB2416
:1021C00018FFE43AFE122BF618EEF608EFF6E536A5
:1021D000F4FEE537F44E6012EB2418F582E43AF58C
:1021E00083E536F0A3E537F0D20A786B12145F78F6
:1021F00077121478EB241CFFE43AFE122B72786BF2
:102200001214787877E6F4601E12145F8F438E42C2
:102210008D418C40122C4FEB241CF582E43AF5835F
:10222000121484D20AC20B300A05C20A021E4E7F63
:1022300000227535327F53122B0BE54B7060122C48
:102240003CE54A2406F582E43549F583E0FFB40411
:1022500005752E0A8015EFB40805752E0B800CEF5E
:10226000B41005752E0C8003752E0974017E00A82C
:102270002E088005C333CE33CED8F9900216F0EE87
:10228000900215F0E52E24F7FF7408C8EFC8088007
:1022900002C333D8FCFD7F39122B967F0022E54B19
:1022A00064166027E54B641560217F32122B57308E
:1022B0000C0B854B367F5A122B0B85364B7F0A123F
:1022C0002B571535E5356003022235AF4B22E53F2C
:1022D000C394135007120003EF600122122AAEEFDD
:1022E000600122122041EF600122E54A253EFFE510
:1022F00049353D8F82F58374E5F0121E4EEF600183
:1023000022AF3BAE3AAD39AC388F378E368D358C37
:1023100034EC4D4E4F604EE53B24FFF53BE53A343F
:10232000FFF53AE53934FFF539E53834FFF538E49F
:10233000F532F531F530F52F7F347D01120E48EF7F
:10234000600122E5322401F532E43531F531E4351E
:1023500030F530E4352FF52F3009DD122703EF601B
:10236000012202251C7F0022E53B700CE538700835
:10237000E5397004E53A607B853B32853A31853931
:102380003085382FAF22E4FCFDFE786B12146BC34E
:1023900012142840417F2FE4FD120E48EF60012205
:1023A00020095085342F8535308536318537327890
:1023B0006B12145FEFC0E0AF22CBEFCBD0E0FFC3D6
:1023C000EF9BFFEE9400FEED9400FDEC9400FC7892
:1023D0006B12147880AE786EE6FFE522145FF53359
:1023E000122924AF26AE25AD24AC23786B121478C5
:1023F0007F00227533FF786B121490FFFFFFFF7F81
:10240000002290BDF1742BF0E4F54BE53C540364DD
:1024100003FD744090BCF0F0CD60411460118F82D8
:102420008E83E090BCF0F00FBF00010EDDF02205BE
:10243000A28F828E837D10E0A305A2F005A2E0A307
:1024400005A2F005A2E0A305A2F005A2E0A305A263
:10245000F005A2DDE2AF82AE8305A222EFC582F9CC
:10246000EEC583C5A0F5F07D08E0A3F3E0A3F3E09B
:10247000A3F3E0A3F3E0A3F3E0A3F3E0A3F3E0A36B
:10248000F3DDE685F0A0AF82AE832290BDF1742823
:10249000F0E4F54BE53C54036403FD90BCF0E0CD63
:1024A000604114601190BCF0E08F828E83F00FBF0A
:1024B00000010EDDF02205A28F828E837D1005A221
:1024C000E005A2F0A305A2E005A2F0A305A2E005A5
:1024D000A2F0A305A2E005A2F0A3DDE2AF82AE83E5
:1024E00005A222EFC582F9EEC583C5A0F5F07D08EF
:1024F000E3F0A3E3F0A3E3F0A3E3F0A3E3F0A3E3AB
:10250000F0A3E3F0A3E3F0A3DDE685F0A0AF82AE95
:10251000832274FFF532F531F530F52F900204E097
:10252000FCA3E0FD4C7002FF22CFEDCFCEECCEE459
:10253000FCFD900200E0F8A3E0F9A3E0FAA3E02F8D
:10254000F526EA3EF525ED39F524EC38F523122081
:102550004DEF600122E54A24E8FFE5493401FE120F
:102560002B72E5322FF532E5313EF531E5303DF5A0
:1025700030E52F3CF52FAF32AE31AD30FC122C4F91
:10258000E54A24E8F582E5493401F5831214841202
:102590001E4E22E53FC3941250037FB422E53F64F0
:1025A00012704FE5446403604990021AE0F522AED0
:1025B00042E543A82E088005CEC313CE13D8F9FFF9
:1025C000E4FCFD900217121484900211E0F8A3E0DD
:1025D000F9A3E0FAA3E0FB90021AE0FFE4FCFDFEA1
:1025E000EB2FFFEE3AFEED39FDEC38FC90021112B4
:1025F0001484E53FD39413400AE53FB41407786B85
:10260000E67002C20B300B0712296FEF6001221235
:102610002AAE2212172AEF600564B1600122EF6032
:1026200007121721EF600122122703EF60012285B4
:10263000323B85313A853039852F38122041EF60A1
:102640000122E54A253EFFE549353DFEF583EF24AD
:102650001CF582E43583F5837401F0853B34853ABB
:10266000358539368538378F828E83E582241AF591
:1026700082E43583F583E534F0A3E535F08F828E6F
:1026800083E5822414F582E43583121E45227533D6
:10269000057D067F65122BAAE4F53F90BCF0E0B4FF
:1026A0009A0F7D067F9A122BAA90BCF0E0646560B9
:1026B00009122A67D533DA7F81229002157402F05D
:1026C000A3E4F090BDF104F000000000C20C533C04
:1026D000BF90BCF0E0F533C394A2400BE53394B651
:1026E0004003433C40D20C753F017D157F06122B01
:1026F000AA7F01122B5790BCF0E0B45F037F8122C8
:102700007F0022852723852824852925852A2612CE
:102710001E4EEF600122900206E0FEA3E0FF4E6035
:102720004BE4FCFDE5262FF526E5253EF525ED35A8
:1027300024F524EC3523F523121E4EEF6001229080
:102740000206E0FEA3E0FBCAEECAC3E5269BF5261F
:10275000E5259AF525E5249400F524E5239400F574
:1027600023F52785242885252985262AC20A7F0066
:1027700022786DE67E00A82E088005C333CE33CEC6
:10278000D8F9FDCCEECCE535AE347806C333CE3384
:10279000CED8F9FFC3ED9FF535EC9EF534AE34AFDE
:1027A00035CBEFCBCAEECAC3E54F9FF54FE54E9A46
:1027B000F54EE54D9400F54DE54C9400F54CC3E421
:1027C0009535FFE49534FE7874EF26F618EE36F66C
:1027D00022E53FC3941250037FB422AF43AE42AD13
:1027E00041AC40122AEE8F378E368D358C34786BA3
:1027F00012146BD3121428400DAF37AE36AD35AC82
:1028000034786B121478786B12145FE52E24F8F983
:10281000F812144C8F378E368D358C3485354C85B7
:10282000364D85374EE4F54F122368227535321246
:102830002C56D535FA90BDF17422F00000000090BE
:10284000BCF0E0E54B6416600FE53F640160097F72
:1028500020122B40EF20E506753F017F8222300CCD
:1028600019E53FC394034012854B35E4F54B90BD09
:10287000F1745AF01229F085354BE54B70037F1047
:1028800022AF4B221229B9EF60037F8222E53FC3BA
:102890009403501B1228D5EF600C7F32122B571275
:1028A00028D5EF600122122232EF600302282C307B
:1028B0000C207F59122B0BAF4B8F35EF7002FF228C
:1028C0007F0A122B577F5A122B0B7F02122B57AF06
:1028D00035227F00221229B9EF60037F82227F51C7
:1028E000122B0BE54B70327D037F02122AB2300CA3
:1028F000257F38122B40EF601D122C3C854A8285C3
:102900004983E0B405107D017F34122B967F581265
:102910002B0BE54B70037F00227D027F02122AB24F
:1029200012282C22E53224FEFFE53134FFFEE5308B
:1029300034FFFDE52F34FFFC900208E0F9F8121493
:102940004C900211E0F8A3E0F9A3E0FAA3E02FFB1A
:10295000EA3EFAE93DF9E83CF8E4FCFDFEEB2533FC
:10296000F526EE3AF525ED39F524EC38F52322C2AB
:102970000BE53FC39414403E122041EF600122E575
:102980004A253EFFE549353DCBEFCBFAF583EB24F5
:102990000BF582E43583F583E020E41AAF43AE42C1
:1029A000AD41AC40122C4FEB241CF582E43AF58388
:1029B000121484021E4E7F002290BDF17422F0009A
:1029C00000000090BCF0E0E4F54B7F20122B40EFBC
:1029D00030E517E53FC39402400A7F1B122B40EFFE
:1029E000547F7003753F027F0022753F017F822272
:1029F00020B2FD90BDF17422F0534B80E54B600393
:102A0000E4F54B90BCF0E0F54BE54BB41604753F94
:102A10000122E54BB41503753F0222EFB40A077497
:102A20000D122A26740A309811A899B8130CC2986E
:102A30003098FDA899C298B811F63099FDC299F561
:102A4000992290BDF1EDF000000000E4F54B90BC40
:102A5000F0EFF01229F0E54B7004754B1022E54BB6
:102A6000B41403E4F54B2275368090BDF17401F087
:102A70000000000090BCF0E0FFD536EE90BDF17490
:102A800005F0000000007F32022B57E581D394F05F
:102A900040037FFC22753C0A122C60EFC394355032
:102AA000037FFF22754900754A0012268E227D1091
:102AB0007F10E53FC39F40028D3FE53F6D7002FFF1
:102AC00022753F011229B9EF60037F82227F8322A2
:102AD000EF601A7BFF7A1F7945755A008F5B1204ED
:102AE000E2C294122BE2D294122BE280F422C3E4CD
:102AF000CC13CD13CE13FFE52E24F7600DF8C3EDF4
:102B000013FDEE13FEEF13FFD8F422E4F54B90BD56
:102B1000F1EFF01229F0E54B7004754B1022E54BF4
:102B2000B41403E4F54B22853B32853A31853930C4
:102B300085382F12172AEF64B16001221217212263
:102B400090BDF1740AF00000000090BCF0EFF000BE
:102B5000006003E0FF2222EF75F005A4F536E536AC
:102B6000600A122C56122C56153680F222FFE435DC
:102B700049FE8F828E83E0FFA3E0FEA3E0FDA3E089
:102B8000FC22E53FB41204753F0322E53FD39410C5
:102B90004003753F102290BDF1740BF0000000005F
:102BA00090BCF0EFF00000EDF02290BDF1EDF000F0
:102BB000000000E4F54B90BCF0EFF00000228D82A5
:102BC0008C83A807E4FFE493F6600508A30F80F662
:102BD00022759850758780758920758DF3D28ED2B5
:102BE00099227FC87EC874032557F557DEF8DFF4B5
:102BF00022FFE43549FE8F828E83E0FFA3E0FE22B0
:102C0000786B7F0976FF08DFFB12213A2274FFF50B
:102C10002AF529F528F527C20A22787FE4F6D8FD9F
:102C20007581880207DC78737600087600121BAD88
:102C3000227873760008760012153722122C0DAF19
:102C40004AAE4902248B120003BF4302E4FF22EF85
:102C5000CCFFEECDFE227F96DFFE227FFADFFE2242
:062C60007F352222222232
:00000001FF
