:10000000022F6D020AF790BDF17422F0000000008B
:1000100090BCF0E0FFE53FC3941050071207DFEFFC
:10002000600122122DB6EF600122C20B7870E664E7
:100030005C6004E6B42F05752B7180177871E66457
:100040003A600302010718E6C39443500302010714
:10005000752B73E544B40310900217E0FCA3E0FD98
:10006000A3E0FEA3E0FF8005E4FFFEFDFC8F3B8ED6
:100070003A8D398C38A82BE6600302010A74FFF52B
:1000800043F542F541F540E5446403605D753B028C
:10009000900211E0FCA3E0FDA3E0FEA3E0FFEFC0AF
:1000A000E090021AE0FBD0E0FFC3EF9BFFEE94006C
:1000B000FEED9400FDEC9400FC90021112200290E1
:1000C0000219E0FEA3E0A82E088005C333CE33CE8C
:1000D000D8F9FFE48F438E42F541F540AF22FCFD95
:1000E000FE900217122002752280853B32853A313C
:1000F00085393085382FE4F54FF54EF54DF54CF543
:1001000033753F127F4122752B70A82BE6B4E502B0
:100110007605E53B700CE5387008E5397004E53A82
:10012000603E852233E53B24FEFFE53A34FFFEE5E1
:100130003934FFFDE53834FFFC900208E0F9F8128D
:100140001FCA900211E0F8A3E0F9A3E0FAA3E02FA0
:10015000F548EA3EF547E93DF546E83CF545802B94
:1001600090021AE0F533AF33CBEFCB900211E0FCF5
:10017000A3E0FDA3E0FEA3E0C39BF548EE9400F5E9
:1001800047ED9400F546EC9400F545E53370030225
:10019000043612218AEF600122E4F53DF53ED3904A
:1001A0000216E0953E900215E0953D500302041CB6
:1001B000E54A253EF52DE549353DF52C852D82F5A1
:1001C00083E0FF7003020463EF64E5700302040E32
:1001D000BF05027FE5A82BE6FE6F6008EE642A608B
:1001E0000302040EE4F537FFEFC3940B5078E52DBE
:1001F0002FF582E4352CF583E0FEAD37E52B2DF8A5
:10020000EE66605DAD37E52B2DF8E66015AD37E5A0
:100210002B2DF8E6645C600AAD37E52B2DF8E6B4CB
:100220002F1FEE6420703FEFC394085010E52D247B
:1002300008F582E4352CF583E0642070297F0B807B
:1002400025AE37E52B2EF8E6B42E1BE537640860A3
:100250000EE52D2FF582E4352CF583E0B420077FE1
:10026000070F05378082EFC3940B500302034FE55D
:100270002D240BF582E4352CF583E030E3030203F3
:100280004FC209E52D241AFFE4352CFE122F48E455
:100290008F3B8E3AF539F538E544B40310E52D244B
:1002A00014FFE4352CFE122F488E388F39AF37E516
:1002B0002B2FF8E66006200903020345853B3285B3
:1002C0003A3185393085382FE4F54FF54EF54DF547
:1002D0004CF533E52D240BF582E4352CF583E03025
:1002E000E41F74FFF543F542F541F5407D137F109F
:1002F000122DBAEF6001223009047F4380027F4152
:1003000022E52D241CFFE4352CFE122EB28F438EE5
:10031000428D418C40E53B7017E5387013E539702C
:100320000FE53A700B7533FFF543F542F541F540A3
:100330007D147F10122DBAEF6001223009047F4333
:1003400080027F0022E53704252BF52B02010AAF3E
:1003500037E52B2FF8E6642A600302040EE52D240E
:100360000BF582E4352CF583E030E30302040EE55F
:100370003704252BF8E67053E4FFF535E52D2FF50E
:1003800082E4352CF583E06420602FBF080AAE3587
:10039000E52B2EF8762E0535E52D2FF582E4352C4C
:1003A000F583E0FEAD35E52B2DF8EEF6E53570086A
:1003B000A82BE6B4050276E505350FBF0BBEAF35B9
:1003C000E52B2FF8E4F6D209020283E53704252B4A
:1003D000F8E6F47032E543700CE5407008E54170D2
:1003E00004E5426093E54030E703122FAAE5432479
:1003F000FFF543E54234FFF542E54134FFF541E5C1
:100400004034FFF5408007E53704252BF8167420AB
:10041000253EF53EE4353DF53D02019EE5482401CB
:10042000F548E43547F547E43546F546E43545F506
:1004300045153302018BE53B700CE5387008E53952
:100440007004E53A601D7F38E4FD120DF6EF60019F
:100450002220090F85343885353985363A85373B72
:1004600002010AE4FFE52B2FF8E6FE6013642A6020
:100470000FEE645C6004EEB42F037FB3220F80E5BF
:100480007F4222E56B245FF8E6056B22785C30073B
:1004900002785FE475F00112207A021F7B2000EBE6
:1004A0007F2ED2008018EF540F2490D43440D4FF14
:1004B00030040BEF24BFB41A0050032461FFE56C35
:1004C0006002156C056FE56F7002056E30070D78E0
:1004D0005CE475F00112207AEF021F94022C737411
:1004E00003D2078003E4C207F56B8B5C8A5D895EEB
:1004F000E4F56CF56EF56FE56C60077F201204BEC5
:1005000080F5756DFFC201C200C202C203C205C2FE
:1005100006C20812048CFF700D3007057F0012041C
:10052000CFAF6FAE6E22B4255FC2D5C20412048C69
:10053000FF24D0B40A00501A75F00A786C30D50543
:1005400008B6FF0106C6A426F620D5047002D20321
:1005500080D924CFB41A00EF5004C2E5D2040206B9
:10056000CFD20180C6D20080C0D20280BCD2D5805A
:10057000BAD20580B47F201204BE2002077401B5F0
:100580006C0040F1120483FF1204BE0204F7D2088B
:10059000D2068095120483FB120483FA120483F9B5
:1005A0004A4B700679A07A077BFF20022EE56C602B
:1005B0002A7E008E8275830012204D60060EEE6545
:1005C0006D70F0C2D5EBC0E0EAC0E0E9C0E0EE1229
:1005D0000716D0E0F9D0E0FAD0E0FB121F7BFF60F5
:1005E000AAEBC0E0EAC0E0E9C0E01204BED0E0241B
:1005F00001F9D0E03400FAD0E0FBE56D0460DCD511
:100600006DD980877BFF7A077912D202809C79109E
:1006100080027908C206C2088008D2D5790A80040F
:10062000790AC2D5E56D047002F56DE4FAFDFEFFAE
:10063000120483FC7B08200113120483FD7B10301D
:10064000000A120483FE120483FF7B20EC3382D560
:1006500092D55013C3E43000069FFFE49EFEE420D1
:1006600001039DFDE49CFCE4CBF8C201EC700CCFCF
:10067000CECDCCE824F8F870F38017C3EF33FFEE4B
:1006800033FEED33FDEC33FCEB33FB994002FB0F03
:10069000D8E9EB300105F8D0E0C448B201C0E00A67
:1006A000EC4D4E4F78207B0070C2EAB56D0040BC27
:1006B000C0E0120718D0F0D0E0200104C4C0E0C4AC
:1006C000B201C0F01204A7D0F0D5F0EB0204F7128B
:1006D0002027059453060E5805654C056142061205
:1006E0004F061A44061A49057A4306205506044661
:1006F00006044506044707C05005692D056D2E0503
:10070000902B057123058E2007A92A052948000092
:1007100005883F3F3F00790AA2D520031430050920
:10072000B910020404B9080104A2D5200602500140
:10073000042002689202B56C005034C0E07F203083
:1007400003197F30A20272067205500F12076FC2A2
:1007500002C206C205C2087F30800F300503E9C01F
:10076000E01204BE300503D0E0F9D0E0B56CCC3027
:1007700005177F30B9100C1204BE7F583004077F74
:10078000788003B908031204BE3002057F2D0204ED
:10079000BE7F202008F87F2B2006F322920280CF14
:1007A000286E756C6C2900D2011204833001F8C2E6
:1007B00001786C30D50108F60205292D50434958BF
:1007C0001204832403B405004001E49007BB931294
:1007D00004AF743A1204AFD203756C0402060EE53E
:1007E0003FC39403500A122A12EF60012212237BA6
:1007F000122F60E4F52CE4F526F525F524F52312F7
:100800002196EF600A12237B122196EF600122E508
:100810002C700D854A82854983E054FD64E960535C
:10082000E4FDED64406049E54A24BEFFE54934013A
:10083000FEED7A002FFFEA3EF583EF2404F582E413
:100840003583F583E06023E54A24BEFFE5493401A2
:10085000FEED2FFFEA3ECF2408CF3400FE122EB269
:100860008F268E258D248C23800974102DFD80B257
:100870007F9222AF26AE25AD24AC23900200122039
:1008800002122196EF600122854A82854983E05455
:10089000FD64E960037FA122E54A240DF582E43579
:1008A00049F583E0F522F5449002087406F0E5442A
:1008B00020E612E54425E0F544900208E014F0E05B
:1008C00070EC752201E54A2416122F43900206EEC1
:1008D000F0A3EFF04E702CE54A2424122EAD8F3297
:1008E0008E318D308C2FE4FBFA7901F8D3121FA6DC
:1008F0005007E52C60037FA222900206E531F0A3A9
:10090000E532F0E54A2414F582E43549F583E0FF49
:10091000E54A2413F582E43549F583E04F6012E59A
:100920004A2413122F43E48F3B8E3AF539F5388071
:100930000FE54A2420122EAD8F3B8E3A8D398C382C
:10094000E54A2411122F43CCEECCCDEFCD90021509
:10095000E0FEA3E07805CEC313CE13D8F9147E00D1
:100960002DFFEE3CFEE52E24FBFDEFC8EDC8088010
:1009700005CEC313CE13D8F9FFE4FCFD9002171285
:100980002002E54A240E122F438E3D8F3E9002072F
:10099000E0253EFF900206E0353DFEE4FCFD9002BE
:1009A00017E0F8A3E0F9A3E0FAA3E02FF532EA3E5E
:1009B000F531ED39F530EC38F52FE54A2410F582A4
:1009C000E43549F583E0D39401401E900206E0FE31
:1009D000A3E0FFE5322FF532E5313EF531ED35305C
:1009E000F530EC352FF52F8007E4900206F0A3F0E8
:1009F000C3E53B9532FFE53A9531FEE5399530FD8B
:100A0000E538952FFC900208E0F9F8121FB7900224
:100A10000D122002E47BF57AFFF9F8D3121FA640ED
:100A20001FE4900204F0A3F090020FE0FEA3E09414
:100A3000F5EE940F50057544018024754402801F23
:100A4000E54A2430122F43900204EEF0A3EFF0E5C4
:100A50004A242C122EAD900217122002754403E591
:100A60003E453D604E900217E0FCA3E0FDA3E0FE92
:100A7000A3E0FFEC4D4E4F603AE54A2410F582E4C6
:100A80003549F583E0D39401400A900206E07002F4
:100A9000A3E0601FE54A240BF582E43549F583E0C5
:100AA0007011E54A240CF582E43549F583E0C394DE
:100AB00002500AE52C7006752C010207F6E53E256A
:100AC00026FFE53D3525FEE43524FDE43523FC9085
:100AD0000209122002E5322526FFE5313525FEE523
:100AE000303524FDE52F3523FC9002111220027DC4
:100AF000107F03122DBA22C0E0C083C082C0D0751F
:100B0000D0087F22122F52753F00122F838F22E5CB
:100B10002264026003020DDF7F28122F52122F83FE
:100B20008F44E5447006122F34020DED7A0079707F
:100B3000755000755100755270122F83AB50AA5139
:100B4000A952EF121F9474012552F552E43551F564
:100B500051D544E57871E6F418666003020DED782E
:100B600070E620E703020D47E6540C6003020DA176
:100B7000754400E5447876667003020D3B7E007B89
:100B80000074772544F9EE3400FA121F7BF52278C1
:100B900070E65403147003020CB4147003020CD6F4
:100BA000147003020CFC24036003020D167872E635
:100BB0001220270BDB800BED870BFF880C11890CB3
:100BC00023900C35980C47990C59A00C6BA80C7D00
:100BD000B00C8FB80C9FC800000CAF7870E630E600
:100BE00006852280020D16858022020D167870E699
:100BF00030E606852287020D16858722020D1678BB
:100C000070E630E606852288020D16858822020DE0
:100C1000167870E630E606852289020D168589224F
:100C2000020D167870E630E606852290020D1685D4
:100C30009022020D167870E630E606852298020DA5
:100C400016859822020D167870E630E60685229900
:100C5000020D16859922020D167870E630E606859B
:100C600022A0020D1685A022020D167870E630E64D
:100C7000068522A8020D1685A822020D167870E6B8
:100C800030E6068522B0020D1685B022020D1678D8
:100C900070E630E6058522B8807C85B822807778BA
:100CA00070E630E6058522C8806C85C822806775AD
:100CB000220080627870E6787230E60DE6F97A00FC
:100CC0007B00E522121F94804DE6F97A007B00122A
:100CD0001F7BF52280407870E6787330E60FE6FEE1
:100CE00018E6FDEDF5828E83E522F08029E6FE18F8
:100CF000E6FDEDF5828E83E0F522801A7870E6300D
:100D0000E604768080107873E6FE18E6FDEDF58245
:100D10008E83E493F5227870E620E6127E007B0055
:100D200074772544F9EE3400FAE522121F947872A4
:100D300006E6700208060544020B737870E630E69A
:100D40005A7876760080547870E624F06014241087
:100D5000704F7877761018760178707600122F34FD
:100D600080477877760975440075532D75549485BE
:100D70005482855383E493FFE5447C007B00247711
:100D8000F9EC3400FAEF121F94600C05440554E5A9
:100D90005470DC055380D87876760D7870760080B4
:100DA0000878767600787076807F2B122F527876CE
:100DB000E62407F544FF122F3B755000755100756E
:100DC0005270AB50AA51A952121F7BFF122F3B74D5
:100DD000012552F552E43551F551D544E5800EE533
:100DE00022B40A028002E5227F23122F52D0D0D0F3
:100DF00082D083D0E0328D5CEFC8E544B4020712A4
:100E00001FDD78018008B40312121FDD7802121F63
:100E1000CA8F608E5F8D5E8C5D8023121FDD8E5DBC
:100E20008F5EEF139209E55DC313FEE55E13255E49
:100E3000FFE55D3EFEE48F608E5FF55EF55D90023E
:100E400016E024FFFD900215E034FF5EFEED5F2505
:100E50004AF52DEE3549F52CAF60AE5FAD5EAC5D69
:100E6000122E13900209E0F8A3E0F9A3E0FAA3E040
:100E70002FF560EA3EF55FE93DF55EE83CF55DE59E
:100E800060652A7012E55F6529700CE55E65287063
:100E900006E55D6527601D300A0712284CEF6001EA
:100EA00022855D23855E24855F2585602612219637
:100EB000EF600122E55C6025B4FF0474FF8006E565
:100EC0005CB4010BE4F560F55FF55EF55D800C85C3
:100ED0002F6085305F85315E85325DD20AE54464DE
:100EE00002703F852D82852C83E0F534A3E0F53533
:100EF000853437853536E4F534F535AE36AF37C34E
:100F0000EF94F7EE94FF4003D38001C39209E55CB0
:100F1000600D852D82852C83E55DF0A3E55EF07F75
:100F20000022E5446403705A852D82852C83E0FC01
:100F3000A3E0FDA3E0FEA3E0F5378E368D358C34BB
:100F4000E53754F0FFE560540F4FF560E537540F77
:100F5000853437F534AF368535368F35AF34EFC34A
:100F6000940F4003D38001C39209E55C6011AF6028
:100F7000AE5FAD5EAC5D852D82852C831220027F35
:100F80000022535E0F900216E0254AFF900215E002
:100F90003549CF24FFCF34FFFEEF652D7003EE659A
:100FA0002C6053852D82852C83E0F534852D828538
:100FB0002C83A3E0F535E55C700302107130092342
:100FC000E55DC454F0FFE534540F4F852D82852C28
:100FD00083F0E55EC454F0FFE55DC4540F4FA3F009
:100FE000021071852D82852C83E55DF0E53554F086
:100FF000455EA3F0807B852D82852C83E0F534E56A
:101000005C602230090EE55DC454F0FFE534540FF6
:101010004FFF8002AF5D852D82852C83EFF0122873
:101020004CEF600122E52A2401F526E43529F52557
:10103000E43528F524E43527F523122196EF6001E5
:1010400022854A82854983E0F535E55C60233009D5
:101050000FE55EC454F0FFE55DC4540F4FFF8007F9
:10106000E53554F0455EFF854A82854983EFF0D22D
:101070000A300913E535C454F0FFE534C4540F4F6A
:10108000F537E535C48005853437E535540FF53639
:10109000E4F534F535AE36AF37C3EF94F7EE940F81
:1010A0004003D38001C392097F0022122D2D8F555A
:1010B000122D727BFF7A1B79F31204E5E53FC3948E
:1010C00002501A122D50EF60097BFF7A1C7904023E
:1010D00004E57F64122E4C122BBAEF70DFC2957FAD
:1010E000FA122E4CE4F5557F64122E4C7BFF7A1CCD
:1010F00079181204E51228BAEF60090555E555C3C1
:10110000940540E3D3900216E09400900215E09419
:101110000240167BFF7A1C79211204E5122BBAEFEC
:1011200070917F64122E4C80F37BFF7A1C79381209
:1011300004E57F707C1C7D3E122EC21200068F5586
:10114000E55564B36009E555644260030211DBE5CF
:1011500055B4B30875581C75594E800675581C75E2
:101160005951755FFF8558608559617BFF7A1C79FD
:101170005D1204E5E4F55AF55B7F70AD59AC581289
:101180002EC28F5574702FF876FFE4855B43855A25
:1011900042F541F5401200068F55E5556442700353
:1011A000021261E555B4431A855A5F855B6075612B
:1011B000007562007563707BFF7A1C796B1204E521
:1011C0008005AF5502125E055BE55B7002055AC3F0
:1011D0009410E55A942740A1021261AF55122D7266
:1011E0007557C87BFF7A1C7983755F00855760123D
:1011F00004E5E557605AD3941D400575561D8003DC
:101200008557567870A656121D348F55122D72C30D
:10121000E557787096F557E4F555E55578706660B2
:10122000157BFF7A1C79A074712555F8E6F55F12DD
:1012300004E5055580E47870E6C3955650B47BFF0D
:101240007A1C79A31204E57BFF7A1C79A51204E5C8
:101250007BFF7A1C79B31204E51226DC8F55122D20
:1012600072C2967BFF7A1C79BA1204E57F707C1CEF
:101270007DC2122EC21213038F55122D727BFF7A7C
:101280001C79CF1204E575581C7559D6E4F55585BF
:101290005982855883E493F55674712555F8A656FE
:1012A000E556600F0559E559700205580555E55595
:1012B000B41DDCE555600E7870A6551217148F55D5
:1012C000122D7280C77BFF7A1C79B31204E5787007
:1012D00076011226DC8F55122D72D2967BFF7A1D75
:1012E00079211204E5E53FC39402400D122BBAEFB9
:1012F00070077F64122E4C80ECD2957F64122E4CC6
:101300000210B31200068F33E533700A122417EF70
:10131000700302146A22E53364426003AF33229003
:101320000216E024E0FF900215E034FFFEC3E53E24
:101330009FE53D9E500302146AE53B700FE538704F
:101340000BE5397007E53A7003021400900214E0CF
:10135000FFC3E5489FFFE52214FE5FF533E53E60DD
:1013600008EE6533600302146A7F38E4FD120DF65F
:10137000EF60012220090302146A122E67EF600158
:10138000227F387D02120DF6EF60012212284CEF09
:10139000600122122F60E4FFFE900215E06EFCA3B4
:1013A000E06F4C6013E54A2FF582E5493EF583E492
:1013B000F00FBF00010E80E1E4F533122A61E53E33
:1013C0007010F53DF53E85264885254785244685E0
:1013D0002345852234E5346020122093EF600122FA
:1013E000E5262401F526E43525F525E43524F52404
:1013F000E43523F523153480DC12265BEF606B2285
:10140000E53E7066E54824FFF548E54734FFF547BB
:10141000E54634FFF546E54534FFF545F523122151
:101420008DEF600122E4F53DF53ED3900216E09584
:101430003E900215E0953D402EE54A253EFFE549E8
:10144000353D8F82F583E0B4E510E582240BF5820B
:10145000E43583F583E0540E60107420253EF53E9C
:10146000E4353DF53D80C37FB222122E67EF600167
:101470002212284CEF60012285323B85313A8530BB
:1014800039852F3812265BEF60012212218AEF6026
:101490000122E54A253EFFE549353DFEE4FDEDC369
:1014A000940B50047C2080027C00EF2DF582E43EFA
:1014B000F583ECF00DBD20E6EF2418F582E43EF54F
:1014C000837421F0A37430F0EF241CF582E43EF520
:1014D000837401F0E4FDEDC3940B5021A82BE6FCCE
:1014E000601BECB42E047D08052BA82BE6FCEF2D29
:1014F000F582E43EF583ECF00D052B80D9853B3475
:10150000853A35853936853837EF241AF582E43E39
:10151000F583E534F0A3E535F0EF2414F582E43EDD
:1015200012208AEF600122853B32853A31853930BD
:1015300085382FE4F543F542F541F540F54FF54E7A
:10154000F54DF54CF5337D147F10122DBA22300C79
:1015500003022A12753F01122BBAEF60037F822229
:101560007D157F07122EFE7F19122E9790BCF0E09A
:101570007D157F06122EFE7F19122E9790BCF0E08B
:101580007D8F7F25122EEA7536647F02122E971208
:101590002BBAEF6006D536F27F82227F19122E9782
:1015A0007D467F01122CE4E54B6003AF4B227F02A6
:1015B000122E977D457F05122CE4E54B6003AF4B5F
:1015C000227D137F85122EFE7F0A122E977D467F85
:1015D00002122CE4E54B6003AF4B22122F79E54A4F
:1015E000240EF582E43549F583E0640860037F1F2B
:1015F00022E54A240BF582E43549F583E0FD7F308E
:10160000122EEAE4F536AF36EF75F007A4254AFF4F
:10161000E5F03549CF2414CF34008F82F583E0F50F
:1016200037A3A3E064407020E53730E70CE537C40A
:1016300054F04409FD7F32800AE537C454F0440178
:10164000FD7F33122EEA80037F1F220536E536B474
:1016500002B47F02122E97E54A2405F582E435494B
:10166000F583E0FF7D49122CE4E54B6003AF4B228C
:10167000E4FD7F31122EEA7F02122E977D2B7F0828
:10168000122EFE90BCF074A1F0000074FEF0000079
:10169000E4F00000F00000E54A240BF582E435494F
:1016A000F583E090BCF0F00000E4F0000004F000EE
:1016B00000E4F07D807F1E122EEA7D4F7F0D122CFC
:1016C000E4E54B70247F01122E977D4F7F09122C89
:1016D000E4E54B70147D2BFF122EFE7DC07F1E12A1
:1016E0002EEA7D4F7F01122CE4E54B600C7F011246
:1016F0002E977D41E4FF122CE47F05122E977D2466
:101700007F12121E6CE54B70077D037F02022DBA1B
:1017100012291422E53F64156007122C4BEF60017B
:10172000227870E6F52B7006300B030218CBE478B4
:1017300070F6E52B70030218C3E533F47077E53BD0
:10174000700CE5387008E5397004E53A602585329B
:101750004F85314E85304D852F4C122E73EF600131
:10176000227F4C7D02120DF6EF60012212284CEF11
:1017700060082212275CEF60012285324F85314ECE
:1017800085304D852F4C74FFF532F531F530F52F4E
:10179000122665CBEFCB854F32854E31854D308596
:1017A0004C2FEB60012285434F85424E85414D858C
:1017B000404CE4F533122A61122196EF6001229029
:1017C0000215E0FCA3E0FD24FFFBEC34FF554EFEC8
:1017D000EB554FFFC3ED9FFFEC9EFEC3EF952BEE45
:1017E00094004005852B348006E54FF404F53490D1
:1017F0000216E024FFFD900215E034FF554EFEED89
:10180000554F254AF52DEE3549F52CAF34E4FCFD56
:10181000FEE54F2FF54FEE354EF54EED354DF54DBE
:10182000EC354CF54CC3E52B9534F52B7870E6245C
:1018300071FFE53426F6C8EFC8E6852D82852C8336
:10184000F0052DE52D7002052C0FD534E9122093FB
:10185000EF600122AF4FAE4EAD4DAC4CAB43AA4250
:10186000A941A840C3121FA6500E854F43854E4282
:10187000854D41854C40D20B900216E024FFFD902F
:101880000215E034FF554EFEED554F4E6003021732
:10189000320533E533C3952250030217327F2FE41C
:1018A000FD120DF6EF6001223009067533FF0217B5
:1018B0003285342F853530853631853732E4F5333E
:1018C000021732E53C30E406300B03022AAC7F00FD
:1018D00022E4F532F531F530F52F90020DE0FCA34E
:1018E000E0FDA3E0FEA3E0FFAB32AA31A930A82FB0
:1018F000D3121FA640037FB122E5322401F532E462
:101900003531F531E43530F530E4352FF52F7F2FC3
:10191000E4FD120DF6EF600122E537700FE534703B
:101920000BE5357007E5367003021A5DE544640186
:1019300060A885492C854A2DE544640270519002C7
:1019400015E0C313FEA3E01324FFFFEE34FFF534CC
:101950008F35F5368F377402252DF52DF582E43558
:101960002CF52CF583E07011A3E0700D852D828598
:101970002C8374FFF0A30219E5E5356009D535D64F
:10198000E534600880D01534153580CA021A4490B9
:101990000215E0FEA3E07802CEC313CE13D8F924DB
:1019A000FFFFEE34FFF5348F35F5368F377404259D
:1019B0002DF52DE4352CF52C852D82F583E0600383
:1019C000021A29A3E06003021A29A3E0705BA3E0D6
:1019D000540F7055852D82852C8374FFF0A3F0A3DE
:1019E000F0A3E0440FF0AE36AF37EF4532FFEE45DF
:1019F00031FEE530FDE52FFCEEC0E0EFC0E0E5355F
:101A000024FFFFE53434FFCBEFCBFAD0E0FFD0E08A
:101A1000FEC3EF9BF532EE9AF531ED9400F530EC14
:101A20009400F52FD20A7F0022E53560101535E5C8
:101A30003560030219ADE534600A0219AD1534159D
:101A4000350219ADAE36AF37E5324FF532E5314EDE
:101A5000F531E530F530E52FF52F0218DA7F2F7DCF
:101A6000FF120DF622300C0A7F34122E80EF423521
:101A700080077D037F34122EEA90BDF1742BF000B5
:101A80000000E4F54B90BCF0741FF000007455F0BA
:101A900000007453F000007442F0000004F00000F5
:101AA0007403F000007407F000007405F000007487
:101AB0000AF00000E4F0E52E24F8F8E537C333D847
:101AC000FC90BCF0F00000E4F00000F000E53554BC
:101AD00080F000E535540FF00000740AF0E5353071
:101AE000E7047F2880027F2A90BCF0EFF00000E43A
:101AF000F0E53530E6117874E6F00008E6F000080D
:101B0000E6F00008E6801490BCF0E523F00000E564
:101B100024F00000E525F00000E526F00000E49048
:101B2000BCF0F00000F00000E537F00000E4F00049
:101B300000F00000F00000F00000F00000F00000F5
:101B4000F000007F31122E80EFF535CD7F1E122E72
:101B5000EA7F33122E807D4F122C9AE54B7007E5F9
:101B6000356440FD80027D007F31122EEAE54B6036
:101B70003B854B35E54B641660057F52122E30E5F0
:101B80004BB416037F82227F32122E80EFC4540F93
:101B90004480FF7D41122C9A7F33122E80EFC45473
:101BA0000FFF7D41122C9AAF358F4B22300C047FF2
:101BB0003680027F35E52E24F7F8E537088002C32A
:101BC00033D8FCFD122EEA300C047F3780027F36BA
:101BD0007D08122EEA7F20122E80EF4408FD7F2020
:101BE000122EEA7F00224572726F723A202530323F
:101BF000580A00496E736572742055534220646917
:101C0000736B0A00457869742055534220686F73DE
:101C100074206D6F64650A005265616479203F0A23
:101C200000546F6F206C6172676520736563746F19
:101C3000722073697A650A004F70656E0A002F433F
:101C400035312F43483337354846542E43002F2A29
:101C5000002F4335312F43483337352A004C697301
:101C6000742066696C652025730A0020206D6174FC
:101C700063682066696C652025303464233A20252A
:101C8000730A00B4D3CEC4BCFED6D0B6C1B3F6B589
:101C9000C4C7B02564B8F6D7D6B7FBCAC73A0A009E
:101CA0002543000A00CEC4BCFED2D1BEADBDE1CA00
:101CB000F80A00436C6F73650A00437265617465CE
:101CC0000A002F4E455746494C452E54585400574C
:101CD000726974650A004E6F74653A200D0AD5E288
:101CE000B8F6B3CCD0F2CAC7D2D4D7D6BDDACEAA12
:101CF000B5A5CEBBBDF8D0D055C5CCCEC4BCFEB6C4
:101D0000C1D0B42CB5A5C6ACBBFAD6BBD0E8D2AA1C
:101D1000D3D0363030D7D6BDDAB5C452414D0D0AD6
:101D20000054616B65206F757420555342206469BF
:101D3000736B0A00E53F64156007122C4BEF6001DE
:101D4000227870E6F52BE4F6E52B7003021E69900D
:101D50000215E0FCA3E0FD24FFFBEC34FF554EFE32
:101D6000EB554FFFC3ED9FFFEC9EFEC3EF952BEEAF
:101D700094004005852B348006E54FF404F534AF1C
:101D800034EF254FFFE4354EFEE4354DFDE4354C90
:101D9000FCAB43AA42A941A840D3121FA6500CC3D2
:101DA000E543954FF5347003021E69122A61122132
:101DB00096EF600122900216E024FFFD900215E0EC
:101DC00034FF554EFEED554F254AF52DEE3549F5BC
:101DD0002CAF34E4FCFDFEE54F2FF54FEE354EF50C
:101DE0004EED354DF54DEC354CF54CC3E52B9534AA
:101DF000F52B7870E62471FFE53426F6852D828573
:101E00002C83E0C8EFC8F60F052DE52D7002052CD8
:101E1000D534E9900216E024FFFD900215E034FF6E
:101E2000554EFEED554F4E6003021D480533E53318
:101E3000C395225003021D487F2FE4FD120DF6EFDB
:101E40006001223009117533FF854F43854E42856D
:101E50004D41854C40801285342F85353085363193
:101E6000853732E4F533021D487F0022122CBF78FB
:101E70007012200E55534243E47879F608F608F6BE
:101E8000787DF6F5367D2B7F1F122EFE7F707870E1
:101E900075371FE690BCF0F008D537F77F31122E6A
:101EA00080CDEFCD8D377F1E122EEA7F33122E802C
:101EB0007D4F122CE4E54BB416037F8222E54B6084
:101EC0000FE5366003021F6812296C75360180B574
:101ED0007F01122E977F32122E808F366337407823
:101EE00078E66037AD377F1E122EEA7D4FAF36128F
:101EF0002CE4E54B6012E54B642E706C53377F7D0C
:101F000041AF36122CE48013633780787FE6B40348
:101F1000077883E664126003122F79AD377F1E12B3
:101F20002EEA7D4FAF36122CE4E54B703BE537646B
:101F300080FD7F31122EEA90BDF17428F000000080
:101F4000007F70787090BCF0E0F537F536E53760CB
:101F50000A90BCF0E0F608153780F2E536B40D08BB
:101F6000787CE6C394024006754B1F02296C787C8E
:101F7000E67002FF22754B1F7F1F22BB010689827C
:101F80008A83E0225002E722BBFE02E32289828A92
:101F900083E49322BB010689828A83F0225002F7F0
:101FA00022BBFE01F322EB9FF5F0EA9E42F0E99D91
:101FB00042F0E89C45F022E8600FECC313FCED13FF
:101FC000FDEE13FEEF13FFD8F122E8600FEFC333ED
:101FD000FFEE33FEED33FDEC33FCD8F122E6FC08D6
:101FE000E6FD08E6FE08E6FF22E6FB08E6F908E65D
:101FF000FA08E6CBF822ECF608EDF608EEF608EF64
:10200000F622ECF0A3EDF0A3EEF0A3EFF022D083E4
:10201000D082E493F608740193F608740293F608EC
:10202000740393F6740473D083D082F8E49370122F
:10203000740193700DA3A393F8740193F5828883C0
:10204000E4737402936860EFA3A3A380DFBB010C69
:10205000E58229F582E5833AF583E0225006E925F9
:1020600082F8E622BBFE06E92582F8E222E5822913
:10207000F582E5833AF583E49322FAE6FB0808E665
:10208000F925F0F618E6CA3AF622F583E536F0A30C
:10209000E537F0E4F536E53C20E63CE52E640960E2
:1020A00036E4F535753701121A65EF6003022164D5
:1020B000854927854A28E52EB409047F088014E560
:1020C0002EB40A047F10800BE52EB40B047F208011
:1020D000027F408F35805990BDF17456F0000000AA
:1020E00000E4F54B90BCF0E526F00000E525F0009B
:1020F00000E524F00000E523F000007401F08549BC
:1021000027854A28E52EB409047F088014E52EB4FB
:102110000A047F10800BE52EB40B047F2080027F21
:10212000408F35E535601E122C20E54B641E70345F
:10213000AF28AE2712254B8E278F2890BDF17457FC
:10214000F0153580DE8523278524288525298526D9
:102150002A122C20E54BB4140BE53C20E503122F8A
:10216000987F0022E536C394055015E54B64166050
:102170000FE536C394014003122914053602209658
:10218000122F60122ED6122914228545238546244B
:10219000854725854826E526652A7015E5256529A4
:1021A000700FE52465287009E52365277003022276
:1021B00080E4F536E53C20E61DE52E6409601775E0
:1021C0003580753701121A65EF600302225B90BDFE
:1021D000F17455F0802790BDF17454F000000000B8
:1021E000E4F54B90BCF0E526F00000E525F000009A
:1021F000E524F00000E523F000007401F085492794
:10220000854A28E52EB409047F088014E52EB40A17
:10221000047F10800BE52EB40B047F2080027F40EA
:102220008F35E535601E122C20E54B641D702CAFF8
:1022300028AE271225D48E278F2890BDF17455F033
:10224000153580DE85232785242885252985262A9E
:10225000122C20E54BB414037F0022E536C394050D
:102260005015E54B6416600FE536C3940140031228
:10227000291405360221B4122F60122ED602291419
:102280007F0022E53FC3941350037FB42212218ABA
:10229000EF600122C20AE54A253EFFE549353DCB04
:1022A000EFCBFA7878E6FFEB240BF582E43AF5837E
:1022B000E0F6EFF460138B828A83E582240BF582CB
:1022C000E43583F583EFF0D20A7876E6F53708E651
:1022D000F536EB2416FFE43AFE122F4818EEF60806
:1022E000EFF6E536F4FEE537F44E6012EB2416F512
:1022F00082E43AF583E536F0A3E537F0D20A787444
:10230000E6F53708E6F536EB2418FFE43AFE122F1F
:102310004818EEF608EFF6E536F4FEE537F44E60C1
:1023200012EB2418F582E43AF583E536F0A3E5379D
:10233000F0D20A7870121FDD787C121FF6EB241C95
:10234000FFE43AFE122EB27870121FF6787CE6F4A3
:10235000601E121FDD8F438E428D418C40122F8CE8
:10236000EB241CF582E43AF583122002D20AC20B58
:10237000300A05C20A0220937F00227535327F534E
:10238000122E30E54B7060122F79E54A2406F58253
:10239000E43549F583E0FFB40405752E0A8015EF96
:1023A000B40805752E0B800CEFB41005752E0C804B
:1023B00003752E0974017E00A82E088005C333CE54
:1023C00033CED8F9900216F0EE900215F0E52E24E7
:1023D000F7FF7408C8EFC8088002C333D8FCFD7F3C
:1023E00039122EEA7F0022E54B64166027E54B6424
:1023F0001560217F32122E97300C0B854B367F5A99
:10240000122E3085364B7F0A122E971535E5356032
:102410000302237EAF4B22E53FC394135007120003
:1024200006EF600122122DB6EF60012212218AEF21
:10243000600122E54A253EFFE549353D8F82F5835F
:1024400074E5F0122093EF600122AF3BAE3AAD3954
:10245000AC388F378E368D358C34EC4D4E4F604E08
:10246000E53B24FFF53BE53A34FFF53AE53934FF27
:10247000F539E53834FFF538E4F532F531F530F566
:102480002F7F347D01120DF6EF600122E532240129
:10249000F532E43531F531E43530F530E4352FF5FA
:1024A0002F3009DD12284CEF6001220226657F00E3
:1024B00022E53B700CE5387008E5397004E53A60B8
:1024C0007B853B32853A3185393085382FAF22E420
:1024D000FCFDFE7870121FE9C3121FA640417F2F3A
:1024E000E4FD120DF6EF60012220095085342F859E
:1024F00035308536318537327870121FDDEFC0E018
:10250000AF22CBEFCBD0E0FFC3EF9BFFEE9400FEFA
:10251000ED9400FDEC9400FC7870121FF680AE780C
:1025200073E6FFE522145FF533122A61AF26AE256C
:10253000AD24AC237870121FF67F00227533FF782C
:102540007012200EFFFFFFFF7F002290BDF1742B61
:10255000F0E4F54BE53C54036403FD744090BCF09B
:10256000F0CD60411460118F828E83E090BCF0F05A
:102570000FBF00010EDDF02205A28F828E837D1039
:10258000E0A305A2F005A2E0A305A2F005A2E0A346
:1025900005A2F005A2E0A305A2F005A2DDE2AF824C
:1025A000AE8305A222EFC582F9EEC583C5A0F5F082
:1025B0007D08E0A3F3E0A3F3E0A3F3E0A3F3E0A33B
:1025C000F3E0A3F3E0A3F3E0A3F3DDE685F0A0AF2F
:1025D00082AE832290BDF17428F0E4F54BE53C54C3
:1025E000036403FD90BCF0E0CD604114601190BC29
:1025F000F0E08F828E83F00FBF00010EDDF0220528
:10260000A28F828E837D1005A2E005A2F0A305A211
:10261000E005A2F0A305A2E005A2F0A305A2E00553
:10262000A2F0A3DDE2AF82AE8305A222EFC582F95C
:10263000EEC583C5A0F5F07D08E3F0A3E3F0A3E3C6
:10264000F0A3E3F0A3E3F0A3E3F0A3E3F0A3E3F04C
:10265000A3DDE685F0A0AF82AE832274FFF532F5EC
:1026600031F530F52F900204E0FCA3E0FD4C700240
:10267000FF22CFEDCFCEECCEE4FCFD900200E0F8DF
:10268000A3E0F9A3E0FAA3E02FF526EA3EF525ED55
:1026900039F524EC38F523122196EF600122E54A42
:1026A00024E8FFE5493401FE122EB2E5322FF5325F
:1026B000E5313EF531E5303DF530E52F3CF52FAF06
:1026C00032AE31AD30FC122F8CE54A24E8F582E5BC
:1026D000493401F58312200212209322E53FC3946E
:1026E0001250037FB422E53F6412704FE544640347
:1026F000604990021AE0F522AE42E543A82E088018
:1027000005CEC313CE13D8F9FFE4FCFD90021712D7
:102710002002900211E0F8A3E0F9A3E0FAA3E0FBA5
:1027200090021AE0FFE4FCFDFEEB2FFFEE3AFEED17
:1027300039FDEC38FC900211122002E53FD39413CE
:10274000400AE53FB414077870E67002C20B300B04
:1027500007122AACEF600122122DB6221218DAEF0E
:10276000600564B1600122EF60071218D1EF6001CB
:102770002212284CEF60012285323B85313A8530A8
:1027800039852F3812218AEF600122E54A253EFF64
:10279000E549353DFEF583EF241CF582E43583F5EC
:1027A000837401F0853B34853A3585393685383771
:1027B0008F828E83E582241AF582E43583F583E5E2
:1027C00034F0A3E535F08F828E83E5822414F58200
:1027D000E4358312208A227533057D067F65122E2B
:1027E000FEE4F53F90BCF0E0B49A0F7D067F9A12AC
:1027F0002EFE90BCF0E064656009122D09D533DA35
:102800007F81229002157402F0A3E4F090BDF104E0
:10281000F000000000C20C533CBF90BCF0E0F53368
:10282000C394A2400BE53394B64003433C40D20C22
:10283000753F017D157F06122EFE7F01122E9790A7
:10284000BCF0E0B45F037F81227F002285272385CF
:102850002824852925852A26122093EF60012290BD
:102860000206E0FEA3E0FF4E604BE4FCFDE5262FF0
:10287000F526E5253EF525ED3524F524EC3523F543
:1028800023122093EF600122900206E0FEA3E0FBFA
:10289000CAEECAC3E5269BF526E5259AF525E5246B
:1028A0009400F524E5239400F523F5278524288555
:1028B000252985262AC20A7F0022122BBAEF60033F
:1028C0007F8222E53FC39403502812154EEF600C1F
:1028D0007F32122E9712154EEF60012212237BEFEA
:1028E0006010200C06122DD812237BE54B600302EA
:1028F0002914300C077F59122E308009E4FDFF1295
:102900002CBF121E6FAF4B8F34EF7002FF22122DBF
:10291000D8AF3422753532122F93D535FA90BDF1E8
:102920007422F00000000090BCF0E0E54B641660FB
:102930000FE53F640160097F20122E80EF20E5063D
:10294000753F017F8222300C19E53FC3940340128A
:10295000854B35E4F54B90BDF1745AF0122C20856F
:10296000354BE54B70037F1022AF4B22854B377FF1
:1029700003122E97122BBAEF6006754B827F8222CC
:102980007F52122E30E54BB416037F8222E54B7046
:1029900026FD7F31122EEA7F32122E80EFC4540FB3
:1029A0004480FF7D41122CE47F33122E80EFC4540B
:1029B0000FFF7D41122CE47F02122E97AF378F4B11
:1029C00022122BBAEF60037F8222E53FC3940350AB
:1029D0001B122A12EF600C7F32122E97122A12EF6E
:1029E00060012212237BEF6003022914300C207F48
:1029F00059122E30AF4B8F35EF7002FF227F0A1233
:102A00002E977F5A122E307F02122E97AF35227FDB
:102A10000022122BBAEF60037F82227F51122E30E8
:102A2000E54B70327D037F02122DBA300C257F38C2
:102A3000122E80EF601D122F79854A82854983E02E
:102A4000B405107D017F34122EEA7F58122E30E536
:102A50004B70037F00227D027F02122DBA122914CF
:102A600022E53224FEFFE53134FFFEE53034FFFD80
:102A7000E52F34FFFC900208E0F9F8121FCA90021B
:102A800011E0F8A3E0F9A3E0FAA3E02FFBEA3EFA95
:102A9000E93DF9E83CF8E4FCFDFEEB2533F526EED4
:102AA0003AF525ED39F524EC38F52322C20BE53F44
:102AB000C39414403E12218AEF600122E54A253E6C
:102AC000FFE549353DCBEFCBFAF583EB240BF582DF
:102AD000E43583F583E020E41AAF43AE42AD41AC68
:102AE00040122F8CEB241CF582E43AF5831220026D
:102AF0000220937F0022E53F64156007122C4BEF04
:102B00006001227870121FDD8F4F8E4E8D4D8C4CE0
:102B1000AB43AA42A941A840C3121FA6500C85434B
:102B20004F85424E85414D85404CAF4FAE4EAD4D29
:102B3000AC4C122E137870121FF61224B122D294CC
:102B4000C2947F64122E4CD2947F64122E4C122FAA
:102B5000127BFF7A2B797C1204E5D2AFC294D29714
:102B60007BFF7A2B79921204E51210ABC2977BFFA0
:102B70007A2B79A51204E5122BF180E2537461726D
:102B8000742043483337352064656D6F202E2E2E18
:102B90000A005365742055534220686F7374206D8A
:102BA0006F64650A0053657420555342206465764E
:102BB000696365206D6F64650A0090BDF17422F051
:102BC0000000000090BCF0E0E4F54B7F20122E8066
:102BD000EF30E517E53FC39402400A7F1B122E80B9
:102BE000EF547F7003753F027F0022753F017F82A3
:102BF00022122DF6E4F53F122D50EF6013E53FC38E
:102C000094FA400C7BFF7A2D79A01204E5022F2361
:102C1000E53FC394FA5002053F7F01122E4C80D746
:102C200020B2FD90BDF17422F0534B80E54B600360
:102C3000E4F54B90BCF0E0F54BE54BB41604753F62
:102C40000122E54BB41503753F0222E53F64146091
:102C5000037FB422853B32853A3185393085382F60
:102C6000E4F54FF54EF54DF54CF5337D157F141217
:102C70002DBA22EFB40A07740D122C7E740A309814
:102C800011A899B8130CC2983098FDA899C298B8A9
:102C900011F63099FDC299F5992290BDF1EDF00041
:102CA000000000E4F54B90BCF0EFF0122C20E54B57
:102CB0007004754B1022E54BB41403E4F54B2278F5
:102CC00078EDF660047E8080027E00787CEEF678F7
:102CD0007E760608EFF6E408F608F608F608EDF644
:102CE000E408F62290BDF1EDF000000000E4F54BA1
:102CF00090BCF0EFF0122C20E54B7004754B1022C5
:102D0000E54BB41403E4F54B2275368090BDF174A5
:102D100001F00000000090BCF0E0FFD536EE90BD61
:102D2000F17405F0000000007F32022E97E581D398
:102D300094F040037FFC22753C05122FA7EFC3944B
:102D40003550037FFF22754900754A001227D722AC
:102D500020B31CD2947F32122E4C20B31030B3FD1E
:102D60007F32122E4C30B3FDC2947F0122C2947F79
:102D70000022EF601E7BFF7A1B79E6755F008F6093
:102D80001204E5C2957F64122E4CD2957F64122EF8
:102D90004C80F02243483337352B4D4353353100B7
:102DA00045786974205553422064657669636520CF
:102DB0006D6F64650A007D107F10E53FC39F400280
:102DC0008D3FE53F6D7002FF22753F01122BBAEF78
:102DD00060037F82227F83227F0A122E97300C07A6
:102DE0007F5A122E3080077D127F03121E6C7F02E5
:102DF000122E97AF4B227F15122F527F02122F3BBC
:102E00007E64122F83EF64516002DEF6C288C289AD
:102E1000D2A822C3E4CC13CD13CE13FFE52E24F7A2
:102E2000600DF8C3ED13FDEE13FEEF13FFD8F4228F
:102E3000E4F54B90BDF1EFF0122C20E54B700475DA
:102E40004B1022E54BB41403E4F54B22EF60177EE0
:102E5000C87403255CF55CDEF87EC87403255CF558
:102E60005CDEF81F80E622853B32853A31853930B9
:102E700085382F1218DAEF64B16001221218D122BE
:102E800090BDF1740AF00000000090BCF0EFF0007B
:102E9000006003E0FF2222EF75F005A4F536E53669
:102EA000600A122F93122F93153680F222FFE43519
:102EB00049FE8F828E83E0FFA3E0FEA3E0FDA3E046
:102EC000FC228D828C83C8EFC8E4FFE493F6600592
:102ED00008A30F80F622E53FB41204753F0322E5F4
:102EE0003FD394104003753F102290BDF1740BF056
:102EF0000000000090BCF0EFF00000EDF02290BD6B
:102F0000F1EDF000000000E4F54B90BCF0EFF000B4
:102F10000022759850758780758921758DF3D28E42
:102F2000D29922C2A87F15122F52E4FF122F3B7FA5
:102F30000A022E4C7F1D122F527F0E90BCF0EFF034
:102F4000022F9DFFE43549FE8F828E83E0FFA3E0D0
:102F5000FE22CEEFCE122FA290BDF1EEF0022FA2F4
:102F600074FFF52AF529F528F527C20A22787FE4AF
:102F7000F6D8FD75818D022B3E122F60AF4AAE4907
:102F80000225D4122F9D90BCF0E0FF22EFCCFFEE83
:102F9000CDFE227F96DFFE227FFADFFE227F01DF59
:0B2FA000FE227F03DFFE227F3522228D
:00000001FF
