:1000000002370D90BDF17422F00000000090BCF0AA
:10001000E0FF907831E0C394105007120D5FEF605D
:100020000122123537EF600122C20B907846E0645E
:100030005C6004E0B42F08750878750947801D904E
:100040007847E0643A6003020135907846E0C39453
:10005000435003020135750878750949907837E0F7
:10006000FBB4031090783CE0FCA3E0FDA3E0FEA30A
:10007000E0FF8005E4FFFEFDFC907824121B4A851A
:100080000982850883E0600302013B907832121BED
:1000900056FFFFFFFFEB6403606F9078277402F058
:1000A00090782BE0FCA3E0FDA3E0FEA3E0FFEFC00F
:1000B000E090783FE0FBD0E0FFC3EF9BFFEE9400C1
:1000C000FEED9400FDEC9400FC90782B121B4A90FE
:1000D000783EE0FEA3E0FF907812E0FDEFC8EDC8A7
:1000E000088005C333CE33CED8F9FFE4FCFD907809
:1000F00032121B4A907800E0FFE4FCFDFE90783C51
:10010000121B4A9078007480F0907824E0FCA3E001
:10011000FDA3E0FEA3E0FF907813121B4A90784203
:10012000121B5600000000E490781BF090783174A8
:1001300012F07F4122750878750946850982850885
:1001400083E0B4E5037405F0907827E0700E9078B2
:1001500024E07008A3E07004A3E06046907800E01B
:1001600090781BF0907824E0FCA3E0FDA3E0FEA3D0
:10017000E024FEFFEE34FFFEED34FFFDEC34FFFC27
:10018000907811E0F9F8121B3790782BE0F8A3E093
:10019000F9A3E0FAA3E02FFFEA3EFEE93DFDE83CCB
:1001A000802490783FE090781BF0FB90782BE0FC67
:1001B000A3E0FDA3E0FEA3E0C39BFFEE9400FEEDF1
:1001C0009400FDEC9400FC907838121B4A90781B48
:1001D000E0700302056812256FEF600122E4907859
:1001E00029F0A3F090782FE0FEA3E0FF907829E0BB
:1001F000FCA3E0FDC39FEC9E4003020540907841C4
:10020000E02DF50B907840E03CF50A850B82F583F4
:10021000E0FF70030205AFEF64E5700302052FEF06
:10022000B405027FE5850982850883E0FE6F6008DA
:10023000EE642A600302052FE4907823F0FFEFC3F9
:10024000940B40030202EB907823E02509F582E449
:100250003508F583E0FEE50B2FF582E4350AF583DA
:10026000E0FD6E607C907823E02509F582E4350896
:10027000F583E06023907823E02509F582E43508D2
:10028000F583E0645C6011907823E02509F582E451
:100290003508F583E0B42F1FED6420704EEFC39452
:1002A000085010E50B2408F582E4350AF583E06474
:1002B0002070387F0B8034907823E02509F582E4A4
:1002C0003508F583E0642E7022907823E06408609E
:1002D0000EE50B2FF582E4350AF583E0B4200C7FA0
:1002E000070F907823E004F002023EEFC3940B5016
:1002F00003020401E50B240BF582E4350AF583E0E3
:1003000030E303020401C209E50B241AFFE4350AB5
:10031000FE12369AE4FCFD907824121B4A9078373E
:10032000E0B40314E50B2414FFE4350AFE12369AF8
:10033000907824EEF0A3EFF0907823E02509F58281
:10034000E43508F583E060062009030203EA9078AB
:1003500024E0FCA3E0FDA3E0FEA3E0FF90781312ED
:100360001B4A907842121B5600000000E490781B54
:10037000F0E50B240BF582E4350AF583E030E41F49
:10038000907832121B56FFFFFFFF7D137F1012354E
:100390003BEF6001223009047F4380027F4122E568
:1003A0000B241CFFE4350AFE12362B907832121B08
:1003B0004A907827E0701E907824E07018A3E070CF
:1003C00014A3E0701090781B74FFF0907832121B29
:1003D00056000000007D147F1012353BEF600122B3
:1003E0003009047F4380027F0022907823E02401BB
:1003F000FFE433FEEF2509F509EE3508F5080201A3
:100400003B907823E02509F582E43508F583E06424
:100410002A600302052FE50B240BF582E4350AF56B
:1004200083E030E30302052F907823E02401FFE40A
:1004300033FEE5092FF582E5083EF583E0707CE4A4
:10044000FF907821F0E50B2FF582E4350AF583E083
:100450006420604EEFB40816907821E02509F582FB
:10046000E43508F583742EF0907821E004F0E50B74
:100470002FF582E4350AF583E0FE907821E0250926
:10048000F582E43508F583EEF0907821E0700D8573
:100490000982850883E0B4050374E5F0907821E0D3
:1004A00004F00FEFB40B9E907821E02509F582E46B
:1004B0003508F583E4F0D209020308907823E0249C
:1004C00001FFE433FEE5092FF582E5083EF583E000
:1004D000F47045907835E07011907832E0700BA39D
:1004E000E07007A3E0700302043F907832E030E749
:1004F00003123726907832E0FCA3E0FDA3E0FEA3D0
:10050000E024FFFFEE34FFFEED34FFFDEC34FFFC92
:10051000907832121B4A8017907823E02401FFE480
:1005200033FEE5092FF582E5083EF583E014F090EF
:10053000782AE02420F0907829E03400F00201E4E9
:10054000907838E0FCA3E0FDA3E0FEA3E02401FFE7
:10055000E43EFEE43DFDE43CFC907838121B4A90FA
:10056000781BE014F00201CD907827E0700E9078AF
:1005700024E07008A3E07004A3E060337E787F2459
:10058000E4FD1205DBEF600122200923907820E0D2
:10059000907824F0907821E0907825F0907822E00F
:1005A000907826F0907823E0907827F002013BE4E1
:1005B000FFE5092FF582E43508F583E0FE6013645A
:1005C0002A600FEE645C6004EEB42F037FB3220F49
:1005D00080DF7F42227E787F13E4FD907864EDF027
:1005E000907837E0F9B402138F828E83E0FCA3E0A9
:1005F000FDA3E0FEA3E0FF78018015E9B403198FA5
:10060000828E83E0FCA3E0FDA3E0FEA3E0FF78027E
:10061000121B3790786580308F828E83A3A3E0FF12
:10062000A3E0907865CFF0A3EFF0907866E01392A6
:1006300009907865E0C313FEA3E013FFE02FFF905D
:100640007865E03EFEE4FCFD121B4A907867E0FE10
:10065000A3E0FF907830E024FFFD90782FE034FF96
:100660005EFEED5FFF907841E02FF50B907840E063
:100670003EF50A907865E0FCA3E0FDA3E0FEA3E070
:10068000FF1235AC907817E0F8A3E0F9A3E0FAA3E5
:10069000E02FFFEA3EFEE93DFDE83CFC9078651264
:1006A0001B4A907808E0FF907868E06F702490789B
:1006B00007E0FF907867E06F7018907806E0FF9091
:1006C0007866E06F700C907805E0FF907865E06FD9
:1006D0006031300A07122B70EF600122907865E0DC
:1006E000907801F0907866E0907802F0907867E07A
:1006F000907803F0907868E0907804F012258FEFFE
:10070000600122907864E0FF6040B4FF0AA3121BEE
:1007100056FFFFFFFF8031907864E0B4010AA31216
:100720001B56000000008020907813E0907868F05D
:10073000907814E0907867F0907815E0907866F003
:10074000907816E0907865F0D20A907837E0FE64F1
:10075000027055850B82850A83E0FDA3E090782026
:10076000CDF0A3EDF0907820E0907823F090782100
:10077000E0A3F0E4907820F0A3F0907822E0FCA3CE
:10078000E0C394F7EC94FF4003D38001C392099037
:100790007864E06010A3E0FDA3E0850B82850A8306
:1007A000CDF0A3EDF07F0022EE64037077850B821D
:1007B000850A83E0FCA3E0FDA3E0FEA3E0FF9078C0
:1007C00020121B4A907823E054F0FF907868E054A0
:1007D0000F4FF0907823E0540FFF907820E090784E
:1007E00023F0907820EFF0907822E0FF907821E0DD
:1007F000A3F0907821EFF0907820E0C3940F4003AD
:10080000D38001C39209907864E06015A3E0FCA353
:10081000E0FDA3E0FEA3E0FF850B82850A83121BA7
:100820004A7F0022907866E0540FF090782FE0FE27
:10083000A3E0FF907841E02FFF907840E03ECF2486
:10084000FFCF34FFFEEF650B7003EE650A606A852B
:100850000B82850A83E0907820F0850B82850A83DD
:10086000A3E0907821F0907864E070030209593099
:100870000925A3E0C454F0FF907820E0540F4F8581
:100880000B82850A83F0907866E0C454F0FF90787C
:1008900065E0C4540F8016907865E0850B82850A68
:1008A00083F0907821E054F0FF907866E04F850B5C
:1008B00082850A83A3F0020959850B82850A83E0A9
:1008C000907820F0907864E06027300910A3E0C4AD
:1008D00054F0FF907820E0540F4FFF80059078652A
:1008E000E0FF850B82850A83EFF0122B70EF600129
:1008F00022907805E0FCA3E0FDA3E0FEA3E0240144
:10090000FFE43EFEE43DFDE43CFC907801121B4A0E
:1009100012258FEF600122907840E0FEA3E0FFF502
:10092000828E83E0907821F0907864E0602B30092B
:1009300013907866E0C454F0FD907865E0C4540FDD
:100940004DFD800D907821E054F0FD907866E04DEB
:10095000FD8F828E83EDF0D20A30091B907821E062
:10096000C454F0FF907820E0C4540F4F907823F0E7
:10097000907821E0C4800C907820E0907823F0906B
:100980007821E0540FA3F0E4907820F0A3F0907861
:1009900022E0FEA3E0C394F7EE940F4003D380015E
:1009A000C392097F0022D294C2941236C7D2941205
:1009B00036B67BFF7A29799712116B12350D8F228B
:1009C0001235CB7BFF7A29799E12116B907831E03A
:1009D000C39402500B123417EF60051236C780EC37
:1009E000C2941236C71236C7E4F5221236C77BFF0F
:1009F0007A2979AA12116B1232BCEF60090522E53F
:100A000022C3940540E5D3907830E0940090782F8D
:100A1000E0941040147BFF7A2979B312116B1234E1
:100A200017EF709F1236C780F5C2957BFF7A297940
:100A3000CA12116B7E787F467C297DD012348712D2
:100A400000038F22E52264B36009E522644260035B
:100A5000020B0BE522B4B3087527297528E0800640
:100A60007527297528E3752CFF85272D85282E7B72
:100A7000FF7A2979EF12116BE4F5237E787F46AD7A
:100A800028AC271234878F2274462FF582E43478FD
:100A9000F583E523F01200038F22E5226442602FE4
:100AA000E522B4431A752C0085232D752E01752F70
:100AB000787530467BFF7A2979FD12116B8007AF7C
:100AC000221235CB80090523E523C394FF40AC7582
:100AD000272A752815E4F522852882852783E49343
:100AE000FF74002522F582E43410F583EFF0600FE7
:100AF0000528E528700205270522E522B4FFD975EF
:100B00002500852226752401020CB4AF221235CBB4
:100B10007BFF7A2A793112116BE4FF7E68FDFC902D
:100B20007832E0F8A3E0F9A3E0FAA3E0FBD3121BCC
:100B30001390782FE04015FCA3E0FD7E687F001243
:100B400019F08F247525687526008054FEA3E0FFF8
:100B5000E4FCFD907832E0F8A3E0F9A3E0FAA3E02A
:100B60002FFFEA3EFEED39FDEC38FCEF24FFFFEEEF
:100B700034FFFEED34FFFDEC34FFFCC006C00790EF
:100B8000782FE0FEA3E0FBAA06E4F9F8D007D00630
:100B9000121A818F24907834E0FEA3E08E25F5268A
:100BA0007BFF7A2A7937907832E0FCA3E0FDA3E05E
:100BB000FEA3E0F52F8E2E8D2D8C2C8525308526DD
:100BC0003175320085243312116B907846E524F09C
:100BD000907832E0F8A3E0F9A3E0FAA3E0FB907884
:100BE00030E024FFFF90782FE034FFFEE4FCFDEBC3
:100BF0002FFFEA3EFEED39FDEC38FC907832121BF7
:100C00004A1236D68F22907832E0FCA3E0FDA3E0B2
:100C1000FEA3E0FFC006C007907830E024FFFF90FD
:100C2000782FE034FFAB07FAD007D006C3EF9BFF65
:100C3000EE9AFEED9400FDEC9400FC907832121BCD
:100C40004AAF221235CB7BFF7A2A795112116B12EF
:100C50002EFE8F221235CB901064E0F522E4F07561
:100C60002C01752D10752E007BFF7A2A79581211F0
:100C70006B901064E522F0E4FFFEC3EF9526EE953D
:100C800025503174002FF58274103EF583E0F52372
:100C9000C394614018E523D3947A5011E52324E0EE
:100CA000FD74002FF58274103EF583EDF00FBF0048
:100CB000010E80C6C2967BFF7A2A796412116B7E80
:100CC000787F467C2A7D6C1234871214658F22123D
:100CD00035CB7BFF7A2A797912116B907846E5241F
:100CE000F01236E48F221235CB7BFF7A2A798012FC
:100CF000116B90784E74FFF090784CF0A3F09078E0
:100D00004A7430F0A374B2F0AE25AF26E4FCFD9037
:100D10007846121B4A12284E8F221235CB7BFF7A5F
:100D20002A795112116BE4907846F0122EFE8F2230
:100D30001235CBD296D2957BFF7A2A798812116B25
:100D4000907831E0C39402400B123417EF70051213
:100D500036C780ECD2941236C71236C70209C39048
:100D60007831E0C39403500A12336FEF600122120E
:100D70002CF6123700E4F50A907801121B56000099
:100D8000000012258FEF600A122CF612258FEF60FB
:100D90000122E50A7012907840E0FEA3E0F5828E11
:100DA00083E054FD64E96059E4FDED6440604F90D8
:100DB0007841E024BEFF907840E03401FEED7A00F7
:100DC0002FFFEA3EF583EF2404F582E43583F583B3
:100DD000E06025907841E024BEFF907840E0340147
:100DE000FEED2FFFEA3ECF2408CF3400FE12362B53
:100DF000907801121B4A800974102DFD80AC7F92FF
:100E000022907801E0FCA3E0FDA3E0FEA3E0FF90C8
:100E10007809121B4A12258FEF600122907840E07A
:100E2000FCA3E0FDF5828C83E054FD64E960037F60
:100E3000A122ED240DF582E43CF583E0907800F0EA
:100E4000907837F09078117406F0907837E0FF20B2
:100E5000E616EF25E0907837F0907811E014F0E096
:100E600070E89078007401F0907841E02416123612
:100E70009290780FEEF0A3EFF04E703F907841E043
:100E80002424123623907813121B4A907813E0FC26
:100E9000A3E0FDA3E0FEA3E0FFE4FBFA7901F8D3B1
:100EA000121B135007E50A60037FA222907815E019
:100EB000FFA3E090780FCFF0A3EFF0907840E0FE32
:100EC000A3E0FF2414F582E43EF583E0FDEF241354
:100ED000F582E43EF583E04D907841600BE0241309
:100EE000123692E4FCFD8006E0242012362390782E
:100EF00024121B4A907841E02411123692CCEECC99
:100F0000CDEFCD90782FE0FEA3E07805CEC313CED1
:100F100013D8F9147E002DFFEE3CFE907812E024E9
:100F2000FBFDEFC8EDC8088005CEC313CE13D8F97A
:100F3000FFE4FCFD90783C121B4A907841E0240EBF
:100F4000123692907829EEF0A3EFF0907810E02F0F
:100F5000FF90780FE03EFEE4FCFD90783CE0F8A3C3
:100F6000E0F9A3E0FAA3E02FFFEA3EFEED39FDEC45
:100F700038FC907813121B4A907840E0FEA3E024DE
:100F800010F582E43EF583E0D39401402D90781370
:100F9000E0F8A3E0F9A3E0FAA3E0FB90780FE0FE0D
:100FA000A3E0FFE4FCFDEB2FFFEA3EFEED39FDEC94
:100FB00038FC907813121B4A8007E490780FF0A356
:100FC000F0907813E0F8A3E0F9A3E0FAA3E0FB9037
:100FD0007824E0FCA3E0FDA3E0FEA3E0C39BFFEECA
:100FE0009AFEED99FDEC98FC907811E0F9F8121B4F
:100FF0002490781C121B4AE47BF57AFFF9F8D3128F
:101000001B134022E490780DF0A3F090781EE0FED0
:10101000A3E094F5EE940F90783750057401F080BA
:101020002B7402F08026907841E0243012369290A2
:10103000780DEEF0A3EFF0907841E0242C123623E7
:1010400090783C121B4A9078377403F0907829E02E
:10105000FEA3E0FF4E605390783CE0F8A3E0F9A3D4
:10106000E0FAA3E0FBE8494A4B603FA3E0FCA3E0C1
:10107000FD2410F582E43CF583E0D39401400A900E
:10108000780FE07002A3E06021ED240BF582E43CD0
:10109000F583E07015907840E0FCA3E0240CF58225
:1010A000E43CF583E0C39402500AE50A7006750A31
:1010B00001020D78E4FCFD907801E0F8A3E0F9A3CB
:1010C000E0FAA3E02FFFEA3EFEED39FDEC38FC909C
:1010D0007817121B4A907801E0FCA3E0FDA3E0FE24
:1010E000A3E0FF907813E0F8A3E0F9A3E0FAA3E00F
:1010F0002FFFEA3EFEE93DFDE83CFC90782B121BF9
:101100004A7D107F0312353B22E538242CF8E60592
:1011100038227829300702782CE475F001121BDFA1
:10112000021B872000EB7F2ED2008018EF540F2483
:1011300090D43440D4FF30040BEF24BFB41A0050D5
:10114000032461FFE53960021539053CE53C700276
:10115000053B30070D7829E475F001121BDFEF0223
:101160001BCD0235607403D2078003E4C207F53853
:101170008B298A2A892BE4F539F53BF53CE5396062
:10118000077F2012114480F5753AFFC201C200C2E8
:1011900002C203C205C206C208121112FF700D304E
:1011A00007057F00121155AF3CAE3B22B4255FC24C
:1011B000D5C204121112FF24D0B40A00501A75F0DF
:1011C0000A783930D50508B6FF0106C6A426F620F0
:1011D000D5047002D20380D924CFB41A00EF500492
:1011E000C2E5D204021355D20180C6D20080C0D21B
:1011F0000280BCD2D580BAD20580B47F20121144BF
:101200002002077401B5390040F1121109FF1211D3
:101210004402117DD208D2068095121109FB1211E9
:1012200009FA121109F94A4B700679267A147BFFE4
:1012300020022EE539602A7E008E82758300121B03
:10124000A060060EEE653A70F0C2D5EBC0E0EAC0D1
:10125000E0E9C0E0EE12139CD0E0F9D0E0FAD0E073
:10126000FB121B87FF60AAEBC0E0EAC0E0E9C0E028
:10127000121144D0E02401F9D0E03400FAD0E0FBB0
:10128000E53A0460DCD53AD980877BFF7A137998F8
:10129000D202809C791080027908C206C2088008B8
:1012A000D2D5790A8004790AC2D5E53A047002F5EC
:1012B0003AE4FAFDFEFF121109FC7B08200113122B
:1012C0001109FD7B1030000A121109FE121109FFED
:1012D0007B20EC3382D592D55013C3E43000069FB7
:1012E000FFE49EFEE42001039DFDE49CFCE4CBF8BA
:1012F000C201EC700CCFCECDCCE824F8F870F380AE
:1013000017C3EF33FFEE33FEED33FDEC33FCEB336D
:10131000FB994002FB0FD8E9EB300105F8D0E0C49F
:1013200048B201C0E00AEC4D4E4F78207B0070C2FD
:10133000EAB53A0040BCC0E012139ED0F0D0E020E5
:101340000104C4C0E0C4B201C0F012112DD0F0D528
:10135000F0EB02117D121BEF121A5312945811EB8D
:101360004C11E74212984F12A04412A049120043B8
:1013700012A655128A46128A45128A4714465011FF
:10138000EF2D11F32E12162B11F723121420142F08
:101390002A11AF480000120E3F3F3F00790AA2D544
:1013A000200314300509B910020404B9080104A28D
:1013B000D52006025001042002689202B53900507F
:1013C00034C0E07F203003197F30A202720672051C
:1013D000500F1213F5C202C206C205C2087F308048
:1013E0000F300503E9C0E0121144300503D0E0F9E5
:1013F000D0E0B539CC3005177F30B9100C1211444C
:101400007F583004077F788003B9080312114430F5
:1014100002057F2D0211447F202008F87F2B200633
:10142000F322920280CF286E756C6C2900D20112D3
:1014300011093001F8C201783930D50108F60211DE
:10144000AF2D504349581211092403B4050040013F
:10145000E490144193121135743A121135D2037588
:10146000390402129412000390781BEFF0700A12F4
:101470002C35EF700302162D2290781BE0FF64429A
:10148000600122907830E024E0FF90782FE034FF74
:10149000FEC390782AE09F907829E09E50030216C0
:1014A0002D907827E07011907824E0700BA3E07005
:1014B00007A3E070030215AE90782EE0FF90783B12
:1014C000E0C39FFF907800E014FE5F90781BF090DF
:1014D000782AE0600A90781BE06E600302162D7E89
:1014E000787F24E4FD1205DBEF600122200903026E
:1014F000162D1234E2EF6001227E787F247D0212E5
:1015000005DBEF600122122B70EF60012212370021
:10151000E4FFFE90782FE06EFCA3E06F4C60179024
:101520007840E0FCA3E02FF582EC3EF583E4F00F79
:10153000BF00010E80DDE490781BF0123317907825
:101540002AE0701A907829F0A3F0907801E0FCA3CB
:10155000E0FDA3E0FEA3E0FF907838121B4A9078EC
:1015600000E0907820F0907820E0602E1226F1EFD5
:10157000600122907801E0FCA3E0FDA3E0FEA3E07F
:101580002401FFE43EFEE43DFDE43CFC90780112C2
:101590001B4A907820E014F080CC907813121B56F0
:1015A000FFFFFFFF123139EF700302162D229078F2
:1015B0002AE07079907838E0FCA3E0FDA3E0FEA378
:1015C000E024FFFFEE34FFFEED34FFFDEC34FFFCC2
:1015D00090783812256CEF600122E4907829F0A30E
:1015E000F090782FE0FEA3E0FF907829E0FCA3E0E4
:1015F000FDC39FEC9E5033907841E02DFF907840E2
:10160000E03C8F82F583E0B4E510E582240BF5829F
:10161000E43583F583E0540E601390782AE02420AB
:10162000F0907829E03400F080B77FB2221234E2E3
:10163000EF600122122B70EF600122907813E0FC22
:10164000A3E0FDA3E0FEA3E0FF907824121B4A90E4
:101650007813121B56FFFFFFFF123139EF60012292
:1016600012256FEF600122907829E0FEA3E0FF9041
:101670007841E02FFF907840E03EFEE4FDEDC3941A
:101680000B50047C2080027C00EF2DF582E43EF5B7
:1016900083ECF00DEDB420E5EF2418F582E43EF57F
:1016A000837421F0A37430F0EF241CF582E43EF53E
:1016B000837401F0E4FDEDC3940B503585098285F8
:1016C0000883E0FC602BECB42E0A7D080509E509CF
:1016D00070020508850982850883E0FCEF2DF582FC
:1016E000E43EF583ECF00D0509E50970C9050880B5
:1016F000C5907827E0907820F0907826E0907821C7
:10170000F0907825E0907822F0907824E09078238B
:10171000F0907820E0FCA3E0FDEF241AF582E43E8F
:10172000F583ECF0A3EDF0907822E0FCA3E0FDEF70
:101730002414F582E43E1226EAEF60012290782418
:10174000E0FCA3E0FDA3E0FEA3E0FF907813121BF2
:101750004A907832121B5600000000907842121B0B
:101760005600000000E490781BF07D147F101235C5
:101770003B22907831E0D394145006E0C394125089
:10178000037FB422907846E0FFA3F07006300B038D
:101790000219EAE4907846F0907848F0A3F0907847
:1017A00047E0700302194790781BE0F4706090786E
:1017B00027E0700E907824E07008A3E07004A3E0A6
:1017C000603A907831E0B4120B907837E0640360AF
:1017D000037FB122907813E0FCA3E0FDA3E0FEA319
:1017E000E0FF907850121B4A1234F6EF6001227E1F
:1017F000787F507D021205DBEF600822122DB3EFD7
:10180000600122907849E014F0E490781BF01233E4
:1018100017907848E0607C907812E0FFB409047F6C
:10182000408015EFB40A047F20800D907812E0B458
:101830000B047F1080027F08EF3395E0FE9078481C
:10184000E0C39FEE6480F8748098503BE0FFE4FCB6
:10185000FDFE90784AE0F8A3E0F9A3E0FAA3E02FB8
:10186000FFEE3AFEED39FDEC38FC907801E0F8A38C
:10187000E0F9A3E0FAA3E06FFFEA6EFEE96DFDE890
:101880006CFC4D4E4F600C121E08EF600122E4907C
:101890007848F0907848E07014907801E0FCA3E07C
:1018A000FDA3E0FEA3E0FF90784A121B4A90781B4C
:1018B000E0FF907800E0C39FFF907847E0FEEFD311
:1018C0009E4013E0FFA3E02FF0907847E0FF907870
:1018D0001BE02FF08071907848E02FF0907847E07F
:1018E000C39FF0E07020907840E0FEA3E0FF907886
:1018F0004EE06E7003A3E06F700C121E08EF6001E3
:1019000022E4907848F07E787F13E4FD1205DBEF47
:1019100060012230090990781B74FFF002179E9035
:101920007820E0907813F0907821E0907814F0908F
:101930007822E0907815F0907823E0907816F0E423
:1019400090781BF002179E300A07122B70EF60018F
:1019500022907848E06007121E08EF60012290781C
:1019600049E06044907813E0FCA3E0FDA3E0FEA30F
:10197000E0FF907850121B4A907849E0FFE474FF32
:10198000FEFDFC907813121B4A123139CBEFCB903D
:101990007850E0FCA3E0FDA3E0FEA3E0FF90781305
:1019A000121B4AEB6002FF22907842E0FCA3E0FDAC
:1019B000A3E0FEA3E0FF907832E0F8A3E0F9A3E013
:1019C000FAA3E0FBC3121B135016907842E0FCA36D
:1019D000E0FDA3E0FEA3E0FF907832121B4AD20B99
:1019E000907828E030E406300B030233C67F0022F3
:1019F000BC000BBE0029EF8DF084FFADF022E4CCDB
:101A0000F875F008EF2FFFEE33FEEC33FCEE9DECA3
:101A1000984005FCEE9DFE0FD5F0E9E4CEFD22EDE9
:101A2000F8F5F0EE8420D21CFEADF075F008EF2F33
:101A3000FFED33FD4007985006D5F0F222C398FD24
:101A40000FD5F0EA2275F008758200EF2FFFEE3314
:101A5000FECD33CDCC33CCC58233C5829BED9AEC21
:101A600099E58298400CF582EE9BFEED9AFDEC998B
:101A7000FC0FD5F0D6E4CEFBE4CDFAE4CCF9A88295
:101A800022B800C1B90059BA002DEC8BF084CFCE3A
:101A9000CDFCE5F0CBF97818EF2FFFEE33FEED33F8
:101AA000FDEC33FCEB33FB10D703994004EB99FBBF
:101AB0000FD8E5E4F9FA227818EF2FFFEE33FEEDA8
:101AC00033FDEC33FCC933C910D7059BE99A4007B5
:101AD000EC9BFCE99AF90FD8E0E4C9FAE4CCFB22CC
:101AE00075F010EF2FFFEE33FEED33FDCC33CCC895
:101AF00033C810D7079BEC9AE899400AED9BFDECA0
:101B00009AFCE899F80FD5F0DAE4CDFBE4CCFAE4DE
:101B1000C8F922EB9FF5F0EA9E42F0E99D42F0E819
:101B20009C45F022E8600FECC313FCED13FDEE13AF
:101B3000FEEF13FFD8F122E8600FEFC333FFEE335F
:101B4000FEED33FDEC33FCD8F122ECF0A3EDF0A375
:101B5000EEF0A3EFF022A8828583F0D083D082122A
:101B60001B6D121B6D121B6D121B6DE473E493A3AE
:101B7000C583C5F0C583C8C582C8F0A3C583C5F0B9
:101B8000C583C8C582C822BB010689828A83E02238
:101B90005002E722BBFE02E32289828A83E4932279
:101BA000BB010CE58229F582E5833AF583E02250FA
:101BB00006E92582F8E622BBFE06E92582F8E22244
:101BC000E58229F582E5833AF583E49322BB010699
:101BD00089828A83F0225002F722BBFE01F322FAA7
:101BE000E6FB0808E6F925F0F618E6CA3AF622D030
:101BF00083D082F8E4937012740193700DA3A393C1
:101C0000F8740193F5828883E4737402936860EF3B
:101C1000A3A3A380DF907831E0D394145006E0C3EF
:101C2000941250037FB422907846E0A3F0E49078B9
:101C300046F0907848F0907842E0F8A3E0F9A3E00D
:101C4000FAA3E0FB907832E0FCA3E0FDA3E0FEA362
:101C5000E0C39BFFEE9AFEED99FDEC98FC1235ACCB
:101C6000907820121B4A907821E07004A3E060086D
:101C700090784974FFF08008907823E0907849F0DC
:101C8000907847E07003021DFC907849E0700302F1
:101C90001DFC90781BE0F47003021DFC12331790BA
:101CA0007848E0607C907812E0FFB409047F4080BF
:101CB00015EFB40A047F20800D907812E0B40B0475
:101CC0007F1080027F08EF3395E0FE907848E0C3F4
:101CD0009FEE6480F8748098503BE0FFE4FCFDFECA
:101CE00090784AE0F8A3E0F9A3E0FAA3E02FFFEE32
:101CF0003AFEED39FDEC38FC907801E0F8A3E0F90C
:101D0000A3E0FAA3E06FFFEA6EFEE96DFDE86CFC6C
:101D10004D4E4F600C1223CEEF600122E4907848C4
:101D2000F0907848E07014907801E0FCA3E0FDA307
:101D3000E0FEA3E0FF90784A121B4A90781BE0FF78
:101D4000907800E0FEC39FFF907820F0907849E003
:101D5000FDEFD39D4005E0907820F0907847E0FFBC
:101D6000907820E0D39F4017907847E0FFA3E02FC2
:101D7000F0907847E0FF90781BE02FF0021E029071
:101D80007847E0FF907820E0FDC3EF9D907847F022
:101D9000907820E0FF907848E02FF0A3E0FF907863
:101DA00020E0FDC3EF9D907849F0907820E0FF900F
:101DB000781BE02FF0E06E6003021C807E787F13BA
:101DC000FD1205DBEF60012230090990781B74FFDA
:101DD000F0021C80907820E0907813F0907821E059
:101DE000907814F0907822E0907815F0907823E0C5
:101DF000907816F0E490781BF0021C80907848E010
:101E000060030223CE7F0022E4907822F0907828AD
:101E1000E020E66D907812E06409606590782174A6
:101E200040F0907848E0907823F01221E5EF6003CD
:101E3000021FB6907828E0FF907823F0EF13135438
:101E400003FF907828E054FC4FF0907812E0FFB444
:101E500009047F088015EFB40A047F10800D907884
:101E600012E0B40B047F2080027F40907848E0FEAF
:101E7000EF8EF0A4FF907820E5F0F0A3EFF0021FC2
:101E80001590BDF17456F000000000E4F50C907858
:101E90004DE090BCF0F0000090784CE090BCF0F089
:101EA000000090784BE090BCF0F0000090784AE0A1
:101EB00090BCF0F00000907848E090BCF0F0907892
:101EC00028E0FF907823F0EF13135403FF90782855
:101ED000E054FC4FF0907812E0FFB409047F0880D2
:101EE00015EFB40A047F10800D907812E0B40B0453
:101EF0007F2080027F40907848E0FEEF8EF0A4FFC4
:101F0000907820E5F0F0A3EFF0123456E50C641E53
:101F10006003021FB6907823E0540C601590784E51
:101F2000E0FEA3E0FF12302590784EEEF0A3EFF034
:101F3000801790BDF1742BF000000000E4F50C90C8
:101F4000BCF07440F0FF12372890BDF17457F09048
:101F50007842E0FCA3E0FDA3E0FEA3E02440FFE420
:101F60003EFEE43DFDE43CFC907842121B4A907832
:101F700021E0600DE014F07090907820E0600F8018
:101F800088907820E014F0A3E014F0021F09907804
:101F900023E0907828F0123456E50CB414189078A9
:101FA00028E020E50312371E907848E0FF9078463D
:101FB000E02FF07F0022907823E0907828F090784E
:101FC00022E0C39405502AE50C64166024122F9376
:101FD000907828E0540C7004FF123728907822E0A3
:101FE000C39401400312324B907822E004F0021EA9
:101FF0000D12363B12324B2290781CE0FCA3E0FD20
:10200000A3E0FEA3E0FF907813E0F8A3E0F9A3E0DB
:10201000FAA3E0FBD3121B1340037FB12290781385
:10202000E0FCA3E0FDA3E0FEA3E02401FFE43EFE0C
:10203000E43DFDE43CFC907813121B4A1205D5EFF9
:10204000600122907823E07011907820E0700BA35B
:10205000E07007A3E070030221DB907837E0FF64B3
:10206000016095907840E0FCA3E08C0AF50BEF64EA
:1020700002706590782FE0C313FEA3E01324FFFFE6
:10208000EE34FFFE907820F0A3EFF0907822EEF08F
:10209000A3EFF07402250BF50BE4350AF50A850B66
:1020A00082F583E07011A3E0700D850B82850A83B1
:1020B00074FFF0A3022139907821E0600C14F070D5
:1020C000D2907820E0600E80CA907820E014F0A3CF
:1020D000E014F080BE0221B290782FE0FEA3E078F9
:1020E00002CEC313CE13D8F924FFFFEE34FFFE90C7
:1020F0007820F0A3EFF0907822EEF0A3EFF07404D4
:10210000250BF50BE4350AF50A850B82F583E060B3
:102110000302218FA3E0600302218FA3E06003028A
:10212000218FA3E0540F7067850B82850A8374FFAB
:10213000F0A3F0A3F0A3E0440FF0907822E0FEA318
:10214000E0FF907813E0F8A3E0F9A3E0FAA3E04FF2
:10215000FFEA4EFEE9FDE8FCEEC0E0EFC0E090785B
:1021600021E024FFFF907820E034FFCBEFCBFAD0C2
:10217000E0FFD0E0FEC3EF9BFFEE9AFEED9400FD82
:10218000EC9400FC907813121B4AD20A7F00229034
:102190007821E0601014F060030220FE907820E0C7
:1021A00060100220FE907820E014F0A3E014F0020A
:1021B00020FE907813E0F8A3E0F9A3E0FAA3E0FB97
:1021C000907822E0FEA3E0FFEB4FFFEA4EFEE9FD30
:1021D000E8FC907813121B4A021FF87E787F137D6B
:1021E000FF1205DB22907836E06012907821E0FE45
:1021F0007F34123653EE4F907821F080077D037FB5
:102200003412366A90BDF1742BF000000000E4F542
:102210000C90BCF0741FF000007455F00000745373
:10222000F000007442F0000004F000007403F000BD
:10223000007407F000007405F00000740AF000005C
:10224000E4F0907812E024F8FF907823E0FEC8EFE5
:10225000C8088002C333D8FC90BCF0F00000E4F062
:102260000000F00000907821E0548090BCF0F00075
:1022700000907821E0540F90BCF0F00000740AF058
:10228000907821E030E7047F2880027F2A90BCF01C
:10229000EFF00000E4F0907821E030E62490784AF6
:1022A000E090BCF0F0000090784BE090BCF0F000C3
:1022B0000090784CE090BCF0F0000090784DE08009
:1022C00022907801E090BCF0F00000907802E0905D
:1022D000BCF0F00000907803E090BCF0F0000090BB
:1022E0007804E090BCF0F00000E490BCF0F0000056
:1022F000F00000907823E090BCF0F00000E4F000E3
:1023000000F00000F00000F00000F00000F000001D
:10231000F000007F31123653907821EFF0FD7F1EE0
:1023200012366A7F331236537D4F123587E50C70B3
:1023300009907821E06440FD80027D007F311236F3
:102340006AE50C6041907821E50CF0E50C641660BC
:10235000057F52123607E50CB416037F82227F32C6
:10236000123653EFC4540F4480FF7D411235877FEE
:1023700033123653EFC4540FFF7D411235879078E6
:1023800021E0FFF50C22907836E060047F36800271
:102390007F35907812E024F7FE907823E0FDC8EEB8
:1023A000C8088002C333D8FCFD12366A907836E044
:1023B00060047F3780027F367D0812366A7F2012E4
:1023C0003653EF4408FD7F2012366A7F0022E490E6
:1023D0007822F0907828E020E627907812E06409CF
:1023E000601F90782174C0F0907848E0907823F0D6
:1023F0001221E5EF600302252A90BDF17455F080AB
:102400003D90BDF17454F000000000E4F50C9078AC
:102410004DE090BCF0F0000090784CE090BCF0F003
:10242000000090784BE090BCF0F0000090784AE01B
:1024300090BCF0F00000907848E090BCF0F090780C
:1024400028E0FF907823F0EF13135403FF907828CF
:10245000E054FC4FF0907812E0FFB409047F08804C
:1024600015EFB40A047F10800D907812E0B40B04CD
:102470007F2080027F40907848E0FEEF8EF0A4FF3E
:10248000907820E5F0F0A3EFF0123456E50C641DCF
:10249000600302252A907823E0540C601590784E52
:1024A000E0FEA3E0FF1230B090784EEEF0A3EFF024
:1024B000801590BDF17428F000000000E4F50C9048
:1024C000BCF0E0FF12372790BDF17455F0907842D0
:1024D000E0FCA3E0FDA3E0FEA3E02440FFE43EFE19
:1024E000E43DFDE43CFC907842121B4A907821E0E8
:1024F000600DE014F07092907820E0600F808A9078
:102500007820E014F0A3E014F0022489907823E00E
:10251000907828F0123456E50CB4140E907848E008
:10252000FF907846E02FF07F0022907823E09078AB
:1025300028F0907822E0C39405502AE50C641660D8
:1025400024122F93907828E0540C7004FF12372740
:10255000907822E0C39401400312324B907822E03D
:1025600004F00223D312363B12324B22121B4A9044
:102570007838E0907801F0907839E0907802F09027
:10258000783AE0907803F090783BE0907804F0900F
:102590007808E0FF907804E06F7027907807E0FFFC
:1025A000907803E06F701B907806E0FF907802E06F
:1025B0006F700F907805E0FF907801E06F70030274
:1025C00026E7E4907822F0907828E020E6259078BD
:1025D00012E06409601D9078217480F09078237473
:1025E00001F01221E5EF60030226BD90BDF17455A4
:1025F000F0803890BDF17454F000000000E4F50C58
:10260000907804E090BCF0F00000907803E090BC7B
:10261000F0F00000907802E090BCF0F000009078BC
:1026200001E090BCF0F000007401F0907840E0FF11
:10263000A3E0907805CFF0A3EFF0907812E0FFB41C
:1026400009067E087F088015EFB40A047F10800D0C
:10265000907812E0B40B047F2080027F40907821B4
:10266000EFF0907821E0602A123456E50C641D707A
:102670004C907805E0FEA3E0FF1230B0907805EEB4
:10268000F0A3EFF090BDF17455F0907821E014F0D4
:1026900080D0907801E0907805F0907802E0907812
:1026A00006F0907803E0907807F0907804E0907856
:1026B00008F0123456E50CB414037F0022907822FF
:1026C000E0C394055018E50C64166012E0C3940151
:1026D000400312324B907822E004F00225C71237F3
:1026E0000012363B02324B7F0022F583ECF0A3ED63
:1026F000F0E4907822F0907828E020E6529078126A
:10270000E06409604AE4907821F090782304F012A4
:1027100021E5EF6003022823907840E0FFA3E090DA
:102720007805CFF0A3EFF0907812E0FFB409047FB2
:10273000088015EFB40A047F10800D907812E0B481
:102740000B047F2080027F40907821EFF0807E9004
:10275000BDF17456F000000000E4F50C907804E040
:1027600090BCF0F00000907803E090BCF0F0000026
:10277000907802E090BCF0F00000907801E090BC0E
:10278000F0F000007401F0907840E0FFA3E0907852
:1027900005CFF0A3EFF0907812E0FFB409067E08B1
:1027A0007F088015EFB40A047F10800D907812E046
:1027B000B40B047F2080027F40907821EFF0907866
:1027C00021E0602A123456E50C641E70569078059C
:1027D000E0FEA3E0FF123025907805EEF0A3EFF0C5
:1027E00090BDF17457F0907821E014F080D090788B
:1027F00001E0907805F0907802E0907806F090780B
:1028000003E0907807F0907804E0907808F01234B4
:1028100056E50CB4140D907828E020E50312371E1D
:102820007F0022907822E0C394055018E50C6416CE
:102830006012E0C39401400312324B907822E0040E
:10284000F00226F612370012363B12324B229078F5
:1028500031E0C3941350037FB42212256FEF60015F
:1028600022C20A907829E0FEA3E0FF907841E02F91
:10287000FF907840E03ECBEFCBFA90784EE0FFEB54
:10288000240BF582E43AF583E090784EF0EFF460A3
:10289000138B828A83E582240BF582E43583F583EA
:1028A000EFF0D20A90784CE0907823F090784DE0E9
:1028B000907822F0EB2416FFE43AFE12369A9078D4
:1028C0004CEEF0A3EFF0907822E0F4FEA3E0F44E9B
:1028D0006018907822E0FEA3E0FFEB2416F582E476
:1028E0003AF583EEF0A3EFF0D20A90784AE09078C0
:1028F00023F090784BE0907822F0EB2418FFE43A34
:10290000FE12369A90784AEEF0A3EFF0907822E02B
:10291000F4FEA3E0F44E6018907822E0FEA3E0FFFE
:10292000EB2418F582E43AF583EEF0A3EFF0D20A37
:10293000907846E0FCA3E0FDA3E0FEA3E0FF9078E2
:1029400052121B4AEB241CFFE43AFE12362B9078FD
:1029500046121B4A907852E0F46024E0FCA3E0FDAC
:10296000A3E0FEA3E0FF907832121B4A1236AFEBD1
:10297000241CF582E43AF583121B4AD20AC20B30BA
:102980000A05C20A0226F17F00224572726F723A6E
:1029900020253032580A0053746172740A0057615E
:1029A000697420556469736B0A005265616479200B
:1029B0003F0A00546F6F206C617267652073656316
:1029C000746F722073697A650A004F70656E0A0031
:1029D0005C4335315C43483337354846542E430019
:1029E0005C2A005C4335315C43483337352A004C60
:1029F0006973742066696C652025730A0020206D58
:102A0000617463682066696C652025303364233AFD
:102A10002025730A00D5D2B2BBB5BD2F4335312F67
:102A200043483337354846542E43CEC4BCFE0D0AC6
:102A300000526561640A0053697A653D256C642C17
:102A4000204C656E3D25642C205365633D25640A4A
:102A500000436C6F73650A004C696E6520313A2043
:102A600025730A004372656174650A005C4E455720
:102A700046494C452E5458540057726974650A00F3
:102A80004D6F646966790A0054616B65206F7574D7
:102A90000A00907827E07011907824E0700BA3E092
:102AA0007007A3E07003022B5D907824E0FCA3E0A4
:102AB000FDA3E0FEA3E0FF9078138073907800E020
:102AC000FFE4FCFDFE907846E0F8A3E0F9A3E0FA0D
:102AD000A3E0FBC3121B13405B1205D5EF6001227C
:102AE00020097A907820E0907813F0907821E09097
:102AF0007814F0907822E0907815F0907823E090A8
:102B00007816F0907846E0FCA3E0FDA3E0FEA3E099
:102B1000FFEFC0E0907800E0FBD0E0FFC3EF9BFF49
:102B2000EE9400FEED9400FDEC9400FC90784612CB
:102B30001B4A8088907849E0FF907800E0145F900D
:102B4000781BF0123317907801E0FCA3E0FDA3E0BE
:102B5000FEA3E0FF907846121B4A7F002290781B6C
:102B600074FFF0907846121B56FFFFFFFF7F002294
:102B7000907805E0907801F0907806E0907802F087
:102B8000907807E0907803F0907808E0907804F06F
:102B90001226F1EF60012290780FE07002A3E0703E
:102BA00003022C30907801E0F8A3E0F9A3E0FAA347
:102BB000E0FB90780FE0FEA3E0FFE4FCFDEB2FFFCD
:102BC000EA3EFEED39FDEC38FC907801121B4A120A
:102BD00026F1EF600122907801E0FCA3E0FDA3E084
:102BE000FEA3E0FFEEC0E0EFC0E090780FE0FEA3B0
:102BF000E0FBCAEECAD0E0FFD0E0FEC3EF9BFFEEE1
:102C00009AFEED9400FDEC9400FC907801121B4AB2
:102C1000907801E0907805F0907802E0907806F0E6
:102C2000907803E0907807F0907804E0907808F0CE
:102C3000C20A7F0022907831E0C39413500712003B
:102C400003EF600122123537EF60012212256FEF8A
:102C5000600122907829E0FEA3E0FF907841E02F08
:102C6000FF907840E03E8F82F58374E5F01226F104
:102C7000EF600122907824E0FCA3E0FDA3E0FEA336
:102C8000E0FF907820121B4AEC4D4E4F6065907823
:102C900024E0FCA3E0FDA3E0FEA3E024FFFFEE346C
:102CA000FFFEED34FFFDEC34FFFC907824121B4A4C
:102CB000907813121B56000000007E787F207D0163
:102CC0001205DBEF600122907813E0FCA3E0FDA386
:102CD000E0FEA3E02401FFE43EFEE43DFDE43CFC15
:102CE000907813121B4A3009D1122B70EF60012229
:102CF0000231397F00229078217432F07F531236EE
:102D000007E50C70721236F2907840E0FEA3E024E2
:102D100006F582E43EF583E0FFB40408907812746F
:102D20000AF0801BEFB40808907812740BF0800F43
:102D3000EF907812B41005740CF080037409F090D1
:102D40007812E0FD74017E00C8EDC8088005C33329
:102D5000CE33CED8F9907830F0EE90782FF0ED2485
:102D6000F7FF7408C8EFC8088002C333D8FCFD7FA2
:102D70003912366A7F0022E50C64166033E50C6474
:102D800015602D7F321235E9907836E06011907829
:102D900022E50CF07F5A123607907822E0F50C7F7E
:102DA0000A1235E9907821E014F0E06003022CFC6F
:102DB000AF0C22121FF8EF600564B1600122EF60D2
:102DC00011907813121B5600000000121FF8EF60DC
:102DD0000122122B70EF600122907813E0FCA3E037
:102DE000FDA3E0FEA3E0FF90782412256CEF6001C4
:102DF00022907829E0FEA3E0FF907841E02FFF9039
:102E00007840E03EFEF583EF241CF582E43583F53F
:102E1000837401F0907827E0907820F0907826E095
:102E2000907821F0907825E0907822F0907824E056
:102E3000907823F0907820E0FCA3E0FD8F828E83D1
:102E4000E582241AF582E43583F583ECF0A3EDF0F6
:102E5000907822E0FCA3E0FD8F828E83E58224142B
:102E6000F582E435831226EA2290781B7405F07D02
:102E7000067F6512367EE4907831F090BCF0E0B4C5
:102E80009A0F7D067F9A12367E90BCF0E0646560F2
:102E90000F1234B690781BE014F0E070D27F8122DC
:102EA00090782F7402F0A3E4F090BDF104F00000DC
:102EB0000000E4907836F0907828E054BFF090BCA1
:102EC000F0E090781BF0E0FFC394A24012EF94B6BC
:102ED0004007907828E04440F09078367401F090F4
:102EE00078317401F07D157F0612367E7F01123530
:102EF000E990BCF0E0B45F037F81227F00229078EC
:102F000031E0C3941250037FB422907831E0641210
:102F1000705E907837E06403605690783FE0907878
:102F200000F0907834E0FEA3E0FF907812E0FDEF2F
:102F3000C8EDC8088005CEC313CE13D8F9FFE4FC52
:102F4000FD90783C121B4A90782BE0F8A3E0F9A39F
:102F5000E0FAA3E0FB90783FE0FFE4FCFDFEEB2FFE
:102F6000FFEE3AFEED39FDEC38FC90782B121B4A4F
:102F7000907831E0D39413400AE0B4140890784676
:102F8000E07002C20B300B071233C6EF6001221251
:102F9000353722907848E0FF7E00907812E0FDEF10
:102FA000C8EDC8088005C333CE33CED8F9FDCCEECA
:102FB000CC907820E0FEA3E07806C333CE33CED8A1
:102FC000F9FFC3ED9FFFEC9E907820F0A3EFF09007
:102FD0007842E0FCA3E0FDA3E0FEA3E0FFEEC0E04A
:102FE000EFC0E0907820E0FEA3E0FBCAEECAD0E09C
:102FF000FFD0E0FEC3EF9BFFEE9AFEED9400FDECE8
:103000009400FC907842121B4A907820E0FEA3E0E6
:10301000FFC3E49FFFE49EFE90784FE02FF090788E
:103020004EE03EF02290BDF1742BF0E4F50C907868
:1030300028E054036403FD744090BCF0F0CD60417F
:103040001460118F828E83E090BCF0F00FBF0001FE
:103050000EDDF02205A28F828E837D10E0A305A2F3
:10306000F005A2E0A305A2F005A2E0A305A2F005E9
:10307000A2E0A305A2F005A2DDE2AF82AE8305A225
:1030800022EFC582F9EEC583C5A0F5F07D08E0A367
:10309000F3E0A3F3E0A3F3E0A3F3E0A3F3E0A3F3EF
:1030A000E0A3F3E0A3F3DDE685F0A0AF82AE8322D8
:1030B00090BDF17428F0E4F50C907828E054036496
:1030C00003FD90BCF0E0CD604114601190BCF0E0D5
:1030D0008F828E83F00FBF00010EDDF02205A28FDC
:1030E000828E837D1005A2E005A2F0A305A2E00573
:1030F000A2F0A305A2E005A2F0A305A2E005A2F0BC
:10310000A3DDE2AF82AE8305A222EFC582F9EEC550
:1031100083C5A0F5F07D08E3F0A3E3F0A3E3F0A3FB
:10312000E3F0A3E3F0A3E3F0A3E3F0A3E3F0A3DD74
:10313000E685F0A0AF82AE832290780DE0FCA3E09C
:10314000FD4C7002FF22CFEDCFCEECCEE4FCFD9023
:103150007809E0F8A3E0F9A3E0FAA3E02FFFEA3E44
:10316000FEED39FDEC38FC907801121B4A12258FD8
:10317000EF600122907813E0F8A3E0F9A3E0FAA34E
:10318000E0FB907841E024E8FF907840E03401FED5
:1031900012362BEB2FFFEA3EFEE93DFDE83CFC90AA
:1031A0007813121B4A9078131236A4907840E0FAF4
:1031B000A3E024E8F582EA3401F583121B4A1226C3
:1031C000F122907831E0C3941250037FB4229078BA
:1031D00032E0FCA3E0FDA3E0FEA3E0FF1235AC90DB
:1031E0007820121B4A907846E0F8A3E0F9A3E0FAB1
:1031F000A3E0FBD3121B134014907820E0FCA3E063
:10320000FDA3E0FEA3E0FF907846121B4A907846AB
:10321000E0FCA3E0FDA3E0FEA3E0FF907812E02431
:10322000F8F9F8121B37907820121B4A907821E0A9
:10323000907842F0907822E0907843F0907823E004
:10324000907844F0E4A3F0122A922290782174320C
:10325000F0123719907821E014F0E070F490BDF18D
:103260007422F00000000090BCF0E0E50C641660F1
:1032700011907831E0640160097F20123653EF200D
:10328000E5099078317401F07F8222907836E06011
:1032900021907831E0C394034018907821E50CF038
:1032A000E4F50C90BDF1745AF0123456907821E098
:1032B000F50CE50C70037F1022AF0C22123417EFCF
:1032C00060037F8222907831E0C39403501B123355
:1032D0006FEF600C7F321235E912336FEF6001221D
:1032E000122CF6EF600302324B907836E060257FB7
:1032F00059123607AF0C907821EFF07002FF227F51
:103300000A1235E97F5A1236077F021235E99078A2
:1033100021E0FF227F0022907813E0FCA3E0FDA3D0
:10332000E0FEA3E024FEFFEE34FFFEED34FFFDECF3
:1033300034FFFC907811E0F9F8121B3790782BE0FD
:10334000F8A3E0F9A3E0FAA3E02FFBEA3EFAE93D97
:10335000F9E83CF890781BE0FFE4FCFDFEEB2FFF62
:10336000EE3AFEED39FDEC38FC907801021B4A1272
:103370003417EF60037F82227F51123607E50C700D
:103380003A7D037F0212353B907836E0602A7F3821
:10339000123653EF60221236F2907840E0FEA3E03E
:1033A000F5828E83E0B405107D017F3412366A7F8A
:1033B00058123607E50C70037F00227D027F02124F
:1033C000353B12324B22C20B907831E0C39414404B
:1033D0004312256FEF600122907829E0FEA3E0FF01
:1033E000907841E02FFF907840E03ECBEFCBFAF5AC
:1033F00083EB240BF582E43583F583E020E415901C
:1034000078321236A4EB241CF582E43AF583121BC1
:103410004A0226F17F002290BDF17422F0000000E4
:103420000090BCF0E0E4F50C7F20123653EF30E55D
:103430001C907831E0C39402400A7F1B123653EF90
:10344000547F70069078317402F07F0022907831BA
:103450007401F07F822220B2FD90BDF17422F053FE
:103460000C80E50C6003E4F50C90BCF0E0F50CE595
:103470000CB416079078317401F022E50CB41506EF
:103480009078317402F0228E298F2A8C2B8D2CE4B7
:10349000FF852C82852B83E493852A82852983F0FE
:1034A0006013052AE52A70020529052CE52C700217
:1034B000052B0F80DC229078227480F090BDF1748F
:1034C00001F00000000090BCF0E0907822E014F0E1
:1034D000E070E990BDF17405F0000000007F320259
:1034E00035E9907824E0FCA3E0FDA3E0FEA3E0FF33
:1034F000907813121B4A121FF8EF64B160012290FA
:103500007813121B5600000000121FF822E581D329
:1035100094F040037FFC229078287405F012372342
:10352000EFC3943550037FFF229078407400F0A3DE
:103530007400F0122E69227D107F10907831E0C364
:103540009F4002EDF0907831E06D7002FF2290789C
:10355000317401F0123417EF60037F82227F8322DF
:10356000EFB40A07740D12356B740A309811A899DC
:10357000B8130CC2983098FDA899C298B811F630CB
:1035800099FDC299F5992290BDF1EDF0000000007F
:10359000E4F50C90BCF0EFF0123456E50C700475B5
:1035A0000C1022E50CB41403E4F50C22C3E4CC1394
:1035B000CD13CE13FF907812E024F7600DF8C3ED21
:1035C00013FDEE13FEEF13FFD8F422EF601A7BFF1A
:1035D0007A29798A752C008F2D12116BC2941236BC
:1035E000C7D2941236C780F422EF75F005A4907804
:1035F00022F0907822E0600E123719123719907875
:1036000022E014F080EC22E4F50C90BDF1EFF01212
:103610003456E50C7004750C1022E50CB41403E468
:10362000F50C22FF907840E03400FE8F828E83E01C
:10363000FFA3E0FEA3E0FDA3E0FC22907831E0B41C
:1036400012047403F022907831E0D3941040037494
:1036500010F02290BDF1740AF00000000090BCF060
:10366000EFF000006003E0FF222290BDF1740BF048
:103670000000000090BCF0EFF00000EDF02290BDE3
:10368000F1EDF000000000E4F50C90BCF0EFF0006C
:103690000022FF907840E03400FE8F828E83E0FFAE
:1036A000A3E0FE22E0FCA3E0FDA3E0FEA3E0FFEF29
:1036B000CCFFEECDFE2275985075878075892075F8
:1036C0008DF3D28ED299227FC87EC874032529F546
:1036D00029DEF8DFF42290784E7410F0A37400F025
:1036E000121C152290784E7410F0A37400F012177B
:1036F0007222123700907840E0FEA3E0FF0230B063
:10370000907805121B56FFFFFFFFC20A22787FE464
:10371000F6D8FD75813C0209A67F96DFFE227FFA6E
:09372000DFFE227F352222222265
:00000001FF
